:020000040800F2
:1000000000000120FD2600084D2700084D270008AC
:100010004D2700084D2700084D270008000000006C
:100020000000000000000000000000004D27000854
:100030004D270008000000004D270008ED260008AD
:100040004D2700084D2700084D2700084D270008C0
:100050004D2700084D2700084D2700084D270008B0
:100060004D2700084D2700084D2700084D270008A0
:100070004D2700084D2700084D2700084D27000890
:100080004D2700084D2700084D2700084D27000880
:100090004D2700084D2700084D2700084D27000870
:1000A0004D2700084D2700084D2700084D27000860
:1000B0004D2700084D2700084D2700084D27000850
:1000C0004D2700084D2700084D2700084D27000840
:1000D0004D2700084D2700084D2700084D27000830
:1000E0004D2700084D2700084D2700084D27000820
:1000F0004D2700084D2700084D2700084D27000810
:100100004D27000800000000000000004D270008F7
:100110004D2700084D2700084D2700084D270008EF
:100120004D2700084D2700084D2700084D270008DF
:100130004D2700084D2700080000000000000000C7
:100140004D2700084D2700084D270008000000003B
:10015000000000000000000000000000000000009F
:100160004D2700084D2700084D2700084D2700089F
:100170004D2700084D2700084D2700084D2700088F
:100180004D2700084D270008000000000000000077
:040190004D270008EF
:1001940010B5054C237833B9044B13B10448AFF3BD
:1001A40000800123237010BD040000200000000023
:1001B400982700080C4B43B10C480D4910B5AFF318
:1001C40000800C48036823B910BD0A48036833B99A
:1001D4007047094B002BF7D0BDE810401847064B79
:1001E400002BF5D0184700BF000000009827000836
:1001F40008000020040000200000000081F00041FD
:1002040002E000BF83F0004330B54FEA41044FEAF7
:10021400430594EA050F08BF90EA020F1FBF54EA92
:10022400000C55EA020C7FEA645C7FEA655C00F02E
:10023400E2804FEA5454D4EB5555B8BF6D420CDDFF
:100244002C4480EA020281EA030382EA000083EA82
:10025400010180EA020281EA0303362D88BF30BD22
:1002640011F0004F4FEA01314FF4801C4CEA113178
:1002740002D0404261EB410113F0004F4FEA0333D7
:100284004CEA133302D0524263EB430394EA050F62
:1002940000F0A780A4F10104D5F1200E0DDB02FAD1
:1002A4000EFC22FA05F2801841F1000103FA0EF265
:1002B400801843FA05F359410EE0A5F120050EF12B
:1002C400200E012A03FA0EFC28BF4CF0020C43FA5C
:1002D40005F3C01851EBE37101F0004507D54FF069
:1002E400000EDCF1000C7EEB00006EEB0101B1F5B9
:1002F400801F1BD3B1F5001F0CD349085FEA3000FF
:100304004FEA3C0C04F101044FEA445212F5800F09
:1003140080F09A80BCF1004F08BF5FEA500C50F1A6
:10032400000041EB045141EA050130BD5FEA4C0C89
:10033400404141EB010111F4801FA4F10104E9D112
:1003440091F0000F04BF01460020B1FA81F308BF09
:100354002033A3F10B03B3F120020CDA0C3208DDD5
:1003640002F1140CC2F10C0201FA0CF021FA02F1B0
:100374000CE002F11402D8BFC2F1200C01FA02F120
:1003840020FA0CFCDCBF41EA0C019040E41AA2BF45
:1003940001EB0451294330BD6FEA04041F3C1CDA0D
:1003A4000C340EDC04F11404C4F1200220FA04F02D
:1003B40001FA02F340EA030021FA04F345EA0301D7
:1003C40030BDC4F10C04C4F1200220FA02F001FA99
:1003D40004F340EA0300294630BD21FA04F029461B
:1003E40030BD94F0000F83F4801306BF81F48011B4
:1003F4000134013D4EE77FEA645C18BF7FEA655C27
:1004040029D094EA050F08BF90EA020F05D054EAF8
:10041400000C04BF1946104630BD91EA030F1EBFFD
:100424000021002030BD5FEA545C05D14000494101
:1004340028BF41F0004130BD14F580043CBF01F5F4
:10044400801130BD01F0004545F0FE4141F47001DA
:100454004FF0000030BD7FEA645C1ABF19461046B5
:100464007FEA655C1CBF0B46024650EA013406BFB6
:1004740052EA033591EA030F41F4002130BD00BF75
:1004840090F0000F04BF0021704730B54FF4806432
:1004940004F132044FF000054FF0000150E700BFB3
:1004A40090F0000F04BF0021704730B54FF4806412
:1004B40004F1320410F0004548BF40424FF00001FF
:1004C4003EE700BF42004FEAE2014FEA31014FEA42
:1004D40002701FBF12F07F4393F07F4F81F0605191
:1004E400704792F0000F14BF93F07F4F704730B500
:1004F4004FF4607401F0004521F0004120E700BF93
:1005040050EA010208BF704730B54FF000050AE019
:1005140050EA010208BF704730B511F0004502D51A
:10052400404261EB41014FF4806404F132045FEA1C
:10053400915C3FF4DCAE4FF003025FEADC0C18BFC1
:1005440003325FEADC0C18BF033202EBDC02C2F1B7
:10055400200300FA03FC20FA02F001FA03FE40EA49
:100564000E0021FA02F11444C1E600BF70B54FF049
:10057400FF0C4CF4E06C1CEA11541DBF1CEA13552B
:1005840094EA0C0F95EA0C0F00F0DEF82C4481EA93
:10059400030621EA4C5123EA4C5350EA013518BFB3
:1005A40052EA033541F4801143F4801338D0A0FBA0
:1005B40002CE4FF00005E1FB02E506F00042E0FB4D
:1005C40003E54FF00006E1FB03569CF0000F18BF53
:1005D4004EF0010EA4F1FF04B6F5007F64F54074FB
:1005E40004D25FEA4E0E6D4146EB060642EAC6218E
:1005F40041EA55514FEAC52040EA5E504FEACE2EFB
:10060400B4F1FD0C88BFBCF5E06F1ED8BEF1004FFD
:1006140008BF5FEA500E50F1000041EB045170BD79
:1006240006F0004646EA010140EA020081EA0301BD
:10063400B4EB5C04C2BFD4EB0C0541EA045170BDB9
:1006440041F480114FF0000E013C00F3AB8014F133
:10065400360FDEBF002001F0004170BDC4F100047C
:10066400203C35DA0C341BDC04F11404C4F12005FD
:1006740000FA05F320FA04F001FA05F240EA020058
:1006840001F0004221F0004110EBD37021FA04F68E
:1006940042EB06015EEA430E08BF20EAD37070BD48
:1006A400C4F10C04C4F1200500FA04F320FA05F0A7
:1006B40001FA04F240EA020001F0004110EBD370A9
:1006C40041F100015EEA430E08BF20EAD37070BD19
:1006D400C4F1200500FA05F24EEA020E20FA04F3F2
:1006E40001FA05F243EA020321FA04F001F00041A1
:1006F40021FA04F220EA020000EBD3705EEA430E12
:1007040008BF20EAD37070BD94F0000F0FD101F040
:100714000046400041EB010111F4801F08BF013C79
:10072400F7D041EA060195F0000F18BF704703F0B7
:100734000046520043EB030313F4801F08BF013D3E
:10074400F7D043EA0603704794EA0C0F0CEA1355FA
:1007540018BF95EA0C0F0CD050EA410618BF52EAB4
:100764004306D1D181EA030101F000414FF00000BA
:1007740070BD50EA410606BF1046194652EA4306C8
:1007840019D094EA0C0F02D150EA013613D195EA3C
:100794000C0F05D152EA03361CBF104619460AD184
:1007A40081EA030101F0004141F0FE4141F470018E
:1007B4004FF0000070BD41F0FE4141F4780170BD7E
:1007C40070B54FF0FF0C4CF4E06C1CEA11541DBFE3
:1007D4001CEA135594EA0C0F95EA0C0F00F0A7F8E5
:1007E400A4EB050481EA030E52EA03354FEA013112
:1007F40000F088804FEA03334FF0805545EA131325
:1008040043EA12634FEA022245EA111545EA1065EC
:100814004FEA00260EF000419D4208BF964244F183
:10082400FD0404F5407402D25B084FEA3202B61AA2
:1008340065EB03055B084FEA32024FF480104FF476
:10084400002CB6EB020E75EB030E22BFB61A7546EA
:1008540040EA0C005B084FEA3202B6EB020E75EB7D
:10086400030E22BFB61A754640EA5C005B084FEAE5
:100874003202B6EB020E75EB030E22BFB61A7546B2
:1008840040EA9C005B084FEA3202B6EB020E75EBBD
:10089400030E22BFB61A754640EADC0055EA060E7E
:1008A40018D04FEA051545EA16754FEA06164FEAC1
:1008B400C30343EA52734FEAC2025FEA1C1CC0D16D
:1008C40011F4801F0BD141EA00014FF000004FF0FA
:1008D400004CB6E711F4801F04BF01430020B4F1BB
:1008E400FD0C88BFBCF5E06F3FF6AFAEB5EB030C73
:1008F40004BFB6EB020C5FEA500C50F1000041EB70
:10090400045170BD0EF0004E4EEA113114EB5C043C
:10091400C2BFD4EB0C0541EA045170BD41F480110F
:100924004FF0000E013C90E645EA060E8DE60CEA17
:10093400135594EA0C0F08BF95EA0C0F3FF43BAF34
:1009440094EA0C0F0AD150EA01347FF434AF95EAEB
:100954000C0F7FF425AF104619462CE795EA0C0FCF
:1009640006D152EA03353FF4FDAE1046194622E79C
:1009740050EA410618BF52EA43067FF4C5AE50EA76
:1009840041047FF40DAF52EA43057FF4EBAE12E766
:100994004FF0FF3C06E000BF4FF0010C02E000BF47
:1009A4004FF0010C4DF804CD4FEA410C7FEA6C5C2A
:1009B4004FEA430C18BF7FEA6C5C1BD001B050EACD
:1009C400410C0CBF52EA430C91EA030F02BF90EAB8
:1009D400020F0020704710F1000F91EA030F58BF77
:1009E400994208BF90422CBFD8176FEAE37040F0D9
:1009F400010070474FEA410C7FEA6C5C02D150EA77
:100A0400013C07D14FEA430C7FEA6C5CD6D152EA31
:100A1400033CD3D05DF8040B704700BF84461046F6
:100A240062468C461946634600E000BF01B5FFF7F5
:100A3400B7FF002848BF10F1000F01BD4DF808EDC5
:100A4400FFF7F4FF0CBF012000205DF808FB00BF96
:100A54004DF808EDFFF7EAFF34BF012000205DF8F0
:100A640008FB00BF4DF808EDFFF7E0FF94BF01203D
:100A740000205DF808FB00BF4DF808EDFFF7CEFF3E
:100A840094BF012000205DF808FB00BF4DF808ED7D
:100A9400FFF7C4FF34BF012000205DF808FB00BF4E
:100AA4004A0011D212F5001211D20DD56FF47873E9
:100AB400B3EB62520ED44FEAC12343F0004343EA3E
:100AC400505323FA02F070474FF00000704750EA89
:100AD400013002D14FF0FF3070474FF000007047F3
:100AE40080B400AF1F4A1F4BD3F8883043F470031F
:100AF400C2F888301C4A1C4B1B6843F00103136086
:100B04001949194B5A68194B13404B60164A164B36
:100B14001B6823F0847323F480331360124A124B4E
:100B24001B6823F4802313600F4A0F4B5B6823F484
:100B3400FE0353600C4A0C4BDB6A23F00F03D362B1
:100B44000949094B1A6B0A4B13400B63064B0022ED
:100B54009A60044B4FF000629A6000BFBD465DF896
:100B6400047B704700ED00E0001002400CC07FF8E9
:100B7400CCFC00FF80B500AF084A084B1B6843F06B
:100B840010031360032000F0F1F8002000F008F8CF
:100B940001F068FD0023184680BD00BF002002401C
:100BA40080B582B000AF7860094B1B68094AA2FB8C
:100BB40003239B09184600F000F9002279684FF0DE
:100BC400FF3000F0DEF8002318460837BD4680BD2C
:100BD40000000020D34D621080B400AF044B1B68AA
:100BE4000133034A136000BFBD465DF8047B7047C0
:100BF4002000002080B400AF034B1B681846BD469C
:100C04005DF8047B704700BF2000002080B485B0ED
:100C140000AF78607B6803F00703FB600C4BDB6874
:100C2400BB60BA684FF6FF031340BB60FB681A024F
:100C3400BB68134343F0BF6343F40033BB60044A0F
:100C4400BB68D36000BF1437BD465DF8047B7047B2
:100C540000ED00E080B400AF044BDB681B0A03F036
:100C640007031846BD465DF8047B704700ED00E0BD
:100C740080B483B000AF03463960FB7197F9073045
:100C8400002B0BDA0D49FB7903F00F03043B3A68A0
:100C9400D2B21201D2B20B441A7609E0084997F98C
:100CA40007303A68D2B21201D2B20B4483F800235F
:100CB40000BF0C37BD465DF8047B704700ED00E0D3
:100CC40000E100E080B489B000AFF860B9607A60F8
:100CD400FB6803F00703FB61FB69C3F10703042B03
:100CE40028BF0423BB61FB690433062B02D9FB69CB
:100CF400033B00E000237B610122BB6902FA03F39A
:100D04005A1EBB681A407B699A4001217B6901FA2B
:100D140003F3591E7B680B40134318462437BD4622
:100D24005DF8047B7047000080B582B000AF786046
:100D34007B68013BB3F1807F01D301230FE00A4AB2
:100D44007B68013B53600F214FF0FF30FFF790FFAA
:100D5400054B00229A60044B07221A6000231846B0
:100D64000837BD4680BD00BF10E000E080B582B00A
:100D740000AF78607868FFF749FF00BF0837BD46C9
:100D840080BD80B586B000AF0346B9607A60FB735E
:100D940000237B61FFF75EFF78617A68B968786940
:100DA400FFF790FF024697F90F3011461846FFF7F8
:100DB4005FFF00BF1837BD4680BD80B582B000AF6D
:100DC40078607868FFF7B0FF034618460837BD46D9
:100DD40080BD000080B483B000AF78607B68042BD2
:100DE40006D1094A084B1B6843F00403136005E06D
:100DF400054A054B1B6823F00403136000BF0C373E
:100E0400BD465DF8047B704710E000E080B500AF9C
:100E140000F002F800BF80BD80B400AF00BFBD4643
:100E24005DF8047B7047000080B487B000AF786041
:100E3400396000237B610023FB6000233B6160E198
:100E44003B681A6801217B6901FA03F31340FB60D4
:100E5400FB68002B00F052813B685B68022B03D0D7
:100E64003B685B68122B23D17B69DA087B68083204
:100E740053F822303B617B6903F007039B000F2288
:100E840002FA03F3DB433A6913403B613B681A6996
:100E94007B6903F007039B0002FA03F33A691343E7
:100EA4003B617B69DA087B680832396943F82210B0
:100EB4007B681B683B617B695B00032202FA03F3D6
:100EC400DB433A6913403B613B685B6803F0030210
:100ED4007B695B0002FA03F33A6913433B617B6865
:100EE4003A691A603B685B68012B0BD03B685B680E
:100EF400022B07D03B685B68112B03D03B685B680F
:100F0400122B30D17B689B683B617B695B000322B9
:100F140002FA03F3DB433A6913403B613B68DA6846
:100F24007B695B0002FA03F33A6913433B617B6814
:100F34003A699A607B685B683B6101227B6902FACB
:100F440003F3DB433A6913403B613B685B681B096D
:100F540003F001027B6902FA03F33A6913433B612C
:100F64007B683A695A607B68DB683B617B695B003C
:100F7400032202FA03F3DB433A6913403B613B6803
:100F84009A687B695B0002FA03F33A6913433B6195
:100F94007B683A69DA603B685B6803F08053002B36
:100FA40000F0AC805E4A5E4B9B6943F001039361A1
:100FB4005B4B9B6903F00103BB60BB68594A7B69C7
:100FC4009B08023352F823303B617B6903F003032F
:100FD4009B000F2202FA03F3DB433A6913403B619F
:100FE4007B68B3F1904F25D07B684F4A93421FD062
:100FF4007B684E4A934219D07B684D4A934213D082
:101004007B684C4A93420DD07B684B4A934207D08D
:101014007B684A4A934201D106230CE007230AE085
:10102400052308E0042306E0032304E0022302E08E
:10103400012300E000237A6902F003029200934046
:101044003A6913433B6137497B699B0802333A6928
:1010540041F823203A4B1B683B61FB68DB433A6948
:1010640013403B613B685B6803F48033002B03D07F
:101074003A69FB6813433B61314A3B691360304B67
:101084005B683B61FB68DB433A6913403B613B6847
:101094005B6803F40033002B03D03A69FB68134305
:1010A4003B61274A3B695360254B9B683B61FB6866
:1010B400DB433A6913403B613B685B6803F480138C
:1010C400002B03D03A69FB6813433B611C4A3B691C
:1010D40093601B4BDB683B61FB68DB433A6913405D
:1010E4003B613B685B6803F40013002B03D03A694F
:1010F400FB6813433B61124A3B69D3607B6901334C
:101104007B613B681A687B6922FA03F3002B7FF446
:1011140097AE00BF1C37BD465DF8047B704700BF27
:10112400001002400000014000040048000800488C
:10113400000C004800100048001400480018004843
:101144000004014080B483B000AF78600B467B801C
:1011540013467B707B78002B03D07A887B689A6176
:1011640002E07A887B689A6200BF0C37BD465DF85E
:10117400047B704780B5ADF5007D00AF3B1D186062
:101184000023C7F8F8313B1D1B681B6803F00103FB
:10119400002B00F06081AE4B5B6803F00C03042B62
:1011A4000CD0AB4B5B6803F00C03082B59D1A84B54
:1011B4005B6803F4C033B3F5803F52D14FF400337E
:1011C400C7F8F431D7F8F43193FAA3F3C7F8F03140
:1011D400D7F8F031B3FA83F3DBB25B09DBB243F047
:1011E4000103DBB2012B02D1994B1B6815E04FF4CC
:1011F4000033C7F8EC31D7F8EC3193FAA3F3C7F80E
:10120400E8314FF40033C7F8E431D7F8E43193FA06
:10121400A3F3C7F8E0318E4B5B6A4FF40032C7F892
:10122400DC21D7F8DC2192FAA2F2C7F8D821D7F84A
:10123400D821B2FA82F252B242F0200252B2D2B2B1
:1012440002F01F02D34003F00103002B00F00281DF
:101254003B1D1B685B68002B40F0FC80012300F001
:1012640062BE3B1D1B685B68B3F5803F06D1784ABC
:10127400774B1B6843F48033136030E03B1D1B68DD
:101284005B68002B0CD1724A714B1B6823F48033CA
:1012940013606F4A6E4B1B6823F4802313601EE0B7
:1012A4003B1D1B685B68B3F5A02F0CD1684A684BE3
:1012B4001B6843F480231360654A654B1B6843F441
:1012C400803313600BE0624A614B1B6823F4803364
:1012D40013605F4A5E4B1B6823F4802313603B1D3D
:1012E4001B685B68002B59D0FFF784FCC7F8F80132
:1012F4000AE0FFF77FFC0246D7F8F831D31A642BD3
:1013040002D9032300F00FBE4FF40033C7F8D431E1
:10131400D7F8D43193FAA3F3C7F8D031D7F8D03142
:10132400B3FA83F3DBB25B09DBB243F00103DBB254
:10133400012B02D1464B1B6815E04FF40033C7F86C
:10134400CC31D7F8CC3193FAA3F3C7F8C8314FF4B2
:101354000033C7F8C431D7F8C43193FAA3F3C7F8FC
:10136400C0313B4B5B6A4FF40032C7F8BC21D7F85D
:10137400BC2192FAA2F2C7F8B821D7F8B821B2FA80
:1013840082F252B242F0200252B2D2B202F01F02F2
:10139400D34003F00103002BABD05CE0FFF72AFC41
:1013A400C7F8F8010AE0FFF725FC0246D7F8F83140
:1013B400D31A642B02D9032300F0B5BD4FF40033D4
:1013C400C7F8B431D7F8B43193FAA3F3C7F8B031FE
:1013D400D7F8B031B3FA83F3DBB25B09DBB243F085
:1013E4000103DBB2012B02D1194B1B6815E04FF44A
:1013F4000033C7F8AC31D7F8AC3193FAA3F3C7F88C
:10140400A8314FF40033C7F8A431D7F8A43193FAC4
:10141400A3F3C7F8A0310E4B5B6A4FF40032C7F850
:101424009C21D7F89C2192FAA2F2C7F89821D7F808
:101434009821B2FA82F252B242F0200252B2D2B2EF
:1014440002F01F02D34003F00103002BABD102E0F2
:101454000010024000BF3B1D1B681B6803F0020321
:10146400002B00F06E81CF4B5B6803F00C03002B64
:101474000CD0CC4B5B6803F00C03082B6DD1C94B2B
:101484005B6803F4C033B3F5004F66D10223C7F899
:101494009431D7F8943193FAA3F3C7F89031D7F87D
:1014A4009031B3FA83F3DBB25B09DBB243F001039F
:1014B400DBB2012B02D1BB4B1B6813E00223C7F83C
:1014C4008C31D7F88C3193FAA3F3C7F8883102230F
:1014D400C7F88431D7F8843193FAA3F3C7F880317D
:1014E400B04B5B6A0222C7F87C21D7F87C2192FAC0
:1014F400A2F2C7F87821D7F87821B2FA82F252B270
:1015040042F0200252B2D2B202F01F02D34003F0E2
:101514000103002B07D03B1D1B68DB68012B02D0A5
:10152400012300F000BD9F489E4B1B6823F0F80286
:101534003B1D1B681969F823C7F87431D7F8743157
:1015440093FAA3F3C7F87031D7F87031B3FA83F381
:1015540001FA03F313430360F3E03B1D1B68DB68EC
:10156400002B00F084800123C7F86C31D7F86C316C
:1015740093FAA3F3C7F86831D7F86831B3FA83F361
:101584009B0003F1844303F584031A46012313608B
:10159400FFF730FBC7F8F8010AE0FFF72BFB024620
:1015A400D7F8F831D31A022B02D9032300F0BBBCBD
:1015B4000223C7F86431D7F8643193FAA3F3C7F868
:1015C4006031D7F86031B3FA83F3DBB25B09DBB285
:1015D40043F00103DBB2012B02D1724B1B6813E011
:1015E4000223C7F85C31D7F85C3193FAA3F3C7F848
:1015F40058310223C7F85431D7F8543193FAA3F37E
:10160400C7F85031674B5B6A0222C7F84C21D7F800
:101614004C2192FAA2F2C7F84821D7F84821B2FA2D
:1016240082F252B242F0200252B2D2B202F01F024F
:10163400D34003F00103002BAFD05A48594B1B6829
:1016440023F0F8023B1D1B681969F823C7F84431DD
:10165400D7F8443193FAA3F3C7F84031D7F84031AF
:10166400B3FA83F301FA03F31343036069E001233C
:10167400C7F83C31D7F83C3193FAA3F3C7F83831B3
:10168400D7F83831B3FA83F39B0003F1844303F5AD
:1016940084031A4600231360FFF7ACFAC7F8F80175
:1016A4000AE0FFF7A7FA0246D7F8F831D31A022B5B
:1016B40002D9032300F037BC0223C7F83431D7F82A
:1016C400343193FAA3F3C7F83031D7F83031B3FA91
:1016D40083F3DBB25B09DBB243F00103DBB2012B22
:1016E40002D1304B1B6813E00223C7F82C31D7F822
:1016F4002C3193FAA3F3C7F828310223C7F8243115
:10170400D7F8243193FAA3F3C7F82031254B5B6A49
:101714000222C7F81C21D7F81C2192FAA2F2C7F8BA
:101724001821D7F81821B2FA82F252B242F02002FC
:1017340052B2D2B202F01F02D34003F00103002BD5
:10174400AFD13B1D1B681B6803F00803002B00F09E
:10175400D8803B1D1B685B69002B67D00123C7F849
:101764001431D7F8143193FAA3F3C7F81031D7F82A
:101774001031B3FA83F39B001A460B4B13441A46F9
:1017840001231360FFF736FAC7F8F8010EE0FFF7FC
:1017940031FA0246D7F8F831D31A022B06D90323BB
:1017A400C1E300BF00100240800442420223C7F894
:1017B4000C31D7F80C3193FAA3F3C7F8083102239C
:1017C400C7F80431D7F8043193FAA3F207F580730C
:1017D4001A6007F1FC0302221A6007F1FC031B687C
:1017E40093FAA3F207F1F8031A60A54B5A6A07F1BA
:1017F400F4030221196007F1F4031B6893FAA3F1BF
:1018040007F1F003196007F1F0031B68B3FA83F3DF
:101814005BB243F060035BB2DBB203F01F0322FA56
:1018240003F303F00103002BB1D06AE007F1EC03EA
:1018340001221A6007F1EC031B6893FAA3F207F183
:10184400E8031A6007F1E8031B68B3FA83F39B000B
:101854001A468C4B13441A4600231360FFF7CAF947
:10186400C7F8F80109E0FFF7C5F90246D7F8F831DF
:10187400D31A022B01D9032355E307F1E40302220F
:101884001A6007F1E4031B6893FAA3F207F1E0037B
:101894001A6007F1DC0302221A6007F1DC031B68FB
:1018A40093FAA3F207F1D8031A6007F1D4030222D2
:1018B4001A6007F1D4031B6893FAA3F207F1D0036B
:1018C4001A606F4B5A6A07F1CC030221196007F1C1
:1018D400CC031B6893FAA3F107F1C803196007F15D
:1018E400C8031B68B3FA83F35BB243F060035BB2D3
:1018F400DBB203F01F0322FA03F303F00103002B0E
:10190400B1D13B1D1B681B6803F00403002B00F0DE
:101914005781002387F8FF31594BDB6903F080536B
:10192400002B12D1564A564BDB6943F08053D361E6
:10193400534BDB6903F0805207F10C031A6007F183
:101944000C031B68012387F8FF314F4B1B6803F41A
:101954008073002B1AD14C4A4B4B1B6843F48073A1
:101964001360FFF747F9C7F8F80109E0FFF742F9F8
:101974000246D7F8F831D31A642B01D90323D2E2F3
:10198400414B1B6803F48073002BEFD03B1D1B6895
:101994009B68012B06D13A4A394B1B6A43F0010379
:1019A40013622FE03B1D1B689B68002B0CD1344A4B
:1019B400334B1B6A23F001031362314A304B1B6A19
:1019C40023F0040313621DE03B1D1B689B68052B79
:1019D4000CD12B4A2A4B1B6A43F004031362284A96
:1019E400274B1B6A43F0010313620BE0244A244B88
:1019F4001B6A23F001031362214A214B1B6A23F063
:101A0400040313623B1D1B689B68002B6AD0FFF71D
:101A1400F1F8C7F8F8010BE0FFF7ECF80246D7F845
:101A2400F831D31A41F28832934201D903237AE27E
:101A340007F1C40302221A6007F1C4031B6893FA76
:101A4400A3F207F1C0031A6007F1BC0302221A6073
:101A540007F1BC031B6893FAA3F207F1B8031A60F9
:101A640007F1B8031B68B3FA83F3DBB25B09DBB29B
:101A740043F00203DBB2022B08D1014B1B6A13E0D3
:101A840000100240800442420070004007F1B40399
:101A940002221A6007F1B4031B6893FAA3F207F158
:101AA400B0031A60BF4B5B6A07F1AC0202211160FC
:101AB40007F1AC02126892FAA2F107F1A8021160D0
:101AC40007F1A8021268B2FA82F252B242F040025E
:101AD40052B2D2B202F01F02D34003F00103002B32
:101AE4009AD063E0FFF786F8C7F8F8010BE0FFF738
:101AF40081F80246D7F8F831D31A41F2883293427A
:101B040001D903230FE207F1A40302221A6007F1AB
:101B1400A4031B6893FAA3F207F1A0031A6007F168
:101B24009C0302221A6007F19C031B6893FAA3F238
:101B340007F198031A6007F198031B68B3FA83F35B
:101B4400DBB25B09DBB243F00203DBB2022B02D14E
:101B5400944B1B6A0DE007F1940302221A6007F10B
:101B640094031B6893FAA3F207F190031A608D4B58
:101B74005B6A07F18C020221116007F18C02126882
:101B840092FAA2F107F18802116007F18802126843
:101B9400B2FA82F252B242F0400252B2D2B202F02F
:101BA4001F02D34003F00103002BA0D197F8FF31AB
:101BB400012B05D17B4A7B4BDB6923F08053D36136
:101BC4003B1D1B689B69002B00F0AC81754B5B6867
:101BD40003F00C03082B00F0A3813B1D1B689B69D9
:101BE400022B40F01C8107F184034FF080721A60CD
:101BF40007F184031B6893FAA3F207F180031A60C8
:101C040007F180031B68B3FA83F39B0003F1844359
:101C140003F584031A4600231360FEF7EBFFC7F8AD
:101C2400F80109E0FEF7E6FF0246D7F8F831D31AC7
:101C3400022B01D9032376E107F17C034FF00072F4
:101C44001A6007F17C031B6893FAA3F207F1780387
:101C54001A6007F178031B68B3FA83F3DBB25B09FC
:101C6400DBB243F00103DBB2012B02D14D4B1B6805
:101C74001BE007F174034FF000721A6007F174035C
:101C84001B6893FAA3F207F170031A6007F16C035F
:101C94004FF000721A6007F16C031B6893FAA3F209
:101CA40007F168031A603F4B5B6A07F164024FF067
:101CB4000071116007F16402126892FAA2F107F14F
:101CC4006002116007F160021268B2FA82F252B245
:101CD40042F0200252B2D2B202F01F02D34003F00B
:101CE4000103002B9ED12F492E4BDB6A23F00F02F8
:101CF4003B1D1B685B6A1343CB622A48294B5B6814
:101D040023F476123B1D1B68196A3B1D1B68DB69B3
:101D14000B431343436007F15C034FF080721A6076
:101D240007F15C031B6893FAA3F207F158031A60E6
:101D340007F158031B68B3FA83F39B0003F1844350
:101D440003F584031A4601231360FEF753FFC7F813
:101D5400F80109E0FEF74EFF0246D7F8F831D31A2E
:101D6400022B01D90323DEE007F154034FF0007284
:101D74001A6007F154031B6893FAA3F207F15003A6
:101D84001A6007F150031B68B3FA83F3DBB25B09F3
:101D9400DBB243F00103DBB2012B05D1014B1B681D
:101DA4001EE000BF0010024007F14C034FF0007228
:101DB4001A6007F14C031B6893FAA3F207F1480376
:101DC4001A6007F144034FF000721A6007F14403EC
:101DD4001B6893FAA3F207F140031A60544B5B6A41
:101DE40007F13C024FF00071116007F13C021268E8
:101DF40092FAA2F107F13802116007F13802126871
:101E0400B2FA82F252B242F0200252B2D2B202F0DC
:101E14001F02D34003F00103002B9BD082E007F1A3
:101E240034034FF080721A6007F134031B6893FA8D
:101E3400A3F207F130031A6007F130031B68B3FA09
:101E440083F39B0003F1844303F584031A460023C0
:101E54001360FEF7CFFEC7F8F80109E0FEF7CAFEEB
:101E64000246D7F8F831D31A022B01D903235AE0DA
:101E740007F12C034FF000721A6007F12C031B6862
:101E840093FAA3F207F128031A6007F128031B68E9
:101E9400B3FA83F3DBB25B09DBB243F00103DBB2D9
:101EA400012B02D1224B1B681BE007F124034FF0E6
:101EB40000721A6007F124031B6893FAA3F207F176
:101EC40020031A6007F11C034FF000721A6007F137
:101ED4001C031B6893FAA3F207F118031A60144B4E
:101EE4005B6A07F114024FF00071116007F11402EC
:101EF400126892FAA2F107F11002116007F11002C0
:101F04001268B2FA82F252B242F0200252B2D2B253
:101F140002F01F02D34003F00103002B9ED101E025
:101F2400012300E00023184607F50077BD4680BD75
:101F34000010024080B59EB000AF78603960002385
:101F44007B67A64B1B6803F007023B689A4210D2DA
:101F5400A249A24B1B6823F007023B6813430B60A2
:101F64009E4B1B6803F007023B689A4201D0012391
:101F740073E17B681B6803F00203002B08D09849C7
:101F8400974B5B6823F0F0027B689B6813434B60BC
:101F94007B681B6803F00103002B00F006817B685B
:101FA4005B68012B3CD14FF400333B673B6F93FAE2
:101FB400A3F3FB66FB6EB3FA83F3DBB25B09DBB21C
:101FC40043F00103DBB2012B02D1854B1B680FE008
:101FD4004FF40033BB66BB6E93FAA3F37B664FF4F6
:101FE40000333B663B6E93FAA3F3FB657C4B5B6A61
:101FF4004FF40032BA65BA6D92FAA2F27A657A6D3C
:10200400B2FA82F252B242F0200252B2D2B202F0DA
:102014001F02D34003F00103002B7BD101231CE1F9
:102024007B685B68022B3CD14FF000733B653B6DD2
:1020340093FAA3F3FB64FB6CB3FA83F3DBB25B099F
:10204400DBB243F00103DBB2012B02D1644B1B680A
:102054000FE04FF00073BB64BB6C93FAA3F37B6493
:102064004FF000733B643B6C93FAA3F3FB635C4B4C
:102074005B6A4FF00072BA63BA6B92FAA2F27A63A7
:102084007A6BB2FA82F252B242F0200252B2D2B267
:1020940002F01F02D34003F00103002B3AD10123C5
:1020A400DBE002233B633B6B93FAA3F3FB62FB6A23
:1020B400B3FA83F3DBB25B09DBB243F00103DBB2B7
:1020C400012B02D1464B1B680DE00223BB62BB6AA5
:1020D40093FAA3F37B6202233B623B6A93FAA3F372
:1020E400FB613F4B5B6A0222BA61BA6992FAA2F2BF
:1020F4007A617A69B2FA82F252B242F0200252B2A2
:10210400D2B202F01F02D34003F00103002B01D12D
:102114000123A2E03249324B5B6823F003027B685F
:102124005B6813434B60FEF765FD78677B685B680B
:10213400012B12D10AE0FEF75DFD02467B6FD31A34
:1021440041F28832934201D9032386E0244B5B6831
:1021540003F00C03042BEED127E07B685B68022BB1
:102164001DD10AE0FEF746FD02467B6FD31A41F209
:102174008832934201D903236FE0194B5B6803F063
:102184000C03082BEED110E0FEF734FD02467B6F02
:10219400D31A41F28832934201D903235DE0104BF4
:1021A4005B6803F00C03002BEED10C4B1B6803F0AF
:1021B40007023B689A4215D90849084B1B6823F06B
:1021C40007023B6813430B60044B1B6803F00702D0
:1021D4003B689A4206D001233FE000BF0020024042
:1021E400001002407B681B6803F00403002B08D036
:1021F4001C491C4B5B6823F4E0627B68DB68134377
:102204004B607B681B6803F00803002B09D0154959
:10221400144B5B6823F460527B681B69DB00134337
:102224004B6000F025F801460E4B5B6803F0F002AA
:10223400F0233B613B6993FAA3F3FB60FB68B3FAB9
:1022440083F322FA03F3084AD35C21FA03F3074A1F
:1022540013600020FEF7A4FC002318467837BD461F
:1022640080BD00BF00100240B0270008000000201D
:1022740080B48BB000AF0023FB610023BB6100235B
:102284007B6200237B6100233B622A4B5B68FB611A
:10229400FB6903F00C03042B02D0082B03D03FE0AE
:1022A400254B3B623FE0FB6903F470124FF470135B
:1022B400BB60BB6893FAA3F37B607B68B3FA83F3D8
:1022C40022FA03F31D4AD35C7B611A4BDB6A03F0E9
:1022D4000F020F233B613B6993FAA3F3FB60FB6896
:1022E400B3FA83F322FA03F3154AD35CBB61FB69A7
:1022F40003F48033002B08D00F4ABB69B2FBF3F31D
:102304007A6902FB03F37B6207E00B4ABB69B2FB09
:10231400F3F37A6902FB03F37B627B6A3B6202E0BC
:10232400054B3B6200BF3B6A18462C37BD465DF83F
:10233400047B70470010024000127A00C027000896
:10234400D027000880B400AF034B1B681846BD4675
:102354005DF8047B704700BF0000002090B589B091
:1023640000AFFEF707FC00F0A7F800F0F1F84FF01B
:1023740000034C4CC7E906340C23BB60B868FEF775
:102384007FF8D7E90623FEF7F1F803460C46184612
:1023940021464FF00002444BFEF712FA03460C4666
:1023A40018462146FEF77CFB03467B61BA687B69CD
:1023B400D31A3B610023FB73012204213B48FEF73F
:1023C400C1FE3B4B1B687B6000BF394B1A687B68BE
:1023D400D21A7B699A42F8D3002204213348FEF7CB
:1023E400B1FE334B1B687B6000BF314B1A687B68BE
:1023F400D21A3B699A42F8D3FB7B0133FB73FB7B14
:102404000A2BD9D14FF00002264BD7E90601FEF77B
:1024140015FB0346002B20D14FF00002254BD7E9D2
:102424000601FEF70BFB0346002B12D14FF000020E
:102434001D4BD7E90601FEF701FB0346002B04D030
:102444004FF000034FF000040AE04FF00003154C76
:1024540006E04FF00003144C02E04FF00003154C6B
:10246400C7E90634B868FEF70BF8D7E90623FEF788
:102474007DF803460C46184621464FF000020A4BED
:10248400FEF79EF903460C4618462146FEF708FB64
:1024940003467B61BA687B69D31A3B610023FB73F3
:1024A4008AE700BF0000394000005940000400489A
:1024B400200000200000494080B590B000AF022306
:1024C400BB6101237B621023BB6202233B634FF495
:1024D40000437B634FF4E013BB630023FB6307F10A
:1024E40018031846FEF746FE0346002B01D000F001
:1024F400B5F80F237B600223BB600023FB604FF41D
:1025040080633B6100237B613B1D02211846FFF77A
:1025140011FD0346002B01D000F0A0F8FFF712FFD5
:1025240002460A4BA3FB02239B091846FEF745FC0F
:102534000420FEF74FFC002200214FF0FF30FEF78D
:1025440020FC00BF4037BD4680BD00BFD34D6210A4
:1025540080B58AB000AF3D4A3C4B5B6943F400232D
:1025640053613A4B5B6903F400233B613B69374A8F
:10257400364B5B6943F480035361344B5B6903F46A
:102584008003FB60FB68314A304B5B6943F40033E2
:1025940053612E4B5B6903F40033BB60BB682B4A69
:1025A4002A4B5B6943F480235361284B5B6903F432
:1025B40080237B607B684FF400537B61244BBB61B9
:1025C4000023FB6107F1140319462248FEF72CFC93
:1025D4000C237B610223BB610023FB6100233B626C
:1025E40007237B6207F1140319464FF09040FEF76E
:1025F4001BFC20237B610123BB610023FB610023BF
:102604003B6207F1140319464FF09040FEF70CFCAF
:1026140004237B610123BB610023FB6100233B6234
:1026240007F1140319460C48FEF7FEFB0022202193
:102634004FF09040FEF786FD002204210648FEF785
:1026440081FD00BF2837BD4680BD00BF0010024099
:1026540000001210000800480004004880B400AFD5
:10266400FEE7000080B582B000AF1E4A1D4B9B6997
:1026740043F0010393611B4B9B6903F001037B60EF
:102684007B680720FEF772FB002200216FF00B002D
:10269400FEF777FB002200216FF00A00FEF771FBC2
:1026A400002200216FF00900FEF76BFB00220021DD
:1026B4006FF00400FEF765FB002200216FF00300B9
:1026C400FEF75FFB002200216FF00100FEF759FBCB
:1026D400002200214FF0FF30FEF753FB00BF083704
:1026E400BD4680BD0010024080B500AFFEF774FA0D
:1026F400FEF78CFB00BF80BDDFF834D0002103E07F
:102704000C4B5B58435004310B480C4B42189A4213
:10271400F6D30B4A02E0002342F8043B094B9A42E9
:10272400F9D3FEF7DDF900F011F8FFF717FEFEE725
:1027340000000120E8270008000000200400002019
:102744000400002024000020FEE7000070B50D4EB8
:102754000D4CA41BA4100025A54209D10B4E0C4C12
:1027640000F018F8A41BA4100025A54205D170BDE3
:1027740056F8253098470135EEE756F82530984746
:102784000135F2E7E0270008E0270008E027000809
:10279400E4270008F8B500BFF8BC08BC9E467047A3
:0C27A400F8B500BFF8BC08BC9E467047AA
:1027B00000000000000000000102030406070809F1
:1027C00002030405060708090A0B0C0D0E0F101072
:1027D0000102030405060708090A0B0C0D0E0F1071
:0427E000B901000833
:0427E4009501000853
:0427E80000127A0061
:04000005080026FDCC
:00000001FF
