ARM GAS  C:\Users\RARES~1.COV\AppData\Local\Temp\ccVm5jaa.s 			page 1


   1              		.cpu cortex-m4
   2              		.eabi_attribute 27, 1
   3              		.eabi_attribute 28, 1
   4              		.eabi_attribute 20, 1
   5              		.eabi_attribute 21, 1
   6              		.eabi_attribute 23, 3
   7              		.eabi_attribute 24, 1
   8              		.eabi_attribute 25, 1
   9              		.eabi_attribute 26, 1
  10              		.eabi_attribute 30, 6
  11              		.eabi_attribute 34, 1
  12              		.eabi_attribute 18, 4
  13              		.file	"stm32f3xx_hal.c"
  14              		.text
  15              	.Ltext0:
  16              		.cfi_sections	.debug_frame
  17              		.comm	uwTick,4,4
  18              		.section	.text.HAL_Init,"ax",%progbits
  19              		.align	1
  20              		.global	HAL_Init
  21              		.syntax unified
  22              		.thumb
  23              		.thumb_func
  24              		.fpu fpv4-sp-d16
  26              	HAL_Init:
  27              	.LFB126:
  28              		.file 1 "Drivers/STM32F3xx_HAL_Driver/Src/stm32f3xx_hal.c"
   1:Drivers/STM32F3xx_HAL_Driver/Src/stm32f3xx_hal.c **** /**
   2:Drivers/STM32F3xx_HAL_Driver/Src/stm32f3xx_hal.c ****   ******************************************************************************
   3:Drivers/STM32F3xx_HAL_Driver/Src/stm32f3xx_hal.c ****   * @file    stm32f3xx_hal.c
   4:Drivers/STM32F3xx_HAL_Driver/Src/stm32f3xx_hal.c ****   * @author  MCD Application Team
   5:Drivers/STM32F3xx_HAL_Driver/Src/stm32f3xx_hal.c ****   * @version V1.3.0
   6:Drivers/STM32F3xx_HAL_Driver/Src/stm32f3xx_hal.c ****   * @date    01-July-2016
   7:Drivers/STM32F3xx_HAL_Driver/Src/stm32f3xx_hal.c ****   * @brief   HAL module driver.
   8:Drivers/STM32F3xx_HAL_Driver/Src/stm32f3xx_hal.c ****   *          This is the common part of the HAL initialization
   9:Drivers/STM32F3xx_HAL_Driver/Src/stm32f3xx_hal.c ****   *
  10:Drivers/STM32F3xx_HAL_Driver/Src/stm32f3xx_hal.c ****   @verbatim
  11:Drivers/STM32F3xx_HAL_Driver/Src/stm32f3xx_hal.c ****   ==============================================================================
  12:Drivers/STM32F3xx_HAL_Driver/Src/stm32f3xx_hal.c ****                      ##### How to use this driver #####
  13:Drivers/STM32F3xx_HAL_Driver/Src/stm32f3xx_hal.c ****   ==============================================================================
  14:Drivers/STM32F3xx_HAL_Driver/Src/stm32f3xx_hal.c ****     [..]
  15:Drivers/STM32F3xx_HAL_Driver/Src/stm32f3xx_hal.c ****     The common HAL driver contains a set of generic and common APIs that can be
  16:Drivers/STM32F3xx_HAL_Driver/Src/stm32f3xx_hal.c ****     used by the PPP peripheral drivers and the user to start using the HAL.
  17:Drivers/STM32F3xx_HAL_Driver/Src/stm32f3xx_hal.c ****     [..]
  18:Drivers/STM32F3xx_HAL_Driver/Src/stm32f3xx_hal.c ****     The HAL contains two APIs categories:
  19:Drivers/STM32F3xx_HAL_Driver/Src/stm32f3xx_hal.c ****          (+) HAL Initialization and de-initialization functions
  20:Drivers/STM32F3xx_HAL_Driver/Src/stm32f3xx_hal.c ****          (+) HAL Control functions
  21:Drivers/STM32F3xx_HAL_Driver/Src/stm32f3xx_hal.c **** 
  22:Drivers/STM32F3xx_HAL_Driver/Src/stm32f3xx_hal.c ****   @endverbatim
  23:Drivers/STM32F3xx_HAL_Driver/Src/stm32f3xx_hal.c ****   ******************************************************************************
  24:Drivers/STM32F3xx_HAL_Driver/Src/stm32f3xx_hal.c ****   * @attention
  25:Drivers/STM32F3xx_HAL_Driver/Src/stm32f3xx_hal.c ****   *
  26:Drivers/STM32F3xx_HAL_Driver/Src/stm32f3xx_hal.c ****   * <h2><center>&copy; COPYRIGHT(c) 2016 STMicroelectronics</center></h2>
  27:Drivers/STM32F3xx_HAL_Driver/Src/stm32f3xx_hal.c ****   *
  28:Drivers/STM32F3xx_HAL_Driver/Src/stm32f3xx_hal.c ****   * Redistribution and use in source and binary forms, with or without modification,
  29:Drivers/STM32F3xx_HAL_Driver/Src/stm32f3xx_hal.c ****   * are permitted provided that the following conditions are met:
  30:Drivers/STM32F3xx_HAL_Driver/Src/stm32f3xx_hal.c ****   *   1. Redistributions of source code must retain the above copyright notice,
ARM GAS  C:\Users\RARES~1.COV\AppData\Local\Temp\ccVm5jaa.s 			page 2


  31:Drivers/STM32F3xx_HAL_Driver/Src/stm32f3xx_hal.c ****   *      this list of conditions and the following disclaimer.
  32:Drivers/STM32F3xx_HAL_Driver/Src/stm32f3xx_hal.c ****   *   2. Redistributions in binary form must reproduce the above copyright notice,
  33:Drivers/STM32F3xx_HAL_Driver/Src/stm32f3xx_hal.c ****   *      this list of conditions and the following disclaimer in the documentation
  34:Drivers/STM32F3xx_HAL_Driver/Src/stm32f3xx_hal.c ****   *      and/or other materials provided with the distribution.
  35:Drivers/STM32F3xx_HAL_Driver/Src/stm32f3xx_hal.c ****   *   3. Neither the name of STMicroelectronics nor the names of its contributors
  36:Drivers/STM32F3xx_HAL_Driver/Src/stm32f3xx_hal.c ****   *      may be used to endorse or promote products derived from this software
  37:Drivers/STM32F3xx_HAL_Driver/Src/stm32f3xx_hal.c ****   *      without specific prior written permission.
  38:Drivers/STM32F3xx_HAL_Driver/Src/stm32f3xx_hal.c ****   *
  39:Drivers/STM32F3xx_HAL_Driver/Src/stm32f3xx_hal.c ****   * THIS SOFTWARE IS PROVIDED BY THE COPYRIGHT HOLDERS AND CONTRIBUTORS "AS IS"
  40:Drivers/STM32F3xx_HAL_Driver/Src/stm32f3xx_hal.c ****   * AND ANY EXPRESS OR IMPLIED WARRANTIES, INCLUDING, BUT NOT LIMITED TO, THE
  41:Drivers/STM32F3xx_HAL_Driver/Src/stm32f3xx_hal.c ****   * IMPLIED WARRANTIES OF MERCHANTABILITY AND FITNESS FOR A PARTICULAR PURPOSE ARE
  42:Drivers/STM32F3xx_HAL_Driver/Src/stm32f3xx_hal.c ****   * DISCLAIMED. IN NO EVENT SHALL THE COPYRIGHT HOLDER OR CONTRIBUTORS BE LIABLE
  43:Drivers/STM32F3xx_HAL_Driver/Src/stm32f3xx_hal.c ****   * FOR ANY DIRECT, INDIRECT, INCIDENTAL, SPECIAL, EXEMPLARY, OR CONSEQUENTIAL
  44:Drivers/STM32F3xx_HAL_Driver/Src/stm32f3xx_hal.c ****   * DAMAGES (INCLUDING, BUT NOT LIMITED TO, PROCUREMENT OF SUBSTITUTE GOODS OR
  45:Drivers/STM32F3xx_HAL_Driver/Src/stm32f3xx_hal.c ****   * SERVICES; LOSS OF USE, DATA, OR PROFITS; OR BUSINESS INTERRUPTION) HOWEVER
  46:Drivers/STM32F3xx_HAL_Driver/Src/stm32f3xx_hal.c ****   * CAUSED AND ON ANY THEORY OF LIABILITY, WHETHER IN CONTRACT, STRICT LIABILITY,
  47:Drivers/STM32F3xx_HAL_Driver/Src/stm32f3xx_hal.c ****   * OR TORT (INCLUDING NEGLIGENCE OR OTHERWISE) ARISING IN ANY WAY OUT OF THE USE
  48:Drivers/STM32F3xx_HAL_Driver/Src/stm32f3xx_hal.c ****   * OF THIS SOFTWARE, EVEN IF ADVISED OF THE POSSIBILITY OF SUCH DAMAGE.
  49:Drivers/STM32F3xx_HAL_Driver/Src/stm32f3xx_hal.c ****   *
  50:Drivers/STM32F3xx_HAL_Driver/Src/stm32f3xx_hal.c ****   ******************************************************************************  
  51:Drivers/STM32F3xx_HAL_Driver/Src/stm32f3xx_hal.c ****   */
  52:Drivers/STM32F3xx_HAL_Driver/Src/stm32f3xx_hal.c **** 
  53:Drivers/STM32F3xx_HAL_Driver/Src/stm32f3xx_hal.c **** /* Includes ------------------------------------------------------------------*/
  54:Drivers/STM32F3xx_HAL_Driver/Src/stm32f3xx_hal.c **** #include "stm32f3xx_hal.h"
  55:Drivers/STM32F3xx_HAL_Driver/Src/stm32f3xx_hal.c **** 
  56:Drivers/STM32F3xx_HAL_Driver/Src/stm32f3xx_hal.c **** /** @addtogroup STM32F3xx_HAL_Driver
  57:Drivers/STM32F3xx_HAL_Driver/Src/stm32f3xx_hal.c ****   * @{
  58:Drivers/STM32F3xx_HAL_Driver/Src/stm32f3xx_hal.c ****   */
  59:Drivers/STM32F3xx_HAL_Driver/Src/stm32f3xx_hal.c **** 
  60:Drivers/STM32F3xx_HAL_Driver/Src/stm32f3xx_hal.c **** /** @defgroup HAL HAL
  61:Drivers/STM32F3xx_HAL_Driver/Src/stm32f3xx_hal.c ****   * @brief HAL module driver.
  62:Drivers/STM32F3xx_HAL_Driver/Src/stm32f3xx_hal.c ****   * @{
  63:Drivers/STM32F3xx_HAL_Driver/Src/stm32f3xx_hal.c ****   */
  64:Drivers/STM32F3xx_HAL_Driver/Src/stm32f3xx_hal.c **** 
  65:Drivers/STM32F3xx_HAL_Driver/Src/stm32f3xx_hal.c **** #ifdef HAL_MODULE_ENABLED
  66:Drivers/STM32F3xx_HAL_Driver/Src/stm32f3xx_hal.c **** 
  67:Drivers/STM32F3xx_HAL_Driver/Src/stm32f3xx_hal.c **** /* Private typedef -----------------------------------------------------------*/
  68:Drivers/STM32F3xx_HAL_Driver/Src/stm32f3xx_hal.c **** /* Private define ------------------------------------------------------------*/
  69:Drivers/STM32F3xx_HAL_Driver/Src/stm32f3xx_hal.c **** /** @defgroup HAL_Private Constants
  70:Drivers/STM32F3xx_HAL_Driver/Src/stm32f3xx_hal.c ****   * @{
  71:Drivers/STM32F3xx_HAL_Driver/Src/stm32f3xx_hal.c ****   */
  72:Drivers/STM32F3xx_HAL_Driver/Src/stm32f3xx_hal.c **** /**
  73:Drivers/STM32F3xx_HAL_Driver/Src/stm32f3xx_hal.c ****  * @brief STM32F3xx HAL Driver version number V1.3.0
  74:Drivers/STM32F3xx_HAL_Driver/Src/stm32f3xx_hal.c ****    */
  75:Drivers/STM32F3xx_HAL_Driver/Src/stm32f3xx_hal.c **** #define __STM32F3xx_HAL_VERSION_MAIN   (0x01) /*!< [31:24] main version */
  76:Drivers/STM32F3xx_HAL_Driver/Src/stm32f3xx_hal.c **** #define __STM32F3xx_HAL_VERSION_SUB1   (0x03) /*!< [23:16] sub1 version */
  77:Drivers/STM32F3xx_HAL_Driver/Src/stm32f3xx_hal.c **** #define __STM32F3xx_HAL_VERSION_SUB2   (0x00) /*!< [15:8]  sub2 version */
  78:Drivers/STM32F3xx_HAL_Driver/Src/stm32f3xx_hal.c **** #define __STM32F3xx_HAL_VERSION_RC     (0x00) /*!< [7:0]  release candidate */
  79:Drivers/STM32F3xx_HAL_Driver/Src/stm32f3xx_hal.c **** #define __STM32F3xx_HAL_VERSION         ((__STM32F3xx_HAL_VERSION_MAIN << 24)\
  80:Drivers/STM32F3xx_HAL_Driver/Src/stm32f3xx_hal.c ****                                         |(__STM32F3xx_HAL_VERSION_SUB1 << 16)\
  81:Drivers/STM32F3xx_HAL_Driver/Src/stm32f3xx_hal.c ****                                         |(__STM32F3xx_HAL_VERSION_SUB2 << 8 )\
  82:Drivers/STM32F3xx_HAL_Driver/Src/stm32f3xx_hal.c ****                                         |(__STM32F3xx_HAL_VERSION_RC))
  83:Drivers/STM32F3xx_HAL_Driver/Src/stm32f3xx_hal.c **** 
  84:Drivers/STM32F3xx_HAL_Driver/Src/stm32f3xx_hal.c **** #define IDCODE_DEVID_MASK    ((uint32_t)0x00000FFF)
  85:Drivers/STM32F3xx_HAL_Driver/Src/stm32f3xx_hal.c **** /**
  86:Drivers/STM32F3xx_HAL_Driver/Src/stm32f3xx_hal.c ****   * @}
  87:Drivers/STM32F3xx_HAL_Driver/Src/stm32f3xx_hal.c ****   */
ARM GAS  C:\Users\RARES~1.COV\AppData\Local\Temp\ccVm5jaa.s 			page 3


  88:Drivers/STM32F3xx_HAL_Driver/Src/stm32f3xx_hal.c ****   
  89:Drivers/STM32F3xx_HAL_Driver/Src/stm32f3xx_hal.c **** /* Private macro -------------------------------------------------------------*/
  90:Drivers/STM32F3xx_HAL_Driver/Src/stm32f3xx_hal.c **** /* Private variables ---------------------------------------------------------*/
  91:Drivers/STM32F3xx_HAL_Driver/Src/stm32f3xx_hal.c **** /** @defgroup HAL_Private_Variables HAL Private Variables
  92:Drivers/STM32F3xx_HAL_Driver/Src/stm32f3xx_hal.c ****   * @{
  93:Drivers/STM32F3xx_HAL_Driver/Src/stm32f3xx_hal.c ****   */
  94:Drivers/STM32F3xx_HAL_Driver/Src/stm32f3xx_hal.c **** __IO uint32_t uwTick;
  95:Drivers/STM32F3xx_HAL_Driver/Src/stm32f3xx_hal.c **** /**
  96:Drivers/STM32F3xx_HAL_Driver/Src/stm32f3xx_hal.c ****   * @}
  97:Drivers/STM32F3xx_HAL_Driver/Src/stm32f3xx_hal.c ****   */
  98:Drivers/STM32F3xx_HAL_Driver/Src/stm32f3xx_hal.c **** /* Private function prototypes -----------------------------------------------*/
  99:Drivers/STM32F3xx_HAL_Driver/Src/stm32f3xx_hal.c **** /* Exported functions ---------------------------------------------------------*/
 100:Drivers/STM32F3xx_HAL_Driver/Src/stm32f3xx_hal.c **** 
 101:Drivers/STM32F3xx_HAL_Driver/Src/stm32f3xx_hal.c **** /** @defgroup HAL_Exported_Functions HAL Exported Functions
 102:Drivers/STM32F3xx_HAL_Driver/Src/stm32f3xx_hal.c ****   * @{
 103:Drivers/STM32F3xx_HAL_Driver/Src/stm32f3xx_hal.c ****   */
 104:Drivers/STM32F3xx_HAL_Driver/Src/stm32f3xx_hal.c **** 
 105:Drivers/STM32F3xx_HAL_Driver/Src/stm32f3xx_hal.c **** /** @defgroup HAL_Exported_Functions_Group1 Initialization and de-initialization Functions 
 106:Drivers/STM32F3xx_HAL_Driver/Src/stm32f3xx_hal.c ****  *  @brief    Initialization and de-initialization functions
 107:Drivers/STM32F3xx_HAL_Driver/Src/stm32f3xx_hal.c ****  *
 108:Drivers/STM32F3xx_HAL_Driver/Src/stm32f3xx_hal.c **** @verbatim
 109:Drivers/STM32F3xx_HAL_Driver/Src/stm32f3xx_hal.c ****  ===============================================================================
 110:Drivers/STM32F3xx_HAL_Driver/Src/stm32f3xx_hal.c ****               ##### Initialization and de-initialization functions #####
 111:Drivers/STM32F3xx_HAL_Driver/Src/stm32f3xx_hal.c ****  ===============================================================================
 112:Drivers/STM32F3xx_HAL_Driver/Src/stm32f3xx_hal.c ****     [..]  This section provides functions allowing to:
 113:Drivers/STM32F3xx_HAL_Driver/Src/stm32f3xx_hal.c ****       (+) Initializes the Flash interface, the NVIC allocation and initial clock 
 114:Drivers/STM32F3xx_HAL_Driver/Src/stm32f3xx_hal.c ****           configuration. It initializes the source of time base also when timeout 
 115:Drivers/STM32F3xx_HAL_Driver/Src/stm32f3xx_hal.c ****           is needed and the backup domain when enabled.
 116:Drivers/STM32F3xx_HAL_Driver/Src/stm32f3xx_hal.c ****       (+) de-Initializes common part of the HAL.
 117:Drivers/STM32F3xx_HAL_Driver/Src/stm32f3xx_hal.c ****       (+) Configure The time base source to have 1ms time base with a dedicated 
 118:Drivers/STM32F3xx_HAL_Driver/Src/stm32f3xx_hal.c ****           Tick interrupt priority. 
 119:Drivers/STM32F3xx_HAL_Driver/Src/stm32f3xx_hal.c ****         (++) Systick timer is used by default as source of time base, but user 
 120:Drivers/STM32F3xx_HAL_Driver/Src/stm32f3xx_hal.c ****              can eventually implement his proper time base source (a general purpose 
 121:Drivers/STM32F3xx_HAL_Driver/Src/stm32f3xx_hal.c ****              timer for example or other time source), keeping in mind that Time base 
 122:Drivers/STM32F3xx_HAL_Driver/Src/stm32f3xx_hal.c ****              duration should be kept 1ms since PPP_TIMEOUT_VALUEs are defined and 
 123:Drivers/STM32F3xx_HAL_Driver/Src/stm32f3xx_hal.c ****              handled in milliseconds basis.
 124:Drivers/STM32F3xx_HAL_Driver/Src/stm32f3xx_hal.c ****         (++) Time base configuration function (HAL_InitTick ()) is called automatically 
 125:Drivers/STM32F3xx_HAL_Driver/Src/stm32f3xx_hal.c ****              at the beginning of the program after reset by HAL_Init() or at any time 
 126:Drivers/STM32F3xx_HAL_Driver/Src/stm32f3xx_hal.c ****              when clock is configured, by HAL_RCC_ClockConfig(). 
 127:Drivers/STM32F3xx_HAL_Driver/Src/stm32f3xx_hal.c ****         (++) Source of time base is configured  to generate interrupts at regular 
 128:Drivers/STM32F3xx_HAL_Driver/Src/stm32f3xx_hal.c ****              time intervals. Care must be taken if HAL_Delay() is called from a 
 129:Drivers/STM32F3xx_HAL_Driver/Src/stm32f3xx_hal.c ****              peripheral ISR process, the Tick interrupt line must have higher priority 
 130:Drivers/STM32F3xx_HAL_Driver/Src/stm32f3xx_hal.c ****             (numerically lower) than the peripheral interrupt. Otherwise the caller 
 131:Drivers/STM32F3xx_HAL_Driver/Src/stm32f3xx_hal.c ****             ISR process will be blocked. 
 132:Drivers/STM32F3xx_HAL_Driver/Src/stm32f3xx_hal.c ****        (++) functions affecting time base configurations are declared as __Weak  
 133:Drivers/STM32F3xx_HAL_Driver/Src/stm32f3xx_hal.c ****              to make  override possible  in case of other  implementations in user file.
 134:Drivers/STM32F3xx_HAL_Driver/Src/stm32f3xx_hal.c **** 
 135:Drivers/STM32F3xx_HAL_Driver/Src/stm32f3xx_hal.c **** @endverbatim
 136:Drivers/STM32F3xx_HAL_Driver/Src/stm32f3xx_hal.c ****   * @{
 137:Drivers/STM32F3xx_HAL_Driver/Src/stm32f3xx_hal.c ****   */
 138:Drivers/STM32F3xx_HAL_Driver/Src/stm32f3xx_hal.c **** 
 139:Drivers/STM32F3xx_HAL_Driver/Src/stm32f3xx_hal.c **** /**
 140:Drivers/STM32F3xx_HAL_Driver/Src/stm32f3xx_hal.c ****   * @brief  This function configures the Flash prefetch, 
 141:Drivers/STM32F3xx_HAL_Driver/Src/stm32f3xx_hal.c ****   *         Configures time base source, NVIC and Low level hardware
 142:Drivers/STM32F3xx_HAL_Driver/Src/stm32f3xx_hal.c ****   * @note   This function is called at the beginning of program after reset and before 
 143:Drivers/STM32F3xx_HAL_Driver/Src/stm32f3xx_hal.c ****   *         the clock configuration
 144:Drivers/STM32F3xx_HAL_Driver/Src/stm32f3xx_hal.c ****   *             
ARM GAS  C:\Users\RARES~1.COV\AppData\Local\Temp\ccVm5jaa.s 			page 4


 145:Drivers/STM32F3xx_HAL_Driver/Src/stm32f3xx_hal.c ****   * @note   The Systick configuration is based on HSI clock, as HSI is the clock
 146:Drivers/STM32F3xx_HAL_Driver/Src/stm32f3xx_hal.c ****   *         used after a system Reset and the NVIC configuration is set to Priority group 4 
 147:Drivers/STM32F3xx_HAL_Driver/Src/stm32f3xx_hal.c ****   *            
 148:Drivers/STM32F3xx_HAL_Driver/Src/stm32f3xx_hal.c ****   * @note   The time base configuration is based on MSI clock when exting from Reset.
 149:Drivers/STM32F3xx_HAL_Driver/Src/stm32f3xx_hal.c ****   *         Once done, time base tick start incrementing.
 150:Drivers/STM32F3xx_HAL_Driver/Src/stm32f3xx_hal.c ****   *         In the default implementation,Systick is used as source of time base.
 151:Drivers/STM32F3xx_HAL_Driver/Src/stm32f3xx_hal.c ****   *       The tick variable is incremented each 1ms in its ISR.
 152:Drivers/STM32F3xx_HAL_Driver/Src/stm32f3xx_hal.c ****   * @retval HAL status
 153:Drivers/STM32F3xx_HAL_Driver/Src/stm32f3xx_hal.c ****   */
 154:Drivers/STM32F3xx_HAL_Driver/Src/stm32f3xx_hal.c **** HAL_StatusTypeDef HAL_Init(void)
 155:Drivers/STM32F3xx_HAL_Driver/Src/stm32f3xx_hal.c **** {
  29              		.loc 1 155 0
  30              		.cfi_startproc
  31              		@ args = 0, pretend = 0, frame = 0
  32              		@ frame_needed = 1, uses_anonymous_args = 0
  33 0000 80B5     		push	{r7, lr}
  34              	.LCFI0:
  35              		.cfi_def_cfa_offset 8
  36              		.cfi_offset 7, -8
  37              		.cfi_offset 14, -4
  38 0002 00AF     		add	r7, sp, #0
  39              	.LCFI1:
  40              		.cfi_def_cfa_register 7
 156:Drivers/STM32F3xx_HAL_Driver/Src/stm32f3xx_hal.c ****   /* Configure Flash prefetch */
 157:Drivers/STM32F3xx_HAL_Driver/Src/stm32f3xx_hal.c **** #if (PREFETCH_ENABLE != 0)
 158:Drivers/STM32F3xx_HAL_Driver/Src/stm32f3xx_hal.c ****   __HAL_FLASH_PREFETCH_BUFFER_ENABLE();
  41              		.loc 1 158 0
  42 0004 084A     		ldr	r2, .L3
  43 0006 084B     		ldr	r3, .L3
  44 0008 1B68     		ldr	r3, [r3]
  45 000a 43F01003 		orr	r3, r3, #16
  46 000e 1360     		str	r3, [r2]
 159:Drivers/STM32F3xx_HAL_Driver/Src/stm32f3xx_hal.c **** #endif /* PREFETCH_ENABLE */
 160:Drivers/STM32F3xx_HAL_Driver/Src/stm32f3xx_hal.c **** 
 161:Drivers/STM32F3xx_HAL_Driver/Src/stm32f3xx_hal.c ****   /* Set Interrupt Group Priority */
 162:Drivers/STM32F3xx_HAL_Driver/Src/stm32f3xx_hal.c ****   HAL_NVIC_SetPriorityGrouping(NVIC_PRIORITYGROUP_4);
  47              		.loc 1 162 0
  48 0010 0320     		movs	r0, #3
  49 0012 FFF7FEFF 		bl	HAL_NVIC_SetPriorityGrouping
 163:Drivers/STM32F3xx_HAL_Driver/Src/stm32f3xx_hal.c **** 
 164:Drivers/STM32F3xx_HAL_Driver/Src/stm32f3xx_hal.c ****   /* Enable systick and configure 1ms tick (default clock after Reset is HSI) */
 165:Drivers/STM32F3xx_HAL_Driver/Src/stm32f3xx_hal.c ****   HAL_InitTick(TICK_INT_PRIORITY);
  50              		.loc 1 165 0
  51 0016 0020     		movs	r0, #0
  52 0018 FFF7FEFF 		bl	HAL_InitTick
 166:Drivers/STM32F3xx_HAL_Driver/Src/stm32f3xx_hal.c **** 
 167:Drivers/STM32F3xx_HAL_Driver/Src/stm32f3xx_hal.c ****   /* Init the low level hardware */
 168:Drivers/STM32F3xx_HAL_Driver/Src/stm32f3xx_hal.c ****   HAL_MspInit();
  53              		.loc 1 168 0
  54 001c FFF7FEFF 		bl	HAL_MspInit
 169:Drivers/STM32F3xx_HAL_Driver/Src/stm32f3xx_hal.c **** 
 170:Drivers/STM32F3xx_HAL_Driver/Src/stm32f3xx_hal.c ****   /* Return function status */
 171:Drivers/STM32F3xx_HAL_Driver/Src/stm32f3xx_hal.c ****   return HAL_OK;
  55              		.loc 1 171 0
  56 0020 0023     		movs	r3, #0
 172:Drivers/STM32F3xx_HAL_Driver/Src/stm32f3xx_hal.c **** }
  57              		.loc 1 172 0
ARM GAS  C:\Users\RARES~1.COV\AppData\Local\Temp\ccVm5jaa.s 			page 5


  58 0022 1846     		mov	r0, r3
  59 0024 80BD     		pop	{r7, pc}
  60              	.L4:
  61 0026 00BF     		.align	2
  62              	.L3:
  63 0028 00200240 		.word	1073881088
  64              		.cfi_endproc
  65              	.LFE126:
  67              		.section	.text.HAL_DeInit,"ax",%progbits
  68              		.align	1
  69              		.global	HAL_DeInit
  70              		.syntax unified
  71              		.thumb
  72              		.thumb_func
  73              		.fpu fpv4-sp-d16
  75              	HAL_DeInit:
  76              	.LFB127:
 173:Drivers/STM32F3xx_HAL_Driver/Src/stm32f3xx_hal.c **** 
 174:Drivers/STM32F3xx_HAL_Driver/Src/stm32f3xx_hal.c **** /**
 175:Drivers/STM32F3xx_HAL_Driver/Src/stm32f3xx_hal.c ****   * @brief  This function de-Initializes common part of the HAL and stops the source
 176:Drivers/STM32F3xx_HAL_Driver/Src/stm32f3xx_hal.c ****   *         of time base.
 177:Drivers/STM32F3xx_HAL_Driver/Src/stm32f3xx_hal.c ****   * @note This function is optional.
 178:Drivers/STM32F3xx_HAL_Driver/Src/stm32f3xx_hal.c ****   * @retval HAL status
 179:Drivers/STM32F3xx_HAL_Driver/Src/stm32f3xx_hal.c ****   */
 180:Drivers/STM32F3xx_HAL_Driver/Src/stm32f3xx_hal.c **** HAL_StatusTypeDef HAL_DeInit(void)
 181:Drivers/STM32F3xx_HAL_Driver/Src/stm32f3xx_hal.c **** {
  77              		.loc 1 181 0
  78              		.cfi_startproc
  79              		@ args = 0, pretend = 0, frame = 0
  80              		@ frame_needed = 1, uses_anonymous_args = 0
  81 0000 80B5     		push	{r7, lr}
  82              	.LCFI2:
  83              		.cfi_def_cfa_offset 8
  84              		.cfi_offset 7, -8
  85              		.cfi_offset 14, -4
  86 0002 00AF     		add	r7, sp, #0
  87              	.LCFI3:
  88              		.cfi_def_cfa_register 7
 182:Drivers/STM32F3xx_HAL_Driver/Src/stm32f3xx_hal.c ****   /* Reset of all peripherals */
 183:Drivers/STM32F3xx_HAL_Driver/Src/stm32f3xx_hal.c ****   __HAL_RCC_APB1_FORCE_RESET();
  89              		.loc 1 183 0
  90 0004 0C4B     		ldr	r3, .L7
  91 0006 4FF0FF32 		mov	r2, #-1
  92 000a 1A61     		str	r2, [r3, #16]
 184:Drivers/STM32F3xx_HAL_Driver/Src/stm32f3xx_hal.c ****   __HAL_RCC_APB1_RELEASE_RESET();
  93              		.loc 1 184 0
  94 000c 0A4B     		ldr	r3, .L7
  95 000e 0022     		movs	r2, #0
  96 0010 1A61     		str	r2, [r3, #16]
 185:Drivers/STM32F3xx_HAL_Driver/Src/stm32f3xx_hal.c **** 
 186:Drivers/STM32F3xx_HAL_Driver/Src/stm32f3xx_hal.c ****   __HAL_RCC_APB2_FORCE_RESET();
  97              		.loc 1 186 0
  98 0012 094B     		ldr	r3, .L7
  99 0014 4FF0FF32 		mov	r2, #-1
 100 0018 DA60     		str	r2, [r3, #12]
 187:Drivers/STM32F3xx_HAL_Driver/Src/stm32f3xx_hal.c ****   __HAL_RCC_APB2_RELEASE_RESET();
 101              		.loc 1 187 0
ARM GAS  C:\Users\RARES~1.COV\AppData\Local\Temp\ccVm5jaa.s 			page 6


 102 001a 074B     		ldr	r3, .L7
 103 001c 0022     		movs	r2, #0
 104 001e DA60     		str	r2, [r3, #12]
 188:Drivers/STM32F3xx_HAL_Driver/Src/stm32f3xx_hal.c **** 
 189:Drivers/STM32F3xx_HAL_Driver/Src/stm32f3xx_hal.c ****   __HAL_RCC_AHB_FORCE_RESET();
 105              		.loc 1 189 0
 106 0020 054B     		ldr	r3, .L7
 107 0022 4FF0FF32 		mov	r2, #-1
 108 0026 9A62     		str	r2, [r3, #40]
 190:Drivers/STM32F3xx_HAL_Driver/Src/stm32f3xx_hal.c ****   __HAL_RCC_AHB_RELEASE_RESET();
 109              		.loc 1 190 0
 110 0028 034B     		ldr	r3, .L7
 111 002a 0022     		movs	r2, #0
 112 002c 9A62     		str	r2, [r3, #40]
 191:Drivers/STM32F3xx_HAL_Driver/Src/stm32f3xx_hal.c **** 
 192:Drivers/STM32F3xx_HAL_Driver/Src/stm32f3xx_hal.c ****   /* De-Init the low level hardware */
 193:Drivers/STM32F3xx_HAL_Driver/Src/stm32f3xx_hal.c ****   HAL_MspDeInit();
 113              		.loc 1 193 0
 114 002e FFF7FEFF 		bl	HAL_MspDeInit
 194:Drivers/STM32F3xx_HAL_Driver/Src/stm32f3xx_hal.c **** 
 195:Drivers/STM32F3xx_HAL_Driver/Src/stm32f3xx_hal.c ****   /* Return function status */
 196:Drivers/STM32F3xx_HAL_Driver/Src/stm32f3xx_hal.c ****   return HAL_OK;
 115              		.loc 1 196 0
 116 0032 0023     		movs	r3, #0
 197:Drivers/STM32F3xx_HAL_Driver/Src/stm32f3xx_hal.c **** }
 117              		.loc 1 197 0
 118 0034 1846     		mov	r0, r3
 119 0036 80BD     		pop	{r7, pc}
 120              	.L8:
 121              		.align	2
 122              	.L7:
 123 0038 00100240 		.word	1073876992
 124              		.cfi_endproc
 125              	.LFE127:
 127              		.section	.text.HAL_MspInit,"ax",%progbits
 128              		.align	1
 129              		.weak	HAL_MspInit
 130              		.syntax unified
 131              		.thumb
 132              		.thumb_func
 133              		.fpu fpv4-sp-d16
 135              	HAL_MspInit:
 136              	.LFB128:
 198:Drivers/STM32F3xx_HAL_Driver/Src/stm32f3xx_hal.c **** 
 199:Drivers/STM32F3xx_HAL_Driver/Src/stm32f3xx_hal.c **** /**
 200:Drivers/STM32F3xx_HAL_Driver/Src/stm32f3xx_hal.c ****   * @brief  Initializes the MSP.
 201:Drivers/STM32F3xx_HAL_Driver/Src/stm32f3xx_hal.c ****   * @retval None
 202:Drivers/STM32F3xx_HAL_Driver/Src/stm32f3xx_hal.c ****   */
 203:Drivers/STM32F3xx_HAL_Driver/Src/stm32f3xx_hal.c **** __weak void HAL_MspInit(void)
 204:Drivers/STM32F3xx_HAL_Driver/Src/stm32f3xx_hal.c **** {
 137              		.loc 1 204 0
 138              		.cfi_startproc
 139              		@ args = 0, pretend = 0, frame = 0
 140              		@ frame_needed = 1, uses_anonymous_args = 0
 141              		@ link register save eliminated.
 142 0000 80B4     		push	{r7}
 143              	.LCFI4:
ARM GAS  C:\Users\RARES~1.COV\AppData\Local\Temp\ccVm5jaa.s 			page 7


 144              		.cfi_def_cfa_offset 4
 145              		.cfi_offset 7, -4
 146 0002 00AF     		add	r7, sp, #0
 147              	.LCFI5:
 148              		.cfi_def_cfa_register 7
 205:Drivers/STM32F3xx_HAL_Driver/Src/stm32f3xx_hal.c ****   /* NOTE : This function Should not be modified, when the callback is needed,
 206:Drivers/STM32F3xx_HAL_Driver/Src/stm32f3xx_hal.c ****             the HAL_MspInit could be implemented in the user file
 207:Drivers/STM32F3xx_HAL_Driver/Src/stm32f3xx_hal.c ****    */
 208:Drivers/STM32F3xx_HAL_Driver/Src/stm32f3xx_hal.c **** }
 149              		.loc 1 208 0
 150 0004 00BF     		nop
 151 0006 BD46     		mov	sp, r7
 152              	.LCFI6:
 153              		.cfi_def_cfa_register 13
 154              		@ sp needed
 155 0008 5DF8047B 		ldr	r7, [sp], #4
 156              	.LCFI7:
 157              		.cfi_restore 7
 158              		.cfi_def_cfa_offset 0
 159 000c 7047     		bx	lr
 160              		.cfi_endproc
 161              	.LFE128:
 163              		.section	.text.HAL_MspDeInit,"ax",%progbits
 164              		.align	1
 165              		.weak	HAL_MspDeInit
 166              		.syntax unified
 167              		.thumb
 168              		.thumb_func
 169              		.fpu fpv4-sp-d16
 171              	HAL_MspDeInit:
 172              	.LFB129:
 209:Drivers/STM32F3xx_HAL_Driver/Src/stm32f3xx_hal.c **** 
 210:Drivers/STM32F3xx_HAL_Driver/Src/stm32f3xx_hal.c **** /**
 211:Drivers/STM32F3xx_HAL_Driver/Src/stm32f3xx_hal.c ****   * @brief  DeInitializes the MSP.
 212:Drivers/STM32F3xx_HAL_Driver/Src/stm32f3xx_hal.c ****   * @retval None
 213:Drivers/STM32F3xx_HAL_Driver/Src/stm32f3xx_hal.c ****   */
 214:Drivers/STM32F3xx_HAL_Driver/Src/stm32f3xx_hal.c **** __weak void HAL_MspDeInit(void)
 215:Drivers/STM32F3xx_HAL_Driver/Src/stm32f3xx_hal.c **** {
 173              		.loc 1 215 0
 174              		.cfi_startproc
 175              		@ args = 0, pretend = 0, frame = 0
 176              		@ frame_needed = 1, uses_anonymous_args = 0
 177              		@ link register save eliminated.
 178 0000 80B4     		push	{r7}
 179              	.LCFI8:
 180              		.cfi_def_cfa_offset 4
 181              		.cfi_offset 7, -4
 182 0002 00AF     		add	r7, sp, #0
 183              	.LCFI9:
 184              		.cfi_def_cfa_register 7
 216:Drivers/STM32F3xx_HAL_Driver/Src/stm32f3xx_hal.c ****   /* NOTE : This function Should not be modified, when the callback is needed,
 217:Drivers/STM32F3xx_HAL_Driver/Src/stm32f3xx_hal.c ****             the HAL_MspDeInit could be implemented in the user file
 218:Drivers/STM32F3xx_HAL_Driver/Src/stm32f3xx_hal.c ****    */
 219:Drivers/STM32F3xx_HAL_Driver/Src/stm32f3xx_hal.c **** }
 185              		.loc 1 219 0
 186 0004 00BF     		nop
 187 0006 BD46     		mov	sp, r7
ARM GAS  C:\Users\RARES~1.COV\AppData\Local\Temp\ccVm5jaa.s 			page 8


 188              	.LCFI10:
 189              		.cfi_def_cfa_register 13
 190              		@ sp needed
 191 0008 5DF8047B 		ldr	r7, [sp], #4
 192              	.LCFI11:
 193              		.cfi_restore 7
 194              		.cfi_def_cfa_offset 0
 195 000c 7047     		bx	lr
 196              		.cfi_endproc
 197              	.LFE129:
 199              		.section	.text.HAL_InitTick,"ax",%progbits
 200              		.align	1
 201              		.weak	HAL_InitTick
 202              		.syntax unified
 203              		.thumb
 204              		.thumb_func
 205              		.fpu fpv4-sp-d16
 207              	HAL_InitTick:
 208              	.LFB130:
 220:Drivers/STM32F3xx_HAL_Driver/Src/stm32f3xx_hal.c **** 
 221:Drivers/STM32F3xx_HAL_Driver/Src/stm32f3xx_hal.c **** /**
 222:Drivers/STM32F3xx_HAL_Driver/Src/stm32f3xx_hal.c ****   * @brief  This function configures the source of the time base. 
 223:Drivers/STM32F3xx_HAL_Driver/Src/stm32f3xx_hal.c ****   *         The time source is configured  to have 1ms time base with a dedicated 
 224:Drivers/STM32F3xx_HAL_Driver/Src/stm32f3xx_hal.c ****   *         Tick interrupt priority. 
 225:Drivers/STM32F3xx_HAL_Driver/Src/stm32f3xx_hal.c ****   * @note   This function is called  automatically at the beginning of program after
 226:Drivers/STM32F3xx_HAL_Driver/Src/stm32f3xx_hal.c ****   *         reset by HAL_Init() or at any time when clock is reconfigured  by HAL_RCC_ClockConfig()
 227:Drivers/STM32F3xx_HAL_Driver/Src/stm32f3xx_hal.c ****   * @note   In the default implementation , SysTick timer is the source of time base. 
 228:Drivers/STM32F3xx_HAL_Driver/Src/stm32f3xx_hal.c ****   *         It is used to generate interrupts at regular time intervals. 
 229:Drivers/STM32F3xx_HAL_Driver/Src/stm32f3xx_hal.c ****   *         Care must be taken if HAL_Delay() is called from a peripheral ISR process, 
 230:Drivers/STM32F3xx_HAL_Driver/Src/stm32f3xx_hal.c ****   *         The the SysTick interrupt must have higher priority (numerically lower) 
 231:Drivers/STM32F3xx_HAL_Driver/Src/stm32f3xx_hal.c ****   *         than the peripheral interrupt. Otherwise the caller ISR process will be blocked.
 232:Drivers/STM32F3xx_HAL_Driver/Src/stm32f3xx_hal.c ****   *         The function is declared as __Weak  to be overwritten  in case of other
 233:Drivers/STM32F3xx_HAL_Driver/Src/stm32f3xx_hal.c ****   *         implementation  in user file.
 234:Drivers/STM32F3xx_HAL_Driver/Src/stm32f3xx_hal.c ****   * @param TickPriority: Tick interrupt priority.
 235:Drivers/STM32F3xx_HAL_Driver/Src/stm32f3xx_hal.c ****   * @retval HAL status
 236:Drivers/STM32F3xx_HAL_Driver/Src/stm32f3xx_hal.c ****   */
 237:Drivers/STM32F3xx_HAL_Driver/Src/stm32f3xx_hal.c **** __weak HAL_StatusTypeDef HAL_InitTick(uint32_t TickPriority)
 238:Drivers/STM32F3xx_HAL_Driver/Src/stm32f3xx_hal.c **** {
 209              		.loc 1 238 0
 210              		.cfi_startproc
 211              		@ args = 0, pretend = 0, frame = 8
 212              		@ frame_needed = 1, uses_anonymous_args = 0
 213 0000 80B5     		push	{r7, lr}
 214              	.LCFI12:
 215              		.cfi_def_cfa_offset 8
 216              		.cfi_offset 7, -8
 217              		.cfi_offset 14, -4
 218 0002 82B0     		sub	sp, sp, #8
 219              	.LCFI13:
 220              		.cfi_def_cfa_offset 16
 221 0004 00AF     		add	r7, sp, #0
 222              	.LCFI14:
 223              		.cfi_def_cfa_register 7
 224 0006 7860     		str	r0, [r7, #4]
 239:Drivers/STM32F3xx_HAL_Driver/Src/stm32f3xx_hal.c ****   /*Configure the SysTick to have interrupt in 1ms time basis*/
 240:Drivers/STM32F3xx_HAL_Driver/Src/stm32f3xx_hal.c ****   HAL_SYSTICK_Config(SystemCoreClock / 1000);
 225              		.loc 1 240 0
ARM GAS  C:\Users\RARES~1.COV\AppData\Local\Temp\ccVm5jaa.s 			page 9


 226 0008 094B     		ldr	r3, .L13
 227 000a 1B68     		ldr	r3, [r3]
 228 000c 094A     		ldr	r2, .L13+4
 229 000e A2FB0323 		umull	r2, r3, r2, r3
 230 0012 9B09     		lsrs	r3, r3, #6
 231 0014 1846     		mov	r0, r3
 232 0016 FFF7FEFF 		bl	HAL_SYSTICK_Config
 241:Drivers/STM32F3xx_HAL_Driver/Src/stm32f3xx_hal.c ****  
 242:Drivers/STM32F3xx_HAL_Driver/Src/stm32f3xx_hal.c ****   /*Configure the SysTick IRQ priority */
 243:Drivers/STM32F3xx_HAL_Driver/Src/stm32f3xx_hal.c ****   HAL_NVIC_SetPriority(SysTick_IRQn, TickPriority ,0);
 233              		.loc 1 243 0
 234 001a 0022     		movs	r2, #0
 235 001c 7968     		ldr	r1, [r7, #4]
 236 001e 4FF0FF30 		mov	r0, #-1
 237 0022 FFF7FEFF 		bl	HAL_NVIC_SetPriority
 244:Drivers/STM32F3xx_HAL_Driver/Src/stm32f3xx_hal.c **** 
 245:Drivers/STM32F3xx_HAL_Driver/Src/stm32f3xx_hal.c ****    /* Return function status */
 246:Drivers/STM32F3xx_HAL_Driver/Src/stm32f3xx_hal.c ****   return HAL_OK;
 238              		.loc 1 246 0
 239 0026 0023     		movs	r3, #0
 247:Drivers/STM32F3xx_HAL_Driver/Src/stm32f3xx_hal.c **** }
 240              		.loc 1 247 0
 241 0028 1846     		mov	r0, r3
 242 002a 0837     		adds	r7, r7, #8
 243              	.LCFI15:
 244              		.cfi_def_cfa_offset 8
 245 002c BD46     		mov	sp, r7
 246              	.LCFI16:
 247              		.cfi_def_cfa_register 13
 248              		@ sp needed
 249 002e 80BD     		pop	{r7, pc}
 250              	.L14:
 251              		.align	2
 252              	.L13:
 253 0030 00000000 		.word	SystemCoreClock
 254 0034 D34D6210 		.word	274877907
 255              		.cfi_endproc
 256              	.LFE130:
 258              		.section	.text.HAL_IncTick,"ax",%progbits
 259              		.align	1
 260              		.weak	HAL_IncTick
 261              		.syntax unified
 262              		.thumb
 263              		.thumb_func
 264              		.fpu fpv4-sp-d16
 266              	HAL_IncTick:
 267              	.LFB131:
 248:Drivers/STM32F3xx_HAL_Driver/Src/stm32f3xx_hal.c **** 
 249:Drivers/STM32F3xx_HAL_Driver/Src/stm32f3xx_hal.c **** /**
 250:Drivers/STM32F3xx_HAL_Driver/Src/stm32f3xx_hal.c ****   * @}
 251:Drivers/STM32F3xx_HAL_Driver/Src/stm32f3xx_hal.c ****   */
 252:Drivers/STM32F3xx_HAL_Driver/Src/stm32f3xx_hal.c **** 
 253:Drivers/STM32F3xx_HAL_Driver/Src/stm32f3xx_hal.c **** /** @defgroup HAL_Exported_Functions_Group2 HAL Control functions 
 254:Drivers/STM32F3xx_HAL_Driver/Src/stm32f3xx_hal.c ****  *  @brief    HAL Control functions
 255:Drivers/STM32F3xx_HAL_Driver/Src/stm32f3xx_hal.c ****  *
 256:Drivers/STM32F3xx_HAL_Driver/Src/stm32f3xx_hal.c **** @verbatim
 257:Drivers/STM32F3xx_HAL_Driver/Src/stm32f3xx_hal.c ****  ===============================================================================
ARM GAS  C:\Users\RARES~1.COV\AppData\Local\Temp\ccVm5jaa.s 			page 10


 258:Drivers/STM32F3xx_HAL_Driver/Src/stm32f3xx_hal.c ****                       ##### HAL Control functions #####
 259:Drivers/STM32F3xx_HAL_Driver/Src/stm32f3xx_hal.c ****  ===============================================================================
 260:Drivers/STM32F3xx_HAL_Driver/Src/stm32f3xx_hal.c ****     [..]  This section provides functions allowing to:
 261:Drivers/STM32F3xx_HAL_Driver/Src/stm32f3xx_hal.c ****       (+) Provide a tick value in millisecond
 262:Drivers/STM32F3xx_HAL_Driver/Src/stm32f3xx_hal.c ****       (+) Provide a blocking delay in millisecond
 263:Drivers/STM32F3xx_HAL_Driver/Src/stm32f3xx_hal.c ****       (+) Suspend the time base source interrupt
 264:Drivers/STM32F3xx_HAL_Driver/Src/stm32f3xx_hal.c ****       (+) Resume the time base source interrupt
 265:Drivers/STM32F3xx_HAL_Driver/Src/stm32f3xx_hal.c ****       (+) Get the HAL API driver version
 266:Drivers/STM32F3xx_HAL_Driver/Src/stm32f3xx_hal.c ****       (+) Get the device identifier
 267:Drivers/STM32F3xx_HAL_Driver/Src/stm32f3xx_hal.c ****       (+) Get the device revision identifier
 268:Drivers/STM32F3xx_HAL_Driver/Src/stm32f3xx_hal.c ****       (+) Enable/Disable Debug module during Sleep mode
 269:Drivers/STM32F3xx_HAL_Driver/Src/stm32f3xx_hal.c ****       (+) Enable/Disable Debug module during STOP mode
 270:Drivers/STM32F3xx_HAL_Driver/Src/stm32f3xx_hal.c ****       (+) Enable/Disable Debug module during STANDBY mode
 271:Drivers/STM32F3xx_HAL_Driver/Src/stm32f3xx_hal.c ****       
 272:Drivers/STM32F3xx_HAL_Driver/Src/stm32f3xx_hal.c **** @endverbatim
 273:Drivers/STM32F3xx_HAL_Driver/Src/stm32f3xx_hal.c ****   * @{
 274:Drivers/STM32F3xx_HAL_Driver/Src/stm32f3xx_hal.c ****   */
 275:Drivers/STM32F3xx_HAL_Driver/Src/stm32f3xx_hal.c **** 
 276:Drivers/STM32F3xx_HAL_Driver/Src/stm32f3xx_hal.c **** /**
 277:Drivers/STM32F3xx_HAL_Driver/Src/stm32f3xx_hal.c ****   * @brief  This function is called to increment  a global variable "uwTick"
 278:Drivers/STM32F3xx_HAL_Driver/Src/stm32f3xx_hal.c ****   *         used as application time base.
 279:Drivers/STM32F3xx_HAL_Driver/Src/stm32f3xx_hal.c ****   * @note In the default implementation, this variable is incremented each 1ms
 280:Drivers/STM32F3xx_HAL_Driver/Src/stm32f3xx_hal.c ****   *         in Systick ISR.
 281:Drivers/STM32F3xx_HAL_Driver/Src/stm32f3xx_hal.c ****   * @note This function is declared as __weak to be overwritten in case of other 
 282:Drivers/STM32F3xx_HAL_Driver/Src/stm32f3xx_hal.c ****   *         implementations  in user file.
 283:Drivers/STM32F3xx_HAL_Driver/Src/stm32f3xx_hal.c ****   * @retval None
 284:Drivers/STM32F3xx_HAL_Driver/Src/stm32f3xx_hal.c ****   */
 285:Drivers/STM32F3xx_HAL_Driver/Src/stm32f3xx_hal.c **** __weak void HAL_IncTick(void)
 286:Drivers/STM32F3xx_HAL_Driver/Src/stm32f3xx_hal.c **** {
 268              		.loc 1 286 0
 269              		.cfi_startproc
 270              		@ args = 0, pretend = 0, frame = 0
 271              		@ frame_needed = 1, uses_anonymous_args = 0
 272              		@ link register save eliminated.
 273 0000 80B4     		push	{r7}
 274              	.LCFI17:
 275              		.cfi_def_cfa_offset 4
 276              		.cfi_offset 7, -4
 277 0002 00AF     		add	r7, sp, #0
 278              	.LCFI18:
 279              		.cfi_def_cfa_register 7
 287:Drivers/STM32F3xx_HAL_Driver/Src/stm32f3xx_hal.c ****   uwTick++;
 280              		.loc 1 287 0
 281 0004 044B     		ldr	r3, .L16
 282 0006 1B68     		ldr	r3, [r3]
 283 0008 0133     		adds	r3, r3, #1
 284 000a 034A     		ldr	r2, .L16
 285 000c 1360     		str	r3, [r2]
 288:Drivers/STM32F3xx_HAL_Driver/Src/stm32f3xx_hal.c **** }
 286              		.loc 1 288 0
 287 000e 00BF     		nop
 288 0010 BD46     		mov	sp, r7
 289              	.LCFI19:
 290              		.cfi_def_cfa_register 13
 291              		@ sp needed
 292 0012 5DF8047B 		ldr	r7, [sp], #4
 293              	.LCFI20:
ARM GAS  C:\Users\RARES~1.COV\AppData\Local\Temp\ccVm5jaa.s 			page 11


 294              		.cfi_restore 7
 295              		.cfi_def_cfa_offset 0
 296 0016 7047     		bx	lr
 297              	.L17:
 298              		.align	2
 299              	.L16:
 300 0018 00000000 		.word	uwTick
 301              		.cfi_endproc
 302              	.LFE131:
 304              		.section	.text.HAL_GetTick,"ax",%progbits
 305              		.align	1
 306              		.weak	HAL_GetTick
 307              		.syntax unified
 308              		.thumb
 309              		.thumb_func
 310              		.fpu fpv4-sp-d16
 312              	HAL_GetTick:
 313              	.LFB132:
 289:Drivers/STM32F3xx_HAL_Driver/Src/stm32f3xx_hal.c **** 
 290:Drivers/STM32F3xx_HAL_Driver/Src/stm32f3xx_hal.c **** /**
 291:Drivers/STM32F3xx_HAL_Driver/Src/stm32f3xx_hal.c ****   * @brief  Povides a tick value in millisecond.
 292:Drivers/STM32F3xx_HAL_Driver/Src/stm32f3xx_hal.c ****   * @note   The function is declared as __Weak  to be overwritten  in case of other 
 293:Drivers/STM32F3xx_HAL_Driver/Src/stm32f3xx_hal.c ****   *         implementations  in user file.
 294:Drivers/STM32F3xx_HAL_Driver/Src/stm32f3xx_hal.c ****   * @retval tick value
 295:Drivers/STM32F3xx_HAL_Driver/Src/stm32f3xx_hal.c ****   */
 296:Drivers/STM32F3xx_HAL_Driver/Src/stm32f3xx_hal.c **** __weak uint32_t HAL_GetTick(void)
 297:Drivers/STM32F3xx_HAL_Driver/Src/stm32f3xx_hal.c **** {
 314              		.loc 1 297 0
 315              		.cfi_startproc
 316              		@ args = 0, pretend = 0, frame = 0
 317              		@ frame_needed = 1, uses_anonymous_args = 0
 318              		@ link register save eliminated.
 319 0000 80B4     		push	{r7}
 320              	.LCFI21:
 321              		.cfi_def_cfa_offset 4
 322              		.cfi_offset 7, -4
 323 0002 00AF     		add	r7, sp, #0
 324              	.LCFI22:
 325              		.cfi_def_cfa_register 7
 298:Drivers/STM32F3xx_HAL_Driver/Src/stm32f3xx_hal.c ****   return uwTick;  
 326              		.loc 1 298 0
 327 0004 034B     		ldr	r3, .L20
 328 0006 1B68     		ldr	r3, [r3]
 299:Drivers/STM32F3xx_HAL_Driver/Src/stm32f3xx_hal.c **** }
 329              		.loc 1 299 0
 330 0008 1846     		mov	r0, r3
 331 000a BD46     		mov	sp, r7
 332              	.LCFI23:
 333              		.cfi_def_cfa_register 13
 334              		@ sp needed
 335 000c 5DF8047B 		ldr	r7, [sp], #4
 336              	.LCFI24:
 337              		.cfi_restore 7
 338              		.cfi_def_cfa_offset 0
 339 0010 7047     		bx	lr
 340              	.L21:
 341 0012 00BF     		.align	2
ARM GAS  C:\Users\RARES~1.COV\AppData\Local\Temp\ccVm5jaa.s 			page 12


 342              	.L20:
 343 0014 00000000 		.word	uwTick
 344              		.cfi_endproc
 345              	.LFE132:
 347              		.section	.text.HAL_Delay,"ax",%progbits
 348              		.align	1
 349              		.weak	HAL_Delay
 350              		.syntax unified
 351              		.thumb
 352              		.thumb_func
 353              		.fpu fpv4-sp-d16
 355              	HAL_Delay:
 356              	.LFB133:
 300:Drivers/STM32F3xx_HAL_Driver/Src/stm32f3xx_hal.c **** 
 301:Drivers/STM32F3xx_HAL_Driver/Src/stm32f3xx_hal.c **** /**
 302:Drivers/STM32F3xx_HAL_Driver/Src/stm32f3xx_hal.c ****   * @brief  This function provides accurate delay (in milliseconds) based 
 303:Drivers/STM32F3xx_HAL_Driver/Src/stm32f3xx_hal.c ****   *         on variable incremented.
 304:Drivers/STM32F3xx_HAL_Driver/Src/stm32f3xx_hal.c ****   * @note   In the default implementation , SysTick timer is the source of time base. 
 305:Drivers/STM32F3xx_HAL_Driver/Src/stm32f3xx_hal.c ****   *         It is used to generate interrupts at regular time intervals where uwTick
 306:Drivers/STM32F3xx_HAL_Driver/Src/stm32f3xx_hal.c ****   *         is incremented.
 307:Drivers/STM32F3xx_HAL_Driver/Src/stm32f3xx_hal.c ****   *         The function is declared as __Weak  to be overwritten  in case of other
 308:Drivers/STM32F3xx_HAL_Driver/Src/stm32f3xx_hal.c ****   *         implementations  in user file.
 309:Drivers/STM32F3xx_HAL_Driver/Src/stm32f3xx_hal.c ****   * @param  Delay: specifies the delay time length, in milliseconds.
 310:Drivers/STM32F3xx_HAL_Driver/Src/stm32f3xx_hal.c ****   * @retval None
 311:Drivers/STM32F3xx_HAL_Driver/Src/stm32f3xx_hal.c ****   */
 312:Drivers/STM32F3xx_HAL_Driver/Src/stm32f3xx_hal.c **** __weak void HAL_Delay(__IO uint32_t Delay)
 313:Drivers/STM32F3xx_HAL_Driver/Src/stm32f3xx_hal.c **** {
 357              		.loc 1 313 0
 358              		.cfi_startproc
 359              		@ args = 0, pretend = 0, frame = 16
 360              		@ frame_needed = 1, uses_anonymous_args = 0
 361 0000 80B5     		push	{r7, lr}
 362              	.LCFI25:
 363              		.cfi_def_cfa_offset 8
 364              		.cfi_offset 7, -8
 365              		.cfi_offset 14, -4
 366 0002 84B0     		sub	sp, sp, #16
 367              	.LCFI26:
 368              		.cfi_def_cfa_offset 24
 369 0004 00AF     		add	r7, sp, #0
 370              	.LCFI27:
 371              		.cfi_def_cfa_register 7
 372 0006 7860     		str	r0, [r7, #4]
 314:Drivers/STM32F3xx_HAL_Driver/Src/stm32f3xx_hal.c ****   uint32_t tickstart = HAL_GetTick();
 373              		.loc 1 314 0
 374 0008 FFF7FEFF 		bl	HAL_GetTick
 375 000c F860     		str	r0, [r7, #12]
 315:Drivers/STM32F3xx_HAL_Driver/Src/stm32f3xx_hal.c ****   while((HAL_GetTick() - tickstart) < Delay)
 376              		.loc 1 315 0
 377 000e 00BF     		nop
 378              	.L23:
 379              		.loc 1 315 0 is_stmt 0 discriminator 1
 380 0010 FFF7FEFF 		bl	HAL_GetTick
 381 0014 0246     		mov	r2, r0
 382 0016 FB68     		ldr	r3, [r7, #12]
 383 0018 D21A     		subs	r2, r2, r3
 384 001a 7B68     		ldr	r3, [r7, #4]
ARM GAS  C:\Users\RARES~1.COV\AppData\Local\Temp\ccVm5jaa.s 			page 13


 385 001c 9A42     		cmp	r2, r3
 386 001e F7D3     		bcc	.L23
 316:Drivers/STM32F3xx_HAL_Driver/Src/stm32f3xx_hal.c ****   {
 317:Drivers/STM32F3xx_HAL_Driver/Src/stm32f3xx_hal.c ****   }
 318:Drivers/STM32F3xx_HAL_Driver/Src/stm32f3xx_hal.c **** }
 387              		.loc 1 318 0 is_stmt 1
 388 0020 00BF     		nop
 389 0022 1037     		adds	r7, r7, #16
 390              	.LCFI28:
 391              		.cfi_def_cfa_offset 8
 392 0024 BD46     		mov	sp, r7
 393              	.LCFI29:
 394              		.cfi_def_cfa_register 13
 395              		@ sp needed
 396 0026 80BD     		pop	{r7, pc}
 397              		.cfi_endproc
 398              	.LFE133:
 400              		.section	.text.HAL_SuspendTick,"ax",%progbits
 401              		.align	1
 402              		.weak	HAL_SuspendTick
 403              		.syntax unified
 404              		.thumb
 405              		.thumb_func
 406              		.fpu fpv4-sp-d16
 408              	HAL_SuspendTick:
 409              	.LFB134:
 319:Drivers/STM32F3xx_HAL_Driver/Src/stm32f3xx_hal.c **** 
 320:Drivers/STM32F3xx_HAL_Driver/Src/stm32f3xx_hal.c **** /**
 321:Drivers/STM32F3xx_HAL_Driver/Src/stm32f3xx_hal.c ****   * @brief  Suspend Tick increment.
 322:Drivers/STM32F3xx_HAL_Driver/Src/stm32f3xx_hal.c ****   * @note   In the default implementation , SysTick timer is the source of time base. It is  
 323:Drivers/STM32F3xx_HAL_Driver/Src/stm32f3xx_hal.c ****   *         used to generate interrupts at regular time intervals. Once HAL_SuspendTick()
 324:Drivers/STM32F3xx_HAL_Driver/Src/stm32f3xx_hal.c ****   *         is called, the the SysTick interrupt will be disabled and so Tick increment 
 325:Drivers/STM32F3xx_HAL_Driver/Src/stm32f3xx_hal.c ****   *         is suspended.
 326:Drivers/STM32F3xx_HAL_Driver/Src/stm32f3xx_hal.c ****   * @note This function is declared as __weak to be overwritten in case of other
 327:Drivers/STM32F3xx_HAL_Driver/Src/stm32f3xx_hal.c ****   *         implementations  in user file.
 328:Drivers/STM32F3xx_HAL_Driver/Src/stm32f3xx_hal.c ****   * @retval None
 329:Drivers/STM32F3xx_HAL_Driver/Src/stm32f3xx_hal.c ****   */
 330:Drivers/STM32F3xx_HAL_Driver/Src/stm32f3xx_hal.c **** __weak void HAL_SuspendTick(void)
 331:Drivers/STM32F3xx_HAL_Driver/Src/stm32f3xx_hal.c **** 
 332:Drivers/STM32F3xx_HAL_Driver/Src/stm32f3xx_hal.c **** {
 410              		.loc 1 332 0
 411              		.cfi_startproc
 412              		@ args = 0, pretend = 0, frame = 0
 413              		@ frame_needed = 1, uses_anonymous_args = 0
 414              		@ link register save eliminated.
 415 0000 80B4     		push	{r7}
 416              	.LCFI30:
 417              		.cfi_def_cfa_offset 4
 418              		.cfi_offset 7, -4
 419 0002 00AF     		add	r7, sp, #0
 420              	.LCFI31:
 421              		.cfi_def_cfa_register 7
 333:Drivers/STM32F3xx_HAL_Driver/Src/stm32f3xx_hal.c ****   /* Disable SysTick Interrupt */
 334:Drivers/STM32F3xx_HAL_Driver/Src/stm32f3xx_hal.c ****   SysTick->CTRL &= ~SysTick_CTRL_TICKINT_Msk;
 422              		.loc 1 334 0
 423 0004 054A     		ldr	r2, .L25
 424 0006 054B     		ldr	r3, .L25
ARM GAS  C:\Users\RARES~1.COV\AppData\Local\Temp\ccVm5jaa.s 			page 14


 425 0008 1B68     		ldr	r3, [r3]
 426 000a 23F00203 		bic	r3, r3, #2
 427 000e 1360     		str	r3, [r2]
 335:Drivers/STM32F3xx_HAL_Driver/Src/stm32f3xx_hal.c ****                                                    
 336:Drivers/STM32F3xx_HAL_Driver/Src/stm32f3xx_hal.c **** }
 428              		.loc 1 336 0
 429 0010 00BF     		nop
 430 0012 BD46     		mov	sp, r7
 431              	.LCFI32:
 432              		.cfi_def_cfa_register 13
 433              		@ sp needed
 434 0014 5DF8047B 		ldr	r7, [sp], #4
 435              	.LCFI33:
 436              		.cfi_restore 7
 437              		.cfi_def_cfa_offset 0
 438 0018 7047     		bx	lr
 439              	.L26:
 440 001a 00BF     		.align	2
 441              	.L25:
 442 001c 10E000E0 		.word	-536813552
 443              		.cfi_endproc
 444              	.LFE134:
 446              		.section	.text.HAL_ResumeTick,"ax",%progbits
 447              		.align	1
 448              		.weak	HAL_ResumeTick
 449              		.syntax unified
 450              		.thumb
 451              		.thumb_func
 452              		.fpu fpv4-sp-d16
 454              	HAL_ResumeTick:
 455              	.LFB135:
 337:Drivers/STM32F3xx_HAL_Driver/Src/stm32f3xx_hal.c **** 
 338:Drivers/STM32F3xx_HAL_Driver/Src/stm32f3xx_hal.c **** /**
 339:Drivers/STM32F3xx_HAL_Driver/Src/stm32f3xx_hal.c ****   * @brief  Resume Tick increment.
 340:Drivers/STM32F3xx_HAL_Driver/Src/stm32f3xx_hal.c ****   * @note   In the default implementation , SysTick timer is the source of time base. It is  
 341:Drivers/STM32F3xx_HAL_Driver/Src/stm32f3xx_hal.c ****   *         used to generate interrupts at regular time intervals. Once HAL_ResumeTick()
 342:Drivers/STM32F3xx_HAL_Driver/Src/stm32f3xx_hal.c ****   *         is called, the the SysTick interrupt will be enabled and so Tick increment 
 343:Drivers/STM32F3xx_HAL_Driver/Src/stm32f3xx_hal.c ****   *         is resumed.
 344:Drivers/STM32F3xx_HAL_Driver/Src/stm32f3xx_hal.c ****   *         The function is declared as __Weak  to be overwritten  in case of other
 345:Drivers/STM32F3xx_HAL_Driver/Src/stm32f3xx_hal.c ****   *         implementations  in user file.
 346:Drivers/STM32F3xx_HAL_Driver/Src/stm32f3xx_hal.c ****   * @retval None
 347:Drivers/STM32F3xx_HAL_Driver/Src/stm32f3xx_hal.c ****   */
 348:Drivers/STM32F3xx_HAL_Driver/Src/stm32f3xx_hal.c **** __weak void HAL_ResumeTick(void)
 349:Drivers/STM32F3xx_HAL_Driver/Src/stm32f3xx_hal.c **** {
 456              		.loc 1 349 0
 457              		.cfi_startproc
 458              		@ args = 0, pretend = 0, frame = 0
 459              		@ frame_needed = 1, uses_anonymous_args = 0
 460              		@ link register save eliminated.
 461 0000 80B4     		push	{r7}
 462              	.LCFI34:
 463              		.cfi_def_cfa_offset 4
 464              		.cfi_offset 7, -4
 465 0002 00AF     		add	r7, sp, #0
 466              	.LCFI35:
 467              		.cfi_def_cfa_register 7
 350:Drivers/STM32F3xx_HAL_Driver/Src/stm32f3xx_hal.c ****   /* Enable SysTick Interrupt */
ARM GAS  C:\Users\RARES~1.COV\AppData\Local\Temp\ccVm5jaa.s 			page 15


 351:Drivers/STM32F3xx_HAL_Driver/Src/stm32f3xx_hal.c ****   SysTick->CTRL  |= SysTick_CTRL_TICKINT_Msk;
 468              		.loc 1 351 0
 469 0004 054A     		ldr	r2, .L28
 470 0006 054B     		ldr	r3, .L28
 471 0008 1B68     		ldr	r3, [r3]
 472 000a 43F00203 		orr	r3, r3, #2
 473 000e 1360     		str	r3, [r2]
 352:Drivers/STM32F3xx_HAL_Driver/Src/stm32f3xx_hal.c ****   
 353:Drivers/STM32F3xx_HAL_Driver/Src/stm32f3xx_hal.c **** }
 474              		.loc 1 353 0
 475 0010 00BF     		nop
 476 0012 BD46     		mov	sp, r7
 477              	.LCFI36:
 478              		.cfi_def_cfa_register 13
 479              		@ sp needed
 480 0014 5DF8047B 		ldr	r7, [sp], #4
 481              	.LCFI37:
 482              		.cfi_restore 7
 483              		.cfi_def_cfa_offset 0
 484 0018 7047     		bx	lr
 485              	.L29:
 486 001a 00BF     		.align	2
 487              	.L28:
 488 001c 10E000E0 		.word	-536813552
 489              		.cfi_endproc
 490              	.LFE135:
 492              		.section	.text.HAL_GetHalVersion,"ax",%progbits
 493              		.align	1
 494              		.global	HAL_GetHalVersion
 495              		.syntax unified
 496              		.thumb
 497              		.thumb_func
 498              		.fpu fpv4-sp-d16
 500              	HAL_GetHalVersion:
 501              	.LFB136:
 354:Drivers/STM32F3xx_HAL_Driver/Src/stm32f3xx_hal.c **** 
 355:Drivers/STM32F3xx_HAL_Driver/Src/stm32f3xx_hal.c **** /**
 356:Drivers/STM32F3xx_HAL_Driver/Src/stm32f3xx_hal.c ****   * @brief  This function returns the HAL revision
 357:Drivers/STM32F3xx_HAL_Driver/Src/stm32f3xx_hal.c ****   * @retval version : 0xXYZR (8bits for each decimal, R for RC)
 358:Drivers/STM32F3xx_HAL_Driver/Src/stm32f3xx_hal.c ****   */
 359:Drivers/STM32F3xx_HAL_Driver/Src/stm32f3xx_hal.c **** uint32_t HAL_GetHalVersion(void)
 360:Drivers/STM32F3xx_HAL_Driver/Src/stm32f3xx_hal.c **** {
 502              		.loc 1 360 0
 503              		.cfi_startproc
 504              		@ args = 0, pretend = 0, frame = 0
 505              		@ frame_needed = 1, uses_anonymous_args = 0
 506              		@ link register save eliminated.
 507 0000 80B4     		push	{r7}
 508              	.LCFI38:
 509              		.cfi_def_cfa_offset 4
 510              		.cfi_offset 7, -4
 511 0002 00AF     		add	r7, sp, #0
 512              	.LCFI39:
 513              		.cfi_def_cfa_register 7
 361:Drivers/STM32F3xx_HAL_Driver/Src/stm32f3xx_hal.c ****  return __STM32F3xx_HAL_VERSION;
 514              		.loc 1 361 0
 515 0004 024B     		ldr	r3, .L32
ARM GAS  C:\Users\RARES~1.COV\AppData\Local\Temp\ccVm5jaa.s 			page 16


 362:Drivers/STM32F3xx_HAL_Driver/Src/stm32f3xx_hal.c **** }
 516              		.loc 1 362 0
 517 0006 1846     		mov	r0, r3
 518 0008 BD46     		mov	sp, r7
 519              	.LCFI40:
 520              		.cfi_def_cfa_register 13
 521              		@ sp needed
 522 000a 5DF8047B 		ldr	r7, [sp], #4
 523              	.LCFI41:
 524              		.cfi_restore 7
 525              		.cfi_def_cfa_offset 0
 526 000e 7047     		bx	lr
 527              	.L33:
 528              		.align	2
 529              	.L32:
 530 0010 00000301 		.word	16973824
 531              		.cfi_endproc
 532              	.LFE136:
 534              		.section	.text.HAL_GetREVID,"ax",%progbits
 535              		.align	1
 536              		.global	HAL_GetREVID
 537              		.syntax unified
 538              		.thumb
 539              		.thumb_func
 540              		.fpu fpv4-sp-d16
 542              	HAL_GetREVID:
 543              	.LFB137:
 363:Drivers/STM32F3xx_HAL_Driver/Src/stm32f3xx_hal.c **** 
 364:Drivers/STM32F3xx_HAL_Driver/Src/stm32f3xx_hal.c **** /**
 365:Drivers/STM32F3xx_HAL_Driver/Src/stm32f3xx_hal.c ****   * @brief  Returns the device revision identifier.
 366:Drivers/STM32F3xx_HAL_Driver/Src/stm32f3xx_hal.c ****   * @retval Device revision identifier
 367:Drivers/STM32F3xx_HAL_Driver/Src/stm32f3xx_hal.c ****   */
 368:Drivers/STM32F3xx_HAL_Driver/Src/stm32f3xx_hal.c **** uint32_t HAL_GetREVID(void)
 369:Drivers/STM32F3xx_HAL_Driver/Src/stm32f3xx_hal.c **** {
 544              		.loc 1 369 0
 545              		.cfi_startproc
 546              		@ args = 0, pretend = 0, frame = 0
 547              		@ frame_needed = 1, uses_anonymous_args = 0
 548              		@ link register save eliminated.
 549 0000 80B4     		push	{r7}
 550              	.LCFI42:
 551              		.cfi_def_cfa_offset 4
 552              		.cfi_offset 7, -4
 553 0002 00AF     		add	r7, sp, #0
 554              	.LCFI43:
 555              		.cfi_def_cfa_register 7
 370:Drivers/STM32F3xx_HAL_Driver/Src/stm32f3xx_hal.c ****   return((DBGMCU->IDCODE) >> 16);
 556              		.loc 1 370 0
 557 0004 034B     		ldr	r3, .L36
 558 0006 1B68     		ldr	r3, [r3]
 559 0008 1B0C     		lsrs	r3, r3, #16
 371:Drivers/STM32F3xx_HAL_Driver/Src/stm32f3xx_hal.c **** }
 560              		.loc 1 371 0
 561 000a 1846     		mov	r0, r3
 562 000c BD46     		mov	sp, r7
 563              	.LCFI44:
 564              		.cfi_def_cfa_register 13
ARM GAS  C:\Users\RARES~1.COV\AppData\Local\Temp\ccVm5jaa.s 			page 17


 565              		@ sp needed
 566 000e 5DF8047B 		ldr	r7, [sp], #4
 567              	.LCFI45:
 568              		.cfi_restore 7
 569              		.cfi_def_cfa_offset 0
 570 0012 7047     		bx	lr
 571              	.L37:
 572              		.align	2
 573              	.L36:
 574 0014 002004E0 		.word	-536600576
 575              		.cfi_endproc
 576              	.LFE137:
 578              		.section	.text.HAL_GetDEVID,"ax",%progbits
 579              		.align	1
 580              		.global	HAL_GetDEVID
 581              		.syntax unified
 582              		.thumb
 583              		.thumb_func
 584              		.fpu fpv4-sp-d16
 586              	HAL_GetDEVID:
 587              	.LFB138:
 372:Drivers/STM32F3xx_HAL_Driver/Src/stm32f3xx_hal.c **** 
 373:Drivers/STM32F3xx_HAL_Driver/Src/stm32f3xx_hal.c **** /**
 374:Drivers/STM32F3xx_HAL_Driver/Src/stm32f3xx_hal.c ****   * @brief  Returns the device identifier.
 375:Drivers/STM32F3xx_HAL_Driver/Src/stm32f3xx_hal.c ****   * @retval Device identifier
 376:Drivers/STM32F3xx_HAL_Driver/Src/stm32f3xx_hal.c ****   */
 377:Drivers/STM32F3xx_HAL_Driver/Src/stm32f3xx_hal.c **** uint32_t HAL_GetDEVID(void)
 378:Drivers/STM32F3xx_HAL_Driver/Src/stm32f3xx_hal.c **** {
 588              		.loc 1 378 0
 589              		.cfi_startproc
 590              		@ args = 0, pretend = 0, frame = 0
 591              		@ frame_needed = 1, uses_anonymous_args = 0
 592              		@ link register save eliminated.
 593 0000 80B4     		push	{r7}
 594              	.LCFI46:
 595              		.cfi_def_cfa_offset 4
 596              		.cfi_offset 7, -4
 597 0002 00AF     		add	r7, sp, #0
 598              	.LCFI47:
 599              		.cfi_def_cfa_register 7
 379:Drivers/STM32F3xx_HAL_Driver/Src/stm32f3xx_hal.c ****   return((DBGMCU->IDCODE) & IDCODE_DEVID_MASK);
 600              		.loc 1 379 0
 601 0004 044B     		ldr	r3, .L40
 602 0006 1B68     		ldr	r3, [r3]
 603 0008 C3F30B03 		ubfx	r3, r3, #0, #12
 380:Drivers/STM32F3xx_HAL_Driver/Src/stm32f3xx_hal.c **** }
 604              		.loc 1 380 0
 605 000c 1846     		mov	r0, r3
 606 000e BD46     		mov	sp, r7
 607              	.LCFI48:
 608              		.cfi_def_cfa_register 13
 609              		@ sp needed
 610 0010 5DF8047B 		ldr	r7, [sp], #4
 611              	.LCFI49:
 612              		.cfi_restore 7
 613              		.cfi_def_cfa_offset 0
 614 0014 7047     		bx	lr
ARM GAS  C:\Users\RARES~1.COV\AppData\Local\Temp\ccVm5jaa.s 			page 18


 615              	.L41:
 616 0016 00BF     		.align	2
 617              	.L40:
 618 0018 002004E0 		.word	-536600576
 619              		.cfi_endproc
 620              	.LFE138:
 622              		.section	.text.HAL_DBGMCU_EnableDBGSleepMode,"ax",%progbits
 623              		.align	1
 624              		.global	HAL_DBGMCU_EnableDBGSleepMode
 625              		.syntax unified
 626              		.thumb
 627              		.thumb_func
 628              		.fpu fpv4-sp-d16
 630              	HAL_DBGMCU_EnableDBGSleepMode:
 631              	.LFB139:
 381:Drivers/STM32F3xx_HAL_Driver/Src/stm32f3xx_hal.c **** 
 382:Drivers/STM32F3xx_HAL_Driver/Src/stm32f3xx_hal.c **** /**
 383:Drivers/STM32F3xx_HAL_Driver/Src/stm32f3xx_hal.c ****   * @brief  Enable the Debug Module during SLEEP mode
 384:Drivers/STM32F3xx_HAL_Driver/Src/stm32f3xx_hal.c ****   * @retval None
 385:Drivers/STM32F3xx_HAL_Driver/Src/stm32f3xx_hal.c ****   */
 386:Drivers/STM32F3xx_HAL_Driver/Src/stm32f3xx_hal.c **** void HAL_DBGMCU_EnableDBGSleepMode(void)
 387:Drivers/STM32F3xx_HAL_Driver/Src/stm32f3xx_hal.c **** {
 632              		.loc 1 387 0
 633              		.cfi_startproc
 634              		@ args = 0, pretend = 0, frame = 0
 635              		@ frame_needed = 1, uses_anonymous_args = 0
 636              		@ link register save eliminated.
 637 0000 80B4     		push	{r7}
 638              	.LCFI50:
 639              		.cfi_def_cfa_offset 4
 640              		.cfi_offset 7, -4
 641 0002 00AF     		add	r7, sp, #0
 642              	.LCFI51:
 643              		.cfi_def_cfa_register 7
 388:Drivers/STM32F3xx_HAL_Driver/Src/stm32f3xx_hal.c ****   SET_BIT(DBGMCU->CR, DBGMCU_CR_DBG_SLEEP);
 644              		.loc 1 388 0
 645 0004 054A     		ldr	r2, .L43
 646 0006 054B     		ldr	r3, .L43
 647 0008 5B68     		ldr	r3, [r3, #4]
 648 000a 43F00103 		orr	r3, r3, #1
 649 000e 5360     		str	r3, [r2, #4]
 389:Drivers/STM32F3xx_HAL_Driver/Src/stm32f3xx_hal.c **** }
 650              		.loc 1 389 0
 651 0010 00BF     		nop
 652 0012 BD46     		mov	sp, r7
 653              	.LCFI52:
 654              		.cfi_def_cfa_register 13
 655              		@ sp needed
 656 0014 5DF8047B 		ldr	r7, [sp], #4
 657              	.LCFI53:
 658              		.cfi_restore 7
 659              		.cfi_def_cfa_offset 0
 660 0018 7047     		bx	lr
 661              	.L44:
 662 001a 00BF     		.align	2
 663              	.L43:
 664 001c 002004E0 		.word	-536600576
ARM GAS  C:\Users\RARES~1.COV\AppData\Local\Temp\ccVm5jaa.s 			page 19


 665              		.cfi_endproc
 666              	.LFE139:
 668              		.section	.text.HAL_DBGMCU_DisableDBGSleepMode,"ax",%progbits
 669              		.align	1
 670              		.global	HAL_DBGMCU_DisableDBGSleepMode
 671              		.syntax unified
 672              		.thumb
 673              		.thumb_func
 674              		.fpu fpv4-sp-d16
 676              	HAL_DBGMCU_DisableDBGSleepMode:
 677              	.LFB140:
 390:Drivers/STM32F3xx_HAL_Driver/Src/stm32f3xx_hal.c **** 
 391:Drivers/STM32F3xx_HAL_Driver/Src/stm32f3xx_hal.c **** /**
 392:Drivers/STM32F3xx_HAL_Driver/Src/stm32f3xx_hal.c ****   * @brief  Disable the Debug Module during SLEEP mode
 393:Drivers/STM32F3xx_HAL_Driver/Src/stm32f3xx_hal.c ****   * @retval None
 394:Drivers/STM32F3xx_HAL_Driver/Src/stm32f3xx_hal.c ****   */
 395:Drivers/STM32F3xx_HAL_Driver/Src/stm32f3xx_hal.c **** void HAL_DBGMCU_DisableDBGSleepMode(void)
 396:Drivers/STM32F3xx_HAL_Driver/Src/stm32f3xx_hal.c **** {
 678              		.loc 1 396 0
 679              		.cfi_startproc
 680              		@ args = 0, pretend = 0, frame = 0
 681              		@ frame_needed = 1, uses_anonymous_args = 0
 682              		@ link register save eliminated.
 683 0000 80B4     		push	{r7}
 684              	.LCFI54:
 685              		.cfi_def_cfa_offset 4
 686              		.cfi_offset 7, -4
 687 0002 00AF     		add	r7, sp, #0
 688              	.LCFI55:
 689              		.cfi_def_cfa_register 7
 397:Drivers/STM32F3xx_HAL_Driver/Src/stm32f3xx_hal.c ****   CLEAR_BIT(DBGMCU->CR, DBGMCU_CR_DBG_SLEEP);
 690              		.loc 1 397 0
 691 0004 054A     		ldr	r2, .L46
 692 0006 054B     		ldr	r3, .L46
 693 0008 5B68     		ldr	r3, [r3, #4]
 694 000a 23F00103 		bic	r3, r3, #1
 695 000e 5360     		str	r3, [r2, #4]
 398:Drivers/STM32F3xx_HAL_Driver/Src/stm32f3xx_hal.c **** }
 696              		.loc 1 398 0
 697 0010 00BF     		nop
 698 0012 BD46     		mov	sp, r7
 699              	.LCFI56:
 700              		.cfi_def_cfa_register 13
 701              		@ sp needed
 702 0014 5DF8047B 		ldr	r7, [sp], #4
 703              	.LCFI57:
 704              		.cfi_restore 7
 705              		.cfi_def_cfa_offset 0
 706 0018 7047     		bx	lr
 707              	.L47:
 708 001a 00BF     		.align	2
 709              	.L46:
 710 001c 002004E0 		.word	-536600576
 711              		.cfi_endproc
 712              	.LFE140:
 714              		.section	.text.HAL_DBGMCU_EnableDBGStopMode,"ax",%progbits
 715              		.align	1
ARM GAS  C:\Users\RARES~1.COV\AppData\Local\Temp\ccVm5jaa.s 			page 20


 716              		.global	HAL_DBGMCU_EnableDBGStopMode
 717              		.syntax unified
 718              		.thumb
 719              		.thumb_func
 720              		.fpu fpv4-sp-d16
 722              	HAL_DBGMCU_EnableDBGStopMode:
 723              	.LFB141:
 399:Drivers/STM32F3xx_HAL_Driver/Src/stm32f3xx_hal.c **** 
 400:Drivers/STM32F3xx_HAL_Driver/Src/stm32f3xx_hal.c **** /**
 401:Drivers/STM32F3xx_HAL_Driver/Src/stm32f3xx_hal.c ****   * @brief  Enable the Debug Module during STOP mode
 402:Drivers/STM32F3xx_HAL_Driver/Src/stm32f3xx_hal.c ****   * @retval None
 403:Drivers/STM32F3xx_HAL_Driver/Src/stm32f3xx_hal.c ****   */
 404:Drivers/STM32F3xx_HAL_Driver/Src/stm32f3xx_hal.c **** void HAL_DBGMCU_EnableDBGStopMode(void)
 405:Drivers/STM32F3xx_HAL_Driver/Src/stm32f3xx_hal.c **** {
 724              		.loc 1 405 0
 725              		.cfi_startproc
 726              		@ args = 0, pretend = 0, frame = 0
 727              		@ frame_needed = 1, uses_anonymous_args = 0
 728              		@ link register save eliminated.
 729 0000 80B4     		push	{r7}
 730              	.LCFI58:
 731              		.cfi_def_cfa_offset 4
 732              		.cfi_offset 7, -4
 733 0002 00AF     		add	r7, sp, #0
 734              	.LCFI59:
 735              		.cfi_def_cfa_register 7
 406:Drivers/STM32F3xx_HAL_Driver/Src/stm32f3xx_hal.c ****   SET_BIT(DBGMCU->CR, DBGMCU_CR_DBG_STOP);
 736              		.loc 1 406 0
 737 0004 054A     		ldr	r2, .L49
 738 0006 054B     		ldr	r3, .L49
 739 0008 5B68     		ldr	r3, [r3, #4]
 740 000a 43F00203 		orr	r3, r3, #2
 741 000e 5360     		str	r3, [r2, #4]
 407:Drivers/STM32F3xx_HAL_Driver/Src/stm32f3xx_hal.c **** }
 742              		.loc 1 407 0
 743 0010 00BF     		nop
 744 0012 BD46     		mov	sp, r7
 745              	.LCFI60:
 746              		.cfi_def_cfa_register 13
 747              		@ sp needed
 748 0014 5DF8047B 		ldr	r7, [sp], #4
 749              	.LCFI61:
 750              		.cfi_restore 7
 751              		.cfi_def_cfa_offset 0
 752 0018 7047     		bx	lr
 753              	.L50:
 754 001a 00BF     		.align	2
 755              	.L49:
 756 001c 002004E0 		.word	-536600576
 757              		.cfi_endproc
 758              	.LFE141:
 760              		.section	.text.HAL_DBGMCU_DisableDBGStopMode,"ax",%progbits
 761              		.align	1
 762              		.global	HAL_DBGMCU_DisableDBGStopMode
 763              		.syntax unified
 764              		.thumb
 765              		.thumb_func
ARM GAS  C:\Users\RARES~1.COV\AppData\Local\Temp\ccVm5jaa.s 			page 21


 766              		.fpu fpv4-sp-d16
 768              	HAL_DBGMCU_DisableDBGStopMode:
 769              	.LFB142:
 408:Drivers/STM32F3xx_HAL_Driver/Src/stm32f3xx_hal.c **** 
 409:Drivers/STM32F3xx_HAL_Driver/Src/stm32f3xx_hal.c **** /**
 410:Drivers/STM32F3xx_HAL_Driver/Src/stm32f3xx_hal.c ****   * @brief  Disable the Debug Module during STOP mode
 411:Drivers/STM32F3xx_HAL_Driver/Src/stm32f3xx_hal.c ****   * @retval None
 412:Drivers/STM32F3xx_HAL_Driver/Src/stm32f3xx_hal.c ****   */
 413:Drivers/STM32F3xx_HAL_Driver/Src/stm32f3xx_hal.c **** void HAL_DBGMCU_DisableDBGStopMode(void)
 414:Drivers/STM32F3xx_HAL_Driver/Src/stm32f3xx_hal.c **** {
 770              		.loc 1 414 0
 771              		.cfi_startproc
 772              		@ args = 0, pretend = 0, frame = 0
 773              		@ frame_needed = 1, uses_anonymous_args = 0
 774              		@ link register save eliminated.
 775 0000 80B4     		push	{r7}
 776              	.LCFI62:
 777              		.cfi_def_cfa_offset 4
 778              		.cfi_offset 7, -4
 779 0002 00AF     		add	r7, sp, #0
 780              	.LCFI63:
 781              		.cfi_def_cfa_register 7
 415:Drivers/STM32F3xx_HAL_Driver/Src/stm32f3xx_hal.c ****   CLEAR_BIT(DBGMCU->CR, DBGMCU_CR_DBG_STOP);
 782              		.loc 1 415 0
 783 0004 054A     		ldr	r2, .L52
 784 0006 054B     		ldr	r3, .L52
 785 0008 5B68     		ldr	r3, [r3, #4]
 786 000a 23F00203 		bic	r3, r3, #2
 787 000e 5360     		str	r3, [r2, #4]
 416:Drivers/STM32F3xx_HAL_Driver/Src/stm32f3xx_hal.c **** }
 788              		.loc 1 416 0
 789 0010 00BF     		nop
 790 0012 BD46     		mov	sp, r7
 791              	.LCFI64:
 792              		.cfi_def_cfa_register 13
 793              		@ sp needed
 794 0014 5DF8047B 		ldr	r7, [sp], #4
 795              	.LCFI65:
 796              		.cfi_restore 7
 797              		.cfi_def_cfa_offset 0
 798 0018 7047     		bx	lr
 799              	.L53:
 800 001a 00BF     		.align	2
 801              	.L52:
 802 001c 002004E0 		.word	-536600576
 803              		.cfi_endproc
 804              	.LFE142:
 806              		.section	.text.HAL_DBGMCU_EnableDBGStandbyMode,"ax",%progbits
 807              		.align	1
 808              		.global	HAL_DBGMCU_EnableDBGStandbyMode
 809              		.syntax unified
 810              		.thumb
 811              		.thumb_func
 812              		.fpu fpv4-sp-d16
 814              	HAL_DBGMCU_EnableDBGStandbyMode:
 815              	.LFB143:
 417:Drivers/STM32F3xx_HAL_Driver/Src/stm32f3xx_hal.c **** 
ARM GAS  C:\Users\RARES~1.COV\AppData\Local\Temp\ccVm5jaa.s 			page 22


 418:Drivers/STM32F3xx_HAL_Driver/Src/stm32f3xx_hal.c **** /**
 419:Drivers/STM32F3xx_HAL_Driver/Src/stm32f3xx_hal.c ****   * @brief  Enable the Debug Module during STANDBY mode
 420:Drivers/STM32F3xx_HAL_Driver/Src/stm32f3xx_hal.c ****   * @retval None
 421:Drivers/STM32F3xx_HAL_Driver/Src/stm32f3xx_hal.c ****   */
 422:Drivers/STM32F3xx_HAL_Driver/Src/stm32f3xx_hal.c **** void HAL_DBGMCU_EnableDBGStandbyMode(void)
 423:Drivers/STM32F3xx_HAL_Driver/Src/stm32f3xx_hal.c **** {
 816              		.loc 1 423 0
 817              		.cfi_startproc
 818              		@ args = 0, pretend = 0, frame = 0
 819              		@ frame_needed = 1, uses_anonymous_args = 0
 820              		@ link register save eliminated.
 821 0000 80B4     		push	{r7}
 822              	.LCFI66:
 823              		.cfi_def_cfa_offset 4
 824              		.cfi_offset 7, -4
 825 0002 00AF     		add	r7, sp, #0
 826              	.LCFI67:
 827              		.cfi_def_cfa_register 7
 424:Drivers/STM32F3xx_HAL_Driver/Src/stm32f3xx_hal.c ****   SET_BIT(DBGMCU->CR, DBGMCU_CR_DBG_STANDBY);
 828              		.loc 1 424 0
 829 0004 054A     		ldr	r2, .L55
 830 0006 054B     		ldr	r3, .L55
 831 0008 5B68     		ldr	r3, [r3, #4]
 832 000a 43F00403 		orr	r3, r3, #4
 833 000e 5360     		str	r3, [r2, #4]
 425:Drivers/STM32F3xx_HAL_Driver/Src/stm32f3xx_hal.c **** }
 834              		.loc 1 425 0
 835 0010 00BF     		nop
 836 0012 BD46     		mov	sp, r7
 837              	.LCFI68:
 838              		.cfi_def_cfa_register 13
 839              		@ sp needed
 840 0014 5DF8047B 		ldr	r7, [sp], #4
 841              	.LCFI69:
 842              		.cfi_restore 7
 843              		.cfi_def_cfa_offset 0
 844 0018 7047     		bx	lr
 845              	.L56:
 846 001a 00BF     		.align	2
 847              	.L55:
 848 001c 002004E0 		.word	-536600576
 849              		.cfi_endproc
 850              	.LFE143:
 852              		.section	.text.HAL_DBGMCU_DisableDBGStandbyMode,"ax",%progbits
 853              		.align	1
 854              		.global	HAL_DBGMCU_DisableDBGStandbyMode
 855              		.syntax unified
 856              		.thumb
 857              		.thumb_func
 858              		.fpu fpv4-sp-d16
 860              	HAL_DBGMCU_DisableDBGStandbyMode:
 861              	.LFB144:
 426:Drivers/STM32F3xx_HAL_Driver/Src/stm32f3xx_hal.c **** 
 427:Drivers/STM32F3xx_HAL_Driver/Src/stm32f3xx_hal.c **** /**
 428:Drivers/STM32F3xx_HAL_Driver/Src/stm32f3xx_hal.c ****   * @brief  Disable the Debug Module during STANDBY mode
 429:Drivers/STM32F3xx_HAL_Driver/Src/stm32f3xx_hal.c ****   * @retval None
 430:Drivers/STM32F3xx_HAL_Driver/Src/stm32f3xx_hal.c ****   */
ARM GAS  C:\Users\RARES~1.COV\AppData\Local\Temp\ccVm5jaa.s 			page 23


 431:Drivers/STM32F3xx_HAL_Driver/Src/stm32f3xx_hal.c **** void HAL_DBGMCU_DisableDBGStandbyMode(void)
 432:Drivers/STM32F3xx_HAL_Driver/Src/stm32f3xx_hal.c **** {
 862              		.loc 1 432 0
 863              		.cfi_startproc
 864              		@ args = 0, pretend = 0, frame = 0
 865              		@ frame_needed = 1, uses_anonymous_args = 0
 866              		@ link register save eliminated.
 867 0000 80B4     		push	{r7}
 868              	.LCFI70:
 869              		.cfi_def_cfa_offset 4
 870              		.cfi_offset 7, -4
 871 0002 00AF     		add	r7, sp, #0
 872              	.LCFI71:
 873              		.cfi_def_cfa_register 7
 433:Drivers/STM32F3xx_HAL_Driver/Src/stm32f3xx_hal.c ****   CLEAR_BIT(DBGMCU->CR, DBGMCU_CR_DBG_STANDBY);
 874              		.loc 1 433 0
 875 0004 054A     		ldr	r2, .L58
 876 0006 054B     		ldr	r3, .L58
 877 0008 5B68     		ldr	r3, [r3, #4]
 878 000a 23F00403 		bic	r3, r3, #4
 879 000e 5360     		str	r3, [r2, #4]
 434:Drivers/STM32F3xx_HAL_Driver/Src/stm32f3xx_hal.c **** }
 880              		.loc 1 434 0
 881 0010 00BF     		nop
 882 0012 BD46     		mov	sp, r7
 883              	.LCFI72:
 884              		.cfi_def_cfa_register 13
 885              		@ sp needed
 886 0014 5DF8047B 		ldr	r7, [sp], #4
 887              	.LCFI73:
 888              		.cfi_restore 7
 889              		.cfi_def_cfa_offset 0
 890 0018 7047     		bx	lr
 891              	.L59:
 892 001a 00BF     		.align	2
 893              	.L58:
 894 001c 002004E0 		.word	-536600576
 895              		.cfi_endproc
 896              	.LFE144:
 898              		.text
 899              	.Letext0:
 900              		.file 2 "c:\\program files (x86)\\gnu tools arm embedded\\6 2017-q1-update\\arm-none-eabi\\include
 901              		.file 3 "c:\\program files (x86)\\gnu tools arm embedded\\6 2017-q1-update\\arm-none-eabi\\include
 902              		.file 4 "Drivers/CMSIS/Include/core_cm4.h"
 903              		.file 5 "Drivers/CMSIS/Device/ST/STM32F3xx/Include/system_stm32f3xx.h"
 904              		.file 6 "Drivers/CMSIS/Device/ST/STM32F3xx/Include/stm32f303xe.h"
 905              		.file 7 "c:\\program files (x86)\\gnu tools arm embedded\\6 2017-q1-update\\arm-none-eabi\\include
 906              		.file 8 "c:\\program files (x86)\\gnu tools arm embedded\\6 2017-q1-update\\arm-none-eabi\\include
 907              		.file 9 "c:\\program files (x86)\\gnu tools arm embedded\\6 2017-q1-update\\lib\\gcc\\arm-none-eab
 908              		.file 10 "c:\\program files (x86)\\gnu tools arm embedded\\6 2017-q1-update\\arm-none-eabi\\includ
 909              		.file 11 "Drivers/STM32F3xx_HAL_Driver/Inc/stm32f3xx_hal_def.h"
ARM GAS  C:\Users\RARES~1.COV\AppData\Local\Temp\ccVm5jaa.s 			page 24


DEFINED SYMBOLS
                            *ABS*:00000000 stm32f3xx_hal.c
                            *COM*:00000004 uwTick
C:\Users\RARES~1.COV\AppData\Local\Temp\ccVm5jaa.s:19     .text.HAL_Init:00000000 $t
C:\Users\RARES~1.COV\AppData\Local\Temp\ccVm5jaa.s:26     .text.HAL_Init:00000000 HAL_Init
C:\Users\RARES~1.COV\AppData\Local\Temp\ccVm5jaa.s:207    .text.HAL_InitTick:00000000 HAL_InitTick
C:\Users\RARES~1.COV\AppData\Local\Temp\ccVm5jaa.s:135    .text.HAL_MspInit:00000000 HAL_MspInit
C:\Users\RARES~1.COV\AppData\Local\Temp\ccVm5jaa.s:63     .text.HAL_Init:00000028 $d
C:\Users\RARES~1.COV\AppData\Local\Temp\ccVm5jaa.s:68     .text.HAL_DeInit:00000000 $t
C:\Users\RARES~1.COV\AppData\Local\Temp\ccVm5jaa.s:75     .text.HAL_DeInit:00000000 HAL_DeInit
C:\Users\RARES~1.COV\AppData\Local\Temp\ccVm5jaa.s:171    .text.HAL_MspDeInit:00000000 HAL_MspDeInit
C:\Users\RARES~1.COV\AppData\Local\Temp\ccVm5jaa.s:123    .text.HAL_DeInit:00000038 $d
C:\Users\RARES~1.COV\AppData\Local\Temp\ccVm5jaa.s:128    .text.HAL_MspInit:00000000 $t
C:\Users\RARES~1.COV\AppData\Local\Temp\ccVm5jaa.s:164    .text.HAL_MspDeInit:00000000 $t
C:\Users\RARES~1.COV\AppData\Local\Temp\ccVm5jaa.s:200    .text.HAL_InitTick:00000000 $t
C:\Users\RARES~1.COV\AppData\Local\Temp\ccVm5jaa.s:253    .text.HAL_InitTick:00000030 $d
C:\Users\RARES~1.COV\AppData\Local\Temp\ccVm5jaa.s:259    .text.HAL_IncTick:00000000 $t
C:\Users\RARES~1.COV\AppData\Local\Temp\ccVm5jaa.s:266    .text.HAL_IncTick:00000000 HAL_IncTick
C:\Users\RARES~1.COV\AppData\Local\Temp\ccVm5jaa.s:300    .text.HAL_IncTick:00000018 $d
C:\Users\RARES~1.COV\AppData\Local\Temp\ccVm5jaa.s:305    .text.HAL_GetTick:00000000 $t
C:\Users\RARES~1.COV\AppData\Local\Temp\ccVm5jaa.s:312    .text.HAL_GetTick:00000000 HAL_GetTick
C:\Users\RARES~1.COV\AppData\Local\Temp\ccVm5jaa.s:343    .text.HAL_GetTick:00000014 $d
C:\Users\RARES~1.COV\AppData\Local\Temp\ccVm5jaa.s:348    .text.HAL_Delay:00000000 $t
C:\Users\RARES~1.COV\AppData\Local\Temp\ccVm5jaa.s:355    .text.HAL_Delay:00000000 HAL_Delay
C:\Users\RARES~1.COV\AppData\Local\Temp\ccVm5jaa.s:401    .text.HAL_SuspendTick:00000000 $t
C:\Users\RARES~1.COV\AppData\Local\Temp\ccVm5jaa.s:408    .text.HAL_SuspendTick:00000000 HAL_SuspendTick
C:\Users\RARES~1.COV\AppData\Local\Temp\ccVm5jaa.s:442    .text.HAL_SuspendTick:0000001c $d
C:\Users\RARES~1.COV\AppData\Local\Temp\ccVm5jaa.s:447    .text.HAL_ResumeTick:00000000 $t
C:\Users\RARES~1.COV\AppData\Local\Temp\ccVm5jaa.s:454    .text.HAL_ResumeTick:00000000 HAL_ResumeTick
C:\Users\RARES~1.COV\AppData\Local\Temp\ccVm5jaa.s:488    .text.HAL_ResumeTick:0000001c $d
C:\Users\RARES~1.COV\AppData\Local\Temp\ccVm5jaa.s:493    .text.HAL_GetHalVersion:00000000 $t
C:\Users\RARES~1.COV\AppData\Local\Temp\ccVm5jaa.s:500    .text.HAL_GetHalVersion:00000000 HAL_GetHalVersion
C:\Users\RARES~1.COV\AppData\Local\Temp\ccVm5jaa.s:530    .text.HAL_GetHalVersion:00000010 $d
C:\Users\RARES~1.COV\AppData\Local\Temp\ccVm5jaa.s:535    .text.HAL_GetREVID:00000000 $t
C:\Users\RARES~1.COV\AppData\Local\Temp\ccVm5jaa.s:542    .text.HAL_GetREVID:00000000 HAL_GetREVID
C:\Users\RARES~1.COV\AppData\Local\Temp\ccVm5jaa.s:574    .text.HAL_GetREVID:00000014 $d
C:\Users\RARES~1.COV\AppData\Local\Temp\ccVm5jaa.s:579    .text.HAL_GetDEVID:00000000 $t
C:\Users\RARES~1.COV\AppData\Local\Temp\ccVm5jaa.s:586    .text.HAL_GetDEVID:00000000 HAL_GetDEVID
C:\Users\RARES~1.COV\AppData\Local\Temp\ccVm5jaa.s:618    .text.HAL_GetDEVID:00000018 $d
C:\Users\RARES~1.COV\AppData\Local\Temp\ccVm5jaa.s:623    .text.HAL_DBGMCU_EnableDBGSleepMode:00000000 $t
C:\Users\RARES~1.COV\AppData\Local\Temp\ccVm5jaa.s:630    .text.HAL_DBGMCU_EnableDBGSleepMode:00000000 HAL_DBGMCU_EnableDBGSleepMode
C:\Users\RARES~1.COV\AppData\Local\Temp\ccVm5jaa.s:664    .text.HAL_DBGMCU_EnableDBGSleepMode:0000001c $d
C:\Users\RARES~1.COV\AppData\Local\Temp\ccVm5jaa.s:669    .text.HAL_DBGMCU_DisableDBGSleepMode:00000000 $t
C:\Users\RARES~1.COV\AppData\Local\Temp\ccVm5jaa.s:676    .text.HAL_DBGMCU_DisableDBGSleepMode:00000000 HAL_DBGMCU_DisableDBGSleepMode
C:\Users\RARES~1.COV\AppData\Local\Temp\ccVm5jaa.s:710    .text.HAL_DBGMCU_DisableDBGSleepMode:0000001c $d
C:\Users\RARES~1.COV\AppData\Local\Temp\ccVm5jaa.s:715    .text.HAL_DBGMCU_EnableDBGStopMode:00000000 $t
C:\Users\RARES~1.COV\AppData\Local\Temp\ccVm5jaa.s:722    .text.HAL_DBGMCU_EnableDBGStopMode:00000000 HAL_DBGMCU_EnableDBGStopMode
C:\Users\RARES~1.COV\AppData\Local\Temp\ccVm5jaa.s:756    .text.HAL_DBGMCU_EnableDBGStopMode:0000001c $d
C:\Users\RARES~1.COV\AppData\Local\Temp\ccVm5jaa.s:761    .text.HAL_DBGMCU_DisableDBGStopMode:00000000 $t
C:\Users\RARES~1.COV\AppData\Local\Temp\ccVm5jaa.s:768    .text.HAL_DBGMCU_DisableDBGStopMode:00000000 HAL_DBGMCU_DisableDBGStopMode
C:\Users\RARES~1.COV\AppData\Local\Temp\ccVm5jaa.s:802    .text.HAL_DBGMCU_DisableDBGStopMode:0000001c $d
C:\Users\RARES~1.COV\AppData\Local\Temp\ccVm5jaa.s:807    .text.HAL_DBGMCU_EnableDBGStandbyMode:00000000 $t
C:\Users\RARES~1.COV\AppData\Local\Temp\ccVm5jaa.s:814    .text.HAL_DBGMCU_EnableDBGStandbyMode:00000000 HAL_DBGMCU_EnableDBGStandbyMode
C:\Users\RARES~1.COV\AppData\Local\Temp\ccVm5jaa.s:848    .text.HAL_DBGMCU_EnableDBGStandbyMode:0000001c $d
C:\Users\RARES~1.COV\AppData\Local\Temp\ccVm5jaa.s:853    .text.HAL_DBGMCU_DisableDBGStandbyMode:00000000 $t
C:\Users\RARES~1.COV\AppData\Local\Temp\ccVm5jaa.s:860    .text.HAL_DBGMCU_DisableDBGStandbyMode:00000000 HAL_DBGMCU_DisableDBGStandbyMode
C:\Users\RARES~1.COV\AppData\Local\Temp\ccVm5jaa.s:894    .text.HAL_DBGMCU_DisableDBGStandbyMode:0000001c $d
ARM GAS  C:\Users\RARES~1.COV\AppData\Local\Temp\ccVm5jaa.s 			page 25


                     .debug_frame:00000010 $d

UNDEFINED SYMBOLS
HAL_NVIC_SetPriorityGrouping
HAL_SYSTICK_Config
HAL_NVIC_SetPriority
SystemCoreClock
