ARM GAS  C:\Users\RARES~1.COV\AppData\Local\Temp\cc8OUGVm.s 			page 1


   1              		.cpu cortex-m4
   2              		.eabi_attribute 27, 1
   3              		.eabi_attribute 28, 1
   4              		.eabi_attribute 20, 1
   5              		.eabi_attribute 21, 1
   6              		.eabi_attribute 23, 3
   7              		.eabi_attribute 24, 1
   8              		.eabi_attribute 25, 1
   9              		.eabi_attribute 26, 1
  10              		.eabi_attribute 30, 6
  11              		.eabi_attribute 34, 1
  12              		.eabi_attribute 18, 4
  13              		.file	"stm32f3xx_hal_rcc.c"
  14              		.text
  15              	.Ltext0:
  16              		.cfi_sections	.debug_frame
  17              		.global	aPLLMULFactorTable
  18              		.section	.rodata.aPLLMULFactorTable,"a",%progbits
  19              		.align	2
  22              	aPLLMULFactorTable:
  23 0000 02       		.byte	2
  24 0001 03       		.byte	3
  25 0002 04       		.byte	4
  26 0003 05       		.byte	5
  27 0004 06       		.byte	6
  28 0005 07       		.byte	7
  29 0006 08       		.byte	8
  30 0007 09       		.byte	9
  31 0008 0A       		.byte	10
  32 0009 0B       		.byte	11
  33 000a 0C       		.byte	12
  34 000b 0D       		.byte	13
  35 000c 0E       		.byte	14
  36 000d 0F       		.byte	15
  37 000e 10       		.byte	16
  38 000f 10       		.byte	16
  39              		.global	aPredivFactorTable
  40              		.section	.rodata.aPredivFactorTable,"a",%progbits
  41              		.align	2
  44              	aPredivFactorTable:
  45 0000 01       		.byte	1
  46 0001 02       		.byte	2
  47 0002 03       		.byte	3
  48 0003 04       		.byte	4
  49 0004 05       		.byte	5
  50 0005 06       		.byte	6
  51 0006 07       		.byte	7
  52 0007 08       		.byte	8
  53 0008 09       		.byte	9
  54 0009 0A       		.byte	10
  55 000a 0B       		.byte	11
  56 000b 0C       		.byte	12
  57 000c 0D       		.byte	13
  58 000d 0E       		.byte	14
  59 000e 0F       		.byte	15
  60 000f 10       		.byte	16
  61              		.section	.text.HAL_RCC_DeInit,"ax",%progbits
ARM GAS  C:\Users\RARES~1.COV\AppData\Local\Temp\cc8OUGVm.s 			page 2


  62              		.align	1
  63              		.global	HAL_RCC_DeInit
  64              		.syntax unified
  65              		.thumb
  66              		.thumb_func
  67              		.fpu fpv4-sp-d16
  69              	HAL_RCC_DeInit:
  70              	.LFB126:
  71              		.file 1 "Drivers/STM32F3xx_HAL_Driver/Src/stm32f3xx_hal_rcc.c"
   1:Drivers/STM32F3xx_HAL_Driver/Src/stm32f3xx_hal_rcc.c **** /**
   2:Drivers/STM32F3xx_HAL_Driver/Src/stm32f3xx_hal_rcc.c ****   ******************************************************************************
   3:Drivers/STM32F3xx_HAL_Driver/Src/stm32f3xx_hal_rcc.c ****   * @file    stm32f3xx_hal_rcc.c
   4:Drivers/STM32F3xx_HAL_Driver/Src/stm32f3xx_hal_rcc.c ****   * @author  MCD Application Team
   5:Drivers/STM32F3xx_HAL_Driver/Src/stm32f3xx_hal_rcc.c ****   * @version V1.3.0
   6:Drivers/STM32F3xx_HAL_Driver/Src/stm32f3xx_hal_rcc.c ****   * @date    01-July-2016
   7:Drivers/STM32F3xx_HAL_Driver/Src/stm32f3xx_hal_rcc.c ****   * @brief   RCC HAL module driver.
   8:Drivers/STM32F3xx_HAL_Driver/Src/stm32f3xx_hal_rcc.c ****   *          This file provides firmware functions to manage the following 
   9:Drivers/STM32F3xx_HAL_Driver/Src/stm32f3xx_hal_rcc.c ****   *          functionalities of the Reset and Clock Control (RCC) peripheral:
  10:Drivers/STM32F3xx_HAL_Driver/Src/stm32f3xx_hal_rcc.c ****   *           + Initialization and de-initialization functions
  11:Drivers/STM32F3xx_HAL_Driver/Src/stm32f3xx_hal_rcc.c ****   *           + Peripheral Control functions
  12:Drivers/STM32F3xx_HAL_Driver/Src/stm32f3xx_hal_rcc.c ****   *       
  13:Drivers/STM32F3xx_HAL_Driver/Src/stm32f3xx_hal_rcc.c ****   @verbatim                
  14:Drivers/STM32F3xx_HAL_Driver/Src/stm32f3xx_hal_rcc.c ****   ==============================================================================
  15:Drivers/STM32F3xx_HAL_Driver/Src/stm32f3xx_hal_rcc.c ****                       ##### RCC specific features #####
  16:Drivers/STM32F3xx_HAL_Driver/Src/stm32f3xx_hal_rcc.c ****   ==============================================================================
  17:Drivers/STM32F3xx_HAL_Driver/Src/stm32f3xx_hal_rcc.c ****     [..]  
  18:Drivers/STM32F3xx_HAL_Driver/Src/stm32f3xx_hal_rcc.c ****       After reset the device is running from Internal High Speed oscillator
  19:Drivers/STM32F3xx_HAL_Driver/Src/stm32f3xx_hal_rcc.c ****       (HSI 8MHz) with Flash 0 wait state, Flash prefetch buffer is enabled, 
  20:Drivers/STM32F3xx_HAL_Driver/Src/stm32f3xx_hal_rcc.c ****       and all peripherals are off except internal SRAM, Flash and JTAG.
  21:Drivers/STM32F3xx_HAL_Driver/Src/stm32f3xx_hal_rcc.c ****       (+) There is no prescaler on High speed (AHB) and Low speed (APB) buses;
  22:Drivers/STM32F3xx_HAL_Driver/Src/stm32f3xx_hal_rcc.c ****           all peripherals mapped on these buses are running at HSI speed.
  23:Drivers/STM32F3xx_HAL_Driver/Src/stm32f3xx_hal_rcc.c ****       (+) The clock for all peripherals is switched off, except the SRAM and FLASH.
  24:Drivers/STM32F3xx_HAL_Driver/Src/stm32f3xx_hal_rcc.c ****       (+) All GPIOs are in input floating state, except the JTAG pins which
  25:Drivers/STM32F3xx_HAL_Driver/Src/stm32f3xx_hal_rcc.c ****           are assigned to be used for debug purpose.
  26:Drivers/STM32F3xx_HAL_Driver/Src/stm32f3xx_hal_rcc.c ****     [..] Once the device started from reset, the user application has to:
  27:Drivers/STM32F3xx_HAL_Driver/Src/stm32f3xx_hal_rcc.c ****       (+) Configure the clock source to be used to drive the System clock
  28:Drivers/STM32F3xx_HAL_Driver/Src/stm32f3xx_hal_rcc.c ****           (if the application needs higher frequency/performance)
  29:Drivers/STM32F3xx_HAL_Driver/Src/stm32f3xx_hal_rcc.c ****       (+) Configure the System clock frequency and Flash settings  
  30:Drivers/STM32F3xx_HAL_Driver/Src/stm32f3xx_hal_rcc.c ****       (+) Configure the AHB and APB buses prescalers
  31:Drivers/STM32F3xx_HAL_Driver/Src/stm32f3xx_hal_rcc.c ****       (+) Enable the clock for the peripheral(s) to be used
  32:Drivers/STM32F3xx_HAL_Driver/Src/stm32f3xx_hal_rcc.c ****       (+) Configure the clock source(s) for peripherals whose clocks are not
  33:Drivers/STM32F3xx_HAL_Driver/Src/stm32f3xx_hal_rcc.c ****           derived from the System clock (RTC, ADC, I2C, I2S, TIM, USB FS)
  34:Drivers/STM32F3xx_HAL_Driver/Src/stm32f3xx_hal_rcc.c **** 
  35:Drivers/STM32F3xx_HAL_Driver/Src/stm32f3xx_hal_rcc.c ****                       ##### RCC Limitations #####
  36:Drivers/STM32F3xx_HAL_Driver/Src/stm32f3xx_hal_rcc.c ****   ==============================================================================
  37:Drivers/STM32F3xx_HAL_Driver/Src/stm32f3xx_hal_rcc.c ****     [..]  
  38:Drivers/STM32F3xx_HAL_Driver/Src/stm32f3xx_hal_rcc.c ****       A delay between an RCC peripheral clock enable and the effective peripheral 
  39:Drivers/STM32F3xx_HAL_Driver/Src/stm32f3xx_hal_rcc.c ****       enabling should be taken into account in order to manage the peripheral read/write 
  40:Drivers/STM32F3xx_HAL_Driver/Src/stm32f3xx_hal_rcc.c ****       from/to registers.
  41:Drivers/STM32F3xx_HAL_Driver/Src/stm32f3xx_hal_rcc.c ****       (+) This delay depends on the peripheral mapping.
  42:Drivers/STM32F3xx_HAL_Driver/Src/stm32f3xx_hal_rcc.c ****         (++) AHB & APB peripherals, 1 dummy read is necessary
  43:Drivers/STM32F3xx_HAL_Driver/Src/stm32f3xx_hal_rcc.c **** 
  44:Drivers/STM32F3xx_HAL_Driver/Src/stm32f3xx_hal_rcc.c ****     [..]  
  45:Drivers/STM32F3xx_HAL_Driver/Src/stm32f3xx_hal_rcc.c ****       Workarounds:
  46:Drivers/STM32F3xx_HAL_Driver/Src/stm32f3xx_hal_rcc.c ****       (#) For AHB & APB peripherals, a dummy read to the peripheral register has been
  47:Drivers/STM32F3xx_HAL_Driver/Src/stm32f3xx_hal_rcc.c ****           inserted in each __HAL_RCC_PPP_CLK_ENABLE() macro.
  48:Drivers/STM32F3xx_HAL_Driver/Src/stm32f3xx_hal_rcc.c **** 
ARM GAS  C:\Users\RARES~1.COV\AppData\Local\Temp\cc8OUGVm.s 			page 3


  49:Drivers/STM32F3xx_HAL_Driver/Src/stm32f3xx_hal_rcc.c ****   @endverbatim
  50:Drivers/STM32F3xx_HAL_Driver/Src/stm32f3xx_hal_rcc.c ****   ******************************************************************************
  51:Drivers/STM32F3xx_HAL_Driver/Src/stm32f3xx_hal_rcc.c ****   * @attention
  52:Drivers/STM32F3xx_HAL_Driver/Src/stm32f3xx_hal_rcc.c ****   *
  53:Drivers/STM32F3xx_HAL_Driver/Src/stm32f3xx_hal_rcc.c ****   * <h2><center>&copy; COPYRIGHT(c) 2016 STMicroelectronics</center></h2>
  54:Drivers/STM32F3xx_HAL_Driver/Src/stm32f3xx_hal_rcc.c ****   *
  55:Drivers/STM32F3xx_HAL_Driver/Src/stm32f3xx_hal_rcc.c ****   * Redistribution and use in source and binary forms, with or without modification,
  56:Drivers/STM32F3xx_HAL_Driver/Src/stm32f3xx_hal_rcc.c ****   * are permitted provided that the following conditions are met:
  57:Drivers/STM32F3xx_HAL_Driver/Src/stm32f3xx_hal_rcc.c ****   *   1. Redistributions of source code must retain the above copyright notice,
  58:Drivers/STM32F3xx_HAL_Driver/Src/stm32f3xx_hal_rcc.c ****   *      this list of conditions and the following disclaimer.
  59:Drivers/STM32F3xx_HAL_Driver/Src/stm32f3xx_hal_rcc.c ****   *   2. Redistributions in binary form must reproduce the above copyright notice,
  60:Drivers/STM32F3xx_HAL_Driver/Src/stm32f3xx_hal_rcc.c ****   *      this list of conditions and the following disclaimer in the documentation
  61:Drivers/STM32F3xx_HAL_Driver/Src/stm32f3xx_hal_rcc.c ****   *      and/or other materials provided with the distribution.
  62:Drivers/STM32F3xx_HAL_Driver/Src/stm32f3xx_hal_rcc.c ****   *   3. Neither the name of STMicroelectronics nor the names of its contributors
  63:Drivers/STM32F3xx_HAL_Driver/Src/stm32f3xx_hal_rcc.c ****   *      may be used to endorse or promote products derived from this software
  64:Drivers/STM32F3xx_HAL_Driver/Src/stm32f3xx_hal_rcc.c ****   *      without specific prior written permission.
  65:Drivers/STM32F3xx_HAL_Driver/Src/stm32f3xx_hal_rcc.c ****   *
  66:Drivers/STM32F3xx_HAL_Driver/Src/stm32f3xx_hal_rcc.c ****   * THIS SOFTWARE IS PROVIDED BY THE COPYRIGHT HOLDERS AND CONTRIBUTORS "AS IS"
  67:Drivers/STM32F3xx_HAL_Driver/Src/stm32f3xx_hal_rcc.c ****   * AND ANY EXPRESS OR IMPLIED WARRANTIES, INCLUDING, BUT NOT LIMITED TO, THE
  68:Drivers/STM32F3xx_HAL_Driver/Src/stm32f3xx_hal_rcc.c ****   * IMPLIED WARRANTIES OF MERCHANTABILITY AND FITNESS FOR A PARTICULAR PURPOSE ARE
  69:Drivers/STM32F3xx_HAL_Driver/Src/stm32f3xx_hal_rcc.c ****   * DISCLAIMED. IN NO EVENT SHALL THE COPYRIGHT HOLDER OR CONTRIBUTORS BE LIABLE
  70:Drivers/STM32F3xx_HAL_Driver/Src/stm32f3xx_hal_rcc.c ****   * FOR ANY DIRECT, INDIRECT, INCIDENTAL, SPECIAL, EXEMPLARY, OR CONSEQUENTIAL
  71:Drivers/STM32F3xx_HAL_Driver/Src/stm32f3xx_hal_rcc.c ****   * DAMAGES (INCLUDING, BUT NOT LIMITED TO, PROCUREMENT OF SUBSTITUTE GOODS OR
  72:Drivers/STM32F3xx_HAL_Driver/Src/stm32f3xx_hal_rcc.c ****   * SERVICES; LOSS OF USE, DATA, OR PROFITS; OR BUSINESS INTERRUPTION) HOWEVER
  73:Drivers/STM32F3xx_HAL_Driver/Src/stm32f3xx_hal_rcc.c ****   * CAUSED AND ON ANY THEORY OF LIABILITY, WHETHER IN CONTRACT, STRICT LIABILITY,
  74:Drivers/STM32F3xx_HAL_Driver/Src/stm32f3xx_hal_rcc.c ****   * OR TORT (INCLUDING NEGLIGENCE OR OTHERWISE) ARISING IN ANY WAY OUT OF THE USE
  75:Drivers/STM32F3xx_HAL_Driver/Src/stm32f3xx_hal_rcc.c ****   * OF THIS SOFTWARE, EVEN IF ADVISED OF THE POSSIBILITY OF SUCH DAMAGE.
  76:Drivers/STM32F3xx_HAL_Driver/Src/stm32f3xx_hal_rcc.c ****   *
  77:Drivers/STM32F3xx_HAL_Driver/Src/stm32f3xx_hal_rcc.c ****   ******************************************************************************  
  78:Drivers/STM32F3xx_HAL_Driver/Src/stm32f3xx_hal_rcc.c **** */
  79:Drivers/STM32F3xx_HAL_Driver/Src/stm32f3xx_hal_rcc.c **** 
  80:Drivers/STM32F3xx_HAL_Driver/Src/stm32f3xx_hal_rcc.c **** /* Includes ------------------------------------------------------------------*/
  81:Drivers/STM32F3xx_HAL_Driver/Src/stm32f3xx_hal_rcc.c **** #include "stm32f3xx_hal.h"
  82:Drivers/STM32F3xx_HAL_Driver/Src/stm32f3xx_hal_rcc.c **** 
  83:Drivers/STM32F3xx_HAL_Driver/Src/stm32f3xx_hal_rcc.c **** /** @addtogroup STM32F3xx_HAL_Driver
  84:Drivers/STM32F3xx_HAL_Driver/Src/stm32f3xx_hal_rcc.c ****   * @{
  85:Drivers/STM32F3xx_HAL_Driver/Src/stm32f3xx_hal_rcc.c ****   */
  86:Drivers/STM32F3xx_HAL_Driver/Src/stm32f3xx_hal_rcc.c **** 
  87:Drivers/STM32F3xx_HAL_Driver/Src/stm32f3xx_hal_rcc.c **** /** @defgroup RCC RCC
  88:Drivers/STM32F3xx_HAL_Driver/Src/stm32f3xx_hal_rcc.c **** * @brief RCC HAL module driver
  89:Drivers/STM32F3xx_HAL_Driver/Src/stm32f3xx_hal_rcc.c ****   * @{
  90:Drivers/STM32F3xx_HAL_Driver/Src/stm32f3xx_hal_rcc.c ****   */
  91:Drivers/STM32F3xx_HAL_Driver/Src/stm32f3xx_hal_rcc.c **** 
  92:Drivers/STM32F3xx_HAL_Driver/Src/stm32f3xx_hal_rcc.c **** #ifdef HAL_RCC_MODULE_ENABLED
  93:Drivers/STM32F3xx_HAL_Driver/Src/stm32f3xx_hal_rcc.c **** 
  94:Drivers/STM32F3xx_HAL_Driver/Src/stm32f3xx_hal_rcc.c **** /* Private typedef -----------------------------------------------------------*/
  95:Drivers/STM32F3xx_HAL_Driver/Src/stm32f3xx_hal_rcc.c **** /* Private define ------------------------------------------------------------*/
  96:Drivers/STM32F3xx_HAL_Driver/Src/stm32f3xx_hal_rcc.c **** /** @defgroup RCC_Private_Constants RCC Private Constants
  97:Drivers/STM32F3xx_HAL_Driver/Src/stm32f3xx_hal_rcc.c ****  * @{
  98:Drivers/STM32F3xx_HAL_Driver/Src/stm32f3xx_hal_rcc.c ****  */
  99:Drivers/STM32F3xx_HAL_Driver/Src/stm32f3xx_hal_rcc.c **** /* Bits position in  in the CFGR register */
 100:Drivers/STM32F3xx_HAL_Driver/Src/stm32f3xx_hal_rcc.c **** #define RCC_CFGR_HPRE_BITNUMBER           POSITION_VAL(RCC_CFGR_HPRE)
 101:Drivers/STM32F3xx_HAL_Driver/Src/stm32f3xx_hal_rcc.c **** #define RCC_CFGR_PPRE1_BITNUMBER          POSITION_VAL(RCC_CFGR_PPRE1)
 102:Drivers/STM32F3xx_HAL_Driver/Src/stm32f3xx_hal_rcc.c **** #define RCC_CFGR_PPRE2_BITNUMBER          POSITION_VAL(RCC_CFGR_PPRE2)
 103:Drivers/STM32F3xx_HAL_Driver/Src/stm32f3xx_hal_rcc.c **** /**
 104:Drivers/STM32F3xx_HAL_Driver/Src/stm32f3xx_hal_rcc.c ****   * @}
 105:Drivers/STM32F3xx_HAL_Driver/Src/stm32f3xx_hal_rcc.c ****   */
ARM GAS  C:\Users\RARES~1.COV\AppData\Local\Temp\cc8OUGVm.s 			page 4


 106:Drivers/STM32F3xx_HAL_Driver/Src/stm32f3xx_hal_rcc.c **** /* Private macro -------------------------------------------------------------*/
 107:Drivers/STM32F3xx_HAL_Driver/Src/stm32f3xx_hal_rcc.c **** /** @defgroup RCC_Private_Macros RCC Private Macros
 108:Drivers/STM32F3xx_HAL_Driver/Src/stm32f3xx_hal_rcc.c ****   * @{
 109:Drivers/STM32F3xx_HAL_Driver/Src/stm32f3xx_hal_rcc.c ****   */
 110:Drivers/STM32F3xx_HAL_Driver/Src/stm32f3xx_hal_rcc.c **** 
 111:Drivers/STM32F3xx_HAL_Driver/Src/stm32f3xx_hal_rcc.c **** #define MCO1_CLK_ENABLE()     __HAL_RCC_GPIOA_CLK_ENABLE()
 112:Drivers/STM32F3xx_HAL_Driver/Src/stm32f3xx_hal_rcc.c **** #define MCO1_GPIO_PORT        GPIOA
 113:Drivers/STM32F3xx_HAL_Driver/Src/stm32f3xx_hal_rcc.c **** #define MCO1_PIN              GPIO_PIN_8
 114:Drivers/STM32F3xx_HAL_Driver/Src/stm32f3xx_hal_rcc.c **** 
 115:Drivers/STM32F3xx_HAL_Driver/Src/stm32f3xx_hal_rcc.c **** /**
 116:Drivers/STM32F3xx_HAL_Driver/Src/stm32f3xx_hal_rcc.c ****   * @}
 117:Drivers/STM32F3xx_HAL_Driver/Src/stm32f3xx_hal_rcc.c ****   */
 118:Drivers/STM32F3xx_HAL_Driver/Src/stm32f3xx_hal_rcc.c **** 
 119:Drivers/STM32F3xx_HAL_Driver/Src/stm32f3xx_hal_rcc.c **** /* Private variables ---------------------------------------------------------*/
 120:Drivers/STM32F3xx_HAL_Driver/Src/stm32f3xx_hal_rcc.c **** /** @defgroup RCC_Private_Variables RCC Private Variables
 121:Drivers/STM32F3xx_HAL_Driver/Src/stm32f3xx_hal_rcc.c ****   * @{
 122:Drivers/STM32F3xx_HAL_Driver/Src/stm32f3xx_hal_rcc.c ****   */
 123:Drivers/STM32F3xx_HAL_Driver/Src/stm32f3xx_hal_rcc.c **** const uint8_t aPLLMULFactorTable[16] = { 2,  3,  4,  5,  6,  7,  8,  9,
 124:Drivers/STM32F3xx_HAL_Driver/Src/stm32f3xx_hal_rcc.c ****                                        10, 11, 12, 13, 14, 15, 16, 16};
 125:Drivers/STM32F3xx_HAL_Driver/Src/stm32f3xx_hal_rcc.c **** const uint8_t aPredivFactorTable[16] = { 1, 2,  3,  4,  5,  6,  7,  8,
 126:Drivers/STM32F3xx_HAL_Driver/Src/stm32f3xx_hal_rcc.c ****                                          9,10, 11, 12, 13, 14, 15, 16};
 127:Drivers/STM32F3xx_HAL_Driver/Src/stm32f3xx_hal_rcc.c **** /**
 128:Drivers/STM32F3xx_HAL_Driver/Src/stm32f3xx_hal_rcc.c ****   * @}
 129:Drivers/STM32F3xx_HAL_Driver/Src/stm32f3xx_hal_rcc.c ****   */
 130:Drivers/STM32F3xx_HAL_Driver/Src/stm32f3xx_hal_rcc.c **** 
 131:Drivers/STM32F3xx_HAL_Driver/Src/stm32f3xx_hal_rcc.c **** /* Private function prototypes -----------------------------------------------*/
 132:Drivers/STM32F3xx_HAL_Driver/Src/stm32f3xx_hal_rcc.c **** /* Exported functions ---------------------------------------------------------*/
 133:Drivers/STM32F3xx_HAL_Driver/Src/stm32f3xx_hal_rcc.c **** 
 134:Drivers/STM32F3xx_HAL_Driver/Src/stm32f3xx_hal_rcc.c **** /** @defgroup RCC_Exported_Functions RCC Exported Functions
 135:Drivers/STM32F3xx_HAL_Driver/Src/stm32f3xx_hal_rcc.c ****   * @{
 136:Drivers/STM32F3xx_HAL_Driver/Src/stm32f3xx_hal_rcc.c ****   */
 137:Drivers/STM32F3xx_HAL_Driver/Src/stm32f3xx_hal_rcc.c **** 
 138:Drivers/STM32F3xx_HAL_Driver/Src/stm32f3xx_hal_rcc.c **** /** @defgroup RCC_Exported_Functions_Group1 Initialization and de-initialization functions 
 139:Drivers/STM32F3xx_HAL_Driver/Src/stm32f3xx_hal_rcc.c ****   *  @brief    Initialization and Configuration functions 
 140:Drivers/STM32F3xx_HAL_Driver/Src/stm32f3xx_hal_rcc.c ****   *
 141:Drivers/STM32F3xx_HAL_Driver/Src/stm32f3xx_hal_rcc.c ****   @verbatim    
 142:Drivers/STM32F3xx_HAL_Driver/Src/stm32f3xx_hal_rcc.c ****   ===============================================================================
 143:Drivers/STM32F3xx_HAL_Driver/Src/stm32f3xx_hal_rcc.c ****            ##### Initialization and de-initialization functions #####
 144:Drivers/STM32F3xx_HAL_Driver/Src/stm32f3xx_hal_rcc.c ****   ===============================================================================
 145:Drivers/STM32F3xx_HAL_Driver/Src/stm32f3xx_hal_rcc.c ****     [..]
 146:Drivers/STM32F3xx_HAL_Driver/Src/stm32f3xx_hal_rcc.c ****       This section provides functions allowing to configure the internal/external oscillators
 147:Drivers/STM32F3xx_HAL_Driver/Src/stm32f3xx_hal_rcc.c ****       (HSE, HSI, LSE, LSI, PLL, CSS and MCO) and the System buses clocks (SYSCLK, AHB, APB1
 148:Drivers/STM32F3xx_HAL_Driver/Src/stm32f3xx_hal_rcc.c ****       and APB2).
 149:Drivers/STM32F3xx_HAL_Driver/Src/stm32f3xx_hal_rcc.c **** 
 150:Drivers/STM32F3xx_HAL_Driver/Src/stm32f3xx_hal_rcc.c ****     [..] Internal/external clock and PLL configuration
 151:Drivers/STM32F3xx_HAL_Driver/Src/stm32f3xx_hal_rcc.c ****       (#) HSI (high-speed internal), 8 MHz factory-trimmed RC used directly or through
 152:Drivers/STM32F3xx_HAL_Driver/Src/stm32f3xx_hal_rcc.c ****           the PLL as System clock source.
 153:Drivers/STM32F3xx_HAL_Driver/Src/stm32f3xx_hal_rcc.c ****           The HSI clock can be used also to clock the USART and I2C peripherals.
 154:Drivers/STM32F3xx_HAL_Driver/Src/stm32f3xx_hal_rcc.c **** 
 155:Drivers/STM32F3xx_HAL_Driver/Src/stm32f3xx_hal_rcc.c ****       (#) LSI (low-speed internal), ~40 KHz low consumption RC used as IWDG and/or RTC
 156:Drivers/STM32F3xx_HAL_Driver/Src/stm32f3xx_hal_rcc.c ****           clock source.
 157:Drivers/STM32F3xx_HAL_Driver/Src/stm32f3xx_hal_rcc.c **** 
 158:Drivers/STM32F3xx_HAL_Driver/Src/stm32f3xx_hal_rcc.c ****       (#) HSE (high-speed external), 4 to 32 MHz crystal oscillator used directly or
 159:Drivers/STM32F3xx_HAL_Driver/Src/stm32f3xx_hal_rcc.c ****           through the PLL as System clock source. Can be used also as RTC clock source.
 160:Drivers/STM32F3xx_HAL_Driver/Src/stm32f3xx_hal_rcc.c **** 
 161:Drivers/STM32F3xx_HAL_Driver/Src/stm32f3xx_hal_rcc.c ****       (#) LSE (low-speed external), 32 KHz oscillator used as RTC clock source.   
 162:Drivers/STM32F3xx_HAL_Driver/Src/stm32f3xx_hal_rcc.c **** 
ARM GAS  C:\Users\RARES~1.COV\AppData\Local\Temp\cc8OUGVm.s 			page 5


 163:Drivers/STM32F3xx_HAL_Driver/Src/stm32f3xx_hal_rcc.c ****       (#) PLL (clocked by HSI or HSE), featuring different output clocks:
 164:Drivers/STM32F3xx_HAL_Driver/Src/stm32f3xx_hal_rcc.c ****         (++) The first output is used to generate the high speed system clock (up to 72 MHz)
 165:Drivers/STM32F3xx_HAL_Driver/Src/stm32f3xx_hal_rcc.c ****         (++) The second output is used to generate the clock for the USB FS (48 MHz)
 166:Drivers/STM32F3xx_HAL_Driver/Src/stm32f3xx_hal_rcc.c ****         (++) The third output may be used to generate the clock for the ADC peripherals (up to 72 M
 167:Drivers/STM32F3xx_HAL_Driver/Src/stm32f3xx_hal_rcc.c ****         (++) The fourth output may be used to generate the clock for the TIM peripherals (144 MHz)
 168:Drivers/STM32F3xx_HAL_Driver/Src/stm32f3xx_hal_rcc.c **** 
 169:Drivers/STM32F3xx_HAL_Driver/Src/stm32f3xx_hal_rcc.c ****       (#) CSS (Clock security system), once enable using the macro __HAL_RCC_CSS_ENABLE()
 170:Drivers/STM32F3xx_HAL_Driver/Src/stm32f3xx_hal_rcc.c ****           and if a HSE clock failure occurs(HSE used directly or through PLL as System 
 171:Drivers/STM32F3xx_HAL_Driver/Src/stm32f3xx_hal_rcc.c ****           clock source), the System clocks automatically switched to HSI and an interrupt
 172:Drivers/STM32F3xx_HAL_Driver/Src/stm32f3xx_hal_rcc.c ****           is generated if enabled. The interrupt is linked to the Cortex-M4 NMI 
 173:Drivers/STM32F3xx_HAL_Driver/Src/stm32f3xx_hal_rcc.c ****           (Non-Maskable Interrupt) exception vector.   
 174:Drivers/STM32F3xx_HAL_Driver/Src/stm32f3xx_hal_rcc.c **** 
 175:Drivers/STM32F3xx_HAL_Driver/Src/stm32f3xx_hal_rcc.c ****       (#) MCO (microcontroller clock output), used to output SYSCLK, HSI, HSE, LSI, LSE or PLL
 176:Drivers/STM32F3xx_HAL_Driver/Src/stm32f3xx_hal_rcc.c ****           clock (divided by 2) output on pin (such as PA8 pin).
 177:Drivers/STM32F3xx_HAL_Driver/Src/stm32f3xx_hal_rcc.c **** 
 178:Drivers/STM32F3xx_HAL_Driver/Src/stm32f3xx_hal_rcc.c ****     [..] System, AHB and APB buses clocks configuration
 179:Drivers/STM32F3xx_HAL_Driver/Src/stm32f3xx_hal_rcc.c ****       (#) Several clock sources can be used to drive the System clock (SYSCLK): HSI,
 180:Drivers/STM32F3xx_HAL_Driver/Src/stm32f3xx_hal_rcc.c ****           HSE and PLL.
 181:Drivers/STM32F3xx_HAL_Driver/Src/stm32f3xx_hal_rcc.c ****           The AHB clock (HCLK) is derived from System clock through configurable
 182:Drivers/STM32F3xx_HAL_Driver/Src/stm32f3xx_hal_rcc.c ****           prescaler and used to clock the CPU, memory and peripherals mapped
 183:Drivers/STM32F3xx_HAL_Driver/Src/stm32f3xx_hal_rcc.c ****           on AHB bus (DMA, GPIO...). APB1 (PCLK1) and APB2 (PCLK2) clocks are derived
 184:Drivers/STM32F3xx_HAL_Driver/Src/stm32f3xx_hal_rcc.c ****           from AHB clock through configurable prescalers and used to clock
 185:Drivers/STM32F3xx_HAL_Driver/Src/stm32f3xx_hal_rcc.c ****           the peripherals mapped on these buses. You can use
 186:Drivers/STM32F3xx_HAL_Driver/Src/stm32f3xx_hal_rcc.c ****           "@ref HAL_RCC_GetSysClockFreq()" function to retrieve the frequencies of these clocks.
 187:Drivers/STM32F3xx_HAL_Driver/Src/stm32f3xx_hal_rcc.c **** 
 188:Drivers/STM32F3xx_HAL_Driver/Src/stm32f3xx_hal_rcc.c ****       (#) All the peripheral clocks are derived from the System clock (SYSCLK) except:
 189:Drivers/STM32F3xx_HAL_Driver/Src/stm32f3xx_hal_rcc.c ****         (++) The FLASH program/erase clock  which is always HSI 8MHz clock.
 190:Drivers/STM32F3xx_HAL_Driver/Src/stm32f3xx_hal_rcc.c ****         (++) The USB 48 MHz clock which is derived from the PLL VCO clock.
 191:Drivers/STM32F3xx_HAL_Driver/Src/stm32f3xx_hal_rcc.c ****         (++) The USART clock which can be derived as well from HSI 8MHz, LSI or LSE.
 192:Drivers/STM32F3xx_HAL_Driver/Src/stm32f3xx_hal_rcc.c ****         (++) The I2C clock which can be derived as well from HSI 8MHz clock.
 193:Drivers/STM32F3xx_HAL_Driver/Src/stm32f3xx_hal_rcc.c ****         (++) The ADC clock which is derived from PLL output.
 194:Drivers/STM32F3xx_HAL_Driver/Src/stm32f3xx_hal_rcc.c ****         (++) The RTC clock which is derived from the LSE, LSI or 1 MHz HSE_RTC
 195:Drivers/STM32F3xx_HAL_Driver/Src/stm32f3xx_hal_rcc.c ****              (HSE divided by a programmable prescaler). The System clock (SYSCLK)
 196:Drivers/STM32F3xx_HAL_Driver/Src/stm32f3xx_hal_rcc.c ****              frequency must be higher or equal to the RTC clock frequency.
 197:Drivers/STM32F3xx_HAL_Driver/Src/stm32f3xx_hal_rcc.c ****         (++) IWDG clock which is always the LSI clock.
 198:Drivers/STM32F3xx_HAL_Driver/Src/stm32f3xx_hal_rcc.c **** 
 199:Drivers/STM32F3xx_HAL_Driver/Src/stm32f3xx_hal_rcc.c ****          (#) For the STM32F3xx devices, the maximum frequency of the SYSCLK, HCLK, PCLK1 and PCLK2 
 200:Drivers/STM32F3xx_HAL_Driver/Src/stm32f3xx_hal_rcc.c ****              Depending on the SYSCLK frequency, the flash latency should be adapted accordingly.
 201:Drivers/STM32F3xx_HAL_Driver/Src/stm32f3xx_hal_rcc.c **** 
 202:Drivers/STM32F3xx_HAL_Driver/Src/stm32f3xx_hal_rcc.c ****          (#) After reset, the System clock source is the HSI (8 MHz) with 0 WS and
 203:Drivers/STM32F3xx_HAL_Driver/Src/stm32f3xx_hal_rcc.c ****              prefetch is disabled.
 204:Drivers/STM32F3xx_HAL_Driver/Src/stm32f3xx_hal_rcc.c ****   @endverbatim
 205:Drivers/STM32F3xx_HAL_Driver/Src/stm32f3xx_hal_rcc.c ****   * @{
 206:Drivers/STM32F3xx_HAL_Driver/Src/stm32f3xx_hal_rcc.c ****   */
 207:Drivers/STM32F3xx_HAL_Driver/Src/stm32f3xx_hal_rcc.c ****   
 208:Drivers/STM32F3xx_HAL_Driver/Src/stm32f3xx_hal_rcc.c **** /*
 209:Drivers/STM32F3xx_HAL_Driver/Src/stm32f3xx_hal_rcc.c ****   Additional consideration on the SYSCLK based on Latency settings:
 210:Drivers/STM32F3xx_HAL_Driver/Src/stm32f3xx_hal_rcc.c ****         +-----------------------------------------------+
 211:Drivers/STM32F3xx_HAL_Driver/Src/stm32f3xx_hal_rcc.c ****         | Latency       | SYSCLK clock frequency (MHz)  |
 212:Drivers/STM32F3xx_HAL_Driver/Src/stm32f3xx_hal_rcc.c ****         |---------------|-------------------------------|
 213:Drivers/STM32F3xx_HAL_Driver/Src/stm32f3xx_hal_rcc.c ****         |0WS(1CPU cycle)|       0 < SYSCLK <= 24        |
 214:Drivers/STM32F3xx_HAL_Driver/Src/stm32f3xx_hal_rcc.c ****         |---------------|-------------------------------|
 215:Drivers/STM32F3xx_HAL_Driver/Src/stm32f3xx_hal_rcc.c ****         |1WS(2CPU cycle)|      24 < SYSCLK <= 48        |
 216:Drivers/STM32F3xx_HAL_Driver/Src/stm32f3xx_hal_rcc.c ****         |---------------|-------------------------------|
 217:Drivers/STM32F3xx_HAL_Driver/Src/stm32f3xx_hal_rcc.c ****         |2WS(3CPU cycle)|      48 < SYSCLK <= 72        |
 218:Drivers/STM32F3xx_HAL_Driver/Src/stm32f3xx_hal_rcc.c ****         +-----------------------------------------------+
 219:Drivers/STM32F3xx_HAL_Driver/Src/stm32f3xx_hal_rcc.c ****   */
ARM GAS  C:\Users\RARES~1.COV\AppData\Local\Temp\cc8OUGVm.s 			page 6


 220:Drivers/STM32F3xx_HAL_Driver/Src/stm32f3xx_hal_rcc.c **** 
 221:Drivers/STM32F3xx_HAL_Driver/Src/stm32f3xx_hal_rcc.c **** /**
 222:Drivers/STM32F3xx_HAL_Driver/Src/stm32f3xx_hal_rcc.c ****   * @brief  Resets the RCC clock configuration to the default reset state.
 223:Drivers/STM32F3xx_HAL_Driver/Src/stm32f3xx_hal_rcc.c ****   * @note   The default reset state of the clock configuration is given below:
 224:Drivers/STM32F3xx_HAL_Driver/Src/stm32f3xx_hal_rcc.c ****   *            - HSI ON and used as system clock source
 225:Drivers/STM32F3xx_HAL_Driver/Src/stm32f3xx_hal_rcc.c ****   *            - HSE and PLL OFF
 226:Drivers/STM32F3xx_HAL_Driver/Src/stm32f3xx_hal_rcc.c ****   *            - AHB, APB1 and APB2 prescaler set to 1.
 227:Drivers/STM32F3xx_HAL_Driver/Src/stm32f3xx_hal_rcc.c ****   *            - CSS and MCO1 OFF
 228:Drivers/STM32F3xx_HAL_Driver/Src/stm32f3xx_hal_rcc.c ****   *            - All interrupts disabled
 229:Drivers/STM32F3xx_HAL_Driver/Src/stm32f3xx_hal_rcc.c ****   * @note   This function does not modify the configuration of the
 230:Drivers/STM32F3xx_HAL_Driver/Src/stm32f3xx_hal_rcc.c ****   *            - Peripheral clocks
 231:Drivers/STM32F3xx_HAL_Driver/Src/stm32f3xx_hal_rcc.c ****   *            - LSI, LSE and RTC clocks
 232:Drivers/STM32F3xx_HAL_Driver/Src/stm32f3xx_hal_rcc.c ****   * @retval None
 233:Drivers/STM32F3xx_HAL_Driver/Src/stm32f3xx_hal_rcc.c ****   */
 234:Drivers/STM32F3xx_HAL_Driver/Src/stm32f3xx_hal_rcc.c **** void HAL_RCC_DeInit(void)
 235:Drivers/STM32F3xx_HAL_Driver/Src/stm32f3xx_hal_rcc.c **** {
  72              		.loc 1 235 0
  73              		.cfi_startproc
  74              		@ args = 0, pretend = 0, frame = 0
  75              		@ frame_needed = 1, uses_anonymous_args = 0
  76              		@ link register save eliminated.
  77 0000 80B4     		push	{r7}
  78              	.LCFI0:
  79              		.cfi_def_cfa_offset 4
  80              		.cfi_offset 7, -4
  81 0002 00AF     		add	r7, sp, #0
  82              	.LCFI1:
  83              		.cfi_def_cfa_register 7
 236:Drivers/STM32F3xx_HAL_Driver/Src/stm32f3xx_hal_rcc.c ****   /* Set HSION bit, HSITRIM[4:0] bits to the reset value*/
 237:Drivers/STM32F3xx_HAL_Driver/Src/stm32f3xx_hal_rcc.c ****   SET_BIT(RCC->CR, RCC_CR_HSION | RCC_CR_HSITRIM_4); 
  84              		.loc 1 237 0
  85 0004 164A     		ldr	r2, .L2
  86 0006 164B     		ldr	r3, .L2
  87 0008 1B68     		ldr	r3, [r3]
  88 000a 43F08103 		orr	r3, r3, #129
  89 000e 1360     		str	r3, [r2]
 238:Drivers/STM32F3xx_HAL_Driver/Src/stm32f3xx_hal_rcc.c **** 
 239:Drivers/STM32F3xx_HAL_Driver/Src/stm32f3xx_hal_rcc.c ****   /* Reset SW[1:0], HPRE[3:0], PPRE1[2:0], PPRE2[2:0] and MCOSEL[2:0] bits */
 240:Drivers/STM32F3xx_HAL_Driver/Src/stm32f3xx_hal_rcc.c ****   CLEAR_BIT(RCC->CFGR, RCC_CFGR_SW | RCC_CFGR_HPRE | RCC_CFGR_PPRE1 | RCC_CFGR_PPRE2 | RCC_CFGR_MCO
  90              		.loc 1 240 0
  91 0010 1349     		ldr	r1, .L2
  92 0012 134B     		ldr	r3, .L2
  93 0014 5A68     		ldr	r2, [r3, #4]
  94 0016 134B     		ldr	r3, .L2+4
  95 0018 1340     		ands	r3, r3, r2
  96 001a 4B60     		str	r3, [r1, #4]
 241:Drivers/STM32F3xx_HAL_Driver/Src/stm32f3xx_hal_rcc.c **** 
 242:Drivers/STM32F3xx_HAL_Driver/Src/stm32f3xx_hal_rcc.c ****   /* Reset HSEON, CSSON, PLLON bits */
 243:Drivers/STM32F3xx_HAL_Driver/Src/stm32f3xx_hal_rcc.c ****   CLEAR_BIT(RCC->CR, RCC_CR_PLLON | RCC_CR_CSSON | RCC_CR_HSEON);
  97              		.loc 1 243 0
  98 001c 104A     		ldr	r2, .L2
  99 001e 104B     		ldr	r3, .L2
 100 0020 1B68     		ldr	r3, [r3]
 101 0022 23F08473 		bic	r3, r3, #17301504
 102 0026 23F48033 		bic	r3, r3, #65536
 103 002a 1360     		str	r3, [r2]
 244:Drivers/STM32F3xx_HAL_Driver/Src/stm32f3xx_hal_rcc.c ****   
ARM GAS  C:\Users\RARES~1.COV\AppData\Local\Temp\cc8OUGVm.s 			page 7


 245:Drivers/STM32F3xx_HAL_Driver/Src/stm32f3xx_hal_rcc.c ****   /* Reset HSEBYP bit */
 246:Drivers/STM32F3xx_HAL_Driver/Src/stm32f3xx_hal_rcc.c ****   CLEAR_BIT(RCC->CR, RCC_CR_HSEBYP);
 104              		.loc 1 246 0
 105 002c 0C4A     		ldr	r2, .L2
 106 002e 0C4B     		ldr	r3, .L2
 107 0030 1B68     		ldr	r3, [r3]
 108 0032 23F48023 		bic	r3, r3, #262144
 109 0036 1360     		str	r3, [r2]
 247:Drivers/STM32F3xx_HAL_Driver/Src/stm32f3xx_hal_rcc.c **** 
 248:Drivers/STM32F3xx_HAL_Driver/Src/stm32f3xx_hal_rcc.c ****   /* Reset CFGR register */
 249:Drivers/STM32F3xx_HAL_Driver/Src/stm32f3xx_hal_rcc.c ****   CLEAR_REG(RCC->CFGR);
 110              		.loc 1 249 0
 111 0038 094B     		ldr	r3, .L2
 112 003a 0022     		movs	r2, #0
 113 003c 5A60     		str	r2, [r3, #4]
 250:Drivers/STM32F3xx_HAL_Driver/Src/stm32f3xx_hal_rcc.c ****   
 251:Drivers/STM32F3xx_HAL_Driver/Src/stm32f3xx_hal_rcc.c ****   /* Reset CFGR2 register */
 252:Drivers/STM32F3xx_HAL_Driver/Src/stm32f3xx_hal_rcc.c ****   CLEAR_REG(RCC->CFGR2);
 114              		.loc 1 252 0
 115 003e 084B     		ldr	r3, .L2
 116 0040 0022     		movs	r2, #0
 117 0042 DA62     		str	r2, [r3, #44]
 253:Drivers/STM32F3xx_HAL_Driver/Src/stm32f3xx_hal_rcc.c ****   
 254:Drivers/STM32F3xx_HAL_Driver/Src/stm32f3xx_hal_rcc.c ****   /* Reset CFGR3 register */
 255:Drivers/STM32F3xx_HAL_Driver/Src/stm32f3xx_hal_rcc.c ****   CLEAR_REG(RCC->CFGR3);
 118              		.loc 1 255 0
 119 0044 064B     		ldr	r3, .L2
 120 0046 0022     		movs	r2, #0
 121 0048 1A63     		str	r2, [r3, #48]
 256:Drivers/STM32F3xx_HAL_Driver/Src/stm32f3xx_hal_rcc.c ****   
 257:Drivers/STM32F3xx_HAL_Driver/Src/stm32f3xx_hal_rcc.c ****   /* Disable all interrupts */
 258:Drivers/STM32F3xx_HAL_Driver/Src/stm32f3xx_hal_rcc.c ****   CLEAR_REG(RCC->CIR);
 122              		.loc 1 258 0
 123 004a 054B     		ldr	r3, .L2
 124 004c 0022     		movs	r2, #0
 125 004e 9A60     		str	r2, [r3, #8]
 259:Drivers/STM32F3xx_HAL_Driver/Src/stm32f3xx_hal_rcc.c **** 
 260:Drivers/STM32F3xx_HAL_Driver/Src/stm32f3xx_hal_rcc.c ****   /* Update the SystemCoreClock global variable */
 261:Drivers/STM32F3xx_HAL_Driver/Src/stm32f3xx_hal_rcc.c ****   SystemCoreClock = HSI_VALUE;
 126              		.loc 1 261 0
 127 0050 054B     		ldr	r3, .L2+8
 128 0052 064A     		ldr	r2, .L2+12
 129 0054 1A60     		str	r2, [r3]
 262:Drivers/STM32F3xx_HAL_Driver/Src/stm32f3xx_hal_rcc.c **** }
 130              		.loc 1 262 0
 131 0056 00BF     		nop
 132 0058 BD46     		mov	sp, r7
 133              	.LCFI2:
 134              		.cfi_def_cfa_register 13
 135              		@ sp needed
 136 005a 5DF8047B 		ldr	r7, [sp], #4
 137              	.LCFI3:
 138              		.cfi_restore 7
 139              		.cfi_def_cfa_offset 0
 140 005e 7047     		bx	lr
 141              	.L3:
 142              		.align	2
ARM GAS  C:\Users\RARES~1.COV\AppData\Local\Temp\cc8OUGVm.s 			page 8


 143              	.L2:
 144 0060 00100240 		.word	1073876992
 145 0064 0CC0FFF8 		.word	-117456884
 146 0068 00000000 		.word	SystemCoreClock
 147 006c 00127A00 		.word	8000000
 148              		.cfi_endproc
 149              	.LFE126:
 151              		.section	.text.HAL_RCC_OscConfig,"ax",%progbits
 152              		.align	1
 153              		.global	HAL_RCC_OscConfig
 154              		.syntax unified
 155              		.thumb
 156              		.thumb_func
 157              		.fpu fpv4-sp-d16
 159              	HAL_RCC_OscConfig:
 160              	.LFB127:
 263:Drivers/STM32F3xx_HAL_Driver/Src/stm32f3xx_hal_rcc.c **** 
 264:Drivers/STM32F3xx_HAL_Driver/Src/stm32f3xx_hal_rcc.c **** /**
 265:Drivers/STM32F3xx_HAL_Driver/Src/stm32f3xx_hal_rcc.c ****   * @brief  Initializes the RCC Oscillators according to the specified parameters in the
 266:Drivers/STM32F3xx_HAL_Driver/Src/stm32f3xx_hal_rcc.c ****   *         RCC_OscInitTypeDef.
 267:Drivers/STM32F3xx_HAL_Driver/Src/stm32f3xx_hal_rcc.c ****   * @param  RCC_OscInitStruct pointer to an RCC_OscInitTypeDef structure that
 268:Drivers/STM32F3xx_HAL_Driver/Src/stm32f3xx_hal_rcc.c ****   *         contains the configuration information for the RCC Oscillators.
 269:Drivers/STM32F3xx_HAL_Driver/Src/stm32f3xx_hal_rcc.c ****   * @note   The PLL is not disabled when used as system clock.
 270:Drivers/STM32F3xx_HAL_Driver/Src/stm32f3xx_hal_rcc.c ****   * @note   Transitions LSE Bypass to LSE On and LSE On to LSE Bypass are not
 271:Drivers/STM32F3xx_HAL_Driver/Src/stm32f3xx_hal_rcc.c ****   *         supported by this macro. User should request a transition to LSE Off
 272:Drivers/STM32F3xx_HAL_Driver/Src/stm32f3xx_hal_rcc.c ****   *         first and then LSE On or LSE Bypass.
 273:Drivers/STM32F3xx_HAL_Driver/Src/stm32f3xx_hal_rcc.c ****   * @note   Transition HSE Bypass to HSE On and HSE On to HSE Bypass are not
 274:Drivers/STM32F3xx_HAL_Driver/Src/stm32f3xx_hal_rcc.c ****   *         supported by this macro. User should request a transition to HSE Off
 275:Drivers/STM32F3xx_HAL_Driver/Src/stm32f3xx_hal_rcc.c ****   *         first and then HSE On or HSE Bypass.
 276:Drivers/STM32F3xx_HAL_Driver/Src/stm32f3xx_hal_rcc.c ****   * @retval HAL status
 277:Drivers/STM32F3xx_HAL_Driver/Src/stm32f3xx_hal_rcc.c ****   */
 278:Drivers/STM32F3xx_HAL_Driver/Src/stm32f3xx_hal_rcc.c **** HAL_StatusTypeDef HAL_RCC_OscConfig(RCC_OscInitTypeDef  *RCC_OscInitStruct)
 279:Drivers/STM32F3xx_HAL_Driver/Src/stm32f3xx_hal_rcc.c **** {
 161              		.loc 1 279 0
 162              		.cfi_startproc
 163              		@ args = 0, pretend = 0, frame = 512
 164              		@ frame_needed = 1, uses_anonymous_args = 0
 165 0000 80B5     		push	{r7, lr}
 166              	.LCFI4:
 167              		.cfi_def_cfa_offset 8
 168              		.cfi_offset 7, -8
 169              		.cfi_offset 14, -4
 170 0002 ADF5007D 		sub	sp, sp, #512
 171              	.LCFI5:
 172              		.cfi_def_cfa_offset 520
 173 0006 00AF     		add	r7, sp, #0
 174              	.LCFI6:
 175              		.cfi_def_cfa_register 7
 176 0008 3B1D     		adds	r3, r7, #4
 177 000a 1860     		str	r0, [r3]
 280:Drivers/STM32F3xx_HAL_Driver/Src/stm32f3xx_hal_rcc.c ****    uint32_t tickstart = 0U;
 178              		.loc 1 280 0
 179 000c 0023     		movs	r3, #0
 180 000e C7F8F831 		str	r3, [r7, #504]
 281:Drivers/STM32F3xx_HAL_Driver/Src/stm32f3xx_hal_rcc.c ****   
 282:Drivers/STM32F3xx_HAL_Driver/Src/stm32f3xx_hal_rcc.c ****   /* Check the parameters */
 283:Drivers/STM32F3xx_HAL_Driver/Src/stm32f3xx_hal_rcc.c ****   assert_param(RCC_OscInitStruct != NULL);
ARM GAS  C:\Users\RARES~1.COV\AppData\Local\Temp\cc8OUGVm.s 			page 9


 284:Drivers/STM32F3xx_HAL_Driver/Src/stm32f3xx_hal_rcc.c ****   assert_param(IS_RCC_OSCILLATORTYPE(RCC_OscInitStruct->OscillatorType));
 285:Drivers/STM32F3xx_HAL_Driver/Src/stm32f3xx_hal_rcc.c **** 
 286:Drivers/STM32F3xx_HAL_Driver/Src/stm32f3xx_hal_rcc.c ****   /*------------------------------- HSE Configuration ------------------------*/ 
 287:Drivers/STM32F3xx_HAL_Driver/Src/stm32f3xx_hal_rcc.c ****   if(((RCC_OscInitStruct->OscillatorType) & RCC_OSCILLATORTYPE_HSE) == RCC_OSCILLATORTYPE_HSE)
 181              		.loc 1 287 0
 182 0012 3B1D     		adds	r3, r7, #4
 183 0014 1B68     		ldr	r3, [r3]
 184 0016 1B68     		ldr	r3, [r3]
 185 0018 03F00103 		and	r3, r3, #1
 186 001c 002B     		cmp	r3, #0
 187 001e 00F06081 		beq	.L5
 288:Drivers/STM32F3xx_HAL_Driver/Src/stm32f3xx_hal_rcc.c ****   {
 289:Drivers/STM32F3xx_HAL_Driver/Src/stm32f3xx_hal_rcc.c ****     /* Check the parameters */
 290:Drivers/STM32F3xx_HAL_Driver/Src/stm32f3xx_hal_rcc.c ****     assert_param(IS_RCC_HSE(RCC_OscInitStruct->HSEState));
 291:Drivers/STM32F3xx_HAL_Driver/Src/stm32f3xx_hal_rcc.c **** 
 292:Drivers/STM32F3xx_HAL_Driver/Src/stm32f3xx_hal_rcc.c ****     /* When the HSE is used as system clock or clock source for PLL in these cases it is not allowe
 293:Drivers/STM32F3xx_HAL_Driver/Src/stm32f3xx_hal_rcc.c ****     if((__HAL_RCC_GET_SYSCLK_SOURCE() == RCC_SYSCLKSOURCE_STATUS_HSE) 
 188              		.loc 1 293 0
 189 0022 AE4B     		ldr	r3, .L142
 190 0024 5B68     		ldr	r3, [r3, #4]
 191 0026 03F00C03 		and	r3, r3, #12
 192 002a 042B     		cmp	r3, #4
 193 002c 0CD0     		beq	.L6
 294:Drivers/STM32F3xx_HAL_Driver/Src/stm32f3xx_hal_rcc.c ****        || ((__HAL_RCC_GET_SYSCLK_SOURCE() == RCC_SYSCLKSOURCE_STATUS_PLLCLK) && (__HAL_RCC_GET_PLL_
 194              		.loc 1 294 0
 195 002e AB4B     		ldr	r3, .L142
 196 0030 5B68     		ldr	r3, [r3, #4]
 197 0032 03F00C03 		and	r3, r3, #12
 198 0036 082B     		cmp	r3, #8
 199 0038 59D1     		bne	.L7
 200              		.loc 1 294 0 is_stmt 0 discriminator 1
 201 003a A84B     		ldr	r3, .L142
 202 003c 5B68     		ldr	r3, [r3, #4]
 203 003e 03F4C033 		and	r3, r3, #98304
 204 0042 B3F5803F 		cmp	r3, #65536
 205 0046 52D1     		bne	.L7
 206              	.L6:
 207 0048 4FF40033 		mov	r3, #131072
 208 004c C7F8F431 		str	r3, [r7, #500]
 209              	.LBB166:
 210              	.LBB167:
 211              		.file 2 "Drivers/CMSIS/Include/cmsis_gcc.h"
   1:Drivers/CMSIS/Include/cmsis_gcc.h **** /**************************************************************************//**
   2:Drivers/CMSIS/Include/cmsis_gcc.h ****  * @file     cmsis_gcc.h
   3:Drivers/CMSIS/Include/cmsis_gcc.h ****  * @brief    CMSIS Cortex-M Core Function/Instruction Header File
   4:Drivers/CMSIS/Include/cmsis_gcc.h ****  * @version  V4.30
   5:Drivers/CMSIS/Include/cmsis_gcc.h ****  * @date     20. October 2015
   6:Drivers/CMSIS/Include/cmsis_gcc.h ****  ******************************************************************************/
   7:Drivers/CMSIS/Include/cmsis_gcc.h **** /* Copyright (c) 2009 - 2015 ARM LIMITED
   8:Drivers/CMSIS/Include/cmsis_gcc.h **** 
   9:Drivers/CMSIS/Include/cmsis_gcc.h ****    All rights reserved.
  10:Drivers/CMSIS/Include/cmsis_gcc.h ****    Redistribution and use in source and binary forms, with or without
  11:Drivers/CMSIS/Include/cmsis_gcc.h ****    modification, are permitted provided that the following conditions are met:
  12:Drivers/CMSIS/Include/cmsis_gcc.h ****    - Redistributions of source code must retain the above copyright
  13:Drivers/CMSIS/Include/cmsis_gcc.h ****      notice, this list of conditions and the following disclaimer.
  14:Drivers/CMSIS/Include/cmsis_gcc.h ****    - Redistributions in binary form must reproduce the above copyright
  15:Drivers/CMSIS/Include/cmsis_gcc.h ****      notice, this list of conditions and the following disclaimer in the
ARM GAS  C:\Users\RARES~1.COV\AppData\Local\Temp\cc8OUGVm.s 			page 10


  16:Drivers/CMSIS/Include/cmsis_gcc.h ****      documentation and/or other materials provided with the distribution.
  17:Drivers/CMSIS/Include/cmsis_gcc.h ****    - Neither the name of ARM nor the names of its contributors may be used
  18:Drivers/CMSIS/Include/cmsis_gcc.h ****      to endorse or promote products derived from this software without
  19:Drivers/CMSIS/Include/cmsis_gcc.h ****      specific prior written permission.
  20:Drivers/CMSIS/Include/cmsis_gcc.h ****    *
  21:Drivers/CMSIS/Include/cmsis_gcc.h ****    THIS SOFTWARE IS PROVIDED BY THE COPYRIGHT HOLDERS AND CONTRIBUTORS "AS IS"
  22:Drivers/CMSIS/Include/cmsis_gcc.h ****    AND ANY EXPRESS OR IMPLIED WARRANTIES, INCLUDING, BUT NOT LIMITED TO, THE
  23:Drivers/CMSIS/Include/cmsis_gcc.h ****    IMPLIED WARRANTIES OF MERCHANTABILITY AND FITNESS FOR A PARTICULAR PURPOSE
  24:Drivers/CMSIS/Include/cmsis_gcc.h ****    ARE DISCLAIMED. IN NO EVENT SHALL COPYRIGHT HOLDERS AND CONTRIBUTORS BE
  25:Drivers/CMSIS/Include/cmsis_gcc.h ****    LIABLE FOR ANY DIRECT, INDIRECT, INCIDENTAL, SPECIAL, EXEMPLARY, OR
  26:Drivers/CMSIS/Include/cmsis_gcc.h ****    CONSEQUENTIAL DAMAGES (INCLUDING, BUT NOT LIMITED TO, PROCUREMENT OF
  27:Drivers/CMSIS/Include/cmsis_gcc.h ****    SUBSTITUTE GOODS OR SERVICES; LOSS OF USE, DATA, OR PROFITS; OR BUSINESS
  28:Drivers/CMSIS/Include/cmsis_gcc.h ****    INTERRUPTION) HOWEVER CAUSED AND ON ANY THEORY OF LIABILITY, WHETHER IN
  29:Drivers/CMSIS/Include/cmsis_gcc.h ****    CONTRACT, STRICT LIABILITY, OR TORT (INCLUDING NEGLIGENCE OR OTHERWISE)
  30:Drivers/CMSIS/Include/cmsis_gcc.h ****    ARISING IN ANY WAY OUT OF THE USE OF THIS SOFTWARE, EVEN IF ADVISED OF THE
  31:Drivers/CMSIS/Include/cmsis_gcc.h ****    POSSIBILITY OF SUCH DAMAGE.
  32:Drivers/CMSIS/Include/cmsis_gcc.h ****    ---------------------------------------------------------------------------*/
  33:Drivers/CMSIS/Include/cmsis_gcc.h **** 
  34:Drivers/CMSIS/Include/cmsis_gcc.h **** 
  35:Drivers/CMSIS/Include/cmsis_gcc.h **** #ifndef __CMSIS_GCC_H
  36:Drivers/CMSIS/Include/cmsis_gcc.h **** #define __CMSIS_GCC_H
  37:Drivers/CMSIS/Include/cmsis_gcc.h **** 
  38:Drivers/CMSIS/Include/cmsis_gcc.h **** /* ignore some GCC warnings */
  39:Drivers/CMSIS/Include/cmsis_gcc.h **** #if defined ( __GNUC__ )
  40:Drivers/CMSIS/Include/cmsis_gcc.h **** #pragma GCC diagnostic push
  41:Drivers/CMSIS/Include/cmsis_gcc.h **** #pragma GCC diagnostic ignored "-Wsign-conversion"
  42:Drivers/CMSIS/Include/cmsis_gcc.h **** #pragma GCC diagnostic ignored "-Wconversion"
  43:Drivers/CMSIS/Include/cmsis_gcc.h **** #pragma GCC diagnostic ignored "-Wunused-parameter"
  44:Drivers/CMSIS/Include/cmsis_gcc.h **** #endif
  45:Drivers/CMSIS/Include/cmsis_gcc.h **** 
  46:Drivers/CMSIS/Include/cmsis_gcc.h **** 
  47:Drivers/CMSIS/Include/cmsis_gcc.h **** /* ###########################  Core Function Access  ########################### */
  48:Drivers/CMSIS/Include/cmsis_gcc.h **** /** \ingroup  CMSIS_Core_FunctionInterface
  49:Drivers/CMSIS/Include/cmsis_gcc.h ****     \defgroup CMSIS_Core_RegAccFunctions CMSIS Core Register Access Functions
  50:Drivers/CMSIS/Include/cmsis_gcc.h ****   @{
  51:Drivers/CMSIS/Include/cmsis_gcc.h ****  */
  52:Drivers/CMSIS/Include/cmsis_gcc.h **** 
  53:Drivers/CMSIS/Include/cmsis_gcc.h **** /**
  54:Drivers/CMSIS/Include/cmsis_gcc.h ****   \brief   Enable IRQ Interrupts
  55:Drivers/CMSIS/Include/cmsis_gcc.h ****   \details Enables IRQ interrupts by clearing the I-bit in the CPSR.
  56:Drivers/CMSIS/Include/cmsis_gcc.h ****            Can only be executed in Privileged modes.
  57:Drivers/CMSIS/Include/cmsis_gcc.h ****  */
  58:Drivers/CMSIS/Include/cmsis_gcc.h **** __attribute__( ( always_inline ) ) __STATIC_INLINE void __enable_irq(void)
  59:Drivers/CMSIS/Include/cmsis_gcc.h **** {
  60:Drivers/CMSIS/Include/cmsis_gcc.h ****   __ASM volatile ("cpsie i" : : : "memory");
  61:Drivers/CMSIS/Include/cmsis_gcc.h **** }
  62:Drivers/CMSIS/Include/cmsis_gcc.h **** 
  63:Drivers/CMSIS/Include/cmsis_gcc.h **** 
  64:Drivers/CMSIS/Include/cmsis_gcc.h **** /**
  65:Drivers/CMSIS/Include/cmsis_gcc.h ****   \brief   Disable IRQ Interrupts
  66:Drivers/CMSIS/Include/cmsis_gcc.h ****   \details Disables IRQ interrupts by setting the I-bit in the CPSR.
  67:Drivers/CMSIS/Include/cmsis_gcc.h ****   Can only be executed in Privileged modes.
  68:Drivers/CMSIS/Include/cmsis_gcc.h ****  */
  69:Drivers/CMSIS/Include/cmsis_gcc.h **** __attribute__( ( always_inline ) ) __STATIC_INLINE void __disable_irq(void)
  70:Drivers/CMSIS/Include/cmsis_gcc.h **** {
  71:Drivers/CMSIS/Include/cmsis_gcc.h ****   __ASM volatile ("cpsid i" : : : "memory");
  72:Drivers/CMSIS/Include/cmsis_gcc.h **** }
ARM GAS  C:\Users\RARES~1.COV\AppData\Local\Temp\cc8OUGVm.s 			page 11


  73:Drivers/CMSIS/Include/cmsis_gcc.h **** 
  74:Drivers/CMSIS/Include/cmsis_gcc.h **** 
  75:Drivers/CMSIS/Include/cmsis_gcc.h **** /**
  76:Drivers/CMSIS/Include/cmsis_gcc.h ****   \brief   Get Control Register
  77:Drivers/CMSIS/Include/cmsis_gcc.h ****   \details Returns the content of the Control Register.
  78:Drivers/CMSIS/Include/cmsis_gcc.h ****   \return               Control Register value
  79:Drivers/CMSIS/Include/cmsis_gcc.h ****  */
  80:Drivers/CMSIS/Include/cmsis_gcc.h **** __attribute__( ( always_inline ) ) __STATIC_INLINE uint32_t __get_CONTROL(void)
  81:Drivers/CMSIS/Include/cmsis_gcc.h **** {
  82:Drivers/CMSIS/Include/cmsis_gcc.h ****   uint32_t result;
  83:Drivers/CMSIS/Include/cmsis_gcc.h **** 
  84:Drivers/CMSIS/Include/cmsis_gcc.h ****   __ASM volatile ("MRS %0, control" : "=r" (result) );
  85:Drivers/CMSIS/Include/cmsis_gcc.h ****   return(result);
  86:Drivers/CMSIS/Include/cmsis_gcc.h **** }
  87:Drivers/CMSIS/Include/cmsis_gcc.h **** 
  88:Drivers/CMSIS/Include/cmsis_gcc.h **** 
  89:Drivers/CMSIS/Include/cmsis_gcc.h **** /**
  90:Drivers/CMSIS/Include/cmsis_gcc.h ****   \brief   Set Control Register
  91:Drivers/CMSIS/Include/cmsis_gcc.h ****   \details Writes the given value to the Control Register.
  92:Drivers/CMSIS/Include/cmsis_gcc.h ****   \param [in]    control  Control Register value to set
  93:Drivers/CMSIS/Include/cmsis_gcc.h ****  */
  94:Drivers/CMSIS/Include/cmsis_gcc.h **** __attribute__( ( always_inline ) ) __STATIC_INLINE void __set_CONTROL(uint32_t control)
  95:Drivers/CMSIS/Include/cmsis_gcc.h **** {
  96:Drivers/CMSIS/Include/cmsis_gcc.h ****   __ASM volatile ("MSR control, %0" : : "r" (control) : "memory");
  97:Drivers/CMSIS/Include/cmsis_gcc.h **** }
  98:Drivers/CMSIS/Include/cmsis_gcc.h **** 
  99:Drivers/CMSIS/Include/cmsis_gcc.h **** 
 100:Drivers/CMSIS/Include/cmsis_gcc.h **** /**
 101:Drivers/CMSIS/Include/cmsis_gcc.h ****   \brief   Get IPSR Register
 102:Drivers/CMSIS/Include/cmsis_gcc.h ****   \details Returns the content of the IPSR Register.
 103:Drivers/CMSIS/Include/cmsis_gcc.h ****   \return               IPSR Register value
 104:Drivers/CMSIS/Include/cmsis_gcc.h ****  */
 105:Drivers/CMSIS/Include/cmsis_gcc.h **** __attribute__( ( always_inline ) ) __STATIC_INLINE uint32_t __get_IPSR(void)
 106:Drivers/CMSIS/Include/cmsis_gcc.h **** {
 107:Drivers/CMSIS/Include/cmsis_gcc.h ****   uint32_t result;
 108:Drivers/CMSIS/Include/cmsis_gcc.h **** 
 109:Drivers/CMSIS/Include/cmsis_gcc.h ****   __ASM volatile ("MRS %0, ipsr" : "=r" (result) );
 110:Drivers/CMSIS/Include/cmsis_gcc.h ****   return(result);
 111:Drivers/CMSIS/Include/cmsis_gcc.h **** }
 112:Drivers/CMSIS/Include/cmsis_gcc.h **** 
 113:Drivers/CMSIS/Include/cmsis_gcc.h **** 
 114:Drivers/CMSIS/Include/cmsis_gcc.h **** /**
 115:Drivers/CMSIS/Include/cmsis_gcc.h ****   \brief   Get APSR Register
 116:Drivers/CMSIS/Include/cmsis_gcc.h ****   \details Returns the content of the APSR Register.
 117:Drivers/CMSIS/Include/cmsis_gcc.h ****   \return               APSR Register value
 118:Drivers/CMSIS/Include/cmsis_gcc.h ****  */
 119:Drivers/CMSIS/Include/cmsis_gcc.h **** __attribute__( ( always_inline ) ) __STATIC_INLINE uint32_t __get_APSR(void)
 120:Drivers/CMSIS/Include/cmsis_gcc.h **** {
 121:Drivers/CMSIS/Include/cmsis_gcc.h ****   uint32_t result;
 122:Drivers/CMSIS/Include/cmsis_gcc.h **** 
 123:Drivers/CMSIS/Include/cmsis_gcc.h ****   __ASM volatile ("MRS %0, apsr" : "=r" (result) );
 124:Drivers/CMSIS/Include/cmsis_gcc.h ****   return(result);
 125:Drivers/CMSIS/Include/cmsis_gcc.h **** }
 126:Drivers/CMSIS/Include/cmsis_gcc.h **** 
 127:Drivers/CMSIS/Include/cmsis_gcc.h **** 
 128:Drivers/CMSIS/Include/cmsis_gcc.h **** /**
 129:Drivers/CMSIS/Include/cmsis_gcc.h ****   \brief   Get xPSR Register
ARM GAS  C:\Users\RARES~1.COV\AppData\Local\Temp\cc8OUGVm.s 			page 12


 130:Drivers/CMSIS/Include/cmsis_gcc.h ****   \details Returns the content of the xPSR Register.
 131:Drivers/CMSIS/Include/cmsis_gcc.h **** 
 132:Drivers/CMSIS/Include/cmsis_gcc.h ****     \return               xPSR Register value
 133:Drivers/CMSIS/Include/cmsis_gcc.h ****  */
 134:Drivers/CMSIS/Include/cmsis_gcc.h **** __attribute__( ( always_inline ) ) __STATIC_INLINE uint32_t __get_xPSR(void)
 135:Drivers/CMSIS/Include/cmsis_gcc.h **** {
 136:Drivers/CMSIS/Include/cmsis_gcc.h ****   uint32_t result;
 137:Drivers/CMSIS/Include/cmsis_gcc.h **** 
 138:Drivers/CMSIS/Include/cmsis_gcc.h ****   __ASM volatile ("MRS %0, xpsr" : "=r" (result) );
 139:Drivers/CMSIS/Include/cmsis_gcc.h ****   return(result);
 140:Drivers/CMSIS/Include/cmsis_gcc.h **** }
 141:Drivers/CMSIS/Include/cmsis_gcc.h **** 
 142:Drivers/CMSIS/Include/cmsis_gcc.h **** 
 143:Drivers/CMSIS/Include/cmsis_gcc.h **** /**
 144:Drivers/CMSIS/Include/cmsis_gcc.h ****   \brief   Get Process Stack Pointer
 145:Drivers/CMSIS/Include/cmsis_gcc.h ****   \details Returns the current value of the Process Stack Pointer (PSP).
 146:Drivers/CMSIS/Include/cmsis_gcc.h ****   \return               PSP Register value
 147:Drivers/CMSIS/Include/cmsis_gcc.h ****  */
 148:Drivers/CMSIS/Include/cmsis_gcc.h **** __attribute__( ( always_inline ) ) __STATIC_INLINE uint32_t __get_PSP(void)
 149:Drivers/CMSIS/Include/cmsis_gcc.h **** {
 150:Drivers/CMSIS/Include/cmsis_gcc.h ****   register uint32_t result;
 151:Drivers/CMSIS/Include/cmsis_gcc.h **** 
 152:Drivers/CMSIS/Include/cmsis_gcc.h ****   __ASM volatile ("MRS %0, psp\n"  : "=r" (result) );
 153:Drivers/CMSIS/Include/cmsis_gcc.h ****   return(result);
 154:Drivers/CMSIS/Include/cmsis_gcc.h **** }
 155:Drivers/CMSIS/Include/cmsis_gcc.h **** 
 156:Drivers/CMSIS/Include/cmsis_gcc.h **** 
 157:Drivers/CMSIS/Include/cmsis_gcc.h **** /**
 158:Drivers/CMSIS/Include/cmsis_gcc.h ****   \brief   Set Process Stack Pointer
 159:Drivers/CMSIS/Include/cmsis_gcc.h ****   \details Assigns the given value to the Process Stack Pointer (PSP).
 160:Drivers/CMSIS/Include/cmsis_gcc.h ****   \param [in]    topOfProcStack  Process Stack Pointer value to set
 161:Drivers/CMSIS/Include/cmsis_gcc.h ****  */
 162:Drivers/CMSIS/Include/cmsis_gcc.h **** __attribute__( ( always_inline ) ) __STATIC_INLINE void __set_PSP(uint32_t topOfProcStack)
 163:Drivers/CMSIS/Include/cmsis_gcc.h **** {
 164:Drivers/CMSIS/Include/cmsis_gcc.h ****   __ASM volatile ("MSR psp, %0\n" : : "r" (topOfProcStack) : "sp");
 165:Drivers/CMSIS/Include/cmsis_gcc.h **** }
 166:Drivers/CMSIS/Include/cmsis_gcc.h **** 
 167:Drivers/CMSIS/Include/cmsis_gcc.h **** 
 168:Drivers/CMSIS/Include/cmsis_gcc.h **** /**
 169:Drivers/CMSIS/Include/cmsis_gcc.h ****   \brief   Get Main Stack Pointer
 170:Drivers/CMSIS/Include/cmsis_gcc.h ****   \details Returns the current value of the Main Stack Pointer (MSP).
 171:Drivers/CMSIS/Include/cmsis_gcc.h ****   \return               MSP Register value
 172:Drivers/CMSIS/Include/cmsis_gcc.h ****  */
 173:Drivers/CMSIS/Include/cmsis_gcc.h **** __attribute__( ( always_inline ) ) __STATIC_INLINE uint32_t __get_MSP(void)
 174:Drivers/CMSIS/Include/cmsis_gcc.h **** {
 175:Drivers/CMSIS/Include/cmsis_gcc.h ****   register uint32_t result;
 176:Drivers/CMSIS/Include/cmsis_gcc.h **** 
 177:Drivers/CMSIS/Include/cmsis_gcc.h ****   __ASM volatile ("MRS %0, msp\n" : "=r" (result) );
 178:Drivers/CMSIS/Include/cmsis_gcc.h ****   return(result);
 179:Drivers/CMSIS/Include/cmsis_gcc.h **** }
 180:Drivers/CMSIS/Include/cmsis_gcc.h **** 
 181:Drivers/CMSIS/Include/cmsis_gcc.h **** 
 182:Drivers/CMSIS/Include/cmsis_gcc.h **** /**
 183:Drivers/CMSIS/Include/cmsis_gcc.h ****   \brief   Set Main Stack Pointer
 184:Drivers/CMSIS/Include/cmsis_gcc.h ****   \details Assigns the given value to the Main Stack Pointer (MSP).
 185:Drivers/CMSIS/Include/cmsis_gcc.h **** 
 186:Drivers/CMSIS/Include/cmsis_gcc.h ****     \param [in]    topOfMainStack  Main Stack Pointer value to set
ARM GAS  C:\Users\RARES~1.COV\AppData\Local\Temp\cc8OUGVm.s 			page 13


 187:Drivers/CMSIS/Include/cmsis_gcc.h ****  */
 188:Drivers/CMSIS/Include/cmsis_gcc.h **** __attribute__( ( always_inline ) ) __STATIC_INLINE void __set_MSP(uint32_t topOfMainStack)
 189:Drivers/CMSIS/Include/cmsis_gcc.h **** {
 190:Drivers/CMSIS/Include/cmsis_gcc.h ****   __ASM volatile ("MSR msp, %0\n" : : "r" (topOfMainStack) : "sp");
 191:Drivers/CMSIS/Include/cmsis_gcc.h **** }
 192:Drivers/CMSIS/Include/cmsis_gcc.h **** 
 193:Drivers/CMSIS/Include/cmsis_gcc.h **** 
 194:Drivers/CMSIS/Include/cmsis_gcc.h **** /**
 195:Drivers/CMSIS/Include/cmsis_gcc.h ****   \brief   Get Priority Mask
 196:Drivers/CMSIS/Include/cmsis_gcc.h ****   \details Returns the current state of the priority mask bit from the Priority Mask Register.
 197:Drivers/CMSIS/Include/cmsis_gcc.h ****   \return               Priority Mask value
 198:Drivers/CMSIS/Include/cmsis_gcc.h ****  */
 199:Drivers/CMSIS/Include/cmsis_gcc.h **** __attribute__( ( always_inline ) ) __STATIC_INLINE uint32_t __get_PRIMASK(void)
 200:Drivers/CMSIS/Include/cmsis_gcc.h **** {
 201:Drivers/CMSIS/Include/cmsis_gcc.h ****   uint32_t result;
 202:Drivers/CMSIS/Include/cmsis_gcc.h **** 
 203:Drivers/CMSIS/Include/cmsis_gcc.h ****   __ASM volatile ("MRS %0, primask" : "=r" (result) );
 204:Drivers/CMSIS/Include/cmsis_gcc.h ****   return(result);
 205:Drivers/CMSIS/Include/cmsis_gcc.h **** }
 206:Drivers/CMSIS/Include/cmsis_gcc.h **** 
 207:Drivers/CMSIS/Include/cmsis_gcc.h **** 
 208:Drivers/CMSIS/Include/cmsis_gcc.h **** /**
 209:Drivers/CMSIS/Include/cmsis_gcc.h ****   \brief   Set Priority Mask
 210:Drivers/CMSIS/Include/cmsis_gcc.h ****   \details Assigns the given value to the Priority Mask Register.
 211:Drivers/CMSIS/Include/cmsis_gcc.h ****   \param [in]    priMask  Priority Mask
 212:Drivers/CMSIS/Include/cmsis_gcc.h ****  */
 213:Drivers/CMSIS/Include/cmsis_gcc.h **** __attribute__( ( always_inline ) ) __STATIC_INLINE void __set_PRIMASK(uint32_t priMask)
 214:Drivers/CMSIS/Include/cmsis_gcc.h **** {
 215:Drivers/CMSIS/Include/cmsis_gcc.h ****   __ASM volatile ("MSR primask, %0" : : "r" (priMask) : "memory");
 216:Drivers/CMSIS/Include/cmsis_gcc.h **** }
 217:Drivers/CMSIS/Include/cmsis_gcc.h **** 
 218:Drivers/CMSIS/Include/cmsis_gcc.h **** 
 219:Drivers/CMSIS/Include/cmsis_gcc.h **** #if       (__CORTEX_M >= 0x03U)
 220:Drivers/CMSIS/Include/cmsis_gcc.h **** 
 221:Drivers/CMSIS/Include/cmsis_gcc.h **** /**
 222:Drivers/CMSIS/Include/cmsis_gcc.h ****   \brief   Enable FIQ
 223:Drivers/CMSIS/Include/cmsis_gcc.h ****   \details Enables FIQ interrupts by clearing the F-bit in the CPSR.
 224:Drivers/CMSIS/Include/cmsis_gcc.h ****            Can only be executed in Privileged modes.
 225:Drivers/CMSIS/Include/cmsis_gcc.h ****  */
 226:Drivers/CMSIS/Include/cmsis_gcc.h **** __attribute__( ( always_inline ) ) __STATIC_INLINE void __enable_fault_irq(void)
 227:Drivers/CMSIS/Include/cmsis_gcc.h **** {
 228:Drivers/CMSIS/Include/cmsis_gcc.h ****   __ASM volatile ("cpsie f" : : : "memory");
 229:Drivers/CMSIS/Include/cmsis_gcc.h **** }
 230:Drivers/CMSIS/Include/cmsis_gcc.h **** 
 231:Drivers/CMSIS/Include/cmsis_gcc.h **** 
 232:Drivers/CMSIS/Include/cmsis_gcc.h **** /**
 233:Drivers/CMSIS/Include/cmsis_gcc.h ****   \brief   Disable FIQ
 234:Drivers/CMSIS/Include/cmsis_gcc.h ****   \details Disables FIQ interrupts by setting the F-bit in the CPSR.
 235:Drivers/CMSIS/Include/cmsis_gcc.h ****            Can only be executed in Privileged modes.
 236:Drivers/CMSIS/Include/cmsis_gcc.h ****  */
 237:Drivers/CMSIS/Include/cmsis_gcc.h **** __attribute__( ( always_inline ) ) __STATIC_INLINE void __disable_fault_irq(void)
 238:Drivers/CMSIS/Include/cmsis_gcc.h **** {
 239:Drivers/CMSIS/Include/cmsis_gcc.h ****   __ASM volatile ("cpsid f" : : : "memory");
 240:Drivers/CMSIS/Include/cmsis_gcc.h **** }
 241:Drivers/CMSIS/Include/cmsis_gcc.h **** 
 242:Drivers/CMSIS/Include/cmsis_gcc.h **** 
 243:Drivers/CMSIS/Include/cmsis_gcc.h **** /**
ARM GAS  C:\Users\RARES~1.COV\AppData\Local\Temp\cc8OUGVm.s 			page 14


 244:Drivers/CMSIS/Include/cmsis_gcc.h ****   \brief   Get Base Priority
 245:Drivers/CMSIS/Include/cmsis_gcc.h ****   \details Returns the current value of the Base Priority register.
 246:Drivers/CMSIS/Include/cmsis_gcc.h ****   \return               Base Priority register value
 247:Drivers/CMSIS/Include/cmsis_gcc.h ****  */
 248:Drivers/CMSIS/Include/cmsis_gcc.h **** __attribute__( ( always_inline ) ) __STATIC_INLINE uint32_t __get_BASEPRI(void)
 249:Drivers/CMSIS/Include/cmsis_gcc.h **** {
 250:Drivers/CMSIS/Include/cmsis_gcc.h ****   uint32_t result;
 251:Drivers/CMSIS/Include/cmsis_gcc.h **** 
 252:Drivers/CMSIS/Include/cmsis_gcc.h ****   __ASM volatile ("MRS %0, basepri" : "=r" (result) );
 253:Drivers/CMSIS/Include/cmsis_gcc.h ****   return(result);
 254:Drivers/CMSIS/Include/cmsis_gcc.h **** }
 255:Drivers/CMSIS/Include/cmsis_gcc.h **** 
 256:Drivers/CMSIS/Include/cmsis_gcc.h **** 
 257:Drivers/CMSIS/Include/cmsis_gcc.h **** /**
 258:Drivers/CMSIS/Include/cmsis_gcc.h ****   \brief   Set Base Priority
 259:Drivers/CMSIS/Include/cmsis_gcc.h ****   \details Assigns the given value to the Base Priority register.
 260:Drivers/CMSIS/Include/cmsis_gcc.h ****   \param [in]    basePri  Base Priority value to set
 261:Drivers/CMSIS/Include/cmsis_gcc.h ****  */
 262:Drivers/CMSIS/Include/cmsis_gcc.h **** __attribute__( ( always_inline ) ) __STATIC_INLINE void __set_BASEPRI(uint32_t value)
 263:Drivers/CMSIS/Include/cmsis_gcc.h **** {
 264:Drivers/CMSIS/Include/cmsis_gcc.h ****   __ASM volatile ("MSR basepri, %0" : : "r" (value) : "memory");
 265:Drivers/CMSIS/Include/cmsis_gcc.h **** }
 266:Drivers/CMSIS/Include/cmsis_gcc.h **** 
 267:Drivers/CMSIS/Include/cmsis_gcc.h **** 
 268:Drivers/CMSIS/Include/cmsis_gcc.h **** /**
 269:Drivers/CMSIS/Include/cmsis_gcc.h ****   \brief   Set Base Priority with condition
 270:Drivers/CMSIS/Include/cmsis_gcc.h ****   \details Assigns the given value to the Base Priority register only if BASEPRI masking is disable
 271:Drivers/CMSIS/Include/cmsis_gcc.h ****            or the new value increases the BASEPRI priority level.
 272:Drivers/CMSIS/Include/cmsis_gcc.h ****   \param [in]    basePri  Base Priority value to set
 273:Drivers/CMSIS/Include/cmsis_gcc.h ****  */
 274:Drivers/CMSIS/Include/cmsis_gcc.h **** __attribute__( ( always_inline ) ) __STATIC_INLINE void __set_BASEPRI_MAX(uint32_t value)
 275:Drivers/CMSIS/Include/cmsis_gcc.h **** {
 276:Drivers/CMSIS/Include/cmsis_gcc.h ****   __ASM volatile ("MSR basepri_max, %0" : : "r" (value) : "memory");
 277:Drivers/CMSIS/Include/cmsis_gcc.h **** }
 278:Drivers/CMSIS/Include/cmsis_gcc.h **** 
 279:Drivers/CMSIS/Include/cmsis_gcc.h **** 
 280:Drivers/CMSIS/Include/cmsis_gcc.h **** /**
 281:Drivers/CMSIS/Include/cmsis_gcc.h ****   \brief   Get Fault Mask
 282:Drivers/CMSIS/Include/cmsis_gcc.h ****   \details Returns the current value of the Fault Mask register.
 283:Drivers/CMSIS/Include/cmsis_gcc.h ****   \return               Fault Mask register value
 284:Drivers/CMSIS/Include/cmsis_gcc.h ****  */
 285:Drivers/CMSIS/Include/cmsis_gcc.h **** __attribute__( ( always_inline ) ) __STATIC_INLINE uint32_t __get_FAULTMASK(void)
 286:Drivers/CMSIS/Include/cmsis_gcc.h **** {
 287:Drivers/CMSIS/Include/cmsis_gcc.h ****   uint32_t result;
 288:Drivers/CMSIS/Include/cmsis_gcc.h **** 
 289:Drivers/CMSIS/Include/cmsis_gcc.h ****   __ASM volatile ("MRS %0, faultmask" : "=r" (result) );
 290:Drivers/CMSIS/Include/cmsis_gcc.h ****   return(result);
 291:Drivers/CMSIS/Include/cmsis_gcc.h **** }
 292:Drivers/CMSIS/Include/cmsis_gcc.h **** 
 293:Drivers/CMSIS/Include/cmsis_gcc.h **** 
 294:Drivers/CMSIS/Include/cmsis_gcc.h **** /**
 295:Drivers/CMSIS/Include/cmsis_gcc.h ****   \brief   Set Fault Mask
 296:Drivers/CMSIS/Include/cmsis_gcc.h ****   \details Assigns the given value to the Fault Mask register.
 297:Drivers/CMSIS/Include/cmsis_gcc.h ****   \param [in]    faultMask  Fault Mask value to set
 298:Drivers/CMSIS/Include/cmsis_gcc.h ****  */
 299:Drivers/CMSIS/Include/cmsis_gcc.h **** __attribute__( ( always_inline ) ) __STATIC_INLINE void __set_FAULTMASK(uint32_t faultMask)
 300:Drivers/CMSIS/Include/cmsis_gcc.h **** {
ARM GAS  C:\Users\RARES~1.COV\AppData\Local\Temp\cc8OUGVm.s 			page 15


 301:Drivers/CMSIS/Include/cmsis_gcc.h ****   __ASM volatile ("MSR faultmask, %0" : : "r" (faultMask) : "memory");
 302:Drivers/CMSIS/Include/cmsis_gcc.h **** }
 303:Drivers/CMSIS/Include/cmsis_gcc.h **** 
 304:Drivers/CMSIS/Include/cmsis_gcc.h **** #endif /* (__CORTEX_M >= 0x03U) */
 305:Drivers/CMSIS/Include/cmsis_gcc.h **** 
 306:Drivers/CMSIS/Include/cmsis_gcc.h **** 
 307:Drivers/CMSIS/Include/cmsis_gcc.h **** #if       (__CORTEX_M == 0x04U) || (__CORTEX_M == 0x07U)
 308:Drivers/CMSIS/Include/cmsis_gcc.h **** 
 309:Drivers/CMSIS/Include/cmsis_gcc.h **** /**
 310:Drivers/CMSIS/Include/cmsis_gcc.h ****   \brief   Get FPSCR
 311:Drivers/CMSIS/Include/cmsis_gcc.h ****   \details Returns the current value of the Floating Point Status/Control register.
 312:Drivers/CMSIS/Include/cmsis_gcc.h ****   \return               Floating Point Status/Control register value
 313:Drivers/CMSIS/Include/cmsis_gcc.h ****  */
 314:Drivers/CMSIS/Include/cmsis_gcc.h **** __attribute__( ( always_inline ) ) __STATIC_INLINE uint32_t __get_FPSCR(void)
 315:Drivers/CMSIS/Include/cmsis_gcc.h **** {
 316:Drivers/CMSIS/Include/cmsis_gcc.h **** #if (__FPU_PRESENT == 1U) && (__FPU_USED == 1U)
 317:Drivers/CMSIS/Include/cmsis_gcc.h ****   uint32_t result;
 318:Drivers/CMSIS/Include/cmsis_gcc.h **** 
 319:Drivers/CMSIS/Include/cmsis_gcc.h ****   /* Empty asm statement works as a scheduling barrier */
 320:Drivers/CMSIS/Include/cmsis_gcc.h ****   __ASM volatile ("");
 321:Drivers/CMSIS/Include/cmsis_gcc.h ****   __ASM volatile ("VMRS %0, fpscr" : "=r" (result) );
 322:Drivers/CMSIS/Include/cmsis_gcc.h ****   __ASM volatile ("");
 323:Drivers/CMSIS/Include/cmsis_gcc.h ****   return(result);
 324:Drivers/CMSIS/Include/cmsis_gcc.h **** #else
 325:Drivers/CMSIS/Include/cmsis_gcc.h ****    return(0);
 326:Drivers/CMSIS/Include/cmsis_gcc.h **** #endif
 327:Drivers/CMSIS/Include/cmsis_gcc.h **** }
 328:Drivers/CMSIS/Include/cmsis_gcc.h **** 
 329:Drivers/CMSIS/Include/cmsis_gcc.h **** 
 330:Drivers/CMSIS/Include/cmsis_gcc.h **** /**
 331:Drivers/CMSIS/Include/cmsis_gcc.h ****   \brief   Set FPSCR
 332:Drivers/CMSIS/Include/cmsis_gcc.h ****   \details Assigns the given value to the Floating Point Status/Control register.
 333:Drivers/CMSIS/Include/cmsis_gcc.h ****   \param [in]    fpscr  Floating Point Status/Control value to set
 334:Drivers/CMSIS/Include/cmsis_gcc.h ****  */
 335:Drivers/CMSIS/Include/cmsis_gcc.h **** __attribute__( ( always_inline ) ) __STATIC_INLINE void __set_FPSCR(uint32_t fpscr)
 336:Drivers/CMSIS/Include/cmsis_gcc.h **** {
 337:Drivers/CMSIS/Include/cmsis_gcc.h **** #if (__FPU_PRESENT == 1U) && (__FPU_USED == 1U)
 338:Drivers/CMSIS/Include/cmsis_gcc.h ****   /* Empty asm statement works as a scheduling barrier */
 339:Drivers/CMSIS/Include/cmsis_gcc.h ****   __ASM volatile ("");
 340:Drivers/CMSIS/Include/cmsis_gcc.h ****   __ASM volatile ("VMSR fpscr, %0" : : "r" (fpscr) : "vfpcc");
 341:Drivers/CMSIS/Include/cmsis_gcc.h ****   __ASM volatile ("");
 342:Drivers/CMSIS/Include/cmsis_gcc.h **** #endif
 343:Drivers/CMSIS/Include/cmsis_gcc.h **** }
 344:Drivers/CMSIS/Include/cmsis_gcc.h **** 
 345:Drivers/CMSIS/Include/cmsis_gcc.h **** #endif /* (__CORTEX_M == 0x04U) || (__CORTEX_M == 0x07U) */
 346:Drivers/CMSIS/Include/cmsis_gcc.h **** 
 347:Drivers/CMSIS/Include/cmsis_gcc.h **** 
 348:Drivers/CMSIS/Include/cmsis_gcc.h **** 
 349:Drivers/CMSIS/Include/cmsis_gcc.h **** /*@} end of CMSIS_Core_RegAccFunctions */
 350:Drivers/CMSIS/Include/cmsis_gcc.h **** 
 351:Drivers/CMSIS/Include/cmsis_gcc.h **** 
 352:Drivers/CMSIS/Include/cmsis_gcc.h **** /* ##########################  Core Instruction Access  ######################### */
 353:Drivers/CMSIS/Include/cmsis_gcc.h **** /** \defgroup CMSIS_Core_InstructionInterface CMSIS Core Instruction Interface
 354:Drivers/CMSIS/Include/cmsis_gcc.h ****   Access to dedicated instructions
 355:Drivers/CMSIS/Include/cmsis_gcc.h ****   @{
 356:Drivers/CMSIS/Include/cmsis_gcc.h **** */
 357:Drivers/CMSIS/Include/cmsis_gcc.h **** 
ARM GAS  C:\Users\RARES~1.COV\AppData\Local\Temp\cc8OUGVm.s 			page 16


 358:Drivers/CMSIS/Include/cmsis_gcc.h **** /* Define macros for porting to both thumb1 and thumb2.
 359:Drivers/CMSIS/Include/cmsis_gcc.h ****  * For thumb1, use low register (r0-r7), specified by constraint "l"
 360:Drivers/CMSIS/Include/cmsis_gcc.h ****  * Otherwise, use general registers, specified by constraint "r" */
 361:Drivers/CMSIS/Include/cmsis_gcc.h **** #if defined (__thumb__) && !defined (__thumb2__)
 362:Drivers/CMSIS/Include/cmsis_gcc.h **** #define __CMSIS_GCC_OUT_REG(r) "=l" (r)
 363:Drivers/CMSIS/Include/cmsis_gcc.h **** #define __CMSIS_GCC_USE_REG(r) "l" (r)
 364:Drivers/CMSIS/Include/cmsis_gcc.h **** #else
 365:Drivers/CMSIS/Include/cmsis_gcc.h **** #define __CMSIS_GCC_OUT_REG(r) "=r" (r)
 366:Drivers/CMSIS/Include/cmsis_gcc.h **** #define __CMSIS_GCC_USE_REG(r) "r" (r)
 367:Drivers/CMSIS/Include/cmsis_gcc.h **** #endif
 368:Drivers/CMSIS/Include/cmsis_gcc.h **** 
 369:Drivers/CMSIS/Include/cmsis_gcc.h **** /**
 370:Drivers/CMSIS/Include/cmsis_gcc.h ****   \brief   No Operation
 371:Drivers/CMSIS/Include/cmsis_gcc.h ****   \details No Operation does nothing. This instruction can be used for code alignment purposes.
 372:Drivers/CMSIS/Include/cmsis_gcc.h ****  */
 373:Drivers/CMSIS/Include/cmsis_gcc.h **** __attribute__((always_inline)) __STATIC_INLINE void __NOP(void)
 374:Drivers/CMSIS/Include/cmsis_gcc.h **** {
 375:Drivers/CMSIS/Include/cmsis_gcc.h ****   __ASM volatile ("nop");
 376:Drivers/CMSIS/Include/cmsis_gcc.h **** }
 377:Drivers/CMSIS/Include/cmsis_gcc.h **** 
 378:Drivers/CMSIS/Include/cmsis_gcc.h **** 
 379:Drivers/CMSIS/Include/cmsis_gcc.h **** /**
 380:Drivers/CMSIS/Include/cmsis_gcc.h ****   \brief   Wait For Interrupt
 381:Drivers/CMSIS/Include/cmsis_gcc.h ****   \details Wait For Interrupt is a hint instruction that suspends execution until one of a number o
 382:Drivers/CMSIS/Include/cmsis_gcc.h ****  */
 383:Drivers/CMSIS/Include/cmsis_gcc.h **** __attribute__((always_inline)) __STATIC_INLINE void __WFI(void)
 384:Drivers/CMSIS/Include/cmsis_gcc.h **** {
 385:Drivers/CMSIS/Include/cmsis_gcc.h ****   __ASM volatile ("wfi");
 386:Drivers/CMSIS/Include/cmsis_gcc.h **** }
 387:Drivers/CMSIS/Include/cmsis_gcc.h **** 
 388:Drivers/CMSIS/Include/cmsis_gcc.h **** 
 389:Drivers/CMSIS/Include/cmsis_gcc.h **** /**
 390:Drivers/CMSIS/Include/cmsis_gcc.h ****   \brief   Wait For Event
 391:Drivers/CMSIS/Include/cmsis_gcc.h ****   \details Wait For Event is a hint instruction that permits the processor to enter
 392:Drivers/CMSIS/Include/cmsis_gcc.h ****     a low-power state until one of a number of events occurs.
 393:Drivers/CMSIS/Include/cmsis_gcc.h ****  */
 394:Drivers/CMSIS/Include/cmsis_gcc.h **** __attribute__((always_inline)) __STATIC_INLINE void __WFE(void)
 395:Drivers/CMSIS/Include/cmsis_gcc.h **** {
 396:Drivers/CMSIS/Include/cmsis_gcc.h ****   __ASM volatile ("wfe");
 397:Drivers/CMSIS/Include/cmsis_gcc.h **** }
 398:Drivers/CMSIS/Include/cmsis_gcc.h **** 
 399:Drivers/CMSIS/Include/cmsis_gcc.h **** 
 400:Drivers/CMSIS/Include/cmsis_gcc.h **** /**
 401:Drivers/CMSIS/Include/cmsis_gcc.h ****   \brief   Send Event
 402:Drivers/CMSIS/Include/cmsis_gcc.h ****   \details Send Event is a hint instruction. It causes an event to be signaled to the CPU.
 403:Drivers/CMSIS/Include/cmsis_gcc.h ****  */
 404:Drivers/CMSIS/Include/cmsis_gcc.h **** __attribute__((always_inline)) __STATIC_INLINE void __SEV(void)
 405:Drivers/CMSIS/Include/cmsis_gcc.h **** {
 406:Drivers/CMSIS/Include/cmsis_gcc.h ****   __ASM volatile ("sev");
 407:Drivers/CMSIS/Include/cmsis_gcc.h **** }
 408:Drivers/CMSIS/Include/cmsis_gcc.h **** 
 409:Drivers/CMSIS/Include/cmsis_gcc.h **** 
 410:Drivers/CMSIS/Include/cmsis_gcc.h **** /**
 411:Drivers/CMSIS/Include/cmsis_gcc.h ****   \brief   Instruction Synchronization Barrier
 412:Drivers/CMSIS/Include/cmsis_gcc.h ****   \details Instruction Synchronization Barrier flushes the pipeline in the processor,
 413:Drivers/CMSIS/Include/cmsis_gcc.h ****            so that all instructions following the ISB are fetched from cache or memory,
 414:Drivers/CMSIS/Include/cmsis_gcc.h ****            after the instruction has been completed.
ARM GAS  C:\Users\RARES~1.COV\AppData\Local\Temp\cc8OUGVm.s 			page 17


 415:Drivers/CMSIS/Include/cmsis_gcc.h ****  */
 416:Drivers/CMSIS/Include/cmsis_gcc.h **** __attribute__((always_inline)) __STATIC_INLINE void __ISB(void)
 417:Drivers/CMSIS/Include/cmsis_gcc.h **** {
 418:Drivers/CMSIS/Include/cmsis_gcc.h ****   __ASM volatile ("isb 0xF":::"memory");
 419:Drivers/CMSIS/Include/cmsis_gcc.h **** }
 420:Drivers/CMSIS/Include/cmsis_gcc.h **** 
 421:Drivers/CMSIS/Include/cmsis_gcc.h **** 
 422:Drivers/CMSIS/Include/cmsis_gcc.h **** /**
 423:Drivers/CMSIS/Include/cmsis_gcc.h ****   \brief   Data Synchronization Barrier
 424:Drivers/CMSIS/Include/cmsis_gcc.h ****   \details Acts as a special kind of Data Memory Barrier.
 425:Drivers/CMSIS/Include/cmsis_gcc.h ****            It completes when all explicit memory accesses before this instruction complete.
 426:Drivers/CMSIS/Include/cmsis_gcc.h ****  */
 427:Drivers/CMSIS/Include/cmsis_gcc.h **** __attribute__((always_inline)) __STATIC_INLINE void __DSB(void)
 428:Drivers/CMSIS/Include/cmsis_gcc.h **** {
 429:Drivers/CMSIS/Include/cmsis_gcc.h ****   __ASM volatile ("dsb 0xF":::"memory");
 430:Drivers/CMSIS/Include/cmsis_gcc.h **** }
 431:Drivers/CMSIS/Include/cmsis_gcc.h **** 
 432:Drivers/CMSIS/Include/cmsis_gcc.h **** 
 433:Drivers/CMSIS/Include/cmsis_gcc.h **** /**
 434:Drivers/CMSIS/Include/cmsis_gcc.h ****   \brief   Data Memory Barrier
 435:Drivers/CMSIS/Include/cmsis_gcc.h ****   \details Ensures the apparent order of the explicit memory operations before
 436:Drivers/CMSIS/Include/cmsis_gcc.h ****            and after the instruction, without ensuring their completion.
 437:Drivers/CMSIS/Include/cmsis_gcc.h ****  */
 438:Drivers/CMSIS/Include/cmsis_gcc.h **** __attribute__((always_inline)) __STATIC_INLINE void __DMB(void)
 439:Drivers/CMSIS/Include/cmsis_gcc.h **** {
 440:Drivers/CMSIS/Include/cmsis_gcc.h ****   __ASM volatile ("dmb 0xF":::"memory");
 441:Drivers/CMSIS/Include/cmsis_gcc.h **** }
 442:Drivers/CMSIS/Include/cmsis_gcc.h **** 
 443:Drivers/CMSIS/Include/cmsis_gcc.h **** 
 444:Drivers/CMSIS/Include/cmsis_gcc.h **** /**
 445:Drivers/CMSIS/Include/cmsis_gcc.h ****   \brief   Reverse byte order (32 bit)
 446:Drivers/CMSIS/Include/cmsis_gcc.h ****   \details Reverses the byte order in integer value.
 447:Drivers/CMSIS/Include/cmsis_gcc.h ****   \param [in]    value  Value to reverse
 448:Drivers/CMSIS/Include/cmsis_gcc.h ****   \return               Reversed value
 449:Drivers/CMSIS/Include/cmsis_gcc.h ****  */
 450:Drivers/CMSIS/Include/cmsis_gcc.h **** __attribute__((always_inline)) __STATIC_INLINE uint32_t __REV(uint32_t value)
 451:Drivers/CMSIS/Include/cmsis_gcc.h **** {
 452:Drivers/CMSIS/Include/cmsis_gcc.h **** #if (__GNUC__ > 4) || (__GNUC__ == 4 && __GNUC_MINOR__ >= 5)
 453:Drivers/CMSIS/Include/cmsis_gcc.h ****   return __builtin_bswap32(value);
 454:Drivers/CMSIS/Include/cmsis_gcc.h **** #else
 455:Drivers/CMSIS/Include/cmsis_gcc.h ****   uint32_t result;
 456:Drivers/CMSIS/Include/cmsis_gcc.h **** 
 457:Drivers/CMSIS/Include/cmsis_gcc.h ****   __ASM volatile ("rev %0, %1" : __CMSIS_GCC_OUT_REG (result) : __CMSIS_GCC_USE_REG (value) );
 458:Drivers/CMSIS/Include/cmsis_gcc.h ****   return(result);
 459:Drivers/CMSIS/Include/cmsis_gcc.h **** #endif
 460:Drivers/CMSIS/Include/cmsis_gcc.h **** }
 461:Drivers/CMSIS/Include/cmsis_gcc.h **** 
 462:Drivers/CMSIS/Include/cmsis_gcc.h **** 
 463:Drivers/CMSIS/Include/cmsis_gcc.h **** /**
 464:Drivers/CMSIS/Include/cmsis_gcc.h ****   \brief   Reverse byte order (16 bit)
 465:Drivers/CMSIS/Include/cmsis_gcc.h ****   \details Reverses the byte order in two unsigned short values.
 466:Drivers/CMSIS/Include/cmsis_gcc.h ****   \param [in]    value  Value to reverse
 467:Drivers/CMSIS/Include/cmsis_gcc.h ****   \return               Reversed value
 468:Drivers/CMSIS/Include/cmsis_gcc.h ****  */
 469:Drivers/CMSIS/Include/cmsis_gcc.h **** __attribute__((always_inline)) __STATIC_INLINE uint32_t __REV16(uint32_t value)
 470:Drivers/CMSIS/Include/cmsis_gcc.h **** {
 471:Drivers/CMSIS/Include/cmsis_gcc.h ****   uint32_t result;
ARM GAS  C:\Users\RARES~1.COV\AppData\Local\Temp\cc8OUGVm.s 			page 18


 472:Drivers/CMSIS/Include/cmsis_gcc.h **** 
 473:Drivers/CMSIS/Include/cmsis_gcc.h ****   __ASM volatile ("rev16 %0, %1" : __CMSIS_GCC_OUT_REG (result) : __CMSIS_GCC_USE_REG (value) );
 474:Drivers/CMSIS/Include/cmsis_gcc.h ****   return(result);
 475:Drivers/CMSIS/Include/cmsis_gcc.h **** }
 476:Drivers/CMSIS/Include/cmsis_gcc.h **** 
 477:Drivers/CMSIS/Include/cmsis_gcc.h **** 
 478:Drivers/CMSIS/Include/cmsis_gcc.h **** /**
 479:Drivers/CMSIS/Include/cmsis_gcc.h ****   \brief   Reverse byte order in signed short value
 480:Drivers/CMSIS/Include/cmsis_gcc.h ****   \details Reverses the byte order in a signed short value with sign extension to integer.
 481:Drivers/CMSIS/Include/cmsis_gcc.h ****   \param [in]    value  Value to reverse
 482:Drivers/CMSIS/Include/cmsis_gcc.h ****   \return               Reversed value
 483:Drivers/CMSIS/Include/cmsis_gcc.h ****  */
 484:Drivers/CMSIS/Include/cmsis_gcc.h **** __attribute__((always_inline)) __STATIC_INLINE int32_t __REVSH(int32_t value)
 485:Drivers/CMSIS/Include/cmsis_gcc.h **** {
 486:Drivers/CMSIS/Include/cmsis_gcc.h **** #if (__GNUC__ > 4) || (__GNUC__ == 4 && __GNUC_MINOR__ >= 8)
 487:Drivers/CMSIS/Include/cmsis_gcc.h ****   return (short)__builtin_bswap16(value);
 488:Drivers/CMSIS/Include/cmsis_gcc.h **** #else
 489:Drivers/CMSIS/Include/cmsis_gcc.h ****   int32_t result;
 490:Drivers/CMSIS/Include/cmsis_gcc.h **** 
 491:Drivers/CMSIS/Include/cmsis_gcc.h ****   __ASM volatile ("revsh %0, %1" : __CMSIS_GCC_OUT_REG (result) : __CMSIS_GCC_USE_REG (value) );
 492:Drivers/CMSIS/Include/cmsis_gcc.h ****   return(result);
 493:Drivers/CMSIS/Include/cmsis_gcc.h **** #endif
 494:Drivers/CMSIS/Include/cmsis_gcc.h **** }
 495:Drivers/CMSIS/Include/cmsis_gcc.h **** 
 496:Drivers/CMSIS/Include/cmsis_gcc.h **** 
 497:Drivers/CMSIS/Include/cmsis_gcc.h **** /**
 498:Drivers/CMSIS/Include/cmsis_gcc.h ****   \brief   Rotate Right in unsigned value (32 bit)
 499:Drivers/CMSIS/Include/cmsis_gcc.h ****   \details Rotate Right (immediate) provides the value of the contents of a register rotated by a v
 500:Drivers/CMSIS/Include/cmsis_gcc.h ****   \param [in]    value  Value to rotate
 501:Drivers/CMSIS/Include/cmsis_gcc.h ****   \param [in]    value  Number of Bits to rotate
 502:Drivers/CMSIS/Include/cmsis_gcc.h ****   \return               Rotated value
 503:Drivers/CMSIS/Include/cmsis_gcc.h ****  */
 504:Drivers/CMSIS/Include/cmsis_gcc.h **** __attribute__((always_inline)) __STATIC_INLINE uint32_t __ROR(uint32_t op1, uint32_t op2)
 505:Drivers/CMSIS/Include/cmsis_gcc.h **** {
 506:Drivers/CMSIS/Include/cmsis_gcc.h ****   return (op1 >> op2) | (op1 << (32U - op2));
 507:Drivers/CMSIS/Include/cmsis_gcc.h **** }
 508:Drivers/CMSIS/Include/cmsis_gcc.h **** 
 509:Drivers/CMSIS/Include/cmsis_gcc.h **** 
 510:Drivers/CMSIS/Include/cmsis_gcc.h **** /**
 511:Drivers/CMSIS/Include/cmsis_gcc.h ****   \brief   Breakpoint
 512:Drivers/CMSIS/Include/cmsis_gcc.h ****   \details Causes the processor to enter Debug state.
 513:Drivers/CMSIS/Include/cmsis_gcc.h ****            Debug tools can use this to investigate system state when the instruction at a particula
 514:Drivers/CMSIS/Include/cmsis_gcc.h ****   \param [in]    value  is ignored by the processor.
 515:Drivers/CMSIS/Include/cmsis_gcc.h ****                  If required, a debugger can use it to store additional information about the break
 516:Drivers/CMSIS/Include/cmsis_gcc.h ****  */
 517:Drivers/CMSIS/Include/cmsis_gcc.h **** #define __BKPT(value)                       __ASM volatile ("bkpt "#value)
 518:Drivers/CMSIS/Include/cmsis_gcc.h **** 
 519:Drivers/CMSIS/Include/cmsis_gcc.h **** 
 520:Drivers/CMSIS/Include/cmsis_gcc.h **** /**
 521:Drivers/CMSIS/Include/cmsis_gcc.h ****   \brief   Reverse bit order of value
 522:Drivers/CMSIS/Include/cmsis_gcc.h ****   \details Reverses the bit order of the given value.
 523:Drivers/CMSIS/Include/cmsis_gcc.h ****   \param [in]    value  Value to reverse
 524:Drivers/CMSIS/Include/cmsis_gcc.h ****   \return               Reversed value
 525:Drivers/CMSIS/Include/cmsis_gcc.h ****  */
 526:Drivers/CMSIS/Include/cmsis_gcc.h **** __attribute__((always_inline)) __STATIC_INLINE uint32_t __RBIT(uint32_t value)
 527:Drivers/CMSIS/Include/cmsis_gcc.h **** {
 528:Drivers/CMSIS/Include/cmsis_gcc.h ****   uint32_t result;
ARM GAS  C:\Users\RARES~1.COV\AppData\Local\Temp\cc8OUGVm.s 			page 19


 529:Drivers/CMSIS/Include/cmsis_gcc.h **** 
 530:Drivers/CMSIS/Include/cmsis_gcc.h **** #if       (__CORTEX_M >= 0x03U) || (__CORTEX_SC >= 300U)
 531:Drivers/CMSIS/Include/cmsis_gcc.h ****    __ASM volatile ("rbit %0, %1" : "=r" (result) : "r" (value) );
 212              		.loc 2 531 0 is_stmt 1
 213 0050 D7F8F431 		ldr	r3, [r7, #500]
 214              		.syntax unified
 215              	@ 531 "Drivers/CMSIS/Include/cmsis_gcc.h" 1
 216 0054 93FAA3F3 		rbit r3, r3
 217              	@ 0 "" 2
 218              		.thumb
 219              		.syntax unified
 220 0058 C7F8F031 		str	r3, [r7, #496]
 532:Drivers/CMSIS/Include/cmsis_gcc.h **** #else
 533:Drivers/CMSIS/Include/cmsis_gcc.h ****   int32_t s = 4 /*sizeof(v)*/ * 8 - 1; /* extra shift needed at end */
 534:Drivers/CMSIS/Include/cmsis_gcc.h **** 
 535:Drivers/CMSIS/Include/cmsis_gcc.h ****   result = value;                      /* r will be reversed bits of v; first get LSB of v */
 536:Drivers/CMSIS/Include/cmsis_gcc.h ****   for (value >>= 1U; value; value >>= 1U)
 537:Drivers/CMSIS/Include/cmsis_gcc.h ****   {
 538:Drivers/CMSIS/Include/cmsis_gcc.h ****     result <<= 1U;
 539:Drivers/CMSIS/Include/cmsis_gcc.h ****     result |= value & 1U;
 540:Drivers/CMSIS/Include/cmsis_gcc.h ****     s--;
 541:Drivers/CMSIS/Include/cmsis_gcc.h ****   }
 542:Drivers/CMSIS/Include/cmsis_gcc.h ****   result <<= s;                        /* shift when v's highest bits are zero */
 543:Drivers/CMSIS/Include/cmsis_gcc.h **** #endif
 544:Drivers/CMSIS/Include/cmsis_gcc.h ****   return(result);
 221              		.loc 2 544 0
 222 005c D7F8F031 		ldr	r3, [r7, #496]
 223              	.LBE167:
 224              	.LBE166:
 295:Drivers/STM32F3xx_HAL_Driver/Src/stm32f3xx_hal_rcc.c ****     {
 296:Drivers/STM32F3xx_HAL_Driver/Src/stm32f3xx_hal_rcc.c ****       if((__HAL_RCC_GET_FLAG(RCC_FLAG_HSERDY) != RESET) && (RCC_OscInitStruct->HSEState == RCC_HSE_
 225              		.loc 1 296 0
 226 0060 B3FA83F3 		clz	r3, r3
 227 0064 DBB2     		uxtb	r3, r3
 228 0066 5B09     		lsrs	r3, r3, #5
 229 0068 DBB2     		uxtb	r3, r3
 230 006a 43F00103 		orr	r3, r3, #1
 231 006e DBB2     		uxtb	r3, r3
 232 0070 012B     		cmp	r3, #1
 233 0072 02D1     		bne	.L9
 234              		.loc 1 296 0 is_stmt 0 discriminator 1
 235 0074 994B     		ldr	r3, .L142
 236 0076 1B68     		ldr	r3, [r3]
 237 0078 15E0     		b	.L10
 238              	.L9:
 239 007a 4FF40033 		mov	r3, #131072
 240 007e C7F8EC31 		str	r3, [r7, #492]
 241              	.LBB168:
 242              	.LBB169:
 531:Drivers/CMSIS/Include/cmsis_gcc.h **** #else
 243              		.loc 2 531 0 is_stmt 1 discriminator 2
 244 0082 D7F8EC31 		ldr	r3, [r7, #492]
 245              		.syntax unified
 246              	@ 531 "Drivers/CMSIS/Include/cmsis_gcc.h" 1
 247 0086 93FAA3F3 		rbit r3, r3
 248              	@ 0 "" 2
 249              		.thumb
ARM GAS  C:\Users\RARES~1.COV\AppData\Local\Temp\cc8OUGVm.s 			page 20


 250              		.syntax unified
 251 008a C7F8E831 		str	r3, [r7, #488]
 252 008e 4FF40033 		mov	r3, #131072
 253 0092 C7F8E431 		str	r3, [r7, #484]
 254              	.LBE169:
 255              	.LBE168:
 256              	.LBB170:
 257              	.LBB171:
 258 0096 D7F8E431 		ldr	r3, [r7, #484]
 259              		.syntax unified
 260              	@ 531 "Drivers/CMSIS/Include/cmsis_gcc.h" 1
 261 009a 93FAA3F3 		rbit r3, r3
 262              	@ 0 "" 2
 263              		.thumb
 264              		.syntax unified
 265 009e C7F8E031 		str	r3, [r7, #480]
 266              	.LBE171:
 267              	.LBE170:
 268              		.loc 1 296 0 discriminator 2
 269 00a2 8E4B     		ldr	r3, .L142
 270 00a4 5B6A     		ldr	r3, [r3, #36]
 271              	.L10:
 272 00a6 4FF40032 		mov	r2, #131072
 273 00aa C7F8DC21 		str	r2, [r7, #476]
 274              	.LBB172:
 275              	.LBB173:
 531:Drivers/CMSIS/Include/cmsis_gcc.h **** #else
 276              		.loc 2 531 0 discriminator 12
 277 00ae D7F8DC21 		ldr	r2, [r7, #476]
 278              		.syntax unified
 279              	@ 531 "Drivers/CMSIS/Include/cmsis_gcc.h" 1
 280 00b2 92FAA2F2 		rbit r2, r2
 281              	@ 0 "" 2
 282              		.thumb
 283              		.syntax unified
 284 00b6 C7F8D821 		str	r2, [r7, #472]
 285              		.loc 2 544 0 discriminator 12
 286 00ba D7F8D821 		ldr	r2, [r7, #472]
 287              	.LBE173:
 288              	.LBE172:
 289              		.loc 1 296 0 discriminator 12
 290 00be B2FA82F2 		clz	r2, r2
 291 00c2 52B2     		sxtb	r2, r2
 292 00c4 42F02002 		orr	r2, r2, #32
 293 00c8 52B2     		sxtb	r2, r2
 294 00ca D2B2     		uxtb	r2, r2
 295 00cc 02F01F02 		and	r2, r2, #31
 296 00d0 D340     		lsrs	r3, r3, r2
 297 00d2 03F00103 		and	r3, r3, #1
 298 00d6 002B     		cmp	r3, #0
 299 00d8 00F00281 		beq	.L141
 300              		.loc 1 296 0 is_stmt 0 discriminator 13
 301 00dc 3B1D     		adds	r3, r7, #4
 302 00de 1B68     		ldr	r3, [r3]
 303 00e0 5B68     		ldr	r3, [r3, #4]
 304 00e2 002B     		cmp	r3, #0
 305 00e4 40F0FC80 		bne	.L141
ARM GAS  C:\Users\RARES~1.COV\AppData\Local\Temp\cc8OUGVm.s 			page 21


 297:Drivers/STM32F3xx_HAL_Driver/Src/stm32f3xx_hal_rcc.c ****       {
 298:Drivers/STM32F3xx_HAL_Driver/Src/stm32f3xx_hal_rcc.c ****         return HAL_ERROR;
 306              		.loc 1 298 0 is_stmt 1
 307 00e8 0123     		movs	r3, #1
 308 00ea 00F062BE 		b	.L15
 309              	.L7:
 299:Drivers/STM32F3xx_HAL_Driver/Src/stm32f3xx_hal_rcc.c ****       }
 300:Drivers/STM32F3xx_HAL_Driver/Src/stm32f3xx_hal_rcc.c ****     }
 301:Drivers/STM32F3xx_HAL_Driver/Src/stm32f3xx_hal_rcc.c ****     else
 302:Drivers/STM32F3xx_HAL_Driver/Src/stm32f3xx_hal_rcc.c ****     {
 303:Drivers/STM32F3xx_HAL_Driver/Src/stm32f3xx_hal_rcc.c ****       /* Set the new HSE configuration ---------------------------------------*/
 304:Drivers/STM32F3xx_HAL_Driver/Src/stm32f3xx_hal_rcc.c ****       __HAL_RCC_HSE_CONFIG(RCC_OscInitStruct->HSEState);
 310              		.loc 1 304 0
 311 00ee 3B1D     		adds	r3, r7, #4
 312 00f0 1B68     		ldr	r3, [r3]
 313 00f2 5B68     		ldr	r3, [r3, #4]
 314 00f4 B3F5803F 		cmp	r3, #65536
 315 00f8 06D1     		bne	.L16
 316              		.loc 1 304 0 is_stmt 0 discriminator 1
 317 00fa 784A     		ldr	r2, .L142
 318 00fc 774B     		ldr	r3, .L142
 319 00fe 1B68     		ldr	r3, [r3]
 320 0100 43F48033 		orr	r3, r3, #65536
 321 0104 1360     		str	r3, [r2]
 322 0106 30E0     		b	.L17
 323              	.L16:
 324              		.loc 1 304 0 discriminator 2
 325 0108 3B1D     		adds	r3, r7, #4
 326 010a 1B68     		ldr	r3, [r3]
 327 010c 5B68     		ldr	r3, [r3, #4]
 328 010e 002B     		cmp	r3, #0
 329 0110 0CD1     		bne	.L18
 330              		.loc 1 304 0 discriminator 3
 331 0112 724A     		ldr	r2, .L142
 332 0114 714B     		ldr	r3, .L142
 333 0116 1B68     		ldr	r3, [r3]
 334 0118 23F48033 		bic	r3, r3, #65536
 335 011c 1360     		str	r3, [r2]
 336 011e 6F4A     		ldr	r2, .L142
 337 0120 6E4B     		ldr	r3, .L142
 338 0122 1B68     		ldr	r3, [r3]
 339 0124 23F48023 		bic	r3, r3, #262144
 340 0128 1360     		str	r3, [r2]
 341 012a 1EE0     		b	.L17
 342              	.L18:
 343              		.loc 1 304 0 discriminator 4
 344 012c 3B1D     		adds	r3, r7, #4
 345 012e 1B68     		ldr	r3, [r3]
 346 0130 5B68     		ldr	r3, [r3, #4]
 347 0132 B3F5A02F 		cmp	r3, #327680
 348 0136 0CD1     		bne	.L19
 349              		.loc 1 304 0 discriminator 5
 350 0138 684A     		ldr	r2, .L142
 351 013a 684B     		ldr	r3, .L142
 352 013c 1B68     		ldr	r3, [r3]
 353 013e 43F48023 		orr	r3, r3, #262144
 354 0142 1360     		str	r3, [r2]
ARM GAS  C:\Users\RARES~1.COV\AppData\Local\Temp\cc8OUGVm.s 			page 22


 355 0144 654A     		ldr	r2, .L142
 356 0146 654B     		ldr	r3, .L142
 357 0148 1B68     		ldr	r3, [r3]
 358 014a 43F48033 		orr	r3, r3, #65536
 359 014e 1360     		str	r3, [r2]
 360 0150 0BE0     		b	.L17
 361              	.L19:
 362              		.loc 1 304 0 discriminator 6
 363 0152 624A     		ldr	r2, .L142
 364 0154 614B     		ldr	r3, .L142
 365 0156 1B68     		ldr	r3, [r3]
 366 0158 23F48033 		bic	r3, r3, #65536
 367 015c 1360     		str	r3, [r2]
 368 015e 5F4A     		ldr	r2, .L142
 369 0160 5E4B     		ldr	r3, .L142
 370 0162 1B68     		ldr	r3, [r3]
 371 0164 23F48023 		bic	r3, r3, #262144
 372 0168 1360     		str	r3, [r2]
 373              	.L17:
 305:Drivers/STM32F3xx_HAL_Driver/Src/stm32f3xx_hal_rcc.c ****       
 306:Drivers/STM32F3xx_HAL_Driver/Src/stm32f3xx_hal_rcc.c **** #if defined(RCC_CFGR_PLLSRC_HSI_DIV2)
 307:Drivers/STM32F3xx_HAL_Driver/Src/stm32f3xx_hal_rcc.c ****       /* Configure the HSE predivision factor --------------------------------*/
 308:Drivers/STM32F3xx_HAL_Driver/Src/stm32f3xx_hal_rcc.c ****       __HAL_RCC_HSE_PREDIV_CONFIG(RCC_OscInitStruct->HSEPredivValue);
 309:Drivers/STM32F3xx_HAL_Driver/Src/stm32f3xx_hal_rcc.c **** #endif /* RCC_CFGR_PLLSRC_HSI_DIV2 */
 310:Drivers/STM32F3xx_HAL_Driver/Src/stm32f3xx_hal_rcc.c **** 
 311:Drivers/STM32F3xx_HAL_Driver/Src/stm32f3xx_hal_rcc.c ****        /* Check the HSE State */
 312:Drivers/STM32F3xx_HAL_Driver/Src/stm32f3xx_hal_rcc.c ****       if(RCC_OscInitStruct->HSEState != RCC_HSE_OFF)
 374              		.loc 1 312 0 is_stmt 1
 375 016a 3B1D     		adds	r3, r7, #4
 376 016c 1B68     		ldr	r3, [r3]
 377 016e 5B68     		ldr	r3, [r3, #4]
 378 0170 002B     		cmp	r3, #0
 379 0172 59D0     		beq	.L20
 313:Drivers/STM32F3xx_HAL_Driver/Src/stm32f3xx_hal_rcc.c ****       {
 314:Drivers/STM32F3xx_HAL_Driver/Src/stm32f3xx_hal_rcc.c ****         /* Get Start Tick */
 315:Drivers/STM32F3xx_HAL_Driver/Src/stm32f3xx_hal_rcc.c ****         tickstart = HAL_GetTick();
 380              		.loc 1 315 0
 381 0174 FFF7FEFF 		bl	HAL_GetTick
 382 0178 C7F8F801 		str	r0, [r7, #504]
 316:Drivers/STM32F3xx_HAL_Driver/Src/stm32f3xx_hal_rcc.c ****         
 317:Drivers/STM32F3xx_HAL_Driver/Src/stm32f3xx_hal_rcc.c ****         /* Wait till HSE is ready */
 318:Drivers/STM32F3xx_HAL_Driver/Src/stm32f3xx_hal_rcc.c ****         while(__HAL_RCC_GET_FLAG(RCC_FLAG_HSERDY) == RESET)
 383              		.loc 1 318 0
 384 017c 0AE0     		b	.L21
 385              	.L28:
 319:Drivers/STM32F3xx_HAL_Driver/Src/stm32f3xx_hal_rcc.c ****         {
 320:Drivers/STM32F3xx_HAL_Driver/Src/stm32f3xx_hal_rcc.c ****           if((HAL_GetTick() - tickstart ) > HSE_TIMEOUT_VALUE)
 386              		.loc 1 320 0
 387 017e FFF7FEFF 		bl	HAL_GetTick
 388 0182 0246     		mov	r2, r0
 389 0184 D7F8F831 		ldr	r3, [r7, #504]
 390 0188 D31A     		subs	r3, r2, r3
 391 018a 642B     		cmp	r3, #100
 392 018c 02D9     		bls	.L21
 321:Drivers/STM32F3xx_HAL_Driver/Src/stm32f3xx_hal_rcc.c ****           {
 322:Drivers/STM32F3xx_HAL_Driver/Src/stm32f3xx_hal_rcc.c ****             return HAL_TIMEOUT;
 393              		.loc 1 322 0
ARM GAS  C:\Users\RARES~1.COV\AppData\Local\Temp\cc8OUGVm.s 			page 23


 394 018e 0323     		movs	r3, #3
 395 0190 00F00FBE 		b	.L15
 396              	.L21:
 397 0194 4FF40033 		mov	r3, #131072
 398 0198 C7F8D431 		str	r3, [r7, #468]
 399              	.LBB174:
 400              	.LBB175:
 531:Drivers/CMSIS/Include/cmsis_gcc.h **** #else
 401              		.loc 2 531 0
 402 019c D7F8D431 		ldr	r3, [r7, #468]
 403              		.syntax unified
 404              	@ 531 "Drivers/CMSIS/Include/cmsis_gcc.h" 1
 405 01a0 93FAA3F3 		rbit r3, r3
 406              	@ 0 "" 2
 407              		.thumb
 408              		.syntax unified
 409 01a4 C7F8D031 		str	r3, [r7, #464]
 410              		.loc 2 544 0
 411 01a8 D7F8D031 		ldr	r3, [r7, #464]
 412              	.LBE175:
 413              	.LBE174:
 318:Drivers/STM32F3xx_HAL_Driver/Src/stm32f3xx_hal_rcc.c ****         {
 414              		.loc 1 318 0
 415 01ac B3FA83F3 		clz	r3, r3
 416 01b0 DBB2     		uxtb	r3, r3
 417 01b2 5B09     		lsrs	r3, r3, #5
 418 01b4 DBB2     		uxtb	r3, r3
 419 01b6 43F00103 		orr	r3, r3, #1
 420 01ba DBB2     		uxtb	r3, r3
 421 01bc 012B     		cmp	r3, #1
 422 01be 02D1     		bne	.L23
 318:Drivers/STM32F3xx_HAL_Driver/Src/stm32f3xx_hal_rcc.c ****         {
 423              		.loc 1 318 0 is_stmt 0 discriminator 1
 424 01c0 464B     		ldr	r3, .L142
 425 01c2 1B68     		ldr	r3, [r3]
 426 01c4 15E0     		b	.L24
 427              	.L23:
 428 01c6 4FF40033 		mov	r3, #131072
 429 01ca C7F8CC31 		str	r3, [r7, #460]
 430              	.LBB176:
 431              	.LBB177:
 531:Drivers/CMSIS/Include/cmsis_gcc.h **** #else
 432              		.loc 2 531 0 is_stmt 1 discriminator 2
 433 01ce D7F8CC31 		ldr	r3, [r7, #460]
 434              		.syntax unified
 435              	@ 531 "Drivers/CMSIS/Include/cmsis_gcc.h" 1
 436 01d2 93FAA3F3 		rbit r3, r3
 437              	@ 0 "" 2
 438              		.thumb
 439              		.syntax unified
 440 01d6 C7F8C831 		str	r3, [r7, #456]
 441 01da 4FF40033 		mov	r3, #131072
 442 01de C7F8C431 		str	r3, [r7, #452]
 443              	.LBE177:
 444              	.LBE176:
 445              	.LBB178:
 446              	.LBB179:
ARM GAS  C:\Users\RARES~1.COV\AppData\Local\Temp\cc8OUGVm.s 			page 24


 447 01e2 D7F8C431 		ldr	r3, [r7, #452]
 448              		.syntax unified
 449              	@ 531 "Drivers/CMSIS/Include/cmsis_gcc.h" 1
 450 01e6 93FAA3F3 		rbit r3, r3
 451              	@ 0 "" 2
 452              		.thumb
 453              		.syntax unified
 454 01ea C7F8C031 		str	r3, [r7, #448]
 455              	.LBE179:
 456              	.LBE178:
 318:Drivers/STM32F3xx_HAL_Driver/Src/stm32f3xx_hal_rcc.c ****         {
 457              		.loc 1 318 0 discriminator 2
 458 01ee 3B4B     		ldr	r3, .L142
 459 01f0 5B6A     		ldr	r3, [r3, #36]
 460              	.L24:
 461 01f2 4FF40032 		mov	r2, #131072
 462 01f6 C7F8BC21 		str	r2, [r7, #444]
 463              	.LBB180:
 464              	.LBB181:
 531:Drivers/CMSIS/Include/cmsis_gcc.h **** #else
 465              		.loc 2 531 0 discriminator 12
 466 01fa D7F8BC21 		ldr	r2, [r7, #444]
 467              		.syntax unified
 468              	@ 531 "Drivers/CMSIS/Include/cmsis_gcc.h" 1
 469 01fe 92FAA2F2 		rbit r2, r2
 470              	@ 0 "" 2
 471              		.thumb
 472              		.syntax unified
 473 0202 C7F8B821 		str	r2, [r7, #440]
 474              		.loc 2 544 0 discriminator 12
 475 0206 D7F8B821 		ldr	r2, [r7, #440]
 476              	.LBE181:
 477              	.LBE180:
 318:Drivers/STM32F3xx_HAL_Driver/Src/stm32f3xx_hal_rcc.c ****         {
 478              		.loc 1 318 0 discriminator 12
 479 020a B2FA82F2 		clz	r2, r2
 480 020e 52B2     		sxtb	r2, r2
 481 0210 42F02002 		orr	r2, r2, #32
 482 0214 52B2     		sxtb	r2, r2
 483 0216 D2B2     		uxtb	r2, r2
 484 0218 02F01F02 		and	r2, r2, #31
 485 021c D340     		lsrs	r3, r3, r2
 486 021e 03F00103 		and	r3, r3, #1
 487 0222 002B     		cmp	r3, #0
 488 0224 ABD0     		beq	.L28
 489 0226 5CE0     		b	.L5
 490              	.L20:
 323:Drivers/STM32F3xx_HAL_Driver/Src/stm32f3xx_hal_rcc.c ****           }
 324:Drivers/STM32F3xx_HAL_Driver/Src/stm32f3xx_hal_rcc.c ****         }
 325:Drivers/STM32F3xx_HAL_Driver/Src/stm32f3xx_hal_rcc.c ****       }
 326:Drivers/STM32F3xx_HAL_Driver/Src/stm32f3xx_hal_rcc.c ****       else
 327:Drivers/STM32F3xx_HAL_Driver/Src/stm32f3xx_hal_rcc.c ****       {
 328:Drivers/STM32F3xx_HAL_Driver/Src/stm32f3xx_hal_rcc.c ****         /* Get Start Tick */
 329:Drivers/STM32F3xx_HAL_Driver/Src/stm32f3xx_hal_rcc.c ****         tickstart = HAL_GetTick();
 491              		.loc 1 329 0
 492 0228 FFF7FEFF 		bl	HAL_GetTick
 493 022c C7F8F801 		str	r0, [r7, #504]
ARM GAS  C:\Users\RARES~1.COV\AppData\Local\Temp\cc8OUGVm.s 			page 25


 330:Drivers/STM32F3xx_HAL_Driver/Src/stm32f3xx_hal_rcc.c ****         
 331:Drivers/STM32F3xx_HAL_Driver/Src/stm32f3xx_hal_rcc.c ****         /* Wait till HSE is disabled */
 332:Drivers/STM32F3xx_HAL_Driver/Src/stm32f3xx_hal_rcc.c ****         while(__HAL_RCC_GET_FLAG(RCC_FLAG_HSERDY) != RESET)
 494              		.loc 1 332 0
 495 0230 0AE0     		b	.L29
 496              	.L36:
 333:Drivers/STM32F3xx_HAL_Driver/Src/stm32f3xx_hal_rcc.c ****         {
 334:Drivers/STM32F3xx_HAL_Driver/Src/stm32f3xx_hal_rcc.c ****            if((HAL_GetTick() - tickstart ) > HSE_TIMEOUT_VALUE)
 497              		.loc 1 334 0
 498 0232 FFF7FEFF 		bl	HAL_GetTick
 499 0236 0246     		mov	r2, r0
 500 0238 D7F8F831 		ldr	r3, [r7, #504]
 501 023c D31A     		subs	r3, r2, r3
 502 023e 642B     		cmp	r3, #100
 503 0240 02D9     		bls	.L29
 335:Drivers/STM32F3xx_HAL_Driver/Src/stm32f3xx_hal_rcc.c ****           {
 336:Drivers/STM32F3xx_HAL_Driver/Src/stm32f3xx_hal_rcc.c ****             return HAL_TIMEOUT;
 504              		.loc 1 336 0
 505 0242 0323     		movs	r3, #3
 506 0244 00F0B5BD 		b	.L15
 507              	.L29:
 508 0248 4FF40033 		mov	r3, #131072
 509 024c C7F8B431 		str	r3, [r7, #436]
 510              	.LBB182:
 511              	.LBB183:
 531:Drivers/CMSIS/Include/cmsis_gcc.h **** #else
 512              		.loc 2 531 0
 513 0250 D7F8B431 		ldr	r3, [r7, #436]
 514              		.syntax unified
 515              	@ 531 "Drivers/CMSIS/Include/cmsis_gcc.h" 1
 516 0254 93FAA3F3 		rbit r3, r3
 517              	@ 0 "" 2
 518              		.thumb
 519              		.syntax unified
 520 0258 C7F8B031 		str	r3, [r7, #432]
 521              		.loc 2 544 0
 522 025c D7F8B031 		ldr	r3, [r7, #432]
 523              	.LBE183:
 524              	.LBE182:
 332:Drivers/STM32F3xx_HAL_Driver/Src/stm32f3xx_hal_rcc.c ****         {
 525              		.loc 1 332 0
 526 0260 B3FA83F3 		clz	r3, r3
 527 0264 DBB2     		uxtb	r3, r3
 528 0266 5B09     		lsrs	r3, r3, #5
 529 0268 DBB2     		uxtb	r3, r3
 530 026a 43F00103 		orr	r3, r3, #1
 531 026e DBB2     		uxtb	r3, r3
 532 0270 012B     		cmp	r3, #1
 533 0272 02D1     		bne	.L31
 332:Drivers/STM32F3xx_HAL_Driver/Src/stm32f3xx_hal_rcc.c ****         {
 534              		.loc 1 332 0 is_stmt 0 discriminator 1
 535 0274 194B     		ldr	r3, .L142
 536 0276 1B68     		ldr	r3, [r3]
 537 0278 15E0     		b	.L32
 538              	.L31:
 539 027a 4FF40033 		mov	r3, #131072
 540 027e C7F8AC31 		str	r3, [r7, #428]
ARM GAS  C:\Users\RARES~1.COV\AppData\Local\Temp\cc8OUGVm.s 			page 26


 541              	.LBB184:
 542              	.LBB185:
 531:Drivers/CMSIS/Include/cmsis_gcc.h **** #else
 543              		.loc 2 531 0 is_stmt 1 discriminator 2
 544 0282 D7F8AC31 		ldr	r3, [r7, #428]
 545              		.syntax unified
 546              	@ 531 "Drivers/CMSIS/Include/cmsis_gcc.h" 1
 547 0286 93FAA3F3 		rbit r3, r3
 548              	@ 0 "" 2
 549              		.thumb
 550              		.syntax unified
 551 028a C7F8A831 		str	r3, [r7, #424]
 552 028e 4FF40033 		mov	r3, #131072
 553 0292 C7F8A431 		str	r3, [r7, #420]
 554              	.LBE185:
 555              	.LBE184:
 556              	.LBB186:
 557              	.LBB187:
 558 0296 D7F8A431 		ldr	r3, [r7, #420]
 559              		.syntax unified
 560              	@ 531 "Drivers/CMSIS/Include/cmsis_gcc.h" 1
 561 029a 93FAA3F3 		rbit r3, r3
 562              	@ 0 "" 2
 563              		.thumb
 564              		.syntax unified
 565 029e C7F8A031 		str	r3, [r7, #416]
 566              	.LBE187:
 567              	.LBE186:
 332:Drivers/STM32F3xx_HAL_Driver/Src/stm32f3xx_hal_rcc.c ****         {
 568              		.loc 1 332 0 discriminator 2
 569 02a2 0E4B     		ldr	r3, .L142
 570 02a4 5B6A     		ldr	r3, [r3, #36]
 571              	.L32:
 572 02a6 4FF40032 		mov	r2, #131072
 573 02aa C7F89C21 		str	r2, [r7, #412]
 574              	.LBB188:
 575              	.LBB189:
 531:Drivers/CMSIS/Include/cmsis_gcc.h **** #else
 576              		.loc 2 531 0 discriminator 12
 577 02ae D7F89C21 		ldr	r2, [r7, #412]
 578              		.syntax unified
 579              	@ 531 "Drivers/CMSIS/Include/cmsis_gcc.h" 1
 580 02b2 92FAA2F2 		rbit r2, r2
 581              	@ 0 "" 2
 582              		.thumb
 583              		.syntax unified
 584 02b6 C7F89821 		str	r2, [r7, #408]
 585              		.loc 2 544 0 discriminator 12
 586 02ba D7F89821 		ldr	r2, [r7, #408]
 587              	.LBE189:
 588              	.LBE188:
 332:Drivers/STM32F3xx_HAL_Driver/Src/stm32f3xx_hal_rcc.c ****         {
 589              		.loc 1 332 0 discriminator 12
 590 02be B2FA82F2 		clz	r2, r2
 591 02c2 52B2     		sxtb	r2, r2
 592 02c4 42F02002 		orr	r2, r2, #32
 593 02c8 52B2     		sxtb	r2, r2
ARM GAS  C:\Users\RARES~1.COV\AppData\Local\Temp\cc8OUGVm.s 			page 27


 594 02ca D2B2     		uxtb	r2, r2
 595 02cc 02F01F02 		and	r2, r2, #31
 596 02d0 D340     		lsrs	r3, r3, r2
 597 02d2 03F00103 		and	r3, r3, #1
 598 02d6 002B     		cmp	r3, #0
 599 02d8 ABD1     		bne	.L36
 600 02da 02E0     		b	.L5
 601              	.L143:
 602              		.align	2
 603              	.L142:
 604 02dc 00100240 		.word	1073876992
 605              	.L141:
 296:Drivers/STM32F3xx_HAL_Driver/Src/stm32f3xx_hal_rcc.c ****       {
 606              		.loc 1 296 0
 607 02e0 00BF     		nop
 608              	.L5:
 337:Drivers/STM32F3xx_HAL_Driver/Src/stm32f3xx_hal_rcc.c ****           }
 338:Drivers/STM32F3xx_HAL_Driver/Src/stm32f3xx_hal_rcc.c ****         }
 339:Drivers/STM32F3xx_HAL_Driver/Src/stm32f3xx_hal_rcc.c ****       }
 340:Drivers/STM32F3xx_HAL_Driver/Src/stm32f3xx_hal_rcc.c ****     }
 341:Drivers/STM32F3xx_HAL_Driver/Src/stm32f3xx_hal_rcc.c ****   }
 342:Drivers/STM32F3xx_HAL_Driver/Src/stm32f3xx_hal_rcc.c ****   /*----------------------------- HSI Configuration --------------------------*/ 
 343:Drivers/STM32F3xx_HAL_Driver/Src/stm32f3xx_hal_rcc.c ****   if(((RCC_OscInitStruct->OscillatorType) & RCC_OSCILLATORTYPE_HSI) == RCC_OSCILLATORTYPE_HSI)
 609              		.loc 1 343 0
 610 02e2 3B1D     		adds	r3, r7, #4
 611 02e4 1B68     		ldr	r3, [r3]
 612 02e6 1B68     		ldr	r3, [r3]
 613 02e8 03F00203 		and	r3, r3, #2
 614 02ec 002B     		cmp	r3, #0
 615 02ee 00F06E81 		beq	.L37
 344:Drivers/STM32F3xx_HAL_Driver/Src/stm32f3xx_hal_rcc.c ****   {
 345:Drivers/STM32F3xx_HAL_Driver/Src/stm32f3xx_hal_rcc.c ****     /* Check the parameters */
 346:Drivers/STM32F3xx_HAL_Driver/Src/stm32f3xx_hal_rcc.c ****     assert_param(IS_RCC_HSI(RCC_OscInitStruct->HSIState));
 347:Drivers/STM32F3xx_HAL_Driver/Src/stm32f3xx_hal_rcc.c ****     assert_param(IS_RCC_CALIBRATION_VALUE(RCC_OscInitStruct->HSICalibrationValue));
 348:Drivers/STM32F3xx_HAL_Driver/Src/stm32f3xx_hal_rcc.c ****     
 349:Drivers/STM32F3xx_HAL_Driver/Src/stm32f3xx_hal_rcc.c ****     /* Check if HSI is used as system clock or as PLL source when PLL is selected as system clock *
 350:Drivers/STM32F3xx_HAL_Driver/Src/stm32f3xx_hal_rcc.c ****     if((__HAL_RCC_GET_SYSCLK_SOURCE() == RCC_SYSCLKSOURCE_STATUS_HSI) 
 616              		.loc 1 350 0
 617 02f2 CF4B     		ldr	r3, .L144
 618 02f4 5B68     		ldr	r3, [r3, #4]
 619 02f6 03F00C03 		and	r3, r3, #12
 620 02fa 002B     		cmp	r3, #0
 621 02fc 0CD0     		beq	.L38
 351:Drivers/STM32F3xx_HAL_Driver/Src/stm32f3xx_hal_rcc.c ****        || ((__HAL_RCC_GET_SYSCLK_SOURCE() == RCC_SYSCLKSOURCE_STATUS_PLLCLK) && (__HAL_RCC_GET_PLL_
 622              		.loc 1 351 0
 623 02fe CC4B     		ldr	r3, .L144
 624 0300 5B68     		ldr	r3, [r3, #4]
 625 0302 03F00C03 		and	r3, r3, #12
 626 0306 082B     		cmp	r3, #8
 627 0308 6DD1     		bne	.L39
 628              		.loc 1 351 0 is_stmt 0 discriminator 1
 629 030a C94B     		ldr	r3, .L144
 630 030c 5B68     		ldr	r3, [r3, #4]
 631 030e 03F4C033 		and	r3, r3, #98304
 632 0312 B3F5004F 		cmp	r3, #32768
 633 0316 66D1     		bne	.L39
 634              	.L38:
ARM GAS  C:\Users\RARES~1.COV\AppData\Local\Temp\cc8OUGVm.s 			page 28


 635 0318 0223     		movs	r3, #2
 636 031a C7F89431 		str	r3, [r7, #404]
 637              	.LBB190:
 638              	.LBB191:
 531:Drivers/CMSIS/Include/cmsis_gcc.h **** #else
 639              		.loc 2 531 0 is_stmt 1
 640 031e D7F89431 		ldr	r3, [r7, #404]
 641              		.syntax unified
 642              	@ 531 "Drivers/CMSIS/Include/cmsis_gcc.h" 1
 643 0322 93FAA3F3 		rbit r3, r3
 644              	@ 0 "" 2
 645              		.thumb
 646              		.syntax unified
 647 0326 C7F89031 		str	r3, [r7, #400]
 648              		.loc 2 544 0
 649 032a D7F89031 		ldr	r3, [r7, #400]
 650              	.LBE191:
 651              	.LBE190:
 352:Drivers/STM32F3xx_HAL_Driver/Src/stm32f3xx_hal_rcc.c ****     {
 353:Drivers/STM32F3xx_HAL_Driver/Src/stm32f3xx_hal_rcc.c ****       /* When HSI is used as system clock it will not disabled */
 354:Drivers/STM32F3xx_HAL_Driver/Src/stm32f3xx_hal_rcc.c ****       if((__HAL_RCC_GET_FLAG(RCC_FLAG_HSIRDY) != RESET) && (RCC_OscInitStruct->HSIState != RCC_HSI_
 652              		.loc 1 354 0
 653 032e B3FA83F3 		clz	r3, r3
 654 0332 DBB2     		uxtb	r3, r3
 655 0334 5B09     		lsrs	r3, r3, #5
 656 0336 DBB2     		uxtb	r3, r3
 657 0338 43F00103 		orr	r3, r3, #1
 658 033c DBB2     		uxtb	r3, r3
 659 033e 012B     		cmp	r3, #1
 660 0340 02D1     		bne	.L41
 661              		.loc 1 354 0 is_stmt 0 discriminator 1
 662 0342 BB4B     		ldr	r3, .L144
 663 0344 1B68     		ldr	r3, [r3]
 664 0346 13E0     		b	.L42
 665              	.L41:
 666 0348 0223     		movs	r3, #2
 667 034a C7F88C31 		str	r3, [r7, #396]
 668              	.LBB192:
 669              	.LBB193:
 531:Drivers/CMSIS/Include/cmsis_gcc.h **** #else
 670              		.loc 2 531 0 is_stmt 1 discriminator 2
 671 034e D7F88C31 		ldr	r3, [r7, #396]
 672              		.syntax unified
 673              	@ 531 "Drivers/CMSIS/Include/cmsis_gcc.h" 1
 674 0352 93FAA3F3 		rbit r3, r3
 675              	@ 0 "" 2
 676              		.thumb
 677              		.syntax unified
 678 0356 C7F88831 		str	r3, [r7, #392]
 679 035a 0223     		movs	r3, #2
 680 035c C7F88431 		str	r3, [r7, #388]
 681              	.LBE193:
 682              	.LBE192:
 683              	.LBB194:
 684              	.LBB195:
 685 0360 D7F88431 		ldr	r3, [r7, #388]
 686              		.syntax unified
ARM GAS  C:\Users\RARES~1.COV\AppData\Local\Temp\cc8OUGVm.s 			page 29


 687              	@ 531 "Drivers/CMSIS/Include/cmsis_gcc.h" 1
 688 0364 93FAA3F3 		rbit r3, r3
 689              	@ 0 "" 2
 690              		.thumb
 691              		.syntax unified
 692 0368 C7F88031 		str	r3, [r7, #384]
 693              	.LBE195:
 694              	.LBE194:
 695              		.loc 1 354 0 discriminator 2
 696 036c B04B     		ldr	r3, .L144
 697 036e 5B6A     		ldr	r3, [r3, #36]
 698              	.L42:
 699 0370 0222     		movs	r2, #2
 700 0372 C7F87C21 		str	r2, [r7, #380]
 701              	.LBB196:
 702              	.LBB197:
 531:Drivers/CMSIS/Include/cmsis_gcc.h **** #else
 703              		.loc 2 531 0 discriminator 12
 704 0376 D7F87C21 		ldr	r2, [r7, #380]
 705              		.syntax unified
 706              	@ 531 "Drivers/CMSIS/Include/cmsis_gcc.h" 1
 707 037a 92FAA2F2 		rbit r2, r2
 708              	@ 0 "" 2
 709              		.thumb
 710              		.syntax unified
 711 037e C7F87821 		str	r2, [r7, #376]
 712              		.loc 2 544 0 discriminator 12
 713 0382 D7F87821 		ldr	r2, [r7, #376]
 714              	.LBE197:
 715              	.LBE196:
 716              		.loc 1 354 0 discriminator 12
 717 0386 B2FA82F2 		clz	r2, r2
 718 038a 52B2     		sxtb	r2, r2
 719 038c 42F02002 		orr	r2, r2, #32
 720 0390 52B2     		sxtb	r2, r2
 721 0392 D2B2     		uxtb	r2, r2
 722 0394 02F01F02 		and	r2, r2, #31
 723 0398 D340     		lsrs	r3, r3, r2
 724 039a 03F00103 		and	r3, r3, #1
 725 039e 002B     		cmp	r3, #0
 726 03a0 07D0     		beq	.L46
 727              		.loc 1 354 0 is_stmt 0 discriminator 13
 728 03a2 3B1D     		adds	r3, r7, #4
 729 03a4 1B68     		ldr	r3, [r3]
 730 03a6 DB68     		ldr	r3, [r3, #12]
 731 03a8 012B     		cmp	r3, #1
 732 03aa 02D0     		beq	.L46
 355:Drivers/STM32F3xx_HAL_Driver/Src/stm32f3xx_hal_rcc.c ****       {
 356:Drivers/STM32F3xx_HAL_Driver/Src/stm32f3xx_hal_rcc.c ****         return HAL_ERROR;
 733              		.loc 1 356 0 is_stmt 1
 734 03ac 0123     		movs	r3, #1
 735 03ae 00F000BD 		b	.L15
 736              	.L46:
 357:Drivers/STM32F3xx_HAL_Driver/Src/stm32f3xx_hal_rcc.c ****       }
 358:Drivers/STM32F3xx_HAL_Driver/Src/stm32f3xx_hal_rcc.c ****       /* Otherwise, just the calibration is allowed */
 359:Drivers/STM32F3xx_HAL_Driver/Src/stm32f3xx_hal_rcc.c ****       else
 360:Drivers/STM32F3xx_HAL_Driver/Src/stm32f3xx_hal_rcc.c ****       {
ARM GAS  C:\Users\RARES~1.COV\AppData\Local\Temp\cc8OUGVm.s 			page 30


 361:Drivers/STM32F3xx_HAL_Driver/Src/stm32f3xx_hal_rcc.c ****         /* Adjusts the Internal High Speed oscillator (HSI) calibration value.*/
 362:Drivers/STM32F3xx_HAL_Driver/Src/stm32f3xx_hal_rcc.c ****         __HAL_RCC_HSI_CALIBRATIONVALUE_ADJUST(RCC_OscInitStruct->HSICalibrationValue);
 737              		.loc 1 362 0
 738 03b2 9F48     		ldr	r0, .L144
 739 03b4 9E4B     		ldr	r3, .L144
 740 03b6 1B68     		ldr	r3, [r3]
 741 03b8 23F0F802 		bic	r2, r3, #248
 742 03bc 3B1D     		adds	r3, r7, #4
 743 03be 1B68     		ldr	r3, [r3]
 744 03c0 1969     		ldr	r1, [r3, #16]
 745 03c2 F823     		movs	r3, #248
 746 03c4 C7F87431 		str	r3, [r7, #372]
 747              	.LBB198:
 748              	.LBB199:
 531:Drivers/CMSIS/Include/cmsis_gcc.h **** #else
 749              		.loc 2 531 0
 750 03c8 D7F87431 		ldr	r3, [r7, #372]
 751              		.syntax unified
 752              	@ 531 "Drivers/CMSIS/Include/cmsis_gcc.h" 1
 753 03cc 93FAA3F3 		rbit r3, r3
 754              	@ 0 "" 2
 755              		.thumb
 756              		.syntax unified
 757 03d0 C7F87031 		str	r3, [r7, #368]
 758              		.loc 2 544 0
 759 03d4 D7F87031 		ldr	r3, [r7, #368]
 760              	.LBE199:
 761              	.LBE198:
 762              		.loc 1 362 0
 763 03d8 B3FA83F3 		clz	r3, r3
 764 03dc 01FA03F3 		lsl	r3, r1, r3
 765 03e0 1343     		orrs	r3, r3, r2
 766 03e2 0360     		str	r3, [r0]
 354:Drivers/STM32F3xx_HAL_Driver/Src/stm32f3xx_hal_rcc.c ****       {
 767              		.loc 1 354 0
 768 03e4 F3E0     		b	.L37
 769              	.L39:
 363:Drivers/STM32F3xx_HAL_Driver/Src/stm32f3xx_hal_rcc.c ****       }
 364:Drivers/STM32F3xx_HAL_Driver/Src/stm32f3xx_hal_rcc.c ****     }
 365:Drivers/STM32F3xx_HAL_Driver/Src/stm32f3xx_hal_rcc.c ****     else
 366:Drivers/STM32F3xx_HAL_Driver/Src/stm32f3xx_hal_rcc.c ****     {
 367:Drivers/STM32F3xx_HAL_Driver/Src/stm32f3xx_hal_rcc.c ****       /* Check the HSI State */
 368:Drivers/STM32F3xx_HAL_Driver/Src/stm32f3xx_hal_rcc.c ****       if(RCC_OscInitStruct->HSIState != RCC_HSI_OFF)
 770              		.loc 1 368 0
 771 03e6 3B1D     		adds	r3, r7, #4
 772 03e8 1B68     		ldr	r3, [r3]
 773 03ea DB68     		ldr	r3, [r3, #12]
 774 03ec 002B     		cmp	r3, #0
 775 03ee 00F08480 		beq	.L48
 776 03f2 0123     		movs	r3, #1
 777 03f4 C7F86C31 		str	r3, [r7, #364]
 778              	.LBB200:
 779              	.LBB201:
 531:Drivers/CMSIS/Include/cmsis_gcc.h **** #else
 780              		.loc 2 531 0
 781 03f8 D7F86C31 		ldr	r3, [r7, #364]
 782              		.syntax unified
ARM GAS  C:\Users\RARES~1.COV\AppData\Local\Temp\cc8OUGVm.s 			page 31


 783              	@ 531 "Drivers/CMSIS/Include/cmsis_gcc.h" 1
 784 03fc 93FAA3F3 		rbit r3, r3
 785              	@ 0 "" 2
 786              		.thumb
 787              		.syntax unified
 788 0400 C7F86831 		str	r3, [r7, #360]
 789              		.loc 2 544 0
 790 0404 D7F86831 		ldr	r3, [r7, #360]
 791              	.LBE201:
 792              	.LBE200:
 369:Drivers/STM32F3xx_HAL_Driver/Src/stm32f3xx_hal_rcc.c ****       {
 370:Drivers/STM32F3xx_HAL_Driver/Src/stm32f3xx_hal_rcc.c ****        /* Enable the Internal High Speed oscillator (HSI). */
 371:Drivers/STM32F3xx_HAL_Driver/Src/stm32f3xx_hal_rcc.c ****         __HAL_RCC_HSI_ENABLE();
 793              		.loc 1 371 0
 794 0408 B3FA83F3 		clz	r3, r3
 795 040c 9B00     		lsls	r3, r3, #2
 796 040e 03F18443 		add	r3, r3, #1107296256
 797 0412 03F58403 		add	r3, r3, #4325376
 798 0416 1A46     		mov	r2, r3
 799 0418 0123     		movs	r3, #1
 800 041a 1360     		str	r3, [r2]
 372:Drivers/STM32F3xx_HAL_Driver/Src/stm32f3xx_hal_rcc.c ****         
 373:Drivers/STM32F3xx_HAL_Driver/Src/stm32f3xx_hal_rcc.c ****         /* Get Start Tick */
 374:Drivers/STM32F3xx_HAL_Driver/Src/stm32f3xx_hal_rcc.c ****         tickstart = HAL_GetTick();
 801              		.loc 1 374 0
 802 041c FFF7FEFF 		bl	HAL_GetTick
 803 0420 C7F8F801 		str	r0, [r7, #504]
 375:Drivers/STM32F3xx_HAL_Driver/Src/stm32f3xx_hal_rcc.c ****         
 376:Drivers/STM32F3xx_HAL_Driver/Src/stm32f3xx_hal_rcc.c ****         /* Wait till HSI is ready */
 377:Drivers/STM32F3xx_HAL_Driver/Src/stm32f3xx_hal_rcc.c ****         while(__HAL_RCC_GET_FLAG(RCC_FLAG_HSIRDY) == RESET)
 804              		.loc 1 377 0
 805 0424 0AE0     		b	.L50
 806              	.L57:
 378:Drivers/STM32F3xx_HAL_Driver/Src/stm32f3xx_hal_rcc.c ****         {
 379:Drivers/STM32F3xx_HAL_Driver/Src/stm32f3xx_hal_rcc.c ****           if((HAL_GetTick() - tickstart ) > HSI_TIMEOUT_VALUE)
 807              		.loc 1 379 0
 808 0426 FFF7FEFF 		bl	HAL_GetTick
 809 042a 0246     		mov	r2, r0
 810 042c D7F8F831 		ldr	r3, [r7, #504]
 811 0430 D31A     		subs	r3, r2, r3
 812 0432 022B     		cmp	r3, #2
 813 0434 02D9     		bls	.L50
 380:Drivers/STM32F3xx_HAL_Driver/Src/stm32f3xx_hal_rcc.c ****           {
 381:Drivers/STM32F3xx_HAL_Driver/Src/stm32f3xx_hal_rcc.c ****             return HAL_TIMEOUT;
 814              		.loc 1 381 0
 815 0436 0323     		movs	r3, #3
 816 0438 00F0BBBC 		b	.L15
 817              	.L50:
 818 043c 0223     		movs	r3, #2
 819 043e C7F86431 		str	r3, [r7, #356]
 820              	.LBB202:
 821              	.LBB203:
 531:Drivers/CMSIS/Include/cmsis_gcc.h **** #else
 822              		.loc 2 531 0
 823 0442 D7F86431 		ldr	r3, [r7, #356]
 824              		.syntax unified
 825              	@ 531 "Drivers/CMSIS/Include/cmsis_gcc.h" 1
ARM GAS  C:\Users\RARES~1.COV\AppData\Local\Temp\cc8OUGVm.s 			page 32


 826 0446 93FAA3F3 		rbit r3, r3
 827              	@ 0 "" 2
 828              		.thumb
 829              		.syntax unified
 830 044a C7F86031 		str	r3, [r7, #352]
 831              		.loc 2 544 0
 832 044e D7F86031 		ldr	r3, [r7, #352]
 833              	.LBE203:
 834              	.LBE202:
 377:Drivers/STM32F3xx_HAL_Driver/Src/stm32f3xx_hal_rcc.c ****         {
 835              		.loc 1 377 0
 836 0452 B3FA83F3 		clz	r3, r3
 837 0456 DBB2     		uxtb	r3, r3
 838 0458 5B09     		lsrs	r3, r3, #5
 839 045a DBB2     		uxtb	r3, r3
 840 045c 43F00103 		orr	r3, r3, #1
 841 0460 DBB2     		uxtb	r3, r3
 842 0462 012B     		cmp	r3, #1
 843 0464 02D1     		bne	.L52
 377:Drivers/STM32F3xx_HAL_Driver/Src/stm32f3xx_hal_rcc.c ****         {
 844              		.loc 1 377 0 is_stmt 0 discriminator 1
 845 0466 724B     		ldr	r3, .L144
 846 0468 1B68     		ldr	r3, [r3]
 847 046a 13E0     		b	.L53
 848              	.L52:
 849 046c 0223     		movs	r3, #2
 850 046e C7F85C31 		str	r3, [r7, #348]
 851              	.LBB204:
 852              	.LBB205:
 531:Drivers/CMSIS/Include/cmsis_gcc.h **** #else
 853              		.loc 2 531 0 is_stmt 1 discriminator 2
 854 0472 D7F85C31 		ldr	r3, [r7, #348]
 855              		.syntax unified
 856              	@ 531 "Drivers/CMSIS/Include/cmsis_gcc.h" 1
 857 0476 93FAA3F3 		rbit r3, r3
 858              	@ 0 "" 2
 859              		.thumb
 860              		.syntax unified
 861 047a C7F85831 		str	r3, [r7, #344]
 862 047e 0223     		movs	r3, #2
 863 0480 C7F85431 		str	r3, [r7, #340]
 864              	.LBE205:
 865              	.LBE204:
 866              	.LBB206:
 867              	.LBB207:
 868 0484 D7F85431 		ldr	r3, [r7, #340]
 869              		.syntax unified
 870              	@ 531 "Drivers/CMSIS/Include/cmsis_gcc.h" 1
 871 0488 93FAA3F3 		rbit r3, r3
 872              	@ 0 "" 2
 873              		.thumb
 874              		.syntax unified
 875 048c C7F85031 		str	r3, [r7, #336]
 876              	.LBE207:
 877              	.LBE206:
 377:Drivers/STM32F3xx_HAL_Driver/Src/stm32f3xx_hal_rcc.c ****         {
 878              		.loc 1 377 0 discriminator 2
ARM GAS  C:\Users\RARES~1.COV\AppData\Local\Temp\cc8OUGVm.s 			page 33


 879 0490 674B     		ldr	r3, .L144
 880 0492 5B6A     		ldr	r3, [r3, #36]
 881              	.L53:
 882 0494 0222     		movs	r2, #2
 883 0496 C7F84C21 		str	r2, [r7, #332]
 884              	.LBB208:
 885              	.LBB209:
 531:Drivers/CMSIS/Include/cmsis_gcc.h **** #else
 886              		.loc 2 531 0 discriminator 12
 887 049a D7F84C21 		ldr	r2, [r7, #332]
 888              		.syntax unified
 889              	@ 531 "Drivers/CMSIS/Include/cmsis_gcc.h" 1
 890 049e 92FAA2F2 		rbit r2, r2
 891              	@ 0 "" 2
 892              		.thumb
 893              		.syntax unified
 894 04a2 C7F84821 		str	r2, [r7, #328]
 895              		.loc 2 544 0 discriminator 12
 896 04a6 D7F84821 		ldr	r2, [r7, #328]
 897              	.LBE209:
 898              	.LBE208:
 377:Drivers/STM32F3xx_HAL_Driver/Src/stm32f3xx_hal_rcc.c ****         {
 899              		.loc 1 377 0 discriminator 12
 900 04aa B2FA82F2 		clz	r2, r2
 901 04ae 52B2     		sxtb	r2, r2
 902 04b0 42F02002 		orr	r2, r2, #32
 903 04b4 52B2     		sxtb	r2, r2
 904 04b6 D2B2     		uxtb	r2, r2
 905 04b8 02F01F02 		and	r2, r2, #31
 906 04bc D340     		lsrs	r3, r3, r2
 907 04be 03F00103 		and	r3, r3, #1
 908 04c2 002B     		cmp	r3, #0
 909 04c4 AFD0     		beq	.L57
 382:Drivers/STM32F3xx_HAL_Driver/Src/stm32f3xx_hal_rcc.c ****           }
 383:Drivers/STM32F3xx_HAL_Driver/Src/stm32f3xx_hal_rcc.c ****         }
 384:Drivers/STM32F3xx_HAL_Driver/Src/stm32f3xx_hal_rcc.c ****                 
 385:Drivers/STM32F3xx_HAL_Driver/Src/stm32f3xx_hal_rcc.c ****         /* Adjusts the Internal High Speed oscillator (HSI) calibration value.*/
 386:Drivers/STM32F3xx_HAL_Driver/Src/stm32f3xx_hal_rcc.c ****         __HAL_RCC_HSI_CALIBRATIONVALUE_ADJUST(RCC_OscInitStruct->HSICalibrationValue);
 910              		.loc 1 386 0
 911 04c6 5A48     		ldr	r0, .L144
 912 04c8 594B     		ldr	r3, .L144
 913 04ca 1B68     		ldr	r3, [r3]
 914 04cc 23F0F802 		bic	r2, r3, #248
 915 04d0 3B1D     		adds	r3, r7, #4
 916 04d2 1B68     		ldr	r3, [r3]
 917 04d4 1969     		ldr	r1, [r3, #16]
 918 04d6 F823     		movs	r3, #248
 919 04d8 C7F84431 		str	r3, [r7, #324]
 920              	.LBB210:
 921              	.LBB211:
 531:Drivers/CMSIS/Include/cmsis_gcc.h **** #else
 922              		.loc 2 531 0
 923 04dc D7F84431 		ldr	r3, [r7, #324]
 924              		.syntax unified
 925              	@ 531 "Drivers/CMSIS/Include/cmsis_gcc.h" 1
 926 04e0 93FAA3F3 		rbit r3, r3
 927              	@ 0 "" 2
ARM GAS  C:\Users\RARES~1.COV\AppData\Local\Temp\cc8OUGVm.s 			page 34


 928              		.thumb
 929              		.syntax unified
 930 04e4 C7F84031 		str	r3, [r7, #320]
 931              		.loc 2 544 0
 932 04e8 D7F84031 		ldr	r3, [r7, #320]
 933              	.LBE211:
 934              	.LBE210:
 935              		.loc 1 386 0
 936 04ec B3FA83F3 		clz	r3, r3
 937 04f0 01FA03F3 		lsl	r3, r1, r3
 938 04f4 1343     		orrs	r3, r3, r2
 939 04f6 0360     		str	r3, [r0]
 940 04f8 69E0     		b	.L37
 941              	.L48:
 942 04fa 0123     		movs	r3, #1
 943 04fc C7F83C31 		str	r3, [r7, #316]
 944              	.LBB212:
 945              	.LBB213:
 531:Drivers/CMSIS/Include/cmsis_gcc.h **** #else
 946              		.loc 2 531 0
 947 0500 D7F83C31 		ldr	r3, [r7, #316]
 948              		.syntax unified
 949              	@ 531 "Drivers/CMSIS/Include/cmsis_gcc.h" 1
 950 0504 93FAA3F3 		rbit r3, r3
 951              	@ 0 "" 2
 952              		.thumb
 953              		.syntax unified
 954 0508 C7F83831 		str	r3, [r7, #312]
 955              		.loc 2 544 0
 956 050c D7F83831 		ldr	r3, [r7, #312]
 957              	.LBE213:
 958              	.LBE212:
 387:Drivers/STM32F3xx_HAL_Driver/Src/stm32f3xx_hal_rcc.c ****       }
 388:Drivers/STM32F3xx_HAL_Driver/Src/stm32f3xx_hal_rcc.c ****       else
 389:Drivers/STM32F3xx_HAL_Driver/Src/stm32f3xx_hal_rcc.c ****       {
 390:Drivers/STM32F3xx_HAL_Driver/Src/stm32f3xx_hal_rcc.c ****         /* Disable the Internal High Speed oscillator (HSI). */
 391:Drivers/STM32F3xx_HAL_Driver/Src/stm32f3xx_hal_rcc.c ****         __HAL_RCC_HSI_DISABLE();
 959              		.loc 1 391 0
 960 0510 B3FA83F3 		clz	r3, r3
 961 0514 9B00     		lsls	r3, r3, #2
 962 0516 03F18443 		add	r3, r3, #1107296256
 963 051a 03F58403 		add	r3, r3, #4325376
 964 051e 1A46     		mov	r2, r3
 965 0520 0023     		movs	r3, #0
 966 0522 1360     		str	r3, [r2]
 392:Drivers/STM32F3xx_HAL_Driver/Src/stm32f3xx_hal_rcc.c ****         
 393:Drivers/STM32F3xx_HAL_Driver/Src/stm32f3xx_hal_rcc.c ****         /* Get Start Tick */
 394:Drivers/STM32F3xx_HAL_Driver/Src/stm32f3xx_hal_rcc.c ****         tickstart = HAL_GetTick();
 967              		.loc 1 394 0
 968 0524 FFF7FEFF 		bl	HAL_GetTick
 969 0528 C7F8F801 		str	r0, [r7, #504]
 395:Drivers/STM32F3xx_HAL_Driver/Src/stm32f3xx_hal_rcc.c ****         
 396:Drivers/STM32F3xx_HAL_Driver/Src/stm32f3xx_hal_rcc.c ****         /* Wait till HSI is disabled */
 397:Drivers/STM32F3xx_HAL_Driver/Src/stm32f3xx_hal_rcc.c ****         while(__HAL_RCC_GET_FLAG(RCC_FLAG_HSIRDY) != RESET)
 970              		.loc 1 397 0
 971 052c 0AE0     		b	.L60
 972              	.L67:
ARM GAS  C:\Users\RARES~1.COV\AppData\Local\Temp\cc8OUGVm.s 			page 35


 398:Drivers/STM32F3xx_HAL_Driver/Src/stm32f3xx_hal_rcc.c ****         {
 399:Drivers/STM32F3xx_HAL_Driver/Src/stm32f3xx_hal_rcc.c ****           if((HAL_GetTick() - tickstart ) > HSI_TIMEOUT_VALUE)
 973              		.loc 1 399 0
 974 052e FFF7FEFF 		bl	HAL_GetTick
 975 0532 0246     		mov	r2, r0
 976 0534 D7F8F831 		ldr	r3, [r7, #504]
 977 0538 D31A     		subs	r3, r2, r3
 978 053a 022B     		cmp	r3, #2
 979 053c 02D9     		bls	.L60
 400:Drivers/STM32F3xx_HAL_Driver/Src/stm32f3xx_hal_rcc.c ****           {
 401:Drivers/STM32F3xx_HAL_Driver/Src/stm32f3xx_hal_rcc.c ****             return HAL_TIMEOUT;
 980              		.loc 1 401 0
 981 053e 0323     		movs	r3, #3
 982 0540 00F037BC 		b	.L15
 983              	.L60:
 984 0544 0223     		movs	r3, #2
 985 0546 C7F83431 		str	r3, [r7, #308]
 986              	.LBB214:
 987              	.LBB215:
 531:Drivers/CMSIS/Include/cmsis_gcc.h **** #else
 988              		.loc 2 531 0
 989 054a D7F83431 		ldr	r3, [r7, #308]
 990              		.syntax unified
 991              	@ 531 "Drivers/CMSIS/Include/cmsis_gcc.h" 1
 992 054e 93FAA3F3 		rbit r3, r3
 993              	@ 0 "" 2
 994              		.thumb
 995              		.syntax unified
 996 0552 C7F83031 		str	r3, [r7, #304]
 997              		.loc 2 544 0
 998 0556 D7F83031 		ldr	r3, [r7, #304]
 999              	.LBE215:
 1000              	.LBE214:
 397:Drivers/STM32F3xx_HAL_Driver/Src/stm32f3xx_hal_rcc.c ****         {
 1001              		.loc 1 397 0
 1002 055a B3FA83F3 		clz	r3, r3
 1003 055e DBB2     		uxtb	r3, r3
 1004 0560 5B09     		lsrs	r3, r3, #5
 1005 0562 DBB2     		uxtb	r3, r3
 1006 0564 43F00103 		orr	r3, r3, #1
 1007 0568 DBB2     		uxtb	r3, r3
 1008 056a 012B     		cmp	r3, #1
 1009 056c 02D1     		bne	.L62
 397:Drivers/STM32F3xx_HAL_Driver/Src/stm32f3xx_hal_rcc.c ****         {
 1010              		.loc 1 397 0 is_stmt 0 discriminator 1
 1011 056e 304B     		ldr	r3, .L144
 1012 0570 1B68     		ldr	r3, [r3]
 1013 0572 13E0     		b	.L63
 1014              	.L62:
 1015 0574 0223     		movs	r3, #2
 1016 0576 C7F82C31 		str	r3, [r7, #300]
 1017              	.LBB216:
 1018              	.LBB217:
 531:Drivers/CMSIS/Include/cmsis_gcc.h **** #else
 1019              		.loc 2 531 0 is_stmt 1 discriminator 2
 1020 057a D7F82C31 		ldr	r3, [r7, #300]
 1021              		.syntax unified
ARM GAS  C:\Users\RARES~1.COV\AppData\Local\Temp\cc8OUGVm.s 			page 36


 1022              	@ 531 "Drivers/CMSIS/Include/cmsis_gcc.h" 1
 1023 057e 93FAA3F3 		rbit r3, r3
 1024              	@ 0 "" 2
 1025              		.thumb
 1026              		.syntax unified
 1027 0582 C7F82831 		str	r3, [r7, #296]
 1028 0586 0223     		movs	r3, #2
 1029 0588 C7F82431 		str	r3, [r7, #292]
 1030              	.LBE217:
 1031              	.LBE216:
 1032              	.LBB218:
 1033              	.LBB219:
 1034 058c D7F82431 		ldr	r3, [r7, #292]
 1035              		.syntax unified
 1036              	@ 531 "Drivers/CMSIS/Include/cmsis_gcc.h" 1
 1037 0590 93FAA3F3 		rbit r3, r3
 1038              	@ 0 "" 2
 1039              		.thumb
 1040              		.syntax unified
 1041 0594 C7F82031 		str	r3, [r7, #288]
 1042              	.LBE219:
 1043              	.LBE218:
 397:Drivers/STM32F3xx_HAL_Driver/Src/stm32f3xx_hal_rcc.c ****         {
 1044              		.loc 1 397 0 discriminator 2
 1045 0598 254B     		ldr	r3, .L144
 1046 059a 5B6A     		ldr	r3, [r3, #36]
 1047              	.L63:
 1048 059c 0222     		movs	r2, #2
 1049 059e C7F81C21 		str	r2, [r7, #284]
 1050              	.LBB220:
 1051              	.LBB221:
 531:Drivers/CMSIS/Include/cmsis_gcc.h **** #else
 1052              		.loc 2 531 0 discriminator 12
 1053 05a2 D7F81C21 		ldr	r2, [r7, #284]
 1054              		.syntax unified
 1055              	@ 531 "Drivers/CMSIS/Include/cmsis_gcc.h" 1
 1056 05a6 92FAA2F2 		rbit r2, r2
 1057              	@ 0 "" 2
 1058              		.thumb
 1059              		.syntax unified
 1060 05aa C7F81821 		str	r2, [r7, #280]
 1061              		.loc 2 544 0 discriminator 12
 1062 05ae D7F81821 		ldr	r2, [r7, #280]
 1063              	.LBE221:
 1064              	.LBE220:
 397:Drivers/STM32F3xx_HAL_Driver/Src/stm32f3xx_hal_rcc.c ****         {
 1065              		.loc 1 397 0 discriminator 12
 1066 05b2 B2FA82F2 		clz	r2, r2
 1067 05b6 52B2     		sxtb	r2, r2
 1068 05b8 42F02002 		orr	r2, r2, #32
 1069 05bc 52B2     		sxtb	r2, r2
 1070 05be D2B2     		uxtb	r2, r2
 1071 05c0 02F01F02 		and	r2, r2, #31
 1072 05c4 D340     		lsrs	r3, r3, r2
 1073 05c6 03F00103 		and	r3, r3, #1
 1074 05ca 002B     		cmp	r3, #0
 1075 05cc AFD1     		bne	.L67
ARM GAS  C:\Users\RARES~1.COV\AppData\Local\Temp\cc8OUGVm.s 			page 37


 1076              	.L37:
 402:Drivers/STM32F3xx_HAL_Driver/Src/stm32f3xx_hal_rcc.c ****           }
 403:Drivers/STM32F3xx_HAL_Driver/Src/stm32f3xx_hal_rcc.c ****         }
 404:Drivers/STM32F3xx_HAL_Driver/Src/stm32f3xx_hal_rcc.c ****       }
 405:Drivers/STM32F3xx_HAL_Driver/Src/stm32f3xx_hal_rcc.c ****     }
 406:Drivers/STM32F3xx_HAL_Driver/Src/stm32f3xx_hal_rcc.c ****   }
 407:Drivers/STM32F3xx_HAL_Driver/Src/stm32f3xx_hal_rcc.c ****   /*------------------------------ LSI Configuration -------------------------*/ 
 408:Drivers/STM32F3xx_HAL_Driver/Src/stm32f3xx_hal_rcc.c ****   if(((RCC_OscInitStruct->OscillatorType) & RCC_OSCILLATORTYPE_LSI) == RCC_OSCILLATORTYPE_LSI)
 1077              		.loc 1 408 0
 1078 05ce 3B1D     		adds	r3, r7, #4
 1079 05d0 1B68     		ldr	r3, [r3]
 1080 05d2 1B68     		ldr	r3, [r3]
 1081 05d4 03F00803 		and	r3, r3, #8
 1082 05d8 002B     		cmp	r3, #0
 1083 05da 00F0D880 		beq	.L68
 409:Drivers/STM32F3xx_HAL_Driver/Src/stm32f3xx_hal_rcc.c ****   {
 410:Drivers/STM32F3xx_HAL_Driver/Src/stm32f3xx_hal_rcc.c ****     /* Check the parameters */
 411:Drivers/STM32F3xx_HAL_Driver/Src/stm32f3xx_hal_rcc.c ****     assert_param(IS_RCC_LSI(RCC_OscInitStruct->LSIState));
 412:Drivers/STM32F3xx_HAL_Driver/Src/stm32f3xx_hal_rcc.c ****     
 413:Drivers/STM32F3xx_HAL_Driver/Src/stm32f3xx_hal_rcc.c ****     /* Check the LSI State */
 414:Drivers/STM32F3xx_HAL_Driver/Src/stm32f3xx_hal_rcc.c ****     if(RCC_OscInitStruct->LSIState != RCC_LSI_OFF)
 1084              		.loc 1 414 0
 1085 05de 3B1D     		adds	r3, r7, #4
 1086 05e0 1B68     		ldr	r3, [r3]
 1087 05e2 5B69     		ldr	r3, [r3, #20]
 1088 05e4 002B     		cmp	r3, #0
 1089 05e6 67D0     		beq	.L69
 1090 05e8 0123     		movs	r3, #1
 1091 05ea C7F81431 		str	r3, [r7, #276]
 1092              	.LBB222:
 1093              	.LBB223:
 531:Drivers/CMSIS/Include/cmsis_gcc.h **** #else
 1094              		.loc 2 531 0
 1095 05ee D7F81431 		ldr	r3, [r7, #276]
 1096              		.syntax unified
 1097              	@ 531 "Drivers/CMSIS/Include/cmsis_gcc.h" 1
 1098 05f2 93FAA3F3 		rbit r3, r3
 1099              	@ 0 "" 2
 1100              		.thumb
 1101              		.syntax unified
 1102 05f6 C7F81031 		str	r3, [r7, #272]
 1103              		.loc 2 544 0
 1104 05fa D7F81031 		ldr	r3, [r7, #272]
 1105              	.LBE223:
 1106              	.LBE222:
 415:Drivers/STM32F3xx_HAL_Driver/Src/stm32f3xx_hal_rcc.c ****     {
 416:Drivers/STM32F3xx_HAL_Driver/Src/stm32f3xx_hal_rcc.c ****       /* Enable the Internal Low Speed oscillator (LSI). */
 417:Drivers/STM32F3xx_HAL_Driver/Src/stm32f3xx_hal_rcc.c ****       __HAL_RCC_LSI_ENABLE();
 1107              		.loc 1 417 0
 1108 05fe B3FA83F3 		clz	r3, r3
 1109 0602 9B00     		lsls	r3, r3, #2
 1110 0604 1A46     		mov	r2, r3
 1111 0606 0B4B     		ldr	r3, .L144+4
 1112 0608 1344     		add	r3, r3, r2
 1113 060a 1A46     		mov	r2, r3
 1114 060c 0123     		movs	r3, #1
 1115 060e 1360     		str	r3, [r2]
ARM GAS  C:\Users\RARES~1.COV\AppData\Local\Temp\cc8OUGVm.s 			page 38


 418:Drivers/STM32F3xx_HAL_Driver/Src/stm32f3xx_hal_rcc.c ****       
 419:Drivers/STM32F3xx_HAL_Driver/Src/stm32f3xx_hal_rcc.c ****       /* Get Start Tick */
 420:Drivers/STM32F3xx_HAL_Driver/Src/stm32f3xx_hal_rcc.c ****       tickstart = HAL_GetTick();
 1116              		.loc 1 420 0
 1117 0610 FFF7FEFF 		bl	HAL_GetTick
 1118 0614 C7F8F801 		str	r0, [r7, #504]
 421:Drivers/STM32F3xx_HAL_Driver/Src/stm32f3xx_hal_rcc.c ****       
 422:Drivers/STM32F3xx_HAL_Driver/Src/stm32f3xx_hal_rcc.c ****       /* Wait till LSI is ready */  
 423:Drivers/STM32F3xx_HAL_Driver/Src/stm32f3xx_hal_rcc.c ****       while(__HAL_RCC_GET_FLAG(RCC_FLAG_LSIRDY) == RESET)
 1119              		.loc 1 423 0
 1120 0618 0EE0     		b	.L71
 1121              	.L76:
 424:Drivers/STM32F3xx_HAL_Driver/Src/stm32f3xx_hal_rcc.c ****       {
 425:Drivers/STM32F3xx_HAL_Driver/Src/stm32f3xx_hal_rcc.c ****         if((HAL_GetTick() - tickstart ) > LSI_TIMEOUT_VALUE)
 1122              		.loc 1 425 0
 1123 061a FFF7FEFF 		bl	HAL_GetTick
 1124 061e 0246     		mov	r2, r0
 1125 0620 D7F8F831 		ldr	r3, [r7, #504]
 1126 0624 D31A     		subs	r3, r2, r3
 1127 0626 022B     		cmp	r3, #2
 1128 0628 06D9     		bls	.L71
 426:Drivers/STM32F3xx_HAL_Driver/Src/stm32f3xx_hal_rcc.c ****         {
 427:Drivers/STM32F3xx_HAL_Driver/Src/stm32f3xx_hal_rcc.c ****           return HAL_TIMEOUT;
 1129              		.loc 1 427 0
 1130 062a 0323     		movs	r3, #3
 1131 062c C1E3     		b	.L15
 1132              	.L145:
 1133 062e 00BF     		.align	2
 1134              	.L144:
 1135 0630 00100240 		.word	1073876992
 1136 0634 80044242 		.word	1111622784
 1137              	.L71:
 1138 0638 0223     		movs	r3, #2
 1139 063a C7F80C31 		str	r3, [r7, #268]
 1140              	.LBB224:
 1141              	.LBB225:
 531:Drivers/CMSIS/Include/cmsis_gcc.h **** #else
 1142              		.loc 2 531 0
 1143 063e D7F80C31 		ldr	r3, [r7, #268]
 1144              		.syntax unified
 1145              	@ 531 "Drivers/CMSIS/Include/cmsis_gcc.h" 1
 1146 0642 93FAA3F3 		rbit r3, r3
 1147              	@ 0 "" 2
 1148              		.thumb
 1149              		.syntax unified
 1150 0646 C7F80831 		str	r3, [r7, #264]
 1151 064a 0223     		movs	r3, #2
 1152 064c C7F80431 		str	r3, [r7, #260]
 1153              	.LBE225:
 1154              	.LBE224:
 1155              	.LBB226:
 1156              	.LBB227:
 1157 0650 D7F80431 		ldr	r3, [r7, #260]
 1158              		.syntax unified
 1159              	@ 531 "Drivers/CMSIS/Include/cmsis_gcc.h" 1
 1160 0654 93FAA3F2 		rbit r2, r3
 1161              	@ 0 "" 2
ARM GAS  C:\Users\RARES~1.COV\AppData\Local\Temp\cc8OUGVm.s 			page 39


 1162              		.thumb
 1163              		.syntax unified
 1164 0658 07F58073 		add	r3, r7, #256
 1165 065c 1A60     		str	r2, [r3]
 1166 065e 07F1FC03 		add	r3, r7, #252
 1167 0662 0222     		movs	r2, #2
 1168 0664 1A60     		str	r2, [r3]
 1169              	.LBE227:
 1170              	.LBE226:
 1171              	.LBB228:
 1172              	.LBB229:
 1173 0666 07F1FC03 		add	r3, r7, #252
 1174 066a 1B68     		ldr	r3, [r3]
 1175              		.syntax unified
 1176              	@ 531 "Drivers/CMSIS/Include/cmsis_gcc.h" 1
 1177 066c 93FAA3F2 		rbit r2, r3
 1178              	@ 0 "" 2
 1179              		.thumb
 1180              		.syntax unified
 1181 0670 07F1F803 		add	r3, r7, #248
 1182 0674 1A60     		str	r2, [r3]
 1183              	.LBE229:
 1184              	.LBE228:
 423:Drivers/STM32F3xx_HAL_Driver/Src/stm32f3xx_hal_rcc.c ****       {
 1185              		.loc 1 423 0
 1186 0676 A54B     		ldr	r3, .L146
 1187 0678 5A6A     		ldr	r2, [r3, #36]
 1188 067a 07F1F403 		add	r3, r7, #244
 1189 067e 0221     		movs	r1, #2
 1190 0680 1960     		str	r1, [r3]
 1191              	.LBB230:
 1192              	.LBB231:
 531:Drivers/CMSIS/Include/cmsis_gcc.h **** #else
 1193              		.loc 2 531 0
 1194 0682 07F1F403 		add	r3, r7, #244
 1195 0686 1B68     		ldr	r3, [r3]
 1196              		.syntax unified
 1197              	@ 531 "Drivers/CMSIS/Include/cmsis_gcc.h" 1
 1198 0688 93FAA3F1 		rbit r1, r3
 1199              	@ 0 "" 2
 1200              		.thumb
 1201              		.syntax unified
 1202 068c 07F1F003 		add	r3, r7, #240
 1203 0690 1960     		str	r1, [r3]
 1204              		.loc 2 544 0
 1205 0692 07F1F003 		add	r3, r7, #240
 1206 0696 1B68     		ldr	r3, [r3]
 1207              	.LBE231:
 1208              	.LBE230:
 423:Drivers/STM32F3xx_HAL_Driver/Src/stm32f3xx_hal_rcc.c ****       {
 1209              		.loc 1 423 0
 1210 0698 B3FA83F3 		clz	r3, r3
 1211 069c 5BB2     		sxtb	r3, r3
 1212 069e 43F06003 		orr	r3, r3, #96
 1213 06a2 5BB2     		sxtb	r3, r3
 1214 06a4 DBB2     		uxtb	r3, r3
 1215 06a6 03F01F03 		and	r3, r3, #31
ARM GAS  C:\Users\RARES~1.COV\AppData\Local\Temp\cc8OUGVm.s 			page 40


 1216 06aa 22FA03F3 		lsr	r3, r2, r3
 1217 06ae 03F00103 		and	r3, r3, #1
 1218 06b2 002B     		cmp	r3, #0
 1219 06b4 B1D0     		beq	.L76
 1220 06b6 6AE0     		b	.L68
 1221              	.L69:
 1222 06b8 07F1EC03 		add	r3, r7, #236
 1223 06bc 0122     		movs	r2, #1
 1224 06be 1A60     		str	r2, [r3]
 1225              	.LBB232:
 1226              	.LBB233:
 531:Drivers/CMSIS/Include/cmsis_gcc.h **** #else
 1227              		.loc 2 531 0
 1228 06c0 07F1EC03 		add	r3, r7, #236
 1229 06c4 1B68     		ldr	r3, [r3]
 1230              		.syntax unified
 1231              	@ 531 "Drivers/CMSIS/Include/cmsis_gcc.h" 1
 1232 06c6 93FAA3F2 		rbit r2, r3
 1233              	@ 0 "" 2
 1234              		.thumb
 1235              		.syntax unified
 1236 06ca 07F1E803 		add	r3, r7, #232
 1237 06ce 1A60     		str	r2, [r3]
 1238              		.loc 2 544 0
 1239 06d0 07F1E803 		add	r3, r7, #232
 1240 06d4 1B68     		ldr	r3, [r3]
 1241              	.LBE233:
 1242              	.LBE232:
 428:Drivers/STM32F3xx_HAL_Driver/Src/stm32f3xx_hal_rcc.c ****         }
 429:Drivers/STM32F3xx_HAL_Driver/Src/stm32f3xx_hal_rcc.c ****       }
 430:Drivers/STM32F3xx_HAL_Driver/Src/stm32f3xx_hal_rcc.c ****     }
 431:Drivers/STM32F3xx_HAL_Driver/Src/stm32f3xx_hal_rcc.c ****     else
 432:Drivers/STM32F3xx_HAL_Driver/Src/stm32f3xx_hal_rcc.c ****     {
 433:Drivers/STM32F3xx_HAL_Driver/Src/stm32f3xx_hal_rcc.c ****       /* Disable the Internal Low Speed oscillator (LSI). */
 434:Drivers/STM32F3xx_HAL_Driver/Src/stm32f3xx_hal_rcc.c ****       __HAL_RCC_LSI_DISABLE();
 1243              		.loc 1 434 0
 1244 06d6 B3FA83F3 		clz	r3, r3
 1245 06da 9B00     		lsls	r3, r3, #2
 1246 06dc 1A46     		mov	r2, r3
 1247 06de 8C4B     		ldr	r3, .L146+4
 1248 06e0 1344     		add	r3, r3, r2
 1249 06e2 1A46     		mov	r2, r3
 1250 06e4 0023     		movs	r3, #0
 1251 06e6 1360     		str	r3, [r2]
 435:Drivers/STM32F3xx_HAL_Driver/Src/stm32f3xx_hal_rcc.c ****       
 436:Drivers/STM32F3xx_HAL_Driver/Src/stm32f3xx_hal_rcc.c ****       /* Get Start Tick */
 437:Drivers/STM32F3xx_HAL_Driver/Src/stm32f3xx_hal_rcc.c ****       tickstart = HAL_GetTick();
 1252              		.loc 1 437 0
 1253 06e8 FFF7FEFF 		bl	HAL_GetTick
 1254 06ec C7F8F801 		str	r0, [r7, #504]
 438:Drivers/STM32F3xx_HAL_Driver/Src/stm32f3xx_hal_rcc.c ****       
 439:Drivers/STM32F3xx_HAL_Driver/Src/stm32f3xx_hal_rcc.c ****       /* Wait till LSI is disabled */  
 440:Drivers/STM32F3xx_HAL_Driver/Src/stm32f3xx_hal_rcc.c ****       while(__HAL_RCC_GET_FLAG(RCC_FLAG_LSIRDY) != RESET)
 1255              		.loc 1 440 0
 1256 06f0 09E0     		b	.L78
 1257              	.L83:
 441:Drivers/STM32F3xx_HAL_Driver/Src/stm32f3xx_hal_rcc.c ****       {
ARM GAS  C:\Users\RARES~1.COV\AppData\Local\Temp\cc8OUGVm.s 			page 41


 442:Drivers/STM32F3xx_HAL_Driver/Src/stm32f3xx_hal_rcc.c ****         if((HAL_GetTick() - tickstart ) > LSI_TIMEOUT_VALUE)
 1258              		.loc 1 442 0
 1259 06f2 FFF7FEFF 		bl	HAL_GetTick
 1260 06f6 0246     		mov	r2, r0
 1261 06f8 D7F8F831 		ldr	r3, [r7, #504]
 1262 06fc D31A     		subs	r3, r2, r3
 1263 06fe 022B     		cmp	r3, #2
 1264 0700 01D9     		bls	.L78
 443:Drivers/STM32F3xx_HAL_Driver/Src/stm32f3xx_hal_rcc.c ****         {
 444:Drivers/STM32F3xx_HAL_Driver/Src/stm32f3xx_hal_rcc.c ****           return HAL_TIMEOUT;
 1265              		.loc 1 444 0
 1266 0702 0323     		movs	r3, #3
 1267 0704 55E3     		b	.L15
 1268              	.L78:
 1269 0706 07F1E403 		add	r3, r7, #228
 1270 070a 0222     		movs	r2, #2
 1271 070c 1A60     		str	r2, [r3]
 1272              	.LBB234:
 1273              	.LBB235:
 531:Drivers/CMSIS/Include/cmsis_gcc.h **** #else
 1274              		.loc 2 531 0
 1275 070e 07F1E403 		add	r3, r7, #228
 1276 0712 1B68     		ldr	r3, [r3]
 1277              		.syntax unified
 1278              	@ 531 "Drivers/CMSIS/Include/cmsis_gcc.h" 1
 1279 0714 93FAA3F2 		rbit r2, r3
 1280              	@ 0 "" 2
 1281              		.thumb
 1282              		.syntax unified
 1283 0718 07F1E003 		add	r3, r7, #224
 1284 071c 1A60     		str	r2, [r3]
 1285 071e 07F1DC03 		add	r3, r7, #220
 1286 0722 0222     		movs	r2, #2
 1287 0724 1A60     		str	r2, [r3]
 1288              	.LBE235:
 1289              	.LBE234:
 1290              	.LBB236:
 1291              	.LBB237:
 1292 0726 07F1DC03 		add	r3, r7, #220
 1293 072a 1B68     		ldr	r3, [r3]
 1294              		.syntax unified
 1295              	@ 531 "Drivers/CMSIS/Include/cmsis_gcc.h" 1
 1296 072c 93FAA3F2 		rbit r2, r3
 1297              	@ 0 "" 2
 1298              		.thumb
 1299              		.syntax unified
 1300 0730 07F1D803 		add	r3, r7, #216
 1301 0734 1A60     		str	r2, [r3]
 1302 0736 07F1D403 		add	r3, r7, #212
 1303 073a 0222     		movs	r2, #2
 1304 073c 1A60     		str	r2, [r3]
 1305              	.LBE237:
 1306              	.LBE236:
 1307              	.LBB238:
 1308              	.LBB239:
 1309 073e 07F1D403 		add	r3, r7, #212
 1310 0742 1B68     		ldr	r3, [r3]
ARM GAS  C:\Users\RARES~1.COV\AppData\Local\Temp\cc8OUGVm.s 			page 42


 1311              		.syntax unified
 1312              	@ 531 "Drivers/CMSIS/Include/cmsis_gcc.h" 1
 1313 0744 93FAA3F2 		rbit r2, r3
 1314              	@ 0 "" 2
 1315              		.thumb
 1316              		.syntax unified
 1317 0748 07F1D003 		add	r3, r7, #208
 1318 074c 1A60     		str	r2, [r3]
 1319              	.LBE239:
 1320              	.LBE238:
 440:Drivers/STM32F3xx_HAL_Driver/Src/stm32f3xx_hal_rcc.c ****       {
 1321              		.loc 1 440 0
 1322 074e 6F4B     		ldr	r3, .L146
 1323 0750 5A6A     		ldr	r2, [r3, #36]
 1324 0752 07F1CC03 		add	r3, r7, #204
 1325 0756 0221     		movs	r1, #2
 1326 0758 1960     		str	r1, [r3]
 1327              	.LBB240:
 1328              	.LBB241:
 531:Drivers/CMSIS/Include/cmsis_gcc.h **** #else
 1329              		.loc 2 531 0
 1330 075a 07F1CC03 		add	r3, r7, #204
 1331 075e 1B68     		ldr	r3, [r3]
 1332              		.syntax unified
 1333              	@ 531 "Drivers/CMSIS/Include/cmsis_gcc.h" 1
 1334 0760 93FAA3F1 		rbit r1, r3
 1335              	@ 0 "" 2
 1336              		.thumb
 1337              		.syntax unified
 1338 0764 07F1C803 		add	r3, r7, #200
 1339 0768 1960     		str	r1, [r3]
 1340              		.loc 2 544 0
 1341 076a 07F1C803 		add	r3, r7, #200
 1342 076e 1B68     		ldr	r3, [r3]
 1343              	.LBE241:
 1344              	.LBE240:
 440:Drivers/STM32F3xx_HAL_Driver/Src/stm32f3xx_hal_rcc.c ****       {
 1345              		.loc 1 440 0
 1346 0770 B3FA83F3 		clz	r3, r3
 1347 0774 5BB2     		sxtb	r3, r3
 1348 0776 43F06003 		orr	r3, r3, #96
 1349 077a 5BB2     		sxtb	r3, r3
 1350 077c DBB2     		uxtb	r3, r3
 1351 077e 03F01F03 		and	r3, r3, #31
 1352 0782 22FA03F3 		lsr	r3, r2, r3
 1353 0786 03F00103 		and	r3, r3, #1
 1354 078a 002B     		cmp	r3, #0
 1355 078c B1D1     		bne	.L83
 1356              	.L68:
 445:Drivers/STM32F3xx_HAL_Driver/Src/stm32f3xx_hal_rcc.c ****         }
 446:Drivers/STM32F3xx_HAL_Driver/Src/stm32f3xx_hal_rcc.c ****       }
 447:Drivers/STM32F3xx_HAL_Driver/Src/stm32f3xx_hal_rcc.c ****     }
 448:Drivers/STM32F3xx_HAL_Driver/Src/stm32f3xx_hal_rcc.c ****   }
 449:Drivers/STM32F3xx_HAL_Driver/Src/stm32f3xx_hal_rcc.c ****   /*------------------------------ LSE Configuration -------------------------*/ 
 450:Drivers/STM32F3xx_HAL_Driver/Src/stm32f3xx_hal_rcc.c ****   if(((RCC_OscInitStruct->OscillatorType) & RCC_OSCILLATORTYPE_LSE) == RCC_OSCILLATORTYPE_LSE)
 1357              		.loc 1 450 0
 1358 078e 3B1D     		adds	r3, r7, #4
ARM GAS  C:\Users\RARES~1.COV\AppData\Local\Temp\cc8OUGVm.s 			page 43


 1359 0790 1B68     		ldr	r3, [r3]
 1360 0792 1B68     		ldr	r3, [r3]
 1361 0794 03F00403 		and	r3, r3, #4
 1362 0798 002B     		cmp	r3, #0
 1363 079a 00F05781 		beq	.L84
 1364              	.LBB242:
 451:Drivers/STM32F3xx_HAL_Driver/Src/stm32f3xx_hal_rcc.c ****   {
 452:Drivers/STM32F3xx_HAL_Driver/Src/stm32f3xx_hal_rcc.c ****     FlagStatus       pwrclkchanged = RESET;
 1365              		.loc 1 452 0
 1366 079e 0023     		movs	r3, #0
 1367 07a0 87F8FF31 		strb	r3, [r7, #511]
 453:Drivers/STM32F3xx_HAL_Driver/Src/stm32f3xx_hal_rcc.c ****     
 454:Drivers/STM32F3xx_HAL_Driver/Src/stm32f3xx_hal_rcc.c ****     /* Check the parameters */
 455:Drivers/STM32F3xx_HAL_Driver/Src/stm32f3xx_hal_rcc.c ****     assert_param(IS_RCC_LSE(RCC_OscInitStruct->LSEState));
 456:Drivers/STM32F3xx_HAL_Driver/Src/stm32f3xx_hal_rcc.c **** 
 457:Drivers/STM32F3xx_HAL_Driver/Src/stm32f3xx_hal_rcc.c ****     /* Update LSE configuration in Backup Domain control register    */
 458:Drivers/STM32F3xx_HAL_Driver/Src/stm32f3xx_hal_rcc.c ****     /* Requires to enable write access to Backup Domain of necessary */
 459:Drivers/STM32F3xx_HAL_Driver/Src/stm32f3xx_hal_rcc.c ****     if(__HAL_RCC_PWR_IS_CLK_DISABLED())
 1368              		.loc 1 459 0
 1369 07a4 594B     		ldr	r3, .L146
 1370 07a6 DB69     		ldr	r3, [r3, #28]
 1371 07a8 03F08053 		and	r3, r3, #268435456
 1372 07ac 002B     		cmp	r3, #0
 1373 07ae 12D1     		bne	.L85
 1374              	.LBB243:
 460:Drivers/STM32F3xx_HAL_Driver/Src/stm32f3xx_hal_rcc.c ****     {
 461:Drivers/STM32F3xx_HAL_Driver/Src/stm32f3xx_hal_rcc.c ****       __HAL_RCC_PWR_CLK_ENABLE();
 1375              		.loc 1 461 0
 1376 07b0 564A     		ldr	r2, .L146
 1377 07b2 564B     		ldr	r3, .L146
 1378 07b4 DB69     		ldr	r3, [r3, #28]
 1379 07b6 43F08053 		orr	r3, r3, #268435456
 1380 07ba D361     		str	r3, [r2, #28]
 1381 07bc 534B     		ldr	r3, .L146
 1382 07be DB69     		ldr	r3, [r3, #28]
 1383 07c0 03F08052 		and	r2, r3, #268435456
 1384 07c4 07F10C03 		add	r3, r7, #12
 1385 07c8 1A60     		str	r2, [r3]
 1386 07ca 07F10C03 		add	r3, r7, #12
 1387 07ce 1B68     		ldr	r3, [r3]
 1388              	.LBE243:
 462:Drivers/STM32F3xx_HAL_Driver/Src/stm32f3xx_hal_rcc.c ****       pwrclkchanged = SET;
 1389              		.loc 1 462 0
 1390 07d0 0123     		movs	r3, #1
 1391 07d2 87F8FF31 		strb	r3, [r7, #511]
 1392              	.L85:
 463:Drivers/STM32F3xx_HAL_Driver/Src/stm32f3xx_hal_rcc.c ****     }
 464:Drivers/STM32F3xx_HAL_Driver/Src/stm32f3xx_hal_rcc.c ****     
 465:Drivers/STM32F3xx_HAL_Driver/Src/stm32f3xx_hal_rcc.c ****     if(HAL_IS_BIT_CLR(PWR->CR, PWR_CR_DBP))
 1393              		.loc 1 465 0
 1394 07d6 4F4B     		ldr	r3, .L146+8
 1395 07d8 1B68     		ldr	r3, [r3]
 1396 07da 03F48073 		and	r3, r3, #256
 1397 07de 002B     		cmp	r3, #0
 1398 07e0 1AD1     		bne	.L86
 466:Drivers/STM32F3xx_HAL_Driver/Src/stm32f3xx_hal_rcc.c ****     {
 467:Drivers/STM32F3xx_HAL_Driver/Src/stm32f3xx_hal_rcc.c ****       /* Enable write access to Backup domain */
ARM GAS  C:\Users\RARES~1.COV\AppData\Local\Temp\cc8OUGVm.s 			page 44


 468:Drivers/STM32F3xx_HAL_Driver/Src/stm32f3xx_hal_rcc.c ****       SET_BIT(PWR->CR, PWR_CR_DBP);
 1399              		.loc 1 468 0
 1400 07e2 4C4A     		ldr	r2, .L146+8
 1401 07e4 4B4B     		ldr	r3, .L146+8
 1402 07e6 1B68     		ldr	r3, [r3]
 1403 07e8 43F48073 		orr	r3, r3, #256
 1404 07ec 1360     		str	r3, [r2]
 469:Drivers/STM32F3xx_HAL_Driver/Src/stm32f3xx_hal_rcc.c ****       
 470:Drivers/STM32F3xx_HAL_Driver/Src/stm32f3xx_hal_rcc.c ****       /* Wait for Backup domain Write protection disable */
 471:Drivers/STM32F3xx_HAL_Driver/Src/stm32f3xx_hal_rcc.c ****       tickstart = HAL_GetTick();
 1405              		.loc 1 471 0
 1406 07ee FFF7FEFF 		bl	HAL_GetTick
 1407 07f2 C7F8F801 		str	r0, [r7, #504]
 472:Drivers/STM32F3xx_HAL_Driver/Src/stm32f3xx_hal_rcc.c **** 
 473:Drivers/STM32F3xx_HAL_Driver/Src/stm32f3xx_hal_rcc.c ****       while(HAL_IS_BIT_CLR(PWR->CR, PWR_CR_DBP))
 1408              		.loc 1 473 0
 1409 07f6 09E0     		b	.L87
 1410              	.L88:
 474:Drivers/STM32F3xx_HAL_Driver/Src/stm32f3xx_hal_rcc.c ****       {
 475:Drivers/STM32F3xx_HAL_Driver/Src/stm32f3xx_hal_rcc.c ****         if((HAL_GetTick() - tickstart) > RCC_DBP_TIMEOUT_VALUE)
 1411              		.loc 1 475 0
 1412 07f8 FFF7FEFF 		bl	HAL_GetTick
 1413 07fc 0246     		mov	r2, r0
 1414 07fe D7F8F831 		ldr	r3, [r7, #504]
 1415 0802 D31A     		subs	r3, r2, r3
 1416 0804 642B     		cmp	r3, #100
 1417 0806 01D9     		bls	.L87
 476:Drivers/STM32F3xx_HAL_Driver/Src/stm32f3xx_hal_rcc.c ****         {
 477:Drivers/STM32F3xx_HAL_Driver/Src/stm32f3xx_hal_rcc.c ****           return HAL_TIMEOUT;
 1418              		.loc 1 477 0
 1419 0808 0323     		movs	r3, #3
 1420 080a D2E2     		b	.L15
 1421              	.L87:
 473:Drivers/STM32F3xx_HAL_Driver/Src/stm32f3xx_hal_rcc.c ****       {
 1422              		.loc 1 473 0
 1423 080c 414B     		ldr	r3, .L146+8
 1424 080e 1B68     		ldr	r3, [r3]
 1425 0810 03F48073 		and	r3, r3, #256
 1426 0814 002B     		cmp	r3, #0
 1427 0816 EFD0     		beq	.L88
 1428              	.L86:
 478:Drivers/STM32F3xx_HAL_Driver/Src/stm32f3xx_hal_rcc.c ****         }
 479:Drivers/STM32F3xx_HAL_Driver/Src/stm32f3xx_hal_rcc.c ****       }
 480:Drivers/STM32F3xx_HAL_Driver/Src/stm32f3xx_hal_rcc.c ****     }
 481:Drivers/STM32F3xx_HAL_Driver/Src/stm32f3xx_hal_rcc.c **** 
 482:Drivers/STM32F3xx_HAL_Driver/Src/stm32f3xx_hal_rcc.c ****     /* Set the new LSE configuration -----------------------------------------*/
 483:Drivers/STM32F3xx_HAL_Driver/Src/stm32f3xx_hal_rcc.c ****     __HAL_RCC_LSE_CONFIG(RCC_OscInitStruct->LSEState);
 1429              		.loc 1 483 0
 1430 0818 3B1D     		adds	r3, r7, #4
 1431 081a 1B68     		ldr	r3, [r3]
 1432 081c 9B68     		ldr	r3, [r3, #8]
 1433 081e 012B     		cmp	r3, #1
 1434 0820 06D1     		bne	.L89
 1435              		.loc 1 483 0 is_stmt 0 discriminator 1
 1436 0822 3A4A     		ldr	r2, .L146
 1437 0824 394B     		ldr	r3, .L146
 1438 0826 1B6A     		ldr	r3, [r3, #32]
ARM GAS  C:\Users\RARES~1.COV\AppData\Local\Temp\cc8OUGVm.s 			page 45


 1439 0828 43F00103 		orr	r3, r3, #1
 1440 082c 1362     		str	r3, [r2, #32]
 1441 082e 2FE0     		b	.L90
 1442              	.L89:
 1443              		.loc 1 483 0 discriminator 2
 1444 0830 3B1D     		adds	r3, r7, #4
 1445 0832 1B68     		ldr	r3, [r3]
 1446 0834 9B68     		ldr	r3, [r3, #8]
 1447 0836 002B     		cmp	r3, #0
 1448 0838 0CD1     		bne	.L91
 1449              		.loc 1 483 0 discriminator 3
 1450 083a 344A     		ldr	r2, .L146
 1451 083c 334B     		ldr	r3, .L146
 1452 083e 1B6A     		ldr	r3, [r3, #32]
 1453 0840 23F00103 		bic	r3, r3, #1
 1454 0844 1362     		str	r3, [r2, #32]
 1455 0846 314A     		ldr	r2, .L146
 1456 0848 304B     		ldr	r3, .L146
 1457 084a 1B6A     		ldr	r3, [r3, #32]
 1458 084c 23F00403 		bic	r3, r3, #4
 1459 0850 1362     		str	r3, [r2, #32]
 1460 0852 1DE0     		b	.L90
 1461              	.L91:
 1462              		.loc 1 483 0 discriminator 4
 1463 0854 3B1D     		adds	r3, r7, #4
 1464 0856 1B68     		ldr	r3, [r3]
 1465 0858 9B68     		ldr	r3, [r3, #8]
 1466 085a 052B     		cmp	r3, #5
 1467 085c 0CD1     		bne	.L92
 1468              		.loc 1 483 0 discriminator 5
 1469 085e 2B4A     		ldr	r2, .L146
 1470 0860 2A4B     		ldr	r3, .L146
 1471 0862 1B6A     		ldr	r3, [r3, #32]
 1472 0864 43F00403 		orr	r3, r3, #4
 1473 0868 1362     		str	r3, [r2, #32]
 1474 086a 284A     		ldr	r2, .L146
 1475 086c 274B     		ldr	r3, .L146
 1476 086e 1B6A     		ldr	r3, [r3, #32]
 1477 0870 43F00103 		orr	r3, r3, #1
 1478 0874 1362     		str	r3, [r2, #32]
 1479 0876 0BE0     		b	.L90
 1480              	.L92:
 1481              		.loc 1 483 0 discriminator 6
 1482 0878 244A     		ldr	r2, .L146
 1483 087a 244B     		ldr	r3, .L146
 1484 087c 1B6A     		ldr	r3, [r3, #32]
 1485 087e 23F00103 		bic	r3, r3, #1
 1486 0882 1362     		str	r3, [r2, #32]
 1487 0884 214A     		ldr	r2, .L146
 1488 0886 214B     		ldr	r3, .L146
 1489 0888 1B6A     		ldr	r3, [r3, #32]
 1490 088a 23F00403 		bic	r3, r3, #4
 1491 088e 1362     		str	r3, [r2, #32]
 1492              	.L90:
 484:Drivers/STM32F3xx_HAL_Driver/Src/stm32f3xx_hal_rcc.c ****     /* Check the LSE State */
 485:Drivers/STM32F3xx_HAL_Driver/Src/stm32f3xx_hal_rcc.c ****     if(RCC_OscInitStruct->LSEState != RCC_LSE_OFF)
 1493              		.loc 1 485 0 is_stmt 1
ARM GAS  C:\Users\RARES~1.COV\AppData\Local\Temp\cc8OUGVm.s 			page 46


 1494 0890 3B1D     		adds	r3, r7, #4
 1495 0892 1B68     		ldr	r3, [r3]
 1496 0894 9B68     		ldr	r3, [r3, #8]
 1497 0896 002B     		cmp	r3, #0
 1498 0898 6AD0     		beq	.L93
 486:Drivers/STM32F3xx_HAL_Driver/Src/stm32f3xx_hal_rcc.c ****     {
 487:Drivers/STM32F3xx_HAL_Driver/Src/stm32f3xx_hal_rcc.c ****       /* Get Start Tick */
 488:Drivers/STM32F3xx_HAL_Driver/Src/stm32f3xx_hal_rcc.c ****       tickstart = HAL_GetTick();
 1499              		.loc 1 488 0
 1500 089a FFF7FEFF 		bl	HAL_GetTick
 1501 089e C7F8F801 		str	r0, [r7, #504]
 489:Drivers/STM32F3xx_HAL_Driver/Src/stm32f3xx_hal_rcc.c ****       
 490:Drivers/STM32F3xx_HAL_Driver/Src/stm32f3xx_hal_rcc.c ****       /* Wait till LSE is ready */  
 491:Drivers/STM32F3xx_HAL_Driver/Src/stm32f3xx_hal_rcc.c ****       while(__HAL_RCC_GET_FLAG(RCC_FLAG_LSERDY) == RESET)
 1502              		.loc 1 491 0
 1503 08a2 0BE0     		b	.L94
 1504              	.L101:
 492:Drivers/STM32F3xx_HAL_Driver/Src/stm32f3xx_hal_rcc.c ****       {
 493:Drivers/STM32F3xx_HAL_Driver/Src/stm32f3xx_hal_rcc.c ****         if((HAL_GetTick() - tickstart ) > RCC_LSE_TIMEOUT_VALUE)
 1505              		.loc 1 493 0
 1506 08a4 FFF7FEFF 		bl	HAL_GetTick
 1507 08a8 0246     		mov	r2, r0
 1508 08aa D7F8F831 		ldr	r3, [r7, #504]
 1509 08ae D31A     		subs	r3, r2, r3
 1510 08b0 41F28832 		movw	r2, #5000
 1511 08b4 9342     		cmp	r3, r2
 1512 08b6 01D9     		bls	.L94
 494:Drivers/STM32F3xx_HAL_Driver/Src/stm32f3xx_hal_rcc.c ****         {
 495:Drivers/STM32F3xx_HAL_Driver/Src/stm32f3xx_hal_rcc.c ****           return HAL_TIMEOUT;
 1513              		.loc 1 495 0
 1514 08b8 0323     		movs	r3, #3
 1515 08ba 7AE2     		b	.L15
 1516              	.L94:
 1517 08bc 07F1C403 		add	r3, r7, #196
 1518 08c0 0222     		movs	r2, #2
 1519 08c2 1A60     		str	r2, [r3]
 1520              	.LBB244:
 1521              	.LBB245:
 531:Drivers/CMSIS/Include/cmsis_gcc.h **** #else
 1522              		.loc 2 531 0
 1523 08c4 07F1C403 		add	r3, r7, #196
 1524 08c8 1B68     		ldr	r3, [r3]
 1525              		.syntax unified
 1526              	@ 531 "Drivers/CMSIS/Include/cmsis_gcc.h" 1
 1527 08ca 93FAA3F2 		rbit r2, r3
 1528              	@ 0 "" 2
 1529              		.thumb
 1530              		.syntax unified
 1531 08ce 07F1C003 		add	r3, r7, #192
 1532 08d2 1A60     		str	r2, [r3]
 1533 08d4 07F1BC03 		add	r3, r7, #188
 1534 08d8 0222     		movs	r2, #2
 1535 08da 1A60     		str	r2, [r3]
 1536              	.LBE245:
 1537              	.LBE244:
 1538              	.LBB246:
 1539              	.LBB247:
ARM GAS  C:\Users\RARES~1.COV\AppData\Local\Temp\cc8OUGVm.s 			page 47


 1540 08dc 07F1BC03 		add	r3, r7, #188
 1541 08e0 1B68     		ldr	r3, [r3]
 1542              		.syntax unified
 1543              	@ 531 "Drivers/CMSIS/Include/cmsis_gcc.h" 1
 1544 08e2 93FAA3F2 		rbit r2, r3
 1545              	@ 0 "" 2
 1546              		.thumb
 1547              		.syntax unified
 1548 08e6 07F1B803 		add	r3, r7, #184
 1549 08ea 1A60     		str	r2, [r3]
 1550              		.loc 2 544 0
 1551 08ec 07F1B803 		add	r3, r7, #184
 1552 08f0 1B68     		ldr	r3, [r3]
 1553              	.LBE247:
 1554              	.LBE246:
 491:Drivers/STM32F3xx_HAL_Driver/Src/stm32f3xx_hal_rcc.c ****       {
 1555              		.loc 1 491 0
 1556 08f2 B3FA83F3 		clz	r3, r3
 1557 08f6 DBB2     		uxtb	r3, r3
 1558 08f8 5B09     		lsrs	r3, r3, #5
 1559 08fa DBB2     		uxtb	r3, r3
 1560 08fc 43F00203 		orr	r3, r3, #2
 1561 0900 DBB2     		uxtb	r3, r3
 1562 0902 022B     		cmp	r3, #2
 1563 0904 08D1     		bne	.L97
 491:Drivers/STM32F3xx_HAL_Driver/Src/stm32f3xx_hal_rcc.c ****       {
 1564              		.loc 1 491 0 is_stmt 0 discriminator 4
 1565 0906 014B     		ldr	r3, .L146
 1566 0908 1B6A     		ldr	r3, [r3, #32]
 1567 090a 13E0     		b	.L98
 1568              	.L147:
 1569              		.align	2
 1570              	.L146:
 1571 090c 00100240 		.word	1073876992
 1572 0910 80044242 		.word	1111622784
 1573 0914 00700040 		.word	1073770496
 1574              	.L97:
 1575 0918 07F1B403 		add	r3, r7, #180
 1576 091c 0222     		movs	r2, #2
 1577 091e 1A60     		str	r2, [r3]
 1578              	.LBB248:
 1579              	.LBB249:
 531:Drivers/CMSIS/Include/cmsis_gcc.h **** #else
 1580              		.loc 2 531 0 is_stmt 1 discriminator 5
 1581 0920 07F1B403 		add	r3, r7, #180
 1582 0924 1B68     		ldr	r3, [r3]
 1583              		.syntax unified
 1584              	@ 531 "Drivers/CMSIS/Include/cmsis_gcc.h" 1
 1585 0926 93FAA3F2 		rbit r2, r3
 1586              	@ 0 "" 2
 1587              		.thumb
 1588              		.syntax unified
 1589 092a 07F1B003 		add	r3, r7, #176
 1590 092e 1A60     		str	r2, [r3]
 1591              	.LBE249:
 1592              	.LBE248:
 491:Drivers/STM32F3xx_HAL_Driver/Src/stm32f3xx_hal_rcc.c ****       {
ARM GAS  C:\Users\RARES~1.COV\AppData\Local\Temp\cc8OUGVm.s 			page 48


 1593              		.loc 1 491 0 discriminator 5
 1594 0930 BF4B     		ldr	r3, .L148
 1595 0932 5B6A     		ldr	r3, [r3, #36]
 1596              	.L98:
 1597 0934 07F1AC02 		add	r2, r7, #172
 1598 0938 0221     		movs	r1, #2
 1599 093a 1160     		str	r1, [r2]
 1600              	.LBB250:
 1601              	.LBB251:
 531:Drivers/CMSIS/Include/cmsis_gcc.h **** #else
 1602              		.loc 2 531 0 discriminator 11
 1603 093c 07F1AC02 		add	r2, r7, #172
 1604 0940 1268     		ldr	r2, [r2]
 1605              		.syntax unified
 1606              	@ 531 "Drivers/CMSIS/Include/cmsis_gcc.h" 1
 1607 0942 92FAA2F1 		rbit r1, r2
 1608              	@ 0 "" 2
 1609              		.thumb
 1610              		.syntax unified
 1611 0946 07F1A802 		add	r2, r7, #168
 1612 094a 1160     		str	r1, [r2]
 1613              		.loc 2 544 0 discriminator 11
 1614 094c 07F1A802 		add	r2, r7, #168
 1615 0950 1268     		ldr	r2, [r2]
 1616              	.LBE251:
 1617              	.LBE250:
 491:Drivers/STM32F3xx_HAL_Driver/Src/stm32f3xx_hal_rcc.c ****       {
 1618              		.loc 1 491 0 discriminator 11
 1619 0952 B2FA82F2 		clz	r2, r2
 1620 0956 52B2     		sxtb	r2, r2
 1621 0958 42F04002 		orr	r2, r2, #64
 1622 095c 52B2     		sxtb	r2, r2
 1623 095e D2B2     		uxtb	r2, r2
 1624 0960 02F01F02 		and	r2, r2, #31
 1625 0964 D340     		lsrs	r3, r3, r2
 1626 0966 03F00103 		and	r3, r3, #1
 1627 096a 002B     		cmp	r3, #0
 1628 096c 9AD0     		beq	.L101
 1629 096e 63E0     		b	.L102
 1630              	.L93:
 496:Drivers/STM32F3xx_HAL_Driver/Src/stm32f3xx_hal_rcc.c ****         }
 497:Drivers/STM32F3xx_HAL_Driver/Src/stm32f3xx_hal_rcc.c ****       }
 498:Drivers/STM32F3xx_HAL_Driver/Src/stm32f3xx_hal_rcc.c ****     }
 499:Drivers/STM32F3xx_HAL_Driver/Src/stm32f3xx_hal_rcc.c ****     else
 500:Drivers/STM32F3xx_HAL_Driver/Src/stm32f3xx_hal_rcc.c ****     {
 501:Drivers/STM32F3xx_HAL_Driver/Src/stm32f3xx_hal_rcc.c ****       /* Get Start Tick */
 502:Drivers/STM32F3xx_HAL_Driver/Src/stm32f3xx_hal_rcc.c ****       tickstart = HAL_GetTick();
 1631              		.loc 1 502 0
 1632 0970 FFF7FEFF 		bl	HAL_GetTick
 1633 0974 C7F8F801 		str	r0, [r7, #504]
 503:Drivers/STM32F3xx_HAL_Driver/Src/stm32f3xx_hal_rcc.c ****       
 504:Drivers/STM32F3xx_HAL_Driver/Src/stm32f3xx_hal_rcc.c ****       /* Wait till LSE is disabled */  
 505:Drivers/STM32F3xx_HAL_Driver/Src/stm32f3xx_hal_rcc.c ****       while(__HAL_RCC_GET_FLAG(RCC_FLAG_LSERDY) != RESET)
 1634              		.loc 1 505 0
 1635 0978 0BE0     		b	.L103
 1636              	.L110:
 506:Drivers/STM32F3xx_HAL_Driver/Src/stm32f3xx_hal_rcc.c ****       {
ARM GAS  C:\Users\RARES~1.COV\AppData\Local\Temp\cc8OUGVm.s 			page 49


 507:Drivers/STM32F3xx_HAL_Driver/Src/stm32f3xx_hal_rcc.c ****         if((HAL_GetTick() - tickstart ) > RCC_LSE_TIMEOUT_VALUE)
 1637              		.loc 1 507 0
 1638 097a FFF7FEFF 		bl	HAL_GetTick
 1639 097e 0246     		mov	r2, r0
 1640 0980 D7F8F831 		ldr	r3, [r7, #504]
 1641 0984 D31A     		subs	r3, r2, r3
 1642 0986 41F28832 		movw	r2, #5000
 1643 098a 9342     		cmp	r3, r2
 1644 098c 01D9     		bls	.L103
 508:Drivers/STM32F3xx_HAL_Driver/Src/stm32f3xx_hal_rcc.c ****         {
 509:Drivers/STM32F3xx_HAL_Driver/Src/stm32f3xx_hal_rcc.c ****           return HAL_TIMEOUT;
 1645              		.loc 1 509 0
 1646 098e 0323     		movs	r3, #3
 1647 0990 0FE2     		b	.L15
 1648              	.L103:
 1649 0992 07F1A403 		add	r3, r7, #164
 1650 0996 0222     		movs	r2, #2
 1651 0998 1A60     		str	r2, [r3]
 1652              	.LBB252:
 1653              	.LBB253:
 531:Drivers/CMSIS/Include/cmsis_gcc.h **** #else
 1654              		.loc 2 531 0
 1655 099a 07F1A403 		add	r3, r7, #164
 1656 099e 1B68     		ldr	r3, [r3]
 1657              		.syntax unified
 1658              	@ 531 "Drivers/CMSIS/Include/cmsis_gcc.h" 1
 1659 09a0 93FAA3F2 		rbit r2, r3
 1660              	@ 0 "" 2
 1661              		.thumb
 1662              		.syntax unified
 1663 09a4 07F1A003 		add	r3, r7, #160
 1664 09a8 1A60     		str	r2, [r3]
 1665 09aa 07F19C03 		add	r3, r7, #156
 1666 09ae 0222     		movs	r2, #2
 1667 09b0 1A60     		str	r2, [r3]
 1668              	.LBE253:
 1669              	.LBE252:
 1670              	.LBB254:
 1671              	.LBB255:
 1672 09b2 07F19C03 		add	r3, r7, #156
 1673 09b6 1B68     		ldr	r3, [r3]
 1674              		.syntax unified
 1675              	@ 531 "Drivers/CMSIS/Include/cmsis_gcc.h" 1
 1676 09b8 93FAA3F2 		rbit r2, r3
 1677              	@ 0 "" 2
 1678              		.thumb
 1679              		.syntax unified
 1680 09bc 07F19803 		add	r3, r7, #152
 1681 09c0 1A60     		str	r2, [r3]
 1682              		.loc 2 544 0
 1683 09c2 07F19803 		add	r3, r7, #152
 1684 09c6 1B68     		ldr	r3, [r3]
 1685              	.LBE255:
 1686              	.LBE254:
 505:Drivers/STM32F3xx_HAL_Driver/Src/stm32f3xx_hal_rcc.c ****       {
 1687              		.loc 1 505 0
 1688 09c8 B3FA83F3 		clz	r3, r3
ARM GAS  C:\Users\RARES~1.COV\AppData\Local\Temp\cc8OUGVm.s 			page 50


 1689 09cc DBB2     		uxtb	r3, r3
 1690 09ce 5B09     		lsrs	r3, r3, #5
 1691 09d0 DBB2     		uxtb	r3, r3
 1692 09d2 43F00203 		orr	r3, r3, #2
 1693 09d6 DBB2     		uxtb	r3, r3
 1694 09d8 022B     		cmp	r3, #2
 1695 09da 02D1     		bne	.L106
 505:Drivers/STM32F3xx_HAL_Driver/Src/stm32f3xx_hal_rcc.c ****       {
 1696              		.loc 1 505 0 is_stmt 0 discriminator 4
 1697 09dc 944B     		ldr	r3, .L148
 1698 09de 1B6A     		ldr	r3, [r3, #32]
 1699 09e0 0DE0     		b	.L107
 1700              	.L106:
 1701 09e2 07F19403 		add	r3, r7, #148
 1702 09e6 0222     		movs	r2, #2
 1703 09e8 1A60     		str	r2, [r3]
 1704              	.LBB256:
 1705              	.LBB257:
 531:Drivers/CMSIS/Include/cmsis_gcc.h **** #else
 1706              		.loc 2 531 0 is_stmt 1 discriminator 5
 1707 09ea 07F19403 		add	r3, r7, #148
 1708 09ee 1B68     		ldr	r3, [r3]
 1709              		.syntax unified
 1710              	@ 531 "Drivers/CMSIS/Include/cmsis_gcc.h" 1
 1711 09f0 93FAA3F2 		rbit r2, r3
 1712              	@ 0 "" 2
 1713              		.thumb
 1714              		.syntax unified
 1715 09f4 07F19003 		add	r3, r7, #144
 1716 09f8 1A60     		str	r2, [r3]
 1717              	.LBE257:
 1718              	.LBE256:
 505:Drivers/STM32F3xx_HAL_Driver/Src/stm32f3xx_hal_rcc.c ****       {
 1719              		.loc 1 505 0 discriminator 5
 1720 09fa 8D4B     		ldr	r3, .L148
 1721 09fc 5B6A     		ldr	r3, [r3, #36]
 1722              	.L107:
 1723 09fe 07F18C02 		add	r2, r7, #140
 1724 0a02 0221     		movs	r1, #2
 1725 0a04 1160     		str	r1, [r2]
 1726              	.LBB258:
 1727              	.LBB259:
 531:Drivers/CMSIS/Include/cmsis_gcc.h **** #else
 1728              		.loc 2 531 0 discriminator 11
 1729 0a06 07F18C02 		add	r2, r7, #140
 1730 0a0a 1268     		ldr	r2, [r2]
 1731              		.syntax unified
 1732              	@ 531 "Drivers/CMSIS/Include/cmsis_gcc.h" 1
 1733 0a0c 92FAA2F1 		rbit r1, r2
 1734              	@ 0 "" 2
 1735              		.thumb
 1736              		.syntax unified
 1737 0a10 07F18802 		add	r2, r7, #136
 1738 0a14 1160     		str	r1, [r2]
 1739              		.loc 2 544 0 discriminator 11
 1740 0a16 07F18802 		add	r2, r7, #136
 1741 0a1a 1268     		ldr	r2, [r2]
ARM GAS  C:\Users\RARES~1.COV\AppData\Local\Temp\cc8OUGVm.s 			page 51


 1742              	.LBE259:
 1743              	.LBE258:
 505:Drivers/STM32F3xx_HAL_Driver/Src/stm32f3xx_hal_rcc.c ****       {
 1744              		.loc 1 505 0 discriminator 11
 1745 0a1c B2FA82F2 		clz	r2, r2
 1746 0a20 52B2     		sxtb	r2, r2
 1747 0a22 42F04002 		orr	r2, r2, #64
 1748 0a26 52B2     		sxtb	r2, r2
 1749 0a28 D2B2     		uxtb	r2, r2
 1750 0a2a 02F01F02 		and	r2, r2, #31
 1751 0a2e D340     		lsrs	r3, r3, r2
 1752 0a30 03F00103 		and	r3, r3, #1
 1753 0a34 002B     		cmp	r3, #0
 1754 0a36 A0D1     		bne	.L110
 1755              	.L102:
 510:Drivers/STM32F3xx_HAL_Driver/Src/stm32f3xx_hal_rcc.c ****         }
 511:Drivers/STM32F3xx_HAL_Driver/Src/stm32f3xx_hal_rcc.c ****       }
 512:Drivers/STM32F3xx_HAL_Driver/Src/stm32f3xx_hal_rcc.c ****     }
 513:Drivers/STM32F3xx_HAL_Driver/Src/stm32f3xx_hal_rcc.c **** 
 514:Drivers/STM32F3xx_HAL_Driver/Src/stm32f3xx_hal_rcc.c ****     /* Require to disable power clock if necessary */
 515:Drivers/STM32F3xx_HAL_Driver/Src/stm32f3xx_hal_rcc.c ****     if(pwrclkchanged == SET)
 1756              		.loc 1 515 0
 1757 0a38 97F8FF31 		ldrb	r3, [r7, #511]	@ zero_extendqisi2
 1758 0a3c 012B     		cmp	r3, #1
 1759 0a3e 05D1     		bne	.L84
 516:Drivers/STM32F3xx_HAL_Driver/Src/stm32f3xx_hal_rcc.c ****     {
 517:Drivers/STM32F3xx_HAL_Driver/Src/stm32f3xx_hal_rcc.c ****       __HAL_RCC_PWR_CLK_DISABLE();
 1760              		.loc 1 517 0
 1761 0a40 7B4A     		ldr	r2, .L148
 1762 0a42 7B4B     		ldr	r3, .L148
 1763 0a44 DB69     		ldr	r3, [r3, #28]
 1764 0a46 23F08053 		bic	r3, r3, #268435456
 1765 0a4a D361     		str	r3, [r2, #28]
 1766              	.L84:
 1767              	.LBE242:
 518:Drivers/STM32F3xx_HAL_Driver/Src/stm32f3xx_hal_rcc.c ****     }
 519:Drivers/STM32F3xx_HAL_Driver/Src/stm32f3xx_hal_rcc.c ****   }
 520:Drivers/STM32F3xx_HAL_Driver/Src/stm32f3xx_hal_rcc.c **** 
 521:Drivers/STM32F3xx_HAL_Driver/Src/stm32f3xx_hal_rcc.c ****   /*-------------------------------- PLL Configuration -----------------------*/
 522:Drivers/STM32F3xx_HAL_Driver/Src/stm32f3xx_hal_rcc.c ****   /* Check the parameters */
 523:Drivers/STM32F3xx_HAL_Driver/Src/stm32f3xx_hal_rcc.c ****   assert_param(IS_RCC_PLL(RCC_OscInitStruct->PLL.PLLState));
 524:Drivers/STM32F3xx_HAL_Driver/Src/stm32f3xx_hal_rcc.c ****   if ((RCC_OscInitStruct->PLL.PLLState) != RCC_PLL_NONE)
 1768              		.loc 1 524 0
 1769 0a4c 3B1D     		adds	r3, r7, #4
 1770 0a4e 1B68     		ldr	r3, [r3]
 1771 0a50 9B69     		ldr	r3, [r3, #24]
 1772 0a52 002B     		cmp	r3, #0
 1773 0a54 00F0AC81 		beq	.L111
 525:Drivers/STM32F3xx_HAL_Driver/Src/stm32f3xx_hal_rcc.c ****   {
 526:Drivers/STM32F3xx_HAL_Driver/Src/stm32f3xx_hal_rcc.c ****     /* Check if the PLL is used as system clock or not */
 527:Drivers/STM32F3xx_HAL_Driver/Src/stm32f3xx_hal_rcc.c ****     if(__HAL_RCC_GET_SYSCLK_SOURCE() != RCC_SYSCLKSOURCE_STATUS_PLLCLK)
 1774              		.loc 1 527 0
 1775 0a58 754B     		ldr	r3, .L148
 1776 0a5a 5B68     		ldr	r3, [r3, #4]
 1777 0a5c 03F00C03 		and	r3, r3, #12
 1778 0a60 082B     		cmp	r3, #8
 1779 0a62 00F0A381 		beq	.L112
ARM GAS  C:\Users\RARES~1.COV\AppData\Local\Temp\cc8OUGVm.s 			page 52


 528:Drivers/STM32F3xx_HAL_Driver/Src/stm32f3xx_hal_rcc.c ****     { 
 529:Drivers/STM32F3xx_HAL_Driver/Src/stm32f3xx_hal_rcc.c ****       if((RCC_OscInitStruct->PLL.PLLState) == RCC_PLL_ON)
 1780              		.loc 1 529 0
 1781 0a66 3B1D     		adds	r3, r7, #4
 1782 0a68 1B68     		ldr	r3, [r3]
 1783 0a6a 9B69     		ldr	r3, [r3, #24]
 1784 0a6c 022B     		cmp	r3, #2
 1785 0a6e 40F01C81 		bne	.L113
 1786 0a72 07F18403 		add	r3, r7, #132
 1787 0a76 4FF08072 		mov	r2, #16777216
 1788 0a7a 1A60     		str	r2, [r3]
 1789              	.LBB260:
 1790              	.LBB261:
 531:Drivers/CMSIS/Include/cmsis_gcc.h **** #else
 1791              		.loc 2 531 0
 1792 0a7c 07F18403 		add	r3, r7, #132
 1793 0a80 1B68     		ldr	r3, [r3]
 1794              		.syntax unified
 1795              	@ 531 "Drivers/CMSIS/Include/cmsis_gcc.h" 1
 1796 0a82 93FAA3F2 		rbit r2, r3
 1797              	@ 0 "" 2
 1798              		.thumb
 1799              		.syntax unified
 1800 0a86 07F18003 		add	r3, r7, #128
 1801 0a8a 1A60     		str	r2, [r3]
 1802              		.loc 2 544 0
 1803 0a8c 07F18003 		add	r3, r7, #128
 1804 0a90 1B68     		ldr	r3, [r3]
 1805              	.LBE261:
 1806              	.LBE260:
 530:Drivers/STM32F3xx_HAL_Driver/Src/stm32f3xx_hal_rcc.c ****       {
 531:Drivers/STM32F3xx_HAL_Driver/Src/stm32f3xx_hal_rcc.c ****         /* Check the parameters */
 532:Drivers/STM32F3xx_HAL_Driver/Src/stm32f3xx_hal_rcc.c ****         assert_param(IS_RCC_PLLSOURCE(RCC_OscInitStruct->PLL.PLLSource));
 533:Drivers/STM32F3xx_HAL_Driver/Src/stm32f3xx_hal_rcc.c ****         assert_param(IS_RCC_PLL_MUL(RCC_OscInitStruct->PLL.PLLMUL));
 534:Drivers/STM32F3xx_HAL_Driver/Src/stm32f3xx_hal_rcc.c **** #if   defined(RCC_CFGR_PLLSRC_HSI_PREDIV)
 535:Drivers/STM32F3xx_HAL_Driver/Src/stm32f3xx_hal_rcc.c ****         assert_param(IS_RCC_PREDIV(RCC_OscInitStruct->PLL.PREDIV));
 536:Drivers/STM32F3xx_HAL_Driver/Src/stm32f3xx_hal_rcc.c **** #endif
 537:Drivers/STM32F3xx_HAL_Driver/Src/stm32f3xx_hal_rcc.c ****   
 538:Drivers/STM32F3xx_HAL_Driver/Src/stm32f3xx_hal_rcc.c ****         /* Disable the main PLL. */
 539:Drivers/STM32F3xx_HAL_Driver/Src/stm32f3xx_hal_rcc.c ****         __HAL_RCC_PLL_DISABLE();
 1807              		.loc 1 539 0
 1808 0a92 B3FA83F3 		clz	r3, r3
 1809 0a96 9B00     		lsls	r3, r3, #2
 1810 0a98 03F18443 		add	r3, r3, #1107296256
 1811 0a9c 03F58403 		add	r3, r3, #4325376
 1812 0aa0 1A46     		mov	r2, r3
 1813 0aa2 0023     		movs	r3, #0
 1814 0aa4 1360     		str	r3, [r2]
 540:Drivers/STM32F3xx_HAL_Driver/Src/stm32f3xx_hal_rcc.c ****         
 541:Drivers/STM32F3xx_HAL_Driver/Src/stm32f3xx_hal_rcc.c ****         /* Get Start Tick */
 542:Drivers/STM32F3xx_HAL_Driver/Src/stm32f3xx_hal_rcc.c ****         tickstart = HAL_GetTick();
 1815              		.loc 1 542 0
 1816 0aa6 FFF7FEFF 		bl	HAL_GetTick
 1817 0aaa C7F8F801 		str	r0, [r7, #504]
 543:Drivers/STM32F3xx_HAL_Driver/Src/stm32f3xx_hal_rcc.c ****         
 544:Drivers/STM32F3xx_HAL_Driver/Src/stm32f3xx_hal_rcc.c ****         /* Wait till PLL is disabled */
 545:Drivers/STM32F3xx_HAL_Driver/Src/stm32f3xx_hal_rcc.c ****         while(__HAL_RCC_GET_FLAG(RCC_FLAG_PLLRDY)  != RESET)
ARM GAS  C:\Users\RARES~1.COV\AppData\Local\Temp\cc8OUGVm.s 			page 53


 1818              		.loc 1 545 0
 1819 0aae 09E0     		b	.L115
 1820              	.L122:
 546:Drivers/STM32F3xx_HAL_Driver/Src/stm32f3xx_hal_rcc.c ****         {
 547:Drivers/STM32F3xx_HAL_Driver/Src/stm32f3xx_hal_rcc.c ****           if((HAL_GetTick() - tickstart ) > PLL_TIMEOUT_VALUE)
 1821              		.loc 1 547 0
 1822 0ab0 FFF7FEFF 		bl	HAL_GetTick
 1823 0ab4 0246     		mov	r2, r0
 1824 0ab6 D7F8F831 		ldr	r3, [r7, #504]
 1825 0aba D31A     		subs	r3, r2, r3
 1826 0abc 022B     		cmp	r3, #2
 1827 0abe 01D9     		bls	.L115
 548:Drivers/STM32F3xx_HAL_Driver/Src/stm32f3xx_hal_rcc.c ****           {
 549:Drivers/STM32F3xx_HAL_Driver/Src/stm32f3xx_hal_rcc.c ****             return HAL_TIMEOUT;
 1828              		.loc 1 549 0
 1829 0ac0 0323     		movs	r3, #3
 1830 0ac2 76E1     		b	.L15
 1831              	.L115:
 1832 0ac4 07F17C03 		add	r3, r7, #124
 1833 0ac8 4FF00072 		mov	r2, #33554432
 1834 0acc 1A60     		str	r2, [r3]
 1835              	.LBB262:
 1836              	.LBB263:
 531:Drivers/CMSIS/Include/cmsis_gcc.h **** #else
 1837              		.loc 2 531 0
 1838 0ace 07F17C03 		add	r3, r7, #124
 1839 0ad2 1B68     		ldr	r3, [r3]
 1840              		.syntax unified
 1841              	@ 531 "Drivers/CMSIS/Include/cmsis_gcc.h" 1
 1842 0ad4 93FAA3F2 		rbit r2, r3
 1843              	@ 0 "" 2
 1844              		.thumb
 1845              		.syntax unified
 1846 0ad8 07F17803 		add	r3, r7, #120
 1847 0adc 1A60     		str	r2, [r3]
 1848              		.loc 2 544 0
 1849 0ade 07F17803 		add	r3, r7, #120
 1850 0ae2 1B68     		ldr	r3, [r3]
 1851              	.LBE263:
 1852              	.LBE262:
 545:Drivers/STM32F3xx_HAL_Driver/Src/stm32f3xx_hal_rcc.c ****         {
 1853              		.loc 1 545 0
 1854 0ae4 B3FA83F3 		clz	r3, r3
 1855 0ae8 DBB2     		uxtb	r3, r3
 1856 0aea 5B09     		lsrs	r3, r3, #5
 1857 0aec DBB2     		uxtb	r3, r3
 1858 0aee 43F00103 		orr	r3, r3, #1
 1859 0af2 DBB2     		uxtb	r3, r3
 1860 0af4 012B     		cmp	r3, #1
 1861 0af6 02D1     		bne	.L117
 545:Drivers/STM32F3xx_HAL_Driver/Src/stm32f3xx_hal_rcc.c ****         {
 1862              		.loc 1 545 0 is_stmt 0 discriminator 1
 1863 0af8 4D4B     		ldr	r3, .L148
 1864 0afa 1B68     		ldr	r3, [r3]
 1865 0afc 1BE0     		b	.L118
 1866              	.L117:
 1867 0afe 07F17403 		add	r3, r7, #116
ARM GAS  C:\Users\RARES~1.COV\AppData\Local\Temp\cc8OUGVm.s 			page 54


 1868 0b02 4FF00072 		mov	r2, #33554432
 1869 0b06 1A60     		str	r2, [r3]
 1870              	.LBB264:
 1871              	.LBB265:
 531:Drivers/CMSIS/Include/cmsis_gcc.h **** #else
 1872              		.loc 2 531 0 is_stmt 1 discriminator 2
 1873 0b08 07F17403 		add	r3, r7, #116
 1874 0b0c 1B68     		ldr	r3, [r3]
 1875              		.syntax unified
 1876              	@ 531 "Drivers/CMSIS/Include/cmsis_gcc.h" 1
 1877 0b0e 93FAA3F2 		rbit r2, r3
 1878              	@ 0 "" 2
 1879              		.thumb
 1880              		.syntax unified
 1881 0b12 07F17003 		add	r3, r7, #112
 1882 0b16 1A60     		str	r2, [r3]
 1883 0b18 07F16C03 		add	r3, r7, #108
 1884 0b1c 4FF00072 		mov	r2, #33554432
 1885 0b20 1A60     		str	r2, [r3]
 1886              	.LBE265:
 1887              	.LBE264:
 1888              	.LBB266:
 1889              	.LBB267:
 1890 0b22 07F16C03 		add	r3, r7, #108
 1891 0b26 1B68     		ldr	r3, [r3]
 1892              		.syntax unified
 1893              	@ 531 "Drivers/CMSIS/Include/cmsis_gcc.h" 1
 1894 0b28 93FAA3F2 		rbit r2, r3
 1895              	@ 0 "" 2
 1896              		.thumb
 1897              		.syntax unified
 1898 0b2c 07F16803 		add	r3, r7, #104
 1899 0b30 1A60     		str	r2, [r3]
 1900              	.LBE267:
 1901              	.LBE266:
 545:Drivers/STM32F3xx_HAL_Driver/Src/stm32f3xx_hal_rcc.c ****         {
 1902              		.loc 1 545 0 discriminator 2
 1903 0b32 3F4B     		ldr	r3, .L148
 1904 0b34 5B6A     		ldr	r3, [r3, #36]
 1905              	.L118:
 1906 0b36 07F16402 		add	r2, r7, #100
 1907 0b3a 4FF00071 		mov	r1, #33554432
 1908 0b3e 1160     		str	r1, [r2]
 1909              	.LBB268:
 1910              	.LBB269:
 531:Drivers/CMSIS/Include/cmsis_gcc.h **** #else
 1911              		.loc 2 531 0 discriminator 12
 1912 0b40 07F16402 		add	r2, r7, #100
 1913 0b44 1268     		ldr	r2, [r2]
 1914              		.syntax unified
 1915              	@ 531 "Drivers/CMSIS/Include/cmsis_gcc.h" 1
 1916 0b46 92FAA2F1 		rbit r1, r2
 1917              	@ 0 "" 2
 1918              		.thumb
 1919              		.syntax unified
 1920 0b4a 07F16002 		add	r2, r7, #96
 1921 0b4e 1160     		str	r1, [r2]
ARM GAS  C:\Users\RARES~1.COV\AppData\Local\Temp\cc8OUGVm.s 			page 55


 1922              		.loc 2 544 0 discriminator 12
 1923 0b50 07F16002 		add	r2, r7, #96
 1924 0b54 1268     		ldr	r2, [r2]
 1925              	.LBE269:
 1926              	.LBE268:
 545:Drivers/STM32F3xx_HAL_Driver/Src/stm32f3xx_hal_rcc.c ****         {
 1927              		.loc 1 545 0 discriminator 12
 1928 0b56 B2FA82F2 		clz	r2, r2
 1929 0b5a 52B2     		sxtb	r2, r2
 1930 0b5c 42F02002 		orr	r2, r2, #32
 1931 0b60 52B2     		sxtb	r2, r2
 1932 0b62 D2B2     		uxtb	r2, r2
 1933 0b64 02F01F02 		and	r2, r2, #31
 1934 0b68 D340     		lsrs	r3, r3, r2
 1935 0b6a 03F00103 		and	r3, r3, #1
 1936 0b6e 002B     		cmp	r3, #0
 1937 0b70 9ED1     		bne	.L122
 550:Drivers/STM32F3xx_HAL_Driver/Src/stm32f3xx_hal_rcc.c ****           }
 551:Drivers/STM32F3xx_HAL_Driver/Src/stm32f3xx_hal_rcc.c ****         }
 552:Drivers/STM32F3xx_HAL_Driver/Src/stm32f3xx_hal_rcc.c **** 
 553:Drivers/STM32F3xx_HAL_Driver/Src/stm32f3xx_hal_rcc.c **** #if defined(RCC_CFGR_PLLSRC_HSI_PREDIV)
 554:Drivers/STM32F3xx_HAL_Driver/Src/stm32f3xx_hal_rcc.c ****         /* Configure the main PLL clock source, predivider and multiplication factor. */
 555:Drivers/STM32F3xx_HAL_Driver/Src/stm32f3xx_hal_rcc.c ****         __HAL_RCC_PLL_CONFIG(RCC_OscInitStruct->PLL.PLLSource,
 1938              		.loc 1 555 0
 1939 0b72 2F49     		ldr	r1, .L148
 1940 0b74 2E4B     		ldr	r3, .L148
 1941 0b76 DB6A     		ldr	r3, [r3, #44]
 1942 0b78 23F00F02 		bic	r2, r3, #15
 1943 0b7c 3B1D     		adds	r3, r7, #4
 1944 0b7e 1B68     		ldr	r3, [r3]
 1945 0b80 5B6A     		ldr	r3, [r3, #36]
 1946 0b82 1343     		orrs	r3, r3, r2
 1947 0b84 CB62     		str	r3, [r1, #44]
 1948 0b86 2A48     		ldr	r0, .L148
 1949 0b88 294B     		ldr	r3, .L148
 1950 0b8a 5B68     		ldr	r3, [r3, #4]
 1951 0b8c 23F47612 		bic	r2, r3, #4030464
 1952 0b90 3B1D     		adds	r3, r7, #4
 1953 0b92 1B68     		ldr	r3, [r3]
 1954 0b94 196A     		ldr	r1, [r3, #32]
 1955 0b96 3B1D     		adds	r3, r7, #4
 1956 0b98 1B68     		ldr	r3, [r3]
 1957 0b9a DB69     		ldr	r3, [r3, #28]
 1958 0b9c 0B43     		orrs	r3, r3, r1
 1959 0b9e 1343     		orrs	r3, r3, r2
 1960 0ba0 4360     		str	r3, [r0, #4]
 1961 0ba2 07F15C03 		add	r3, r7, #92
 1962 0ba6 4FF08072 		mov	r2, #16777216
 1963 0baa 1A60     		str	r2, [r3]
 1964              	.LBB270:
 1965              	.LBB271:
 531:Drivers/CMSIS/Include/cmsis_gcc.h **** #else
 1966              		.loc 2 531 0
 1967 0bac 07F15C03 		add	r3, r7, #92
 1968 0bb0 1B68     		ldr	r3, [r3]
 1969              		.syntax unified
 1970              	@ 531 "Drivers/CMSIS/Include/cmsis_gcc.h" 1
ARM GAS  C:\Users\RARES~1.COV\AppData\Local\Temp\cc8OUGVm.s 			page 56


 1971 0bb2 93FAA3F2 		rbit r2, r3
 1972              	@ 0 "" 2
 1973              		.thumb
 1974              		.syntax unified
 1975 0bb6 07F15803 		add	r3, r7, #88
 1976 0bba 1A60     		str	r2, [r3]
 1977              		.loc 2 544 0
 1978 0bbc 07F15803 		add	r3, r7, #88
 1979 0bc0 1B68     		ldr	r3, [r3]
 1980              	.LBE271:
 1981              	.LBE270:
 556:Drivers/STM32F3xx_HAL_Driver/Src/stm32f3xx_hal_rcc.c ****                              RCC_OscInitStruct->PLL.PREDIV,
 557:Drivers/STM32F3xx_HAL_Driver/Src/stm32f3xx_hal_rcc.c ****                              RCC_OscInitStruct->PLL.PLLMUL);
 558:Drivers/STM32F3xx_HAL_Driver/Src/stm32f3xx_hal_rcc.c **** #else
 559:Drivers/STM32F3xx_HAL_Driver/Src/stm32f3xx_hal_rcc.c ****       /* Configure the main PLL clock source and multiplication factor. */
 560:Drivers/STM32F3xx_HAL_Driver/Src/stm32f3xx_hal_rcc.c ****       __HAL_RCC_PLL_CONFIG(RCC_OscInitStruct->PLL.PLLSource,
 561:Drivers/STM32F3xx_HAL_Driver/Src/stm32f3xx_hal_rcc.c ****                            RCC_OscInitStruct->PLL.PLLMUL);
 562:Drivers/STM32F3xx_HAL_Driver/Src/stm32f3xx_hal_rcc.c **** #endif /* RCC_CFGR_PLLSRC_HSI_PREDIV */
 563:Drivers/STM32F3xx_HAL_Driver/Src/stm32f3xx_hal_rcc.c ****         /* Enable the main PLL. */
 564:Drivers/STM32F3xx_HAL_Driver/Src/stm32f3xx_hal_rcc.c ****         __HAL_RCC_PLL_ENABLE();
 1982              		.loc 1 564 0
 1983 0bc2 B3FA83F3 		clz	r3, r3
 1984 0bc6 9B00     		lsls	r3, r3, #2
 1985 0bc8 03F18443 		add	r3, r3, #1107296256
 1986 0bcc 03F58403 		add	r3, r3, #4325376
 1987 0bd0 1A46     		mov	r2, r3
 1988 0bd2 0123     		movs	r3, #1
 1989 0bd4 1360     		str	r3, [r2]
 565:Drivers/STM32F3xx_HAL_Driver/Src/stm32f3xx_hal_rcc.c ****         
 566:Drivers/STM32F3xx_HAL_Driver/Src/stm32f3xx_hal_rcc.c ****         /* Get Start Tick */
 567:Drivers/STM32F3xx_HAL_Driver/Src/stm32f3xx_hal_rcc.c ****         tickstart = HAL_GetTick();
 1990              		.loc 1 567 0
 1991 0bd6 FFF7FEFF 		bl	HAL_GetTick
 1992 0bda C7F8F801 		str	r0, [r7, #504]
 568:Drivers/STM32F3xx_HAL_Driver/Src/stm32f3xx_hal_rcc.c ****         
 569:Drivers/STM32F3xx_HAL_Driver/Src/stm32f3xx_hal_rcc.c ****         /* Wait till PLL is ready */
 570:Drivers/STM32F3xx_HAL_Driver/Src/stm32f3xx_hal_rcc.c ****         while(__HAL_RCC_GET_FLAG(RCC_FLAG_PLLRDY)  == RESET)
 1993              		.loc 1 570 0
 1994 0bde 09E0     		b	.L124
 1995              	.L131:
 571:Drivers/STM32F3xx_HAL_Driver/Src/stm32f3xx_hal_rcc.c ****         {
 572:Drivers/STM32F3xx_HAL_Driver/Src/stm32f3xx_hal_rcc.c ****           if((HAL_GetTick() - tickstart ) > PLL_TIMEOUT_VALUE)
 1996              		.loc 1 572 0
 1997 0be0 FFF7FEFF 		bl	HAL_GetTick
 1998 0be4 0246     		mov	r2, r0
 1999 0be6 D7F8F831 		ldr	r3, [r7, #504]
 2000 0bea D31A     		subs	r3, r2, r3
 2001 0bec 022B     		cmp	r3, #2
 2002 0bee 01D9     		bls	.L124
 573:Drivers/STM32F3xx_HAL_Driver/Src/stm32f3xx_hal_rcc.c ****           {
 574:Drivers/STM32F3xx_HAL_Driver/Src/stm32f3xx_hal_rcc.c ****             return HAL_TIMEOUT;
 2003              		.loc 1 574 0
 2004 0bf0 0323     		movs	r3, #3
 2005 0bf2 DEE0     		b	.L15
 2006              	.L124:
 2007 0bf4 07F15403 		add	r3, r7, #84
 2008 0bf8 4FF00072 		mov	r2, #33554432
ARM GAS  C:\Users\RARES~1.COV\AppData\Local\Temp\cc8OUGVm.s 			page 57


 2009 0bfc 1A60     		str	r2, [r3]
 2010              	.LBB272:
 2011              	.LBB273:
 531:Drivers/CMSIS/Include/cmsis_gcc.h **** #else
 2012              		.loc 2 531 0
 2013 0bfe 07F15403 		add	r3, r7, #84
 2014 0c02 1B68     		ldr	r3, [r3]
 2015              		.syntax unified
 2016              	@ 531 "Drivers/CMSIS/Include/cmsis_gcc.h" 1
 2017 0c04 93FAA3F2 		rbit r2, r3
 2018              	@ 0 "" 2
 2019              		.thumb
 2020              		.syntax unified
 2021 0c08 07F15003 		add	r3, r7, #80
 2022 0c0c 1A60     		str	r2, [r3]
 2023              		.loc 2 544 0
 2024 0c0e 07F15003 		add	r3, r7, #80
 2025 0c12 1B68     		ldr	r3, [r3]
 2026              	.LBE273:
 2027              	.LBE272:
 570:Drivers/STM32F3xx_HAL_Driver/Src/stm32f3xx_hal_rcc.c ****         {
 2028              		.loc 1 570 0
 2029 0c14 B3FA83F3 		clz	r3, r3
 2030 0c18 DBB2     		uxtb	r3, r3
 2031 0c1a 5B09     		lsrs	r3, r3, #5
 2032 0c1c DBB2     		uxtb	r3, r3
 2033 0c1e 43F00103 		orr	r3, r3, #1
 2034 0c22 DBB2     		uxtb	r3, r3
 2035 0c24 012B     		cmp	r3, #1
 2036 0c26 05D1     		bne	.L126
 570:Drivers/STM32F3xx_HAL_Driver/Src/stm32f3xx_hal_rcc.c ****         {
 2037              		.loc 1 570 0 is_stmt 0 discriminator 1
 2038 0c28 014B     		ldr	r3, .L148
 2039 0c2a 1B68     		ldr	r3, [r3]
 2040 0c2c 1EE0     		b	.L127
 2041              	.L149:
 2042 0c2e 00BF     		.align	2
 2043              	.L148:
 2044 0c30 00100240 		.word	1073876992
 2045              	.L126:
 2046 0c34 07F14C03 		add	r3, r7, #76
 2047 0c38 4FF00072 		mov	r2, #33554432
 2048 0c3c 1A60     		str	r2, [r3]
 2049              	.LBB274:
 2050              	.LBB275:
 531:Drivers/CMSIS/Include/cmsis_gcc.h **** #else
 2051              		.loc 2 531 0 is_stmt 1 discriminator 2
 2052 0c3e 07F14C03 		add	r3, r7, #76
 2053 0c42 1B68     		ldr	r3, [r3]
 2054              		.syntax unified
 2055              	@ 531 "Drivers/CMSIS/Include/cmsis_gcc.h" 1
 2056 0c44 93FAA3F2 		rbit r2, r3
 2057              	@ 0 "" 2
 2058              		.thumb
 2059              		.syntax unified
 2060 0c48 07F14803 		add	r3, r7, #72
 2061 0c4c 1A60     		str	r2, [r3]
ARM GAS  C:\Users\RARES~1.COV\AppData\Local\Temp\cc8OUGVm.s 			page 58


 2062 0c4e 07F14403 		add	r3, r7, #68
 2063 0c52 4FF00072 		mov	r2, #33554432
 2064 0c56 1A60     		str	r2, [r3]
 2065              	.LBE275:
 2066              	.LBE274:
 2067              	.LBB276:
 2068              	.LBB277:
 2069 0c58 07F14403 		add	r3, r7, #68
 2070 0c5c 1B68     		ldr	r3, [r3]
 2071              		.syntax unified
 2072              	@ 531 "Drivers/CMSIS/Include/cmsis_gcc.h" 1
 2073 0c5e 93FAA3F2 		rbit r2, r3
 2074              	@ 0 "" 2
 2075              		.thumb
 2076              		.syntax unified
 2077 0c62 07F14003 		add	r3, r7, #64
 2078 0c66 1A60     		str	r2, [r3]
 2079              	.LBE277:
 2080              	.LBE276:
 570:Drivers/STM32F3xx_HAL_Driver/Src/stm32f3xx_hal_rcc.c ****         {
 2081              		.loc 1 570 0 discriminator 2
 2082 0c68 544B     		ldr	r3, .L150
 2083 0c6a 5B6A     		ldr	r3, [r3, #36]
 2084              	.L127:
 2085 0c6c 07F13C02 		add	r2, r7, #60
 2086 0c70 4FF00071 		mov	r1, #33554432
 2087 0c74 1160     		str	r1, [r2]
 2088              	.LBB278:
 2089              	.LBB279:
 531:Drivers/CMSIS/Include/cmsis_gcc.h **** #else
 2090              		.loc 2 531 0 discriminator 12
 2091 0c76 07F13C02 		add	r2, r7, #60
 2092 0c7a 1268     		ldr	r2, [r2]
 2093              		.syntax unified
 2094              	@ 531 "Drivers/CMSIS/Include/cmsis_gcc.h" 1
 2095 0c7c 92FAA2F1 		rbit r1, r2
 2096              	@ 0 "" 2
 2097              		.thumb
 2098              		.syntax unified
 2099 0c80 07F13802 		add	r2, r7, #56
 2100 0c84 1160     		str	r1, [r2]
 2101              		.loc 2 544 0 discriminator 12
 2102 0c86 07F13802 		add	r2, r7, #56
 2103 0c8a 1268     		ldr	r2, [r2]
 2104              	.LBE279:
 2105              	.LBE278:
 570:Drivers/STM32F3xx_HAL_Driver/Src/stm32f3xx_hal_rcc.c ****         {
 2106              		.loc 1 570 0 discriminator 12
 2107 0c8c B2FA82F2 		clz	r2, r2
 2108 0c90 52B2     		sxtb	r2, r2
 2109 0c92 42F02002 		orr	r2, r2, #32
 2110 0c96 52B2     		sxtb	r2, r2
 2111 0c98 D2B2     		uxtb	r2, r2
 2112 0c9a 02F01F02 		and	r2, r2, #31
 2113 0c9e D340     		lsrs	r3, r3, r2
 2114 0ca0 03F00103 		and	r3, r3, #1
 2115 0ca4 002B     		cmp	r3, #0
ARM GAS  C:\Users\RARES~1.COV\AppData\Local\Temp\cc8OUGVm.s 			page 59


 2116 0ca6 9BD0     		beq	.L131
 2117 0ca8 82E0     		b	.L111
 2118              	.L113:
 2119 0caa 07F13403 		add	r3, r7, #52
 2120 0cae 4FF08072 		mov	r2, #16777216
 2121 0cb2 1A60     		str	r2, [r3]
 2122              	.LBB280:
 2123              	.LBB281:
 531:Drivers/CMSIS/Include/cmsis_gcc.h **** #else
 2124              		.loc 2 531 0
 2125 0cb4 07F13403 		add	r3, r7, #52
 2126 0cb8 1B68     		ldr	r3, [r3]
 2127              		.syntax unified
 2128              	@ 531 "Drivers/CMSIS/Include/cmsis_gcc.h" 1
 2129 0cba 93FAA3F2 		rbit r2, r3
 2130              	@ 0 "" 2
 2131              		.thumb
 2132              		.syntax unified
 2133 0cbe 07F13003 		add	r3, r7, #48
 2134 0cc2 1A60     		str	r2, [r3]
 2135              		.loc 2 544 0
 2136 0cc4 07F13003 		add	r3, r7, #48
 2137 0cc8 1B68     		ldr	r3, [r3]
 2138              	.LBE281:
 2139              	.LBE280:
 575:Drivers/STM32F3xx_HAL_Driver/Src/stm32f3xx_hal_rcc.c ****           }
 576:Drivers/STM32F3xx_HAL_Driver/Src/stm32f3xx_hal_rcc.c ****         }
 577:Drivers/STM32F3xx_HAL_Driver/Src/stm32f3xx_hal_rcc.c ****       }
 578:Drivers/STM32F3xx_HAL_Driver/Src/stm32f3xx_hal_rcc.c ****       else
 579:Drivers/STM32F3xx_HAL_Driver/Src/stm32f3xx_hal_rcc.c ****       {
 580:Drivers/STM32F3xx_HAL_Driver/Src/stm32f3xx_hal_rcc.c ****         /* Disable the main PLL. */
 581:Drivers/STM32F3xx_HAL_Driver/Src/stm32f3xx_hal_rcc.c ****         __HAL_RCC_PLL_DISABLE();
 2140              		.loc 1 581 0
 2141 0cca B3FA83F3 		clz	r3, r3
 2142 0cce 9B00     		lsls	r3, r3, #2
 2143 0cd0 03F18443 		add	r3, r3, #1107296256
 2144 0cd4 03F58403 		add	r3, r3, #4325376
 2145 0cd8 1A46     		mov	r2, r3
 2146 0cda 0023     		movs	r3, #0
 2147 0cdc 1360     		str	r3, [r2]
 582:Drivers/STM32F3xx_HAL_Driver/Src/stm32f3xx_hal_rcc.c ****  
 583:Drivers/STM32F3xx_HAL_Driver/Src/stm32f3xx_hal_rcc.c ****         /* Get Start Tick */
 584:Drivers/STM32F3xx_HAL_Driver/Src/stm32f3xx_hal_rcc.c ****         tickstart = HAL_GetTick();
 2148              		.loc 1 584 0
 2149 0cde FFF7FEFF 		bl	HAL_GetTick
 2150 0ce2 C7F8F801 		str	r0, [r7, #504]
 585:Drivers/STM32F3xx_HAL_Driver/Src/stm32f3xx_hal_rcc.c ****         
 586:Drivers/STM32F3xx_HAL_Driver/Src/stm32f3xx_hal_rcc.c ****         /* Wait till PLL is disabled */  
 587:Drivers/STM32F3xx_HAL_Driver/Src/stm32f3xx_hal_rcc.c ****         while(__HAL_RCC_GET_FLAG(RCC_FLAG_PLLRDY)  != RESET)
 2151              		.loc 1 587 0
 2152 0ce6 09E0     		b	.L133
 2153              	.L140:
 588:Drivers/STM32F3xx_HAL_Driver/Src/stm32f3xx_hal_rcc.c ****         {
 589:Drivers/STM32F3xx_HAL_Driver/Src/stm32f3xx_hal_rcc.c ****           if((HAL_GetTick() - tickstart ) > PLL_TIMEOUT_VALUE)
 2154              		.loc 1 589 0
 2155 0ce8 FFF7FEFF 		bl	HAL_GetTick
 2156 0cec 0246     		mov	r2, r0
ARM GAS  C:\Users\RARES~1.COV\AppData\Local\Temp\cc8OUGVm.s 			page 60


 2157 0cee D7F8F831 		ldr	r3, [r7, #504]
 2158 0cf2 D31A     		subs	r3, r2, r3
 2159 0cf4 022B     		cmp	r3, #2
 2160 0cf6 01D9     		bls	.L133
 590:Drivers/STM32F3xx_HAL_Driver/Src/stm32f3xx_hal_rcc.c ****           {
 591:Drivers/STM32F3xx_HAL_Driver/Src/stm32f3xx_hal_rcc.c ****             return HAL_TIMEOUT;
 2161              		.loc 1 591 0
 2162 0cf8 0323     		movs	r3, #3
 2163 0cfa 5AE0     		b	.L15
 2164              	.L133:
 2165 0cfc 07F12C03 		add	r3, r7, #44
 2166 0d00 4FF00072 		mov	r2, #33554432
 2167 0d04 1A60     		str	r2, [r3]
 2168              	.LBB282:
 2169              	.LBB283:
 531:Drivers/CMSIS/Include/cmsis_gcc.h **** #else
 2170              		.loc 2 531 0
 2171 0d06 07F12C03 		add	r3, r7, #44
 2172 0d0a 1B68     		ldr	r3, [r3]
 2173              		.syntax unified
 2174              	@ 531 "Drivers/CMSIS/Include/cmsis_gcc.h" 1
 2175 0d0c 93FAA3F2 		rbit r2, r3
 2176              	@ 0 "" 2
 2177              		.thumb
 2178              		.syntax unified
 2179 0d10 07F12803 		add	r3, r7, #40
 2180 0d14 1A60     		str	r2, [r3]
 2181              		.loc 2 544 0
 2182 0d16 07F12803 		add	r3, r7, #40
 2183 0d1a 1B68     		ldr	r3, [r3]
 2184              	.LBE283:
 2185              	.LBE282:
 587:Drivers/STM32F3xx_HAL_Driver/Src/stm32f3xx_hal_rcc.c ****         {
 2186              		.loc 1 587 0
 2187 0d1c B3FA83F3 		clz	r3, r3
 2188 0d20 DBB2     		uxtb	r3, r3
 2189 0d22 5B09     		lsrs	r3, r3, #5
 2190 0d24 DBB2     		uxtb	r3, r3
 2191 0d26 43F00103 		orr	r3, r3, #1
 2192 0d2a DBB2     		uxtb	r3, r3
 2193 0d2c 012B     		cmp	r3, #1
 2194 0d2e 02D1     		bne	.L135
 587:Drivers/STM32F3xx_HAL_Driver/Src/stm32f3xx_hal_rcc.c ****         {
 2195              		.loc 1 587 0 is_stmt 0 discriminator 1
 2196 0d30 224B     		ldr	r3, .L150
 2197 0d32 1B68     		ldr	r3, [r3]
 2198 0d34 1BE0     		b	.L136
 2199              	.L135:
 2200 0d36 07F12403 		add	r3, r7, #36
 2201 0d3a 4FF00072 		mov	r2, #33554432
 2202 0d3e 1A60     		str	r2, [r3]
 2203              	.LBB284:
 2204              	.LBB285:
 531:Drivers/CMSIS/Include/cmsis_gcc.h **** #else
 2205              		.loc 2 531 0 is_stmt 1 discriminator 2
 2206 0d40 07F12403 		add	r3, r7, #36
 2207 0d44 1B68     		ldr	r3, [r3]
ARM GAS  C:\Users\RARES~1.COV\AppData\Local\Temp\cc8OUGVm.s 			page 61


 2208              		.syntax unified
 2209              	@ 531 "Drivers/CMSIS/Include/cmsis_gcc.h" 1
 2210 0d46 93FAA3F2 		rbit r2, r3
 2211              	@ 0 "" 2
 2212              		.thumb
 2213              		.syntax unified
 2214 0d4a 07F12003 		add	r3, r7, #32
 2215 0d4e 1A60     		str	r2, [r3]
 2216 0d50 07F11C03 		add	r3, r7, #28
 2217 0d54 4FF00072 		mov	r2, #33554432
 2218 0d58 1A60     		str	r2, [r3]
 2219              	.LBE285:
 2220              	.LBE284:
 2221              	.LBB286:
 2222              	.LBB287:
 2223 0d5a 07F11C03 		add	r3, r7, #28
 2224 0d5e 1B68     		ldr	r3, [r3]
 2225              		.syntax unified
 2226              	@ 531 "Drivers/CMSIS/Include/cmsis_gcc.h" 1
 2227 0d60 93FAA3F2 		rbit r2, r3
 2228              	@ 0 "" 2
 2229              		.thumb
 2230              		.syntax unified
 2231 0d64 07F11803 		add	r3, r7, #24
 2232 0d68 1A60     		str	r2, [r3]
 2233              	.LBE287:
 2234              	.LBE286:
 587:Drivers/STM32F3xx_HAL_Driver/Src/stm32f3xx_hal_rcc.c ****         {
 2235              		.loc 1 587 0 discriminator 2
 2236 0d6a 144B     		ldr	r3, .L150
 2237 0d6c 5B6A     		ldr	r3, [r3, #36]
 2238              	.L136:
 2239 0d6e 07F11402 		add	r2, r7, #20
 2240 0d72 4FF00071 		mov	r1, #33554432
 2241 0d76 1160     		str	r1, [r2]
 2242              	.LBB288:
 2243              	.LBB289:
 531:Drivers/CMSIS/Include/cmsis_gcc.h **** #else
 2244              		.loc 2 531 0 discriminator 12
 2245 0d78 07F11402 		add	r2, r7, #20
 2246 0d7c 1268     		ldr	r2, [r2]
 2247              		.syntax unified
 2248              	@ 531 "Drivers/CMSIS/Include/cmsis_gcc.h" 1
 2249 0d7e 92FAA2F1 		rbit r1, r2
 2250              	@ 0 "" 2
 2251              		.thumb
 2252              		.syntax unified
 2253 0d82 07F11002 		add	r2, r7, #16
 2254 0d86 1160     		str	r1, [r2]
 2255              		.loc 2 544 0 discriminator 12
 2256 0d88 07F11002 		add	r2, r7, #16
 2257 0d8c 1268     		ldr	r2, [r2]
 2258              	.LBE289:
 2259              	.LBE288:
 587:Drivers/STM32F3xx_HAL_Driver/Src/stm32f3xx_hal_rcc.c ****         {
 2260              		.loc 1 587 0 discriminator 12
 2261 0d8e B2FA82F2 		clz	r2, r2
ARM GAS  C:\Users\RARES~1.COV\AppData\Local\Temp\cc8OUGVm.s 			page 62


 2262 0d92 52B2     		sxtb	r2, r2
 2263 0d94 42F02002 		orr	r2, r2, #32
 2264 0d98 52B2     		sxtb	r2, r2
 2265 0d9a D2B2     		uxtb	r2, r2
 2266 0d9c 02F01F02 		and	r2, r2, #31
 2267 0da0 D340     		lsrs	r3, r3, r2
 2268 0da2 03F00103 		and	r3, r3, #1
 2269 0da6 002B     		cmp	r3, #0
 2270 0da8 9ED1     		bne	.L140
 2271 0daa 01E0     		b	.L111
 2272              	.L112:
 592:Drivers/STM32F3xx_HAL_Driver/Src/stm32f3xx_hal_rcc.c ****           }
 593:Drivers/STM32F3xx_HAL_Driver/Src/stm32f3xx_hal_rcc.c ****         }
 594:Drivers/STM32F3xx_HAL_Driver/Src/stm32f3xx_hal_rcc.c ****       }
 595:Drivers/STM32F3xx_HAL_Driver/Src/stm32f3xx_hal_rcc.c ****     }
 596:Drivers/STM32F3xx_HAL_Driver/Src/stm32f3xx_hal_rcc.c ****     else
 597:Drivers/STM32F3xx_HAL_Driver/Src/stm32f3xx_hal_rcc.c ****     {
 598:Drivers/STM32F3xx_HAL_Driver/Src/stm32f3xx_hal_rcc.c ****       return HAL_ERROR;
 2273              		.loc 1 598 0
 2274 0dac 0123     		movs	r3, #1
 2275 0dae 00E0     		b	.L15
 2276              	.L111:
 599:Drivers/STM32F3xx_HAL_Driver/Src/stm32f3xx_hal_rcc.c ****     }
 600:Drivers/STM32F3xx_HAL_Driver/Src/stm32f3xx_hal_rcc.c ****   }
 601:Drivers/STM32F3xx_HAL_Driver/Src/stm32f3xx_hal_rcc.c ****   
 602:Drivers/STM32F3xx_HAL_Driver/Src/stm32f3xx_hal_rcc.c ****   return HAL_OK;
 2277              		.loc 1 602 0
 2278 0db0 0023     		movs	r3, #0
 2279              	.L15:
 603:Drivers/STM32F3xx_HAL_Driver/Src/stm32f3xx_hal_rcc.c **** }
 2280              		.loc 1 603 0
 2281 0db2 1846     		mov	r0, r3
 2282 0db4 07F50077 		add	r7, r7, #512
 2283              	.LCFI7:
 2284              		.cfi_def_cfa_offset 8
 2285 0db8 BD46     		mov	sp, r7
 2286              	.LCFI8:
 2287              		.cfi_def_cfa_register 13
 2288              		@ sp needed
 2289 0dba 80BD     		pop	{r7, pc}
 2290              	.L151:
 2291              		.align	2
 2292              	.L150:
 2293 0dbc 00100240 		.word	1073876992
 2294              		.cfi_endproc
 2295              	.LFE127:
 2297              		.section	.text.HAL_RCC_ClockConfig,"ax",%progbits
 2298              		.align	1
 2299              		.global	HAL_RCC_ClockConfig
 2300              		.syntax unified
 2301              		.thumb
 2302              		.thumb_func
 2303              		.fpu fpv4-sp-d16
 2305              	HAL_RCC_ClockConfig:
 2306              	.LFB128:
 604:Drivers/STM32F3xx_HAL_Driver/Src/stm32f3xx_hal_rcc.c **** 
 605:Drivers/STM32F3xx_HAL_Driver/Src/stm32f3xx_hal_rcc.c **** /**
ARM GAS  C:\Users\RARES~1.COV\AppData\Local\Temp\cc8OUGVm.s 			page 63


 606:Drivers/STM32F3xx_HAL_Driver/Src/stm32f3xx_hal_rcc.c ****   * @brief  Initializes the CPU, AHB and APB buses clocks according to the specified 
 607:Drivers/STM32F3xx_HAL_Driver/Src/stm32f3xx_hal_rcc.c ****   *         parameters in the RCC_ClkInitStruct.
 608:Drivers/STM32F3xx_HAL_Driver/Src/stm32f3xx_hal_rcc.c ****   * @param  RCC_ClkInitStruct pointer to an RCC_OscInitTypeDef structure that
 609:Drivers/STM32F3xx_HAL_Driver/Src/stm32f3xx_hal_rcc.c ****   *         contains the configuration information for the RCC peripheral.
 610:Drivers/STM32F3xx_HAL_Driver/Src/stm32f3xx_hal_rcc.c ****   * @param  FLatency FLASH Latency                   
 611:Drivers/STM32F3xx_HAL_Driver/Src/stm32f3xx_hal_rcc.c ****   *          The value of this parameter depend on device used within the same series
 612:Drivers/STM32F3xx_HAL_Driver/Src/stm32f3xx_hal_rcc.c ****   * @note   The SystemCoreClock CMSIS variable is used to store System Clock Frequency 
 613:Drivers/STM32F3xx_HAL_Driver/Src/stm32f3xx_hal_rcc.c ****   *         and updated by @ref HAL_RCC_GetHCLKFreq() function called within this function
 614:Drivers/STM32F3xx_HAL_Driver/Src/stm32f3xx_hal_rcc.c ****   *
 615:Drivers/STM32F3xx_HAL_Driver/Src/stm32f3xx_hal_rcc.c ****   * @note   The HSI is used (enabled by hardware) as system clock source after
 616:Drivers/STM32F3xx_HAL_Driver/Src/stm32f3xx_hal_rcc.c ****   *         start-up from Reset, wake-up from STOP and STANDBY mode, or in case
 617:Drivers/STM32F3xx_HAL_Driver/Src/stm32f3xx_hal_rcc.c ****   *         of failure of the HSE used directly or indirectly as system clock
 618:Drivers/STM32F3xx_HAL_Driver/Src/stm32f3xx_hal_rcc.c ****   *         (if the Clock Security System CSS is enabled).
 619:Drivers/STM32F3xx_HAL_Driver/Src/stm32f3xx_hal_rcc.c ****   *           
 620:Drivers/STM32F3xx_HAL_Driver/Src/stm32f3xx_hal_rcc.c ****   * @note   A switch from one clock source to another occurs only if the target
 621:Drivers/STM32F3xx_HAL_Driver/Src/stm32f3xx_hal_rcc.c ****   *         clock source is ready (clock stable after start-up delay or PLL locked). 
 622:Drivers/STM32F3xx_HAL_Driver/Src/stm32f3xx_hal_rcc.c ****   *         If a clock source which is not yet ready is selected, the switch will
 623:Drivers/STM32F3xx_HAL_Driver/Src/stm32f3xx_hal_rcc.c ****   *         occur when the clock source will be ready. 
 624:Drivers/STM32F3xx_HAL_Driver/Src/stm32f3xx_hal_rcc.c ****   *         You can use @ref HAL_RCC_GetClockConfig() function to know which clock is
 625:Drivers/STM32F3xx_HAL_Driver/Src/stm32f3xx_hal_rcc.c ****   *         currently used as system clock source.
 626:Drivers/STM32F3xx_HAL_Driver/Src/stm32f3xx_hal_rcc.c ****   * @retval HAL status
 627:Drivers/STM32F3xx_HAL_Driver/Src/stm32f3xx_hal_rcc.c ****   */
 628:Drivers/STM32F3xx_HAL_Driver/Src/stm32f3xx_hal_rcc.c **** HAL_StatusTypeDef HAL_RCC_ClockConfig(RCC_ClkInitTypeDef  *RCC_ClkInitStruct, uint32_t FLatency)
 629:Drivers/STM32F3xx_HAL_Driver/Src/stm32f3xx_hal_rcc.c **** {
 2307              		.loc 1 629 0
 2308              		.cfi_startproc
 2309              		@ args = 0, pretend = 0, frame = 120
 2310              		@ frame_needed = 1, uses_anonymous_args = 0
 2311 0000 80B5     		push	{r7, lr}
 2312              	.LCFI9:
 2313              		.cfi_def_cfa_offset 8
 2314              		.cfi_offset 7, -8
 2315              		.cfi_offset 14, -4
 2316 0002 9EB0     		sub	sp, sp, #120
 2317              	.LCFI10:
 2318              		.cfi_def_cfa_offset 128
 2319 0004 00AF     		add	r7, sp, #0
 2320              	.LCFI11:
 2321              		.cfi_def_cfa_register 7
 2322 0006 7860     		str	r0, [r7, #4]
 2323 0008 3960     		str	r1, [r7]
 630:Drivers/STM32F3xx_HAL_Driver/Src/stm32f3xx_hal_rcc.c ****   uint32_t tickstart = 0U;
 2324              		.loc 1 630 0
 2325 000a 0023     		movs	r3, #0
 2326 000c 7B67     		str	r3, [r7, #116]
 631:Drivers/STM32F3xx_HAL_Driver/Src/stm32f3xx_hal_rcc.c ****   
 632:Drivers/STM32F3xx_HAL_Driver/Src/stm32f3xx_hal_rcc.c ****   /* Check the parameters */
 633:Drivers/STM32F3xx_HAL_Driver/Src/stm32f3xx_hal_rcc.c ****   assert_param(RCC_ClkInitStruct != NULL);
 634:Drivers/STM32F3xx_HAL_Driver/Src/stm32f3xx_hal_rcc.c ****   assert_param(IS_RCC_CLOCKTYPE(RCC_ClkInitStruct->ClockType));
 635:Drivers/STM32F3xx_HAL_Driver/Src/stm32f3xx_hal_rcc.c ****   assert_param(IS_FLASH_LATENCY(FLatency));
 636:Drivers/STM32F3xx_HAL_Driver/Src/stm32f3xx_hal_rcc.c **** 
 637:Drivers/STM32F3xx_HAL_Driver/Src/stm32f3xx_hal_rcc.c ****   /* To correctly read data from FLASH memory, the number of wait states (LATENCY) 
 638:Drivers/STM32F3xx_HAL_Driver/Src/stm32f3xx_hal_rcc.c ****   must be correctly programmed according to the frequency of the CPU clock 
 639:Drivers/STM32F3xx_HAL_Driver/Src/stm32f3xx_hal_rcc.c ****     (HCLK) of the device. */
 640:Drivers/STM32F3xx_HAL_Driver/Src/stm32f3xx_hal_rcc.c **** 
 641:Drivers/STM32F3xx_HAL_Driver/Src/stm32f3xx_hal_rcc.c ****   /* Increasing the number of wait states because of higher CPU frequency */
 642:Drivers/STM32F3xx_HAL_Driver/Src/stm32f3xx_hal_rcc.c ****   if(FLatency > (FLASH->ACR & FLASH_ACR_LATENCY))
ARM GAS  C:\Users\RARES~1.COV\AppData\Local\Temp\cc8OUGVm.s 			page 64


 2327              		.loc 1 642 0
 2328 000e A64B     		ldr	r3, .L190
 2329 0010 1B68     		ldr	r3, [r3]
 2330 0012 03F00702 		and	r2, r3, #7
 2331 0016 3B68     		ldr	r3, [r7]
 2332 0018 9A42     		cmp	r2, r3
 2333 001a 10D2     		bcs	.L153
 643:Drivers/STM32F3xx_HAL_Driver/Src/stm32f3xx_hal_rcc.c ****   {    
 644:Drivers/STM32F3xx_HAL_Driver/Src/stm32f3xx_hal_rcc.c ****     /* Program the new number of wait states to the LATENCY bits in the FLASH_ACR register */
 645:Drivers/STM32F3xx_HAL_Driver/Src/stm32f3xx_hal_rcc.c ****     __HAL_FLASH_SET_LATENCY(FLatency);
 2334              		.loc 1 645 0
 2335 001c A249     		ldr	r1, .L190
 2336 001e A24B     		ldr	r3, .L190
 2337 0020 1B68     		ldr	r3, [r3]
 2338 0022 23F00702 		bic	r2, r3, #7
 2339 0026 3B68     		ldr	r3, [r7]
 2340 0028 1343     		orrs	r3, r3, r2
 2341 002a 0B60     		str	r3, [r1]
 646:Drivers/STM32F3xx_HAL_Driver/Src/stm32f3xx_hal_rcc.c ****     
 647:Drivers/STM32F3xx_HAL_Driver/Src/stm32f3xx_hal_rcc.c ****     /* Check that the new number of wait states is taken into account to access the Flash
 648:Drivers/STM32F3xx_HAL_Driver/Src/stm32f3xx_hal_rcc.c ****     memory by reading the FLASH_ACR register */
 649:Drivers/STM32F3xx_HAL_Driver/Src/stm32f3xx_hal_rcc.c ****     if((FLASH->ACR & FLASH_ACR_LATENCY) != FLatency)
 2342              		.loc 1 649 0
 2343 002c 9E4B     		ldr	r3, .L190
 2344 002e 1B68     		ldr	r3, [r3]
 2345 0030 03F00702 		and	r2, r3, #7
 2346 0034 3B68     		ldr	r3, [r7]
 2347 0036 9A42     		cmp	r2, r3
 2348 0038 01D0     		beq	.L153
 650:Drivers/STM32F3xx_HAL_Driver/Src/stm32f3xx_hal_rcc.c ****     {
 651:Drivers/STM32F3xx_HAL_Driver/Src/stm32f3xx_hal_rcc.c ****       return HAL_ERROR;
 2349              		.loc 1 651 0
 2350 003a 0123     		movs	r3, #1
 2351 003c 73E1     		b	.L154
 2352              	.L153:
 652:Drivers/STM32F3xx_HAL_Driver/Src/stm32f3xx_hal_rcc.c ****     }
 653:Drivers/STM32F3xx_HAL_Driver/Src/stm32f3xx_hal_rcc.c ****   }
 654:Drivers/STM32F3xx_HAL_Driver/Src/stm32f3xx_hal_rcc.c **** 
 655:Drivers/STM32F3xx_HAL_Driver/Src/stm32f3xx_hal_rcc.c ****   /*-------------------------- HCLK Configuration --------------------------*/
