ARM GAS  C:\Users\RARES~1.COV\AppData\Local\Temp\cckVMPE7.s 			page 1


   1              		.cpu cortex-m4
   2              		.eabi_attribute 27, 1
   3              		.eabi_attribute 28, 1
   4              		.eabi_attribute 20, 1
   5              		.eabi_attribute 21, 1
   6              		.eabi_attribute 23, 3
   7              		.eabi_attribute 24, 1
   8              		.eabi_attribute 25, 1
   9              		.eabi_attribute 26, 1
  10              		.eabi_attribute 30, 6
  11              		.eabi_attribute 34, 1
  12              		.eabi_attribute 18, 4
  13              		.file	"system_stm32f3xx.c"
  14              		.text
  15              	.Ltext0:
  16              		.cfi_sections	.debug_frame
  17              		.global	SystemCoreClock
  18              		.section	.data.SystemCoreClock,"aw",%progbits
  19              		.align	2
  22              	SystemCoreClock:
  23 0000 00127A00 		.word	8000000
  24              		.global	AHBPrescTable
  25              		.section	.rodata.AHBPrescTable,"a",%progbits
  26              		.align	2
  29              	AHBPrescTable:
  30 0000 00       		.byte	0
  31 0001 00       		.byte	0
  32 0002 00       		.byte	0
  33 0003 00       		.byte	0
  34 0004 00       		.byte	0
  35 0005 00       		.byte	0
  36 0006 00       		.byte	0
  37 0007 00       		.byte	0
  38 0008 01       		.byte	1
  39 0009 02       		.byte	2
  40 000a 03       		.byte	3
  41 000b 04       		.byte	4
  42 000c 06       		.byte	6
  43 000d 07       		.byte	7
  44 000e 08       		.byte	8
  45 000f 09       		.byte	9
  46              		.global	APBPrescTable
  47              		.section	.rodata.APBPrescTable,"a",%progbits
  48              		.align	2
  51              	APBPrescTable:
  52 0000 00       		.byte	0
  53 0001 00       		.byte	0
  54 0002 00       		.byte	0
  55 0003 00       		.byte	0
  56 0004 01       		.byte	1
  57 0005 02       		.byte	2
  58 0006 03       		.byte	3
  59 0007 04       		.byte	4
  60              		.section	.text.SystemInit,"ax",%progbits
  61              		.align	1
  62              		.global	SystemInit
  63              		.syntax unified
ARM GAS  C:\Users\RARES~1.COV\AppData\Local\Temp\cckVMPE7.s 			page 2


  64              		.thumb
  65              		.thumb_func
  66              		.fpu fpv4-sp-d16
  68              	SystemInit:
  69              	.LFB126:
  70              		.file 1 "Drivers/CMSIS/Device/ST/STM32F3xx/Source/Templates/system_stm32f3xx.c"
   1:Drivers/CMSIS/Device/ST/STM32F3xx/Source/Templates/system_stm32f3xx.c **** /**
   2:Drivers/CMSIS/Device/ST/STM32F3xx/Source/Templates/system_stm32f3xx.c ****   ******************************************************************************
   3:Drivers/CMSIS/Device/ST/STM32F3xx/Source/Templates/system_stm32f3xx.c ****   * @file    system_stm32f3xx.c
   4:Drivers/CMSIS/Device/ST/STM32F3xx/Source/Templates/system_stm32f3xx.c ****   * @author  MCD Application Team
   5:Drivers/CMSIS/Device/ST/STM32F3xx/Source/Templates/system_stm32f3xx.c ****   * @version V2.3.0
   6:Drivers/CMSIS/Device/ST/STM32F3xx/Source/Templates/system_stm32f3xx.c ****   * @date    29-April-2015
   7:Drivers/CMSIS/Device/ST/STM32F3xx/Source/Templates/system_stm32f3xx.c ****   * @brief   CMSIS Cortex-M4 Device Peripheral Access Layer System Source File.
   8:Drivers/CMSIS/Device/ST/STM32F3xx/Source/Templates/system_stm32f3xx.c ****   *
   9:Drivers/CMSIS/Device/ST/STM32F3xx/Source/Templates/system_stm32f3xx.c ****   * 1. This file provides two functions and one global variable to be called from
  10:Drivers/CMSIS/Device/ST/STM32F3xx/Source/Templates/system_stm32f3xx.c ****   *    user application:
  11:Drivers/CMSIS/Device/ST/STM32F3xx/Source/Templates/system_stm32f3xx.c ****   *      - SystemInit(): This function is called at startup just after reset and 
  12:Drivers/CMSIS/Device/ST/STM32F3xx/Source/Templates/system_stm32f3xx.c ****   *                      before branch to main program. This call is made inside
  13:Drivers/CMSIS/Device/ST/STM32F3xx/Source/Templates/system_stm32f3xx.c ****   *                      the "startup_stm32f3xx.s" file.
  14:Drivers/CMSIS/Device/ST/STM32F3xx/Source/Templates/system_stm32f3xx.c ****   *
  15:Drivers/CMSIS/Device/ST/STM32F3xx/Source/Templates/system_stm32f3xx.c ****   *      - SystemCoreClock variable: Contains the core clock (HCLK), it can be used
  16:Drivers/CMSIS/Device/ST/STM32F3xx/Source/Templates/system_stm32f3xx.c ****   *                                  by the user application to setup the SysTick
  17:Drivers/CMSIS/Device/ST/STM32F3xx/Source/Templates/system_stm32f3xx.c ****   *                                  timer or configure other parameters.
  18:Drivers/CMSIS/Device/ST/STM32F3xx/Source/Templates/system_stm32f3xx.c ****   *
  19:Drivers/CMSIS/Device/ST/STM32F3xx/Source/Templates/system_stm32f3xx.c ****   *      - SystemCoreClockUpdate(): Updates the variable SystemCoreClock and must
  20:Drivers/CMSIS/Device/ST/STM32F3xx/Source/Templates/system_stm32f3xx.c ****   *                                 be called whenever the core clock is changed
  21:Drivers/CMSIS/Device/ST/STM32F3xx/Source/Templates/system_stm32f3xx.c ****   *                                 during program execution.
  22:Drivers/CMSIS/Device/ST/STM32F3xx/Source/Templates/system_stm32f3xx.c ****   *
  23:Drivers/CMSIS/Device/ST/STM32F3xx/Source/Templates/system_stm32f3xx.c ****   * 2. After each device reset the HSI (8 MHz) is used as system clock source.
  24:Drivers/CMSIS/Device/ST/STM32F3xx/Source/Templates/system_stm32f3xx.c ****   *    Then SystemInit() function is called, in "startup_stm32f3xx.s" file, to
  25:Drivers/CMSIS/Device/ST/STM32F3xx/Source/Templates/system_stm32f3xx.c ****   *    configure the system clock before to branch to main program.
  26:Drivers/CMSIS/Device/ST/STM32F3xx/Source/Templates/system_stm32f3xx.c ****   *
  27:Drivers/CMSIS/Device/ST/STM32F3xx/Source/Templates/system_stm32f3xx.c ****   * 3. This file configures the system clock as follows:
  28:Drivers/CMSIS/Device/ST/STM32F3xx/Source/Templates/system_stm32f3xx.c ****   *=============================================================================
  29:Drivers/CMSIS/Device/ST/STM32F3xx/Source/Templates/system_stm32f3xx.c ****   *                         Supported STM32F3xx device
  30:Drivers/CMSIS/Device/ST/STM32F3xx/Source/Templates/system_stm32f3xx.c ****   *-----------------------------------------------------------------------------
  31:Drivers/CMSIS/Device/ST/STM32F3xx/Source/Templates/system_stm32f3xx.c ****   *        System Clock source                    | HSI
  32:Drivers/CMSIS/Device/ST/STM32F3xx/Source/Templates/system_stm32f3xx.c ****   *-----------------------------------------------------------------------------
  33:Drivers/CMSIS/Device/ST/STM32F3xx/Source/Templates/system_stm32f3xx.c ****   *        SYSCLK(Hz)                             | 8000000
  34:Drivers/CMSIS/Device/ST/STM32F3xx/Source/Templates/system_stm32f3xx.c ****   *-----------------------------------------------------------------------------
  35:Drivers/CMSIS/Device/ST/STM32F3xx/Source/Templates/system_stm32f3xx.c ****   *        HCLK(Hz)                               | 8000000
  36:Drivers/CMSIS/Device/ST/STM32F3xx/Source/Templates/system_stm32f3xx.c ****   *-----------------------------------------------------------------------------
  37:Drivers/CMSIS/Device/ST/STM32F3xx/Source/Templates/system_stm32f3xx.c ****   *        AHB Prescaler                          | 1
  38:Drivers/CMSIS/Device/ST/STM32F3xx/Source/Templates/system_stm32f3xx.c ****   *-----------------------------------------------------------------------------
  39:Drivers/CMSIS/Device/ST/STM32F3xx/Source/Templates/system_stm32f3xx.c ****   *        APB2 Prescaler                         | 1
  40:Drivers/CMSIS/Device/ST/STM32F3xx/Source/Templates/system_stm32f3xx.c ****   *-----------------------------------------------------------------------------
  41:Drivers/CMSIS/Device/ST/STM32F3xx/Source/Templates/system_stm32f3xx.c ****   *        APB1 Prescaler                         | 1
  42:Drivers/CMSIS/Device/ST/STM32F3xx/Source/Templates/system_stm32f3xx.c ****   *-----------------------------------------------------------------------------
  43:Drivers/CMSIS/Device/ST/STM32F3xx/Source/Templates/system_stm32f3xx.c ****   *        USB Clock                              | DISABLE
  44:Drivers/CMSIS/Device/ST/STM32F3xx/Source/Templates/system_stm32f3xx.c ****   *-----------------------------------------------------------------------------
  45:Drivers/CMSIS/Device/ST/STM32F3xx/Source/Templates/system_stm32f3xx.c ****   *=============================================================================
  46:Drivers/CMSIS/Device/ST/STM32F3xx/Source/Templates/system_stm32f3xx.c ****   ******************************************************************************
  47:Drivers/CMSIS/Device/ST/STM32F3xx/Source/Templates/system_stm32f3xx.c ****   * @attention
  48:Drivers/CMSIS/Device/ST/STM32F3xx/Source/Templates/system_stm32f3xx.c ****   *
  49:Drivers/CMSIS/Device/ST/STM32F3xx/Source/Templates/system_stm32f3xx.c ****   * <h2><center>&copy; COPYRIGHT(c) 2016 STMicroelectronics</center></h2>
  50:Drivers/CMSIS/Device/ST/STM32F3xx/Source/Templates/system_stm32f3xx.c ****   *
  51:Drivers/CMSIS/Device/ST/STM32F3xx/Source/Templates/system_stm32f3xx.c ****   * Redistribution and use in source and binary forms, with or without modification,
ARM GAS  C:\Users\RARES~1.COV\AppData\Local\Temp\cckVMPE7.s 			page 3


  52:Drivers/CMSIS/Device/ST/STM32F3xx/Source/Templates/system_stm32f3xx.c ****   * are permitted provided that the following conditions are met:
  53:Drivers/CMSIS/Device/ST/STM32F3xx/Source/Templates/system_stm32f3xx.c ****   *   1. Redistributions of source code must retain the above copyright notice,
  54:Drivers/CMSIS/Device/ST/STM32F3xx/Source/Templates/system_stm32f3xx.c ****   *      this list of conditions and the following disclaimer.
  55:Drivers/CMSIS/Device/ST/STM32F3xx/Source/Templates/system_stm32f3xx.c ****   *   2. Redistributions in binary form must reproduce the above copyright notice,
  56:Drivers/CMSIS/Device/ST/STM32F3xx/Source/Templates/system_stm32f3xx.c ****   *      this list of conditions and the following disclaimer in the documentation
  57:Drivers/CMSIS/Device/ST/STM32F3xx/Source/Templates/system_stm32f3xx.c ****   *      and/or other materials provided with the distribution.
  58:Drivers/CMSIS/Device/ST/STM32F3xx/Source/Templates/system_stm32f3xx.c ****   *   3. Neither the name of STMicroelectronics nor the names of its contributors
  59:Drivers/CMSIS/Device/ST/STM32F3xx/Source/Templates/system_stm32f3xx.c ****   *      may be used to endorse or promote products derived from this software
  60:Drivers/CMSIS/Device/ST/STM32F3xx/Source/Templates/system_stm32f3xx.c ****   *      without specific prior written permission.
  61:Drivers/CMSIS/Device/ST/STM32F3xx/Source/Templates/system_stm32f3xx.c ****   *
  62:Drivers/CMSIS/Device/ST/STM32F3xx/Source/Templates/system_stm32f3xx.c ****   * THIS SOFTWARE IS PROVIDED BY THE COPYRIGHT HOLDERS AND CONTRIBUTORS "AS IS"
  63:Drivers/CMSIS/Device/ST/STM32F3xx/Source/Templates/system_stm32f3xx.c ****   * AND ANY EXPRESS OR IMPLIED WARRANTIES, INCLUDING, BUT NOT LIMITED TO, THE
  64:Drivers/CMSIS/Device/ST/STM32F3xx/Source/Templates/system_stm32f3xx.c ****   * IMPLIED WARRANTIES OF MERCHANTABILITY AND FITNESS FOR A PARTICULAR PURPOSE ARE
  65:Drivers/CMSIS/Device/ST/STM32F3xx/Source/Templates/system_stm32f3xx.c ****   * DISCLAIMED. IN NO EVENT SHALL THE COPYRIGHT HOLDER OR CONTRIBUTORS BE LIABLE
  66:Drivers/CMSIS/Device/ST/STM32F3xx/Source/Templates/system_stm32f3xx.c ****   * FOR ANY DIRECT, INDIRECT, INCIDENTAL, SPECIAL, EXEMPLARY, OR CONSEQUENTIAL
  67:Drivers/CMSIS/Device/ST/STM32F3xx/Source/Templates/system_stm32f3xx.c ****   * DAMAGES (INCLUDING, BUT NOT LIMITED TO, PROCUREMENT OF SUBSTITUTE GOODS OR
  68:Drivers/CMSIS/Device/ST/STM32F3xx/Source/Templates/system_stm32f3xx.c ****   * SERVICES; LOSS OF USE, DATA, OR PROFITS; OR BUSINESS INTERRUPTION) HOWEVER
  69:Drivers/CMSIS/Device/ST/STM32F3xx/Source/Templates/system_stm32f3xx.c ****   * CAUSED AND ON ANY THEORY OF LIABILITY, WHETHER IN CONTRACT, STRICT LIABILITY,
  70:Drivers/CMSIS/Device/ST/STM32F3xx/Source/Templates/system_stm32f3xx.c ****   * OR TORT (INCLUDING NEGLIGENCE OR OTHERWISE) ARISING IN ANY WAY OUT OF THE USE
  71:Drivers/CMSIS/Device/ST/STM32F3xx/Source/Templates/system_stm32f3xx.c ****   * OF THIS SOFTWARE, EVEN IF ADVISED OF THE POSSIBILITY OF SUCH DAMAGE.
  72:Drivers/CMSIS/Device/ST/STM32F3xx/Source/Templates/system_stm32f3xx.c ****   *
  73:Drivers/CMSIS/Device/ST/STM32F3xx/Source/Templates/system_stm32f3xx.c ****   ******************************************************************************
  74:Drivers/CMSIS/Device/ST/STM32F3xx/Source/Templates/system_stm32f3xx.c ****   */
  75:Drivers/CMSIS/Device/ST/STM32F3xx/Source/Templates/system_stm32f3xx.c **** 
  76:Drivers/CMSIS/Device/ST/STM32F3xx/Source/Templates/system_stm32f3xx.c **** /** @addtogroup CMSIS
  77:Drivers/CMSIS/Device/ST/STM32F3xx/Source/Templates/system_stm32f3xx.c ****   * @{
  78:Drivers/CMSIS/Device/ST/STM32F3xx/Source/Templates/system_stm32f3xx.c ****   */
  79:Drivers/CMSIS/Device/ST/STM32F3xx/Source/Templates/system_stm32f3xx.c **** 
  80:Drivers/CMSIS/Device/ST/STM32F3xx/Source/Templates/system_stm32f3xx.c **** /** @addtogroup stm32f3xx_system
  81:Drivers/CMSIS/Device/ST/STM32F3xx/Source/Templates/system_stm32f3xx.c ****   * @{
  82:Drivers/CMSIS/Device/ST/STM32F3xx/Source/Templates/system_stm32f3xx.c ****   */
  83:Drivers/CMSIS/Device/ST/STM32F3xx/Source/Templates/system_stm32f3xx.c **** 
  84:Drivers/CMSIS/Device/ST/STM32F3xx/Source/Templates/system_stm32f3xx.c **** /** @addtogroup STM32F3xx_System_Private_Includes
  85:Drivers/CMSIS/Device/ST/STM32F3xx/Source/Templates/system_stm32f3xx.c ****   * @{
  86:Drivers/CMSIS/Device/ST/STM32F3xx/Source/Templates/system_stm32f3xx.c ****   */
  87:Drivers/CMSIS/Device/ST/STM32F3xx/Source/Templates/system_stm32f3xx.c **** 
  88:Drivers/CMSIS/Device/ST/STM32F3xx/Source/Templates/system_stm32f3xx.c **** #include "stm32f3xx.h"
  89:Drivers/CMSIS/Device/ST/STM32F3xx/Source/Templates/system_stm32f3xx.c **** 
  90:Drivers/CMSIS/Device/ST/STM32F3xx/Source/Templates/system_stm32f3xx.c **** /**
  91:Drivers/CMSIS/Device/ST/STM32F3xx/Source/Templates/system_stm32f3xx.c ****   * @}
  92:Drivers/CMSIS/Device/ST/STM32F3xx/Source/Templates/system_stm32f3xx.c ****   */
  93:Drivers/CMSIS/Device/ST/STM32F3xx/Source/Templates/system_stm32f3xx.c **** 
  94:Drivers/CMSIS/Device/ST/STM32F3xx/Source/Templates/system_stm32f3xx.c **** /** @addtogroup STM32F3xx_System_Private_TypesDefinitions
  95:Drivers/CMSIS/Device/ST/STM32F3xx/Source/Templates/system_stm32f3xx.c ****   * @{
  96:Drivers/CMSIS/Device/ST/STM32F3xx/Source/Templates/system_stm32f3xx.c ****   */
  97:Drivers/CMSIS/Device/ST/STM32F3xx/Source/Templates/system_stm32f3xx.c **** 
  98:Drivers/CMSIS/Device/ST/STM32F3xx/Source/Templates/system_stm32f3xx.c **** /**
  99:Drivers/CMSIS/Device/ST/STM32F3xx/Source/Templates/system_stm32f3xx.c ****   * @}
 100:Drivers/CMSIS/Device/ST/STM32F3xx/Source/Templates/system_stm32f3xx.c ****   */
 101:Drivers/CMSIS/Device/ST/STM32F3xx/Source/Templates/system_stm32f3xx.c **** 
 102:Drivers/CMSIS/Device/ST/STM32F3xx/Source/Templates/system_stm32f3xx.c **** /** @addtogroup STM32F3xx_System_Private_Defines
 103:Drivers/CMSIS/Device/ST/STM32F3xx/Source/Templates/system_stm32f3xx.c ****   * @{
 104:Drivers/CMSIS/Device/ST/STM32F3xx/Source/Templates/system_stm32f3xx.c ****   */
 105:Drivers/CMSIS/Device/ST/STM32F3xx/Source/Templates/system_stm32f3xx.c **** #if !defined  (HSE_VALUE) 
 106:Drivers/CMSIS/Device/ST/STM32F3xx/Source/Templates/system_stm32f3xx.c ****   #define HSE_VALUE    ((uint32_t)8000000) /*!< Default value of the External oscillator in Hz.
 107:Drivers/CMSIS/Device/ST/STM32F3xx/Source/Templates/system_stm32f3xx.c ****                                                 This value can be provided and adapted by the user 
 108:Drivers/CMSIS/Device/ST/STM32F3xx/Source/Templates/system_stm32f3xx.c **** #endif /* HSE_VALUE */
ARM GAS  C:\Users\RARES~1.COV\AppData\Local\Temp\cckVMPE7.s 			page 4


 109:Drivers/CMSIS/Device/ST/STM32F3xx/Source/Templates/system_stm32f3xx.c **** 
 110:Drivers/CMSIS/Device/ST/STM32F3xx/Source/Templates/system_stm32f3xx.c **** #if !defined  (HSI_VALUE)
 111:Drivers/CMSIS/Device/ST/STM32F3xx/Source/Templates/system_stm32f3xx.c ****   #define HSI_VALUE    ((uint32_t)8000000) /*!< Default value of the Internal oscillator in Hz.
 112:Drivers/CMSIS/Device/ST/STM32F3xx/Source/Templates/system_stm32f3xx.c ****                                                 This value can be provided and adapted by the user 
 113:Drivers/CMSIS/Device/ST/STM32F3xx/Source/Templates/system_stm32f3xx.c **** #endif /* HSI_VALUE */
 114:Drivers/CMSIS/Device/ST/STM32F3xx/Source/Templates/system_stm32f3xx.c **** 
 115:Drivers/CMSIS/Device/ST/STM32F3xx/Source/Templates/system_stm32f3xx.c **** /*!< Uncomment the following line if you need to relocate your vector Table in
 116:Drivers/CMSIS/Device/ST/STM32F3xx/Source/Templates/system_stm32f3xx.c ****      Internal SRAM. */
 117:Drivers/CMSIS/Device/ST/STM32F3xx/Source/Templates/system_stm32f3xx.c **** /* #define VECT_TAB_SRAM */
 118:Drivers/CMSIS/Device/ST/STM32F3xx/Source/Templates/system_stm32f3xx.c **** #define VECT_TAB_OFFSET  0x0 /*!< Vector Table base offset field.
 119:Drivers/CMSIS/Device/ST/STM32F3xx/Source/Templates/system_stm32f3xx.c ****                                   This value must be a multiple of 0x200. */
 120:Drivers/CMSIS/Device/ST/STM32F3xx/Source/Templates/system_stm32f3xx.c **** /**
 121:Drivers/CMSIS/Device/ST/STM32F3xx/Source/Templates/system_stm32f3xx.c ****   * @}
 122:Drivers/CMSIS/Device/ST/STM32F3xx/Source/Templates/system_stm32f3xx.c ****   */
 123:Drivers/CMSIS/Device/ST/STM32F3xx/Source/Templates/system_stm32f3xx.c **** 
 124:Drivers/CMSIS/Device/ST/STM32F3xx/Source/Templates/system_stm32f3xx.c **** /** @addtogroup STM32F3xx_System_Private_Macros
 125:Drivers/CMSIS/Device/ST/STM32F3xx/Source/Templates/system_stm32f3xx.c ****   * @{
 126:Drivers/CMSIS/Device/ST/STM32F3xx/Source/Templates/system_stm32f3xx.c ****   */
 127:Drivers/CMSIS/Device/ST/STM32F3xx/Source/Templates/system_stm32f3xx.c **** 
 128:Drivers/CMSIS/Device/ST/STM32F3xx/Source/Templates/system_stm32f3xx.c **** /**
 129:Drivers/CMSIS/Device/ST/STM32F3xx/Source/Templates/system_stm32f3xx.c ****   * @}
 130:Drivers/CMSIS/Device/ST/STM32F3xx/Source/Templates/system_stm32f3xx.c ****   */
 131:Drivers/CMSIS/Device/ST/STM32F3xx/Source/Templates/system_stm32f3xx.c **** 
 132:Drivers/CMSIS/Device/ST/STM32F3xx/Source/Templates/system_stm32f3xx.c **** /** @addtogroup STM32F3xx_System_Private_Variables
 133:Drivers/CMSIS/Device/ST/STM32F3xx/Source/Templates/system_stm32f3xx.c ****   * @{
 134:Drivers/CMSIS/Device/ST/STM32F3xx/Source/Templates/system_stm32f3xx.c ****   */
 135:Drivers/CMSIS/Device/ST/STM32F3xx/Source/Templates/system_stm32f3xx.c ****   /* This variable is updated in three ways:
 136:Drivers/CMSIS/Device/ST/STM32F3xx/Source/Templates/system_stm32f3xx.c ****       1) by calling CMSIS function SystemCoreClockUpdate()
 137:Drivers/CMSIS/Device/ST/STM32F3xx/Source/Templates/system_stm32f3xx.c ****       2) by calling HAL API function HAL_RCC_GetHCLKFreq()
 138:Drivers/CMSIS/Device/ST/STM32F3xx/Source/Templates/system_stm32f3xx.c ****       3) each time HAL_RCC_ClockConfig() is called to configure the system clock frequency
 139:Drivers/CMSIS/Device/ST/STM32F3xx/Source/Templates/system_stm32f3xx.c ****          Note: If you use this function to configure the system clock there is no need to
 140:Drivers/CMSIS/Device/ST/STM32F3xx/Source/Templates/system_stm32f3xx.c ****                call the 2 first functions listed above, since SystemCoreClock variable is 
 141:Drivers/CMSIS/Device/ST/STM32F3xx/Source/Templates/system_stm32f3xx.c ****                updated automatically.
 142:Drivers/CMSIS/Device/ST/STM32F3xx/Source/Templates/system_stm32f3xx.c ****   */
 143:Drivers/CMSIS/Device/ST/STM32F3xx/Source/Templates/system_stm32f3xx.c **** uint32_t SystemCoreClock = 8000000;
 144:Drivers/CMSIS/Device/ST/STM32F3xx/Source/Templates/system_stm32f3xx.c **** 
 145:Drivers/CMSIS/Device/ST/STM32F3xx/Source/Templates/system_stm32f3xx.c **** const uint8_t AHBPrescTable[16] = {0, 0, 0, 0, 0, 0, 0, 0, 1, 2, 3, 4, 6, 7, 8, 9};
 146:Drivers/CMSIS/Device/ST/STM32F3xx/Source/Templates/system_stm32f3xx.c **** const uint8_t APBPrescTable[8]  = {0, 0, 0, 0, 1, 2, 3, 4};
 147:Drivers/CMSIS/Device/ST/STM32F3xx/Source/Templates/system_stm32f3xx.c **** 
 148:Drivers/CMSIS/Device/ST/STM32F3xx/Source/Templates/system_stm32f3xx.c **** /**
 149:Drivers/CMSIS/Device/ST/STM32F3xx/Source/Templates/system_stm32f3xx.c ****   * @}
 150:Drivers/CMSIS/Device/ST/STM32F3xx/Source/Templates/system_stm32f3xx.c ****   */
 151:Drivers/CMSIS/Device/ST/STM32F3xx/Source/Templates/system_stm32f3xx.c **** 
 152:Drivers/CMSIS/Device/ST/STM32F3xx/Source/Templates/system_stm32f3xx.c **** /** @addtogroup STM32F3xx_System_Private_FunctionPrototypes
 153:Drivers/CMSIS/Device/ST/STM32F3xx/Source/Templates/system_stm32f3xx.c ****   * @{
 154:Drivers/CMSIS/Device/ST/STM32F3xx/Source/Templates/system_stm32f3xx.c ****   */
 155:Drivers/CMSIS/Device/ST/STM32F3xx/Source/Templates/system_stm32f3xx.c **** 
 156:Drivers/CMSIS/Device/ST/STM32F3xx/Source/Templates/system_stm32f3xx.c **** /**
 157:Drivers/CMSIS/Device/ST/STM32F3xx/Source/Templates/system_stm32f3xx.c ****   * @}
 158:Drivers/CMSIS/Device/ST/STM32F3xx/Source/Templates/system_stm32f3xx.c ****   */
 159:Drivers/CMSIS/Device/ST/STM32F3xx/Source/Templates/system_stm32f3xx.c **** 
 160:Drivers/CMSIS/Device/ST/STM32F3xx/Source/Templates/system_stm32f3xx.c **** /** @addtogroup STM32F3xx_System_Private_Functions
 161:Drivers/CMSIS/Device/ST/STM32F3xx/Source/Templates/system_stm32f3xx.c ****   * @{
 162:Drivers/CMSIS/Device/ST/STM32F3xx/Source/Templates/system_stm32f3xx.c ****   */
 163:Drivers/CMSIS/Device/ST/STM32F3xx/Source/Templates/system_stm32f3xx.c **** 
 164:Drivers/CMSIS/Device/ST/STM32F3xx/Source/Templates/system_stm32f3xx.c **** /**
 165:Drivers/CMSIS/Device/ST/STM32F3xx/Source/Templates/system_stm32f3xx.c ****   * @brief  Setup the microcontroller system
ARM GAS  C:\Users\RARES~1.COV\AppData\Local\Temp\cckVMPE7.s 			page 5


 166:Drivers/CMSIS/Device/ST/STM32F3xx/Source/Templates/system_stm32f3xx.c ****   *         Initialize the FPU setting, vector table location and the PLL configuration is reset.
 167:Drivers/CMSIS/Device/ST/STM32F3xx/Source/Templates/system_stm32f3xx.c ****   * @param  None
 168:Drivers/CMSIS/Device/ST/STM32F3xx/Source/Templates/system_stm32f3xx.c ****   * @retval None
 169:Drivers/CMSIS/Device/ST/STM32F3xx/Source/Templates/system_stm32f3xx.c ****   */
 170:Drivers/CMSIS/Device/ST/STM32F3xx/Source/Templates/system_stm32f3xx.c **** void SystemInit(void)
 171:Drivers/CMSIS/Device/ST/STM32F3xx/Source/Templates/system_stm32f3xx.c **** {
  71              		.loc 1 171 0
  72              		.cfi_startproc
  73              		@ args = 0, pretend = 0, frame = 0
  74              		@ frame_needed = 1, uses_anonymous_args = 0
  75              		@ link register save eliminated.
  76 0000 80B4     		push	{r7}
  77              	.LCFI0:
  78              		.cfi_def_cfa_offset 4
  79              		.cfi_offset 7, -4
  80 0002 00AF     		add	r7, sp, #0
  81              	.LCFI1:
  82              		.cfi_def_cfa_register 7
 172:Drivers/CMSIS/Device/ST/STM32F3xx/Source/Templates/system_stm32f3xx.c ****   /* FPU settings ------------------------------------------------------------*/
 173:Drivers/CMSIS/Device/ST/STM32F3xx/Source/Templates/system_stm32f3xx.c ****   #if (__FPU_PRESENT == 1) && (__FPU_USED == 1)
 174:Drivers/CMSIS/Device/ST/STM32F3xx/Source/Templates/system_stm32f3xx.c ****     SCB->CPACR |= ((3UL << 10*2)|(3UL << 11*2));  /* set CP10 and CP11 Full Access */
  83              		.loc 1 174 0
  84 0004 1F4A     		ldr	r2, .L2
  85 0006 1F4B     		ldr	r3, .L2
  86 0008 D3F88830 		ldr	r3, [r3, #136]
  87 000c 43F47003 		orr	r3, r3, #15728640
  88 0010 C2F88830 		str	r3, [r2, #136]
 175:Drivers/CMSIS/Device/ST/STM32F3xx/Source/Templates/system_stm32f3xx.c ****   #endif
 176:Drivers/CMSIS/Device/ST/STM32F3xx/Source/Templates/system_stm32f3xx.c **** 
 177:Drivers/CMSIS/Device/ST/STM32F3xx/Source/Templates/system_stm32f3xx.c ****   /* Reset the RCC clock configuration to the default reset state ------------*/
 178:Drivers/CMSIS/Device/ST/STM32F3xx/Source/Templates/system_stm32f3xx.c ****   /* Set HSION bit */
 179:Drivers/CMSIS/Device/ST/STM32F3xx/Source/Templates/system_stm32f3xx.c ****   RCC->CR |= 0x00000001U;
  89              		.loc 1 179 0
  90 0014 1C4A     		ldr	r2, .L2+4
  91 0016 1C4B     		ldr	r3, .L2+4
  92 0018 1B68     		ldr	r3, [r3]
  93 001a 43F00103 		orr	r3, r3, #1
  94 001e 1360     		str	r3, [r2]
 180:Drivers/CMSIS/Device/ST/STM32F3xx/Source/Templates/system_stm32f3xx.c **** 
 181:Drivers/CMSIS/Device/ST/STM32F3xx/Source/Templates/system_stm32f3xx.c ****   /* Reset CFGR register */
 182:Drivers/CMSIS/Device/ST/STM32F3xx/Source/Templates/system_stm32f3xx.c ****   RCC->CFGR &= 0xF87FC00CU;
  95              		.loc 1 182 0
  96 0020 1949     		ldr	r1, .L2+4
  97 0022 194B     		ldr	r3, .L2+4
  98 0024 5A68     		ldr	r2, [r3, #4]
  99 0026 194B     		ldr	r3, .L2+8
 100 0028 1340     		ands	r3, r3, r2
 101 002a 4B60     		str	r3, [r1, #4]
 183:Drivers/CMSIS/Device/ST/STM32F3xx/Source/Templates/system_stm32f3xx.c **** 
 184:Drivers/CMSIS/Device/ST/STM32F3xx/Source/Templates/system_stm32f3xx.c ****   /* Reset HSEON, CSSON and PLLON bits */
 185:Drivers/CMSIS/Device/ST/STM32F3xx/Source/Templates/system_stm32f3xx.c ****   RCC->CR &= 0xFEF6FFFFU;
 102              		.loc 1 185 0
 103 002c 164A     		ldr	r2, .L2+4
 104 002e 164B     		ldr	r3, .L2+4
 105 0030 1B68     		ldr	r3, [r3]
 106 0032 23F08473 		bic	r3, r3, #17301504
 107 0036 23F48033 		bic	r3, r3, #65536
ARM GAS  C:\Users\RARES~1.COV\AppData\Local\Temp\cckVMPE7.s 			page 6


 108 003a 1360     		str	r3, [r2]
 186:Drivers/CMSIS/Device/ST/STM32F3xx/Source/Templates/system_stm32f3xx.c **** 
 187:Drivers/CMSIS/Device/ST/STM32F3xx/Source/Templates/system_stm32f3xx.c ****   /* Reset HSEBYP bit */
 188:Drivers/CMSIS/Device/ST/STM32F3xx/Source/Templates/system_stm32f3xx.c ****   RCC->CR &= 0xFFFBFFFFU;
 109              		.loc 1 188 0
 110 003c 124A     		ldr	r2, .L2+4
 111 003e 124B     		ldr	r3, .L2+4
 112 0040 1B68     		ldr	r3, [r3]
 113 0042 23F48023 		bic	r3, r3, #262144
 114 0046 1360     		str	r3, [r2]
 189:Drivers/CMSIS/Device/ST/STM32F3xx/Source/Templates/system_stm32f3xx.c **** 
 190:Drivers/CMSIS/Device/ST/STM32F3xx/Source/Templates/system_stm32f3xx.c ****   /* Reset PLLSRC, PLLXTPRE, PLLMUL and USBPRE bits */
 191:Drivers/CMSIS/Device/ST/STM32F3xx/Source/Templates/system_stm32f3xx.c ****   RCC->CFGR &= 0xFF80FFFFU;
 115              		.loc 1 191 0
 116 0048 0F4A     		ldr	r2, .L2+4
 117 004a 0F4B     		ldr	r3, .L2+4
 118 004c 5B68     		ldr	r3, [r3, #4]
 119 004e 23F4FE03 		bic	r3, r3, #8323072
 120 0052 5360     		str	r3, [r2, #4]
 192:Drivers/CMSIS/Device/ST/STM32F3xx/Source/Templates/system_stm32f3xx.c **** 
 193:Drivers/CMSIS/Device/ST/STM32F3xx/Source/Templates/system_stm32f3xx.c ****   /* Reset PREDIV1[3:0] bits */
 194:Drivers/CMSIS/Device/ST/STM32F3xx/Source/Templates/system_stm32f3xx.c ****   RCC->CFGR2 &= 0xFFFFFFF0U;
 121              		.loc 1 194 0
 122 0054 0C4A     		ldr	r2, .L2+4
 123 0056 0C4B     		ldr	r3, .L2+4
 124 0058 DB6A     		ldr	r3, [r3, #44]
 125 005a 23F00F03 		bic	r3, r3, #15
 126 005e D362     		str	r3, [r2, #44]
 195:Drivers/CMSIS/Device/ST/STM32F3xx/Source/Templates/system_stm32f3xx.c **** 
 196:Drivers/CMSIS/Device/ST/STM32F3xx/Source/Templates/system_stm32f3xx.c ****   /* Reset USARTSW[1:0], I2CSW and TIMs bits */
 197:Drivers/CMSIS/Device/ST/STM32F3xx/Source/Templates/system_stm32f3xx.c ****   RCC->CFGR3 &= 0xFF00FCCCU;
 127              		.loc 1 197 0
 128 0060 0949     		ldr	r1, .L2+4
 129 0062 094B     		ldr	r3, .L2+4
 130 0064 1A6B     		ldr	r2, [r3, #48]
 131 0066 0A4B     		ldr	r3, .L2+12
 132 0068 1340     		ands	r3, r3, r2
 133 006a 0B63     		str	r3, [r1, #48]
 198:Drivers/CMSIS/Device/ST/STM32F3xx/Source/Templates/system_stm32f3xx.c **** 
 199:Drivers/CMSIS/Device/ST/STM32F3xx/Source/Templates/system_stm32f3xx.c ****   /* Disable all interrupts */
 200:Drivers/CMSIS/Device/ST/STM32F3xx/Source/Templates/system_stm32f3xx.c ****   RCC->CIR = 0x00000000U;
 134              		.loc 1 200 0
 135 006c 064B     		ldr	r3, .L2+4
 136 006e 0022     		movs	r2, #0
 137 0070 9A60     		str	r2, [r3, #8]
 201:Drivers/CMSIS/Device/ST/STM32F3xx/Source/Templates/system_stm32f3xx.c **** 
 202:Drivers/CMSIS/Device/ST/STM32F3xx/Source/Templates/system_stm32f3xx.c **** #ifdef VECT_TAB_SRAM
 203:Drivers/CMSIS/Device/ST/STM32F3xx/Source/Templates/system_stm32f3xx.c ****   SCB->VTOR = SRAM_BASE | VECT_TAB_OFFSET; /* Vector Table Relocation in Internal SRAM */
 204:Drivers/CMSIS/Device/ST/STM32F3xx/Source/Templates/system_stm32f3xx.c **** #else
 205:Drivers/CMSIS/Device/ST/STM32F3xx/Source/Templates/system_stm32f3xx.c ****   SCB->VTOR = FLASH_BASE | VECT_TAB_OFFSET; /* Vector Table Relocation in Internal FLASH */
 138              		.loc 1 205 0
 139 0072 044B     		ldr	r3, .L2
 140 0074 4FF00062 		mov	r2, #134217728
 141 0078 9A60     		str	r2, [r3, #8]
 206:Drivers/CMSIS/Device/ST/STM32F3xx/Source/Templates/system_stm32f3xx.c **** #endif
 207:Drivers/CMSIS/Device/ST/STM32F3xx/Source/Templates/system_stm32f3xx.c **** }
 142              		.loc 1 207 0
ARM GAS  C:\Users\RARES~1.COV\AppData\Local\Temp\cckVMPE7.s 			page 7


 143 007a 00BF     		nop
 144 007c BD46     		mov	sp, r7
 145              	.LCFI2:
 146              		.cfi_def_cfa_register 13
 147              		@ sp needed
 148 007e 5DF8047B 		ldr	r7, [sp], #4
 149              	.LCFI3:
 150              		.cfi_restore 7
 151              		.cfi_def_cfa_offset 0
 152 0082 7047     		bx	lr
 153              	.L3:
 154              		.align	2
 155              	.L2:
 156 0084 00ED00E0 		.word	-536810240
 157 0088 00100240 		.word	1073876992
 158 008c 0CC07FF8 		.word	-125845492
 159 0090 CCFC00FF 		.word	-16712500
 160              		.cfi_endproc
 161              	.LFE126:
 163              		.section	.text.SystemCoreClockUpdate,"ax",%progbits
 164              		.align	1
 165              		.global	SystemCoreClockUpdate
 166              		.syntax unified
 167              		.thumb
 168              		.thumb_func
 169              		.fpu fpv4-sp-d16
 171              	SystemCoreClockUpdate:
 172              	.LFB127:
 208:Drivers/CMSIS/Device/ST/STM32F3xx/Source/Templates/system_stm32f3xx.c **** 
 209:Drivers/CMSIS/Device/ST/STM32F3xx/Source/Templates/system_stm32f3xx.c **** /**
 210:Drivers/CMSIS/Device/ST/STM32F3xx/Source/Templates/system_stm32f3xx.c ****    * @brief  Update SystemCoreClock variable according to Clock Register Values.
 211:Drivers/CMSIS/Device/ST/STM32F3xx/Source/Templates/system_stm32f3xx.c ****   *         The SystemCoreClock variable contains the core clock (HCLK), it can
 212:Drivers/CMSIS/Device/ST/STM32F3xx/Source/Templates/system_stm32f3xx.c ****   *         be used by the user application to setup the SysTick timer or configure
 213:Drivers/CMSIS/Device/ST/STM32F3xx/Source/Templates/system_stm32f3xx.c ****   *         other parameters.
 214:Drivers/CMSIS/Device/ST/STM32F3xx/Source/Templates/system_stm32f3xx.c ****   *
 215:Drivers/CMSIS/Device/ST/STM32F3xx/Source/Templates/system_stm32f3xx.c ****   * @note   Each time the core clock (HCLK) changes, this function must be called
 216:Drivers/CMSIS/Device/ST/STM32F3xx/Source/Templates/system_stm32f3xx.c ****   *         to update SystemCoreClock variable value. Otherwise, any configuration
 217:Drivers/CMSIS/Device/ST/STM32F3xx/Source/Templates/system_stm32f3xx.c ****   *         based on this variable will be incorrect.
 218:Drivers/CMSIS/Device/ST/STM32F3xx/Source/Templates/system_stm32f3xx.c ****   *
 219:Drivers/CMSIS/Device/ST/STM32F3xx/Source/Templates/system_stm32f3xx.c ****   * @note   - The system frequency computed by this function is not the real
 220:Drivers/CMSIS/Device/ST/STM32F3xx/Source/Templates/system_stm32f3xx.c ****   *           frequency in the chip. It is calculated based on the predefined
 221:Drivers/CMSIS/Device/ST/STM32F3xx/Source/Templates/system_stm32f3xx.c ****   *           constant and the selected clock source:
 222:Drivers/CMSIS/Device/ST/STM32F3xx/Source/Templates/system_stm32f3xx.c ****   *
 223:Drivers/CMSIS/Device/ST/STM32F3xx/Source/Templates/system_stm32f3xx.c ****   *           - If SYSCLK source is HSI, SystemCoreClock will contain the HSI_VALUE(*)
 224:Drivers/CMSIS/Device/ST/STM32F3xx/Source/Templates/system_stm32f3xx.c ****   *
 225:Drivers/CMSIS/Device/ST/STM32F3xx/Source/Templates/system_stm32f3xx.c ****   *           - If SYSCLK source is HSE, SystemCoreClock will contain the HSE_VALUE(**)
 226:Drivers/CMSIS/Device/ST/STM32F3xx/Source/Templates/system_stm32f3xx.c ****   *
 227:Drivers/CMSIS/Device/ST/STM32F3xx/Source/Templates/system_stm32f3xx.c ****   *           - If SYSCLK source is PLL, SystemCoreClock will contain the HSE_VALUE(**)
 228:Drivers/CMSIS/Device/ST/STM32F3xx/Source/Templates/system_stm32f3xx.c ****   *             or HSI_VALUE(*) multiplied/divided by the PLL factors.
 229:Drivers/CMSIS/Device/ST/STM32F3xx/Source/Templates/system_stm32f3xx.c ****   *
 230:Drivers/CMSIS/Device/ST/STM32F3xx/Source/Templates/system_stm32f3xx.c ****   *         (*) HSI_VALUE is a constant defined in stm32f3xx_hal.h file (default value
 231:Drivers/CMSIS/Device/ST/STM32F3xx/Source/Templates/system_stm32f3xx.c ****   *             8 MHz) but the real value may vary depending on the variations
 232:Drivers/CMSIS/Device/ST/STM32F3xx/Source/Templates/system_stm32f3xx.c ****   *             in voltage and temperature.
 233:Drivers/CMSIS/Device/ST/STM32F3xx/Source/Templates/system_stm32f3xx.c ****   *
 234:Drivers/CMSIS/Device/ST/STM32F3xx/Source/Templates/system_stm32f3xx.c ****   *         (**) HSE_VALUE is a constant defined in stm32f3xx_hal.h file (default value
 235:Drivers/CMSIS/Device/ST/STM32F3xx/Source/Templates/system_stm32f3xx.c ****   *              8 MHz), user has to ensure that HSE_VALUE is same as the real
 236:Drivers/CMSIS/Device/ST/STM32F3xx/Source/Templates/system_stm32f3xx.c ****   *              frequency of the crystal used. Otherwise, this function may
ARM GAS  C:\Users\RARES~1.COV\AppData\Local\Temp\cckVMPE7.s 			page 8


 237:Drivers/CMSIS/Device/ST/STM32F3xx/Source/Templates/system_stm32f3xx.c ****   *              have wrong result.
 238:Drivers/CMSIS/Device/ST/STM32F3xx/Source/Templates/system_stm32f3xx.c ****   *
 239:Drivers/CMSIS/Device/ST/STM32F3xx/Source/Templates/system_stm32f3xx.c ****   *         - The result of this function could be not correct when using fractional
 240:Drivers/CMSIS/Device/ST/STM32F3xx/Source/Templates/system_stm32f3xx.c ****   *           value for HSE crystal.
 241:Drivers/CMSIS/Device/ST/STM32F3xx/Source/Templates/system_stm32f3xx.c ****   *
 242:Drivers/CMSIS/Device/ST/STM32F3xx/Source/Templates/system_stm32f3xx.c ****   * @param  None
 243:Drivers/CMSIS/Device/ST/STM32F3xx/Source/Templates/system_stm32f3xx.c ****   * @retval None
 244:Drivers/CMSIS/Device/ST/STM32F3xx/Source/Templates/system_stm32f3xx.c ****   */
 245:Drivers/CMSIS/Device/ST/STM32F3xx/Source/Templates/system_stm32f3xx.c **** void SystemCoreClockUpdate (void)
 246:Drivers/CMSIS/Device/ST/STM32F3xx/Source/Templates/system_stm32f3xx.c **** {
 173              		.loc 1 246 0
 174              		.cfi_startproc
 175              		@ args = 0, pretend = 0, frame = 16
 176              		@ frame_needed = 1, uses_anonymous_args = 0
 177              		@ link register save eliminated.
 178 0000 80B4     		push	{r7}
 179              	.LCFI4:
 180              		.cfi_def_cfa_offset 4
 181              		.cfi_offset 7, -4
 182 0002 85B0     		sub	sp, sp, #20
 183              	.LCFI5:
 184              		.cfi_def_cfa_offset 24
 185 0004 00AF     		add	r7, sp, #0
 186              	.LCFI6:
 187              		.cfi_def_cfa_register 7
 247:Drivers/CMSIS/Device/ST/STM32F3xx/Source/Templates/system_stm32f3xx.c ****   uint32_t tmp = 0, pllmull = 0, pllsource = 0, predivfactor = 0;
 188              		.loc 1 247 0
 189 0006 0023     		movs	r3, #0
 190 0008 FB60     		str	r3, [r7, #12]
 191 000a 0023     		movs	r3, #0
 192 000c BB60     		str	r3, [r7, #8]
 193 000e 0023     		movs	r3, #0
 194 0010 7B60     		str	r3, [r7, #4]
 195 0012 0023     		movs	r3, #0
 196 0014 3B60     		str	r3, [r7]
 248:Drivers/CMSIS/Device/ST/STM32F3xx/Source/Templates/system_stm32f3xx.c **** 
 249:Drivers/CMSIS/Device/ST/STM32F3xx/Source/Templates/system_stm32f3xx.c ****   /* Get SYSCLK source -------------------------------------------------------*/
 250:Drivers/CMSIS/Device/ST/STM32F3xx/Source/Templates/system_stm32f3xx.c ****   tmp = RCC->CFGR & RCC_CFGR_SWS;
 197              		.loc 1 250 0
 198 0016 2C4B     		ldr	r3, .L13
 199 0018 5B68     		ldr	r3, [r3, #4]
 200 001a 03F00C03 		and	r3, r3, #12
 201 001e FB60     		str	r3, [r7, #12]
 251:Drivers/CMSIS/Device/ST/STM32F3xx/Source/Templates/system_stm32f3xx.c **** 
 252:Drivers/CMSIS/Device/ST/STM32F3xx/Source/Templates/system_stm32f3xx.c ****   switch (tmp)
 202              		.loc 1 252 0
 203 0020 FB68     		ldr	r3, [r7, #12]
 204 0022 042B     		cmp	r3, #4
 205 0024 07D0     		beq	.L6
 206 0026 082B     		cmp	r3, #8
 207 0028 09D0     		beq	.L7
 208 002a 002B     		cmp	r3, #0
 209 002c 33D1     		bne	.L12
 253:Drivers/CMSIS/Device/ST/STM32F3xx/Source/Templates/system_stm32f3xx.c ****   {
 254:Drivers/CMSIS/Device/ST/STM32F3xx/Source/Templates/system_stm32f3xx.c ****     case RCC_CFGR_SWS_HSI:  /* HSI used as system clock */
 255:Drivers/CMSIS/Device/ST/STM32F3xx/Source/Templates/system_stm32f3xx.c ****       SystemCoreClock = HSI_VALUE;
 210              		.loc 1 255 0
ARM GAS  C:\Users\RARES~1.COV\AppData\Local\Temp\cckVMPE7.s 			page 9


 211 002e 274B     		ldr	r3, .L13+4
 212 0030 274A     		ldr	r2, .L13+8
 213 0032 1A60     		str	r2, [r3]
 256:Drivers/CMSIS/Device/ST/STM32F3xx/Source/Templates/system_stm32f3xx.c ****       break;
 214              		.loc 1 256 0
 215 0034 33E0     		b	.L9
 216              	.L6:
 257:Drivers/CMSIS/Device/ST/STM32F3xx/Source/Templates/system_stm32f3xx.c ****     case RCC_CFGR_SWS_HSE:  /* HSE used as system clock */
 258:Drivers/CMSIS/Device/ST/STM32F3xx/Source/Templates/system_stm32f3xx.c ****       SystemCoreClock = HSE_VALUE;
 217              		.loc 1 258 0
 218 0036 254B     		ldr	r3, .L13+4
 219 0038 254A     		ldr	r2, .L13+8
 220 003a 1A60     		str	r2, [r3]
 259:Drivers/CMSIS/Device/ST/STM32F3xx/Source/Templates/system_stm32f3xx.c ****       break;
 221              		.loc 1 259 0
 222 003c 2FE0     		b	.L9
 223              	.L7:
 260:Drivers/CMSIS/Device/ST/STM32F3xx/Source/Templates/system_stm32f3xx.c ****     case RCC_CFGR_SWS_PLL:  /* PLL used as system clock */
 261:Drivers/CMSIS/Device/ST/STM32F3xx/Source/Templates/system_stm32f3xx.c ****       /* Get PLL clock source and multiplication factor ----------------------*/
 262:Drivers/CMSIS/Device/ST/STM32F3xx/Source/Templates/system_stm32f3xx.c ****       pllmull = RCC->CFGR & RCC_CFGR_PLLMUL;
 224              		.loc 1 262 0
 225 003e 224B     		ldr	r3, .L13
 226 0040 5B68     		ldr	r3, [r3, #4]
 227 0042 03F47013 		and	r3, r3, #3932160
 228 0046 BB60     		str	r3, [r7, #8]
 263:Drivers/CMSIS/Device/ST/STM32F3xx/Source/Templates/system_stm32f3xx.c ****       pllsource = RCC->CFGR & RCC_CFGR_PLLSRC;
 229              		.loc 1 263 0
 230 0048 1F4B     		ldr	r3, .L13
 231 004a 5B68     		ldr	r3, [r3, #4]
 232 004c 03F4C033 		and	r3, r3, #98304
 233 0050 7B60     		str	r3, [r7, #4]
 264:Drivers/CMSIS/Device/ST/STM32F3xx/Source/Templates/system_stm32f3xx.c ****       pllmull = ( pllmull >> 18) + 2;
 234              		.loc 1 264 0
 235 0052 BB68     		ldr	r3, [r7, #8]
 236 0054 9B0C     		lsrs	r3, r3, #18
 237 0056 0233     		adds	r3, r3, #2
 238 0058 BB60     		str	r3, [r7, #8]
 265:Drivers/CMSIS/Device/ST/STM32F3xx/Source/Templates/system_stm32f3xx.c **** 
 266:Drivers/CMSIS/Device/ST/STM32F3xx/Source/Templates/system_stm32f3xx.c **** #if defined (STM32F302xE) || defined (STM32F303xE) || defined (STM32F398xx)
 267:Drivers/CMSIS/Device/ST/STM32F3xx/Source/Templates/system_stm32f3xx.c ****         predivfactor = (RCC->CFGR2 & RCC_CFGR2_PREDIV) + 1;
 239              		.loc 1 267 0
 240 005a 1B4B     		ldr	r3, .L13
 241 005c DB6A     		ldr	r3, [r3, #44]
 242 005e 03F00F03 		and	r3, r3, #15
 243 0062 0133     		adds	r3, r3, #1
 244 0064 3B60     		str	r3, [r7]
 268:Drivers/CMSIS/Device/ST/STM32F3xx/Source/Templates/system_stm32f3xx.c ****       if (pllsource == RCC_CFGR_PLLSRC_HSE_PREDIV)
 245              		.loc 1 268 0
 246 0066 7B68     		ldr	r3, [r7, #4]
 247 0068 B3F5803F 		cmp	r3, #65536
 248 006c 09D1     		bne	.L10
 269:Drivers/CMSIS/Device/ST/STM32F3xx/Source/Templates/system_stm32f3xx.c ****       {
 270:Drivers/CMSIS/Device/ST/STM32F3xx/Source/Templates/system_stm32f3xx.c ****         /* HSE oscillator clock selected as PREDIV1 clock entry */
 271:Drivers/CMSIS/Device/ST/STM32F3xx/Source/Templates/system_stm32f3xx.c ****         SystemCoreClock = (HSE_VALUE / predivfactor) * pllmull;
 249              		.loc 1 271 0
 250 006e 184A     		ldr	r2, .L13+8
 251 0070 3B68     		ldr	r3, [r7]
ARM GAS  C:\Users\RARES~1.COV\AppData\Local\Temp\cckVMPE7.s 			page 10


 252 0072 B2FBF3F3 		udiv	r3, r2, r3
 253 0076 BA68     		ldr	r2, [r7, #8]
 254 0078 02FB03F3 		mul	r3, r2, r3
 255 007c 134A     		ldr	r2, .L13+4
 256 007e 1360     		str	r3, [r2]
 272:Drivers/CMSIS/Device/ST/STM32F3xx/Source/Templates/system_stm32f3xx.c ****       }
 273:Drivers/CMSIS/Device/ST/STM32F3xx/Source/Templates/system_stm32f3xx.c ****       else
 274:Drivers/CMSIS/Device/ST/STM32F3xx/Source/Templates/system_stm32f3xx.c ****       {
 275:Drivers/CMSIS/Device/ST/STM32F3xx/Source/Templates/system_stm32f3xx.c ****         /* HSI oscillator clock selected as PREDIV1 clock entry */
 276:Drivers/CMSIS/Device/ST/STM32F3xx/Source/Templates/system_stm32f3xx.c ****         SystemCoreClock = (HSI_VALUE / predivfactor) * pllmull;
 277:Drivers/CMSIS/Device/ST/STM32F3xx/Source/Templates/system_stm32f3xx.c ****       }
 278:Drivers/CMSIS/Device/ST/STM32F3xx/Source/Templates/system_stm32f3xx.c **** #else      
 279:Drivers/CMSIS/Device/ST/STM32F3xx/Source/Templates/system_stm32f3xx.c ****       if (pllsource == RCC_CFGR_PLLSRC_HSI_DIV2)
 280:Drivers/CMSIS/Device/ST/STM32F3xx/Source/Templates/system_stm32f3xx.c ****       {
 281:Drivers/CMSIS/Device/ST/STM32F3xx/Source/Templates/system_stm32f3xx.c ****         /* HSI oscillator clock divided by 2 selected as PLL clock entry */
 282:Drivers/CMSIS/Device/ST/STM32F3xx/Source/Templates/system_stm32f3xx.c ****         SystemCoreClock = (HSI_VALUE >> 1) * pllmull;
 283:Drivers/CMSIS/Device/ST/STM32F3xx/Source/Templates/system_stm32f3xx.c ****       }
 284:Drivers/CMSIS/Device/ST/STM32F3xx/Source/Templates/system_stm32f3xx.c ****       else
 285:Drivers/CMSIS/Device/ST/STM32F3xx/Source/Templates/system_stm32f3xx.c ****       {
 286:Drivers/CMSIS/Device/ST/STM32F3xx/Source/Templates/system_stm32f3xx.c ****         predivfactor = (RCC->CFGR2 & RCC_CFGR2_PREDIV) + 1;
 287:Drivers/CMSIS/Device/ST/STM32F3xx/Source/Templates/system_stm32f3xx.c ****         /* HSE oscillator clock selected as PREDIV1 clock entry */
 288:Drivers/CMSIS/Device/ST/STM32F3xx/Source/Templates/system_stm32f3xx.c ****         SystemCoreClock = (HSE_VALUE / predivfactor) * pllmull;
 289:Drivers/CMSIS/Device/ST/STM32F3xx/Source/Templates/system_stm32f3xx.c ****       }
 290:Drivers/CMSIS/Device/ST/STM32F3xx/Source/Templates/system_stm32f3xx.c **** #endif /* STM32F302xE || STM32F303xE || STM32F398xx */
 291:Drivers/CMSIS/Device/ST/STM32F3xx/Source/Templates/system_stm32f3xx.c ****       break;
 257              		.loc 1 291 0
 258 0080 0DE0     		b	.L9
 259              	.L10:
 276:Drivers/CMSIS/Device/ST/STM32F3xx/Source/Templates/system_stm32f3xx.c ****       }
 260              		.loc 1 276 0
 261 0082 134A     		ldr	r2, .L13+8
 262 0084 3B68     		ldr	r3, [r7]
 263 0086 B2FBF3F3 		udiv	r3, r2, r3
 264 008a BA68     		ldr	r2, [r7, #8]
 265 008c 02FB03F3 		mul	r3, r2, r3
 266 0090 0E4A     		ldr	r2, .L13+4
 267 0092 1360     		str	r3, [r2]
 268              		.loc 1 291 0
 269 0094 03E0     		b	.L9
 270              	.L12:
 292:Drivers/CMSIS/Device/ST/STM32F3xx/Source/Templates/system_stm32f3xx.c ****     default: /* HSI used as system clock */
 293:Drivers/CMSIS/Device/ST/STM32F3xx/Source/Templates/system_stm32f3xx.c ****       SystemCoreClock = HSI_VALUE;
 271              		.loc 1 293 0
 272 0096 0D4B     		ldr	r3, .L13+4
 273 0098 0D4A     		ldr	r2, .L13+8
 274 009a 1A60     		str	r2, [r3]
 294:Drivers/CMSIS/Device/ST/STM32F3xx/Source/Templates/system_stm32f3xx.c ****       break;
 275              		.loc 1 294 0
 276 009c 00BF     		nop
 277              	.L9:
 295:Drivers/CMSIS/Device/ST/STM32F3xx/Source/Templates/system_stm32f3xx.c ****   }
 296:Drivers/CMSIS/Device/ST/STM32F3xx/Source/Templates/system_stm32f3xx.c ****   /* Compute HCLK clock frequency ----------------*/
 297:Drivers/CMSIS/Device/ST/STM32F3xx/Source/Templates/system_stm32f3xx.c ****   /* Get HCLK prescaler */
 298:Drivers/CMSIS/Device/ST/STM32F3xx/Source/Templates/system_stm32f3xx.c ****   tmp = AHBPrescTable[((RCC->CFGR & RCC_CFGR_HPRE) >> 4)];
 278              		.loc 1 298 0
 279 009e 0A4B     		ldr	r3, .L13
 280 00a0 5B68     		ldr	r3, [r3, #4]
ARM GAS  C:\Users\RARES~1.COV\AppData\Local\Temp\cckVMPE7.s 			page 11


 281 00a2 1B09     		lsrs	r3, r3, #4
 282 00a4 03F00F03 		and	r3, r3, #15
 283 00a8 0A4A     		ldr	r2, .L13+12
 284 00aa D35C     		ldrb	r3, [r2, r3]	@ zero_extendqisi2
 285 00ac FB60     		str	r3, [r7, #12]
 299:Drivers/CMSIS/Device/ST/STM32F3xx/Source/Templates/system_stm32f3xx.c ****   /* HCLK clock frequency */
 300:Drivers/CMSIS/Device/ST/STM32F3xx/Source/Templates/system_stm32f3xx.c ****   SystemCoreClock >>= tmp;
 286              		.loc 1 300 0
 287 00ae 074B     		ldr	r3, .L13+4
 288 00b0 1A68     		ldr	r2, [r3]
 289 00b2 FB68     		ldr	r3, [r7, #12]
 290 00b4 22FA03F3 		lsr	r3, r2, r3
 291 00b8 044A     		ldr	r2, .L13+4
 292 00ba 1360     		str	r3, [r2]
 301:Drivers/CMSIS/Device/ST/STM32F3xx/Source/Templates/system_stm32f3xx.c **** }
 293              		.loc 1 301 0
 294 00bc 00BF     		nop
 295 00be 1437     		adds	r7, r7, #20
 296              	.LCFI7:
 297              		.cfi_def_cfa_offset 4
 298 00c0 BD46     		mov	sp, r7
 299              	.LCFI8:
 300              		.cfi_def_cfa_register 13
 301              		@ sp needed
 302 00c2 5DF8047B 		ldr	r7, [sp], #4
 303              	.LCFI9:
 304              		.cfi_restore 7
 305              		.cfi_def_cfa_offset 0
 306 00c6 7047     		bx	lr
 307              	.L14:
 308              		.align	2
 309              	.L13:
 310 00c8 00100240 		.word	1073876992
 311 00cc 00000000 		.word	SystemCoreClock
 312 00d0 00127A00 		.word	8000000
 313 00d4 00000000 		.word	AHBPrescTable
 314              		.cfi_endproc
 315              	.LFE127:
 317              		.text
 318              	.Letext0:
 319              		.file 2 "c:\\program files (x86)\\gnu tools arm embedded\\6 2017-q1-update\\arm-none-eabi\\include
 320              		.file 3 "c:\\program files (x86)\\gnu tools arm embedded\\6 2017-q1-update\\arm-none-eabi\\include
 321              		.file 4 "Drivers/CMSIS/Include/core_cm4.h"
 322              		.file 5 "Drivers/CMSIS/Device/ST/STM32F3xx/Include/system_stm32f3xx.h"
 323              		.file 6 "Drivers/CMSIS/Device/ST/STM32F3xx/Include/stm32f303xe.h"
 324              		.file 7 "c:\\program files (x86)\\gnu tools arm embedded\\6 2017-q1-update\\arm-none-eabi\\include
 325              		.file 8 "c:\\program files (x86)\\gnu tools arm embedded\\6 2017-q1-update\\arm-none-eabi\\include
 326              		.file 9 "c:\\program files (x86)\\gnu tools arm embedded\\6 2017-q1-update\\lib\\gcc\\arm-none-eab
 327              		.file 10 "c:\\program files (x86)\\gnu tools arm embedded\\6 2017-q1-update\\arm-none-eabi\\includ
ARM GAS  C:\Users\RARES~1.COV\AppData\Local\Temp\cckVMPE7.s 			page 12


DEFINED SYMBOLS
                            *ABS*:00000000 system_stm32f3xx.c
C:\Users\RARES~1.COV\AppData\Local\Temp\cckVMPE7.s:22     .data.SystemCoreClock:00000000 SystemCoreClock
C:\Users\RARES~1.COV\AppData\Local\Temp\cckVMPE7.s:19     .data.SystemCoreClock:00000000 $d
C:\Users\RARES~1.COV\AppData\Local\Temp\cckVMPE7.s:29     .rodata.AHBPrescTable:00000000 AHBPrescTable
C:\Users\RARES~1.COV\AppData\Local\Temp\cckVMPE7.s:26     .rodata.AHBPrescTable:00000000 $d
C:\Users\RARES~1.COV\AppData\Local\Temp\cckVMPE7.s:51     .rodata.APBPrescTable:00000000 APBPrescTable
C:\Users\RARES~1.COV\AppData\Local\Temp\cckVMPE7.s:48     .rodata.APBPrescTable:00000000 $d
C:\Users\RARES~1.COV\AppData\Local\Temp\cckVMPE7.s:61     .text.SystemInit:00000000 $t
C:\Users\RARES~1.COV\AppData\Local\Temp\cckVMPE7.s:68     .text.SystemInit:00000000 SystemInit
C:\Users\RARES~1.COV\AppData\Local\Temp\cckVMPE7.s:156    .text.SystemInit:00000084 $d
C:\Users\RARES~1.COV\AppData\Local\Temp\cckVMPE7.s:164    .text.SystemCoreClockUpdate:00000000 $t
C:\Users\RARES~1.COV\AppData\Local\Temp\cckVMPE7.s:171    .text.SystemCoreClockUpdate:00000000 SystemCoreClockUpdate
C:\Users\RARES~1.COV\AppData\Local\Temp\cckVMPE7.s:310    .text.SystemCoreClockUpdate:000000c8 $d
                     .debug_frame:00000010 $d

NO UNDEFINED SYMBOLS
